{
	"data": {
		"bytecode": {
			"linkReferences": {},
			"object": "608060405234801562000010575f80fd5b5060408051602081019091525f815233906200002c8162000077565b506001600160a01b0381166200005b57604051631e4fbdf760e01b81525f600482015260240160405180910390fd5b620000668162000089565b5062000071620000da565b62000746565b60026200008582826200067a565b5050565b600380546001600160a01b038381166001600160a01b0319831681179093556040519116919082907f8be0079c531659141344cd1fd0a4f28419497f9722a3daafe3b4186f6b6457e0905f90a35050565b60405180608001604052806040518060400160405280600c81526020016b119a5c9cdd0810dbdb5b5a5d60a21b81525081526020016040518060600160405280602881526020016200292f602891398152602001604051806060016040528060258152602001620028e760259139815260016020918201525f80526004905280517f17ef568e3e12ab5b9c7254a8d58478811de00f9e6eb34345acd53bf8fd09d3ec9081906200018b90826200067a565b5060208201516001820190620001a290826200067a565b5060408201516002820190620001b990826200067a565b506060820151816003015f6101000a81548160ff0219169083151502179055509050506040518060800160405280604051806040016040528060128152602001712932b837b9b4ba37b93c9021b932b0ba37b960711b81525081526020016040518060400160405280601d81526020017f4372656174656420796f7572206669727374207265706f7369746f72790000008152508152602001604051806060016040528060258152602001620029b0602591398152600160209182018190525f526004905280517fabd6e7cb50984ff9c2f3e18a2660c3353dadf4e3291deeb275dae2cd1e44fe05908190620002b090826200067a565b5060208201516001820190620002c790826200067a565b5060408201516002820190620002de90826200067a565b50606091820151600391909101805460ff19169115159190911790556040805160c081018252600b608082019081526a21b7b73a3934b13aba37b960a91b60a083015281528151928301909152602a80835290916020808401929062002986908301398152602001604051806060016040528060258152602001620028c2602591398152600160209182015260025f526004905280517f91da3fd0782e51c6b3986e9e672fd566868e71f3dbc2d6c2cd6fbb3e361af2a7908190620003a490826200067a565b5060208201516001820190620003bb90826200067a565b5060408201516002820190620003d290826200067a565b50606091820151600391909101805460ff19169115159190911790556040805160c081018252600a608082019081526926b0b4b73a30b4b732b960b11b60a083015281528151928301909152602f808352909160208084019290620029579083013981526020016040518060600160405280602481526020016200289e602491398152600160209182015260035f526004905280517f2e174c10e159ea99b867ce3205125c24a42d128804e4070ed6fcc8cc98166aa09081906200049790826200067a565b5060208201516001820190620004ae90826200067a565b5060408201516002820190620004c590826200067a565b50606091820151600391909101805460ff19169115159190911790556040805160c0810182526010608082019081526f20b1ba34bb32902232bb32b637b832b960811b60a0830152815281519283019091526022808352909160208084019290620029d59083013981526020016040518060600160405280602381526020016200290c602391398152600160209182015260045f819052905280517f1a1e6821cde7d0159c0d293177871e09677b4e42307c7db3ba94f8648a5a050f9081906200059090826200067a565b5060208201516001820190620005a790826200067a565b5060408201516002820190620005be90826200067a565b50606091909101516003909101805460ff1916911515919091179055565b634e487b7160e01b5f52604160045260245ffd5b600181811c908216806200060557607f821691505b6020821081036200062457634e487b7160e01b5f52602260045260245ffd5b50919050565b601f8211156200067557805f5260205f20601f840160051c81016020851015620006515750805b601f840160051c820191505b8181101562000672575f81556001016200065d565b50505b505050565b81516001600160401b03811115620006965762000696620005dc565b620006ae81620006a78454620005f0565b846200062a565b602080601f831160018114620006e4575f8415620006cc5750858301515b5f19600386901b1c1916600185901b1785556200073e565b5f85815260208120601f198616915b828110156200071457888601518255948401946001909101908401620006f3565b50858210156200073257878501515f19600388901b60f8161c191681555b505060018460011b0185555b505050505050565b61214a80620007545f395ff3fe608060405234801561000f575f80fd5b50600436106101d0575f3560e01c806374afd802116100fe578063b2b6b3e11161009e578063e97045b31161006e578063e97045b314610473578063e985e9c514610486578063f242432a146104c1578063f2fde38b146104cf575f80fd5b8063b2b6b3e1146103e5578063ddea3bc61461041d578063e2045b5e14610430578063e2d52e1d14610450575f80fd5b806391c26452116100d957806391c26452146103765780639a9ddd1614610389578063a22cb465146103a8578063ad49c906146103bb575f80fd5b806374afd8021461033657806377f30247146103495780638da5cb5b14610351575f80fd5b80632eb2c2d6116101745780634e1273f4116101445780634e1273f4146102de5780634e43603a146102fe57806361fa40dc14610326578063715018a61461032e575f80fd5b80632eb2c2d61461027557806337c245fe1461028857806344edf569146102aa5780634c6a70ce146102b1575f80fd5b8063170b7a7b116101af578063170b7a7b1461023d57806329e69ae0146102525780632aabb726146102655780632b578c701461026d575f80fd5b8062fdd58e146101d457806301ffc9a7146101fa5780630e89341c1461021d575b5f80fd5b6101e76101e2366004611798565b6104e2565b6040519081526020015b60405180910390f35b61020d6102083660046117d5565b610509565b60405190151581526020016101f1565b61023061022b3660046117f7565b610558565b6040516101f19190611851565b61025061024b366004611863565b610655565b005b6102506102603660046117f7565b6106e1565b6101e7600381565b6101e7600481565b6102506102833660046119d6565b610703565b61029b610296366004611a78565b61074b565b6040516101f193929190611acb565b6101e75f81565b61020d6102bf366004611798565b600560209081525f928352604080842090915290825290205460ff1681565b6102f16102ec366004611b4e565b6109f2565b6040516101f19190611c07565b61031161030c366004611a78565b610abc565b604080519283526020830191909152016101f1565b6101e7600281565b610250610b30565b610250610344366004611c19565b610b43565b6101e7600181565b6003546001600160a01b03165b6040516001600160a01b0390911681526020016101f1565b610250610384366004611a78565b610d05565b6101e7610397366004611a78565b60066020525f908152604090205481565b6102506103b6366004611c6b565b610d2f565b6101e76103c9366004611798565b600760209081525f928352604080842090915290825290205481565b61020d6103f3366004611798565b6001600160a01b03919091165f908152600560209081526040808320938352929052205460ff1690565b60085461035e906001600160a01b031681565b61044361043e3660046117f7565b610d3e565b6040516101f19190611ca4565b61046361045e3660046117f7565b610f48565b6040516101f19493929190611d14565b610250610481366004611d60565b611104565b61020d610494366004611deb565b6001600160a01b039182165f90815260016020908152604080832093909416825291909152205460ff1690565b610250610283366004611e1c565b6102506104dd366004611a78565b611160565b5f818152602081815260408083206001600160a01b03861684529091529020545b92915050565b5f6001600160e01b03198216636cdb3d1360e11b148061053957506001600160e01b031982166303a24d0760e21b145b8061050357506301ffc9a760e01b6001600160e01b0319831614610503565b5f8181526004602052604090206003015460609060ff166105b75760405162461bcd60e51b815260206004820152601460248201527310985919d948191bd95cc81b9bdd08195e1a5cdd60621b60448201526064015b60405180910390fd5b5f82815260046020526040902060020180546105d290611e7b565b80601f01602080910402602001604051908101604052809291908181526020018280546105fe90611e7b565b80156106495780601f1061062057610100808354040283529160200191610649565b820191905f5260205f20905b81548152906001019060200180831161062c57829003601f168201915b50505050509050919050565b6008546001600160a01b031633146106af5760405162461bcd60e51b815260206004820152601c60248201527f4f6e6c7920666163746f72792063616e206d696e74206261646765730000000060448201526064016105ae565b6001600160a01b0384165f90815260066020526040812080548392906106d6908490611ec7565b909155505050505050565b6106e961119d565b5f908152600460205260409020600301805460ff19169055565b60405162461bcd60e51b815260206004820152601b60248201527f42616467657320617265206e6f6e2d7472616e7366657261626c65000000000060448201526064016105ae565b60608060605f805b600481116107a6576001600160a01b0386165f90815260056020908152604080832084845290915290205460ff1615610794578161079081611eda565b9250505b8061079e81611eda565b915050610753565b50806001600160401b038111156107bf576107bf611899565b6040519080825280602002602001820160405280156107e8578160200160208202803683370190505b509350806001600160401b0381111561080357610803611899565b60405190808252806020026020018201604052801561083657816020015b60608152602001906001900390816108215790505b509250806001600160401b0381111561085157610851611899565b60405190808252806020026020018201604052801561087a578160200160208202803683370190505b5091505f805b600481116109e8576001600160a01b0387165f90815260056020908152604080832084845290915290205460ff16156109d657808683815181106108c6576108c6611ef2565b6020908102919091018101919091525f82815260049091526040902080546108ed90611e7b565b80601f016020809104026020016040519081016040528092919081815260200182805461091990611e7b565b80156109645780601f1061093b57610100808354040283529160200191610964565b820191905f5260205f20905b81548152906001019060200180831161094757829003601f168201915b505050505085838151811061097b5761097b611ef2565b6020908102919091018101919091526001600160a01b0388165f908152600782526040808220848352909252205484518590849081106109bd576109bd611ef2565b6020908102919091010152816109d281611eda565b9250505b806109e081611eda565b915050610880565b5050509193909250565b60608151835114610a235781518351604051635b05999160e01b8152600481019290925260248201526044016105ae565b5f83516001600160401b03811115610a3d57610a3d611899565b604051908082528060200260200182016040528015610a66578160200160208202803683370190505b5090505f5b8451811015610ab457602080820286010151610a8f906020808402870101516104e2565b828281518110610aa157610aa1611ef2565b6020908102919091010152600101610a6b565b509392505050565b6001600160a01b0381165f9081526006602052604081205490805b60048111610b2a576001600160a01b0384165f90815260056020908152604080832084845290915290205460ff1615610b185781610b1481611eda565b9250505b80610b2281611eda565b915050610ad7565b50915091565b610b3861119d565b610b415f6111ca565b565b6008546001600160a01b03163314610b9d5760405162461bcd60e51b815260206004820152601c60248201527f4f6e6c7920666163746f72792063616e206d696e74206261646765730000000060448201526064016105ae565b5f8281526004602052604090206003015460ff16610bf55760405162461bcd60e51b815260206004820152601560248201527442616467652074797065206e6f742061637469766560581b60448201526064016105ae565b6001600160a01b0383165f90815260056020908152604080832085845290915290205460ff1615610c5f5760405162461bcd60e51b815260206004820152601460248201527310985919d948185b1c9958591e4819585c9b995960621b60448201526064016105ae565b6001600160a01b0383165f8181526005602090815260408083208684528252808320805460ff1916600190811790915593835260078252808320868452825280832042905580519182019052908152610cbc91859185919061121b565b81836001600160a01b03167f99190284598c40568af7485390ce7c9b09c8f7ea380162938d3520c9327549688342604051610cf8929190611f06565b60405180910390a3505050565b610d0d61119d565b600880546001600160a01b0319166001600160a01b0392909216919091179055565b610d3a33838361127e565b5050565b610d6a60405180608001604052806060815260200160608152602001606081526020015f151581525090565b5f8281526004602052604090819020815160808101909252805482908290610d9190611e7b565b80601f0160208091040260200160405190810160405280929190818152602001828054610dbd90611e7b565b8015610e085780601f10610ddf57610100808354040283529160200191610e08565b820191905f5260205f20905b815481529060010190602001808311610deb57829003601f168201915b50505050508152602001600182018054610e2190611e7b565b80601f0160208091040260200160405190810160405280929190818152602001828054610e4d90611e7b565b8015610e985780601f10610e6f57610100808354040283529160200191610e98565b820191905f5260205f20905b815481529060010190602001808311610e7b57829003601f168201915b50505050508152602001600282018054610eb190611e7b565b80601f0160208091040260200160405190810160405280929190818152602001828054610edd90611e7b565b8015610f285780601f10610eff57610100808354040283529160200191610f28565b820191905f5260205f20905b815481529060010190602001808311610f0b57829003601f168201915b50505091835250506003919091015460ff16151560209091015292915050565b60046020525f9081526040902080548190610f6290611e7b565b80601f0160208091040260200160405190810160405280929190818152602001828054610f8e90611e7b565b8015610fd95780601f10610fb057610100808354040283529160200191610fd9565b820191905f5260205f20905b815481529060010190602001808311610fbc57829003601f168201915b505050505090806001018054610fee90611e7b565b80601f016020809104026020016040519081016040528092919081815260200182805461101a90611e7b565b80156110655780601f1061103c57610100808354040283529160200191611065565b820191905f5260205f20905b81548152906001019060200180831161104857829003601f168201915b50505050509080600201805461107a90611e7b565b80601f01602080910402602001604051908101604052809291908181526020018280546110a690611e7b565b80156110f15780601f106110c8576101008083540402835291602001916110f1565b820191905f5260205f20905b8154815290600101906020018083116110d457829003601f168201915b5050506003909301549192505060ff1684565b61110c61119d565b5f8481526004602052604090206111238482611f70565b505f84815260046020526040902060010161113e8382611f70565b505f8481526004602052604090206002016111598282611f70565b5050505050565b61116861119d565b6001600160a01b03811661119157604051631e4fbdf760e01b81525f60048201526024016105ae565b61119a816111ca565b50565b6003546001600160a01b03163314610b415760405163118cdaa760e01b81523360048201526024016105ae565b600380546001600160a01b038381166001600160a01b0319831681179093556040519116919082907f8be0079c531659141344cd1fd0a4f28419497f9722a3daafe3b4186f6b6457e0905f90a35050565b6001600160a01b03841661124457604051632bfa23e760e11b81525f60048201526024016105ae565b604080516001808252602082018690528183019081526060820185905260808201909252906112765f8784848761130a565b505050505050565b6001600160a01b0382166112a65760405162ced3e160e81b81525f60048201526024016105ae565b6001600160a01b038381165f81815260016020908152604080832094871680845294825291829020805460ff191686151590811790915591519182527f17307eab39ab6107e8899845ad3d59bd9653f200f220920489ca2b5937696c319101610cf8565b6113168585858561135d565b6001600160a01b03841615611159578251339060010361134f576020848101519084015161134883898985858961156c565b5050611276565b611276818787878787611696565b805182511461138c5781518151604051635b05999160e01b8152600481019290925260248201526044016105ae565b335f5b835181101561148e576020818102858101820151908501909101516001600160a01b03881615611440575f828152602081815260408083206001600160a01b038c1684529091529020548181101561141a576040516303dee4c560e01b81526001600160a01b038a1660048201526024810182905260448101839052606481018490526084016105ae565b5f838152602081815260408083206001600160a01b038d16845290915290209082900390555b6001600160a01b03871615611484575f828152602081815260408083206001600160a01b038b1684529091528120805483929061147e908490611ec7565b90915550505b505060010161138f565b50825160010361150e5760208301515f906020840151909150856001600160a01b0316876001600160a01b0316846001600160a01b03167fc3d58168c5ae7397731d063d5bbf3d657854427343f4c083240f7aacaa2d0f6285856040516114ff929190918252602082015260400190565b60405180910390a45050611159565b836001600160a01b0316856001600160a01b0316826001600160a01b03167f4a39dc06d4c0dbc64b70af90fd698a233a518aa5d07e595d983b8c0526c8f7fb868660405161155d92919061202b565b60405180910390a45050505050565b6001600160a01b0384163b156112765760405163f23a6e6160e01b81526001600160a01b0385169063f23a6e61906115b09089908990889088908890600401612058565b6020604051808303815f875af19250505080156115ea575060408051601f3d908101601f191682019092526115e79181019061209c565b60015b611651573d808015611617576040519150601f19603f3d011682016040523d82523d5f602084013e61161c565b606091505b5080515f0361164957604051632bfa23e760e11b81526001600160a01b03861660048201526024016105ae565b805160208201fd5b6001600160e01b0319811663f23a6e6160e01b1461168d57604051632bfa23e760e11b81526001600160a01b03861660048201526024016105ae565b50505050505050565b6001600160a01b0384163b156112765760405163bc197c8160e01b81526001600160a01b0385169063bc197c81906116da90899089908890889088906004016120b7565b6020604051808303815f875af1925050508015611714575060408051601f3d908101601f191682019092526117119181019061209c565b60015b611741573d808015611617576040519150601f19603f3d011682016040523d82523d5f602084013e61161c565b6001600160e01b0319811663bc197c8160e01b1461168d57604051632bfa23e760e11b81526001600160a01b03861660048201526024016105ae565b80356001600160a01b0381168114611793575f80fd5b919050565b5f80604083850312156117a9575f80fd5b6117b28361177d565b946020939093013593505050565b6001600160e01b03198116811461119a575f80fd5b5f602082840312156117e5575f80fd5b81356117f0816117c0565b9392505050565b5f60208284031215611807575f80fd5b5035919050565b5f81518084525f5b8181101561183257602081850181015186830182015201611816565b505f602082860101526020601f19601f83011685010191505092915050565b602081525f6117f0602083018461180e565b5f805f8060808587031215611876575f80fd5b61187f8561177d565b966020860135965060408601359560600135945092505050565b634e487b7160e01b5f52604160045260245ffd5b604051601f8201601f191681016001600160401b03811182821017156118d5576118d5611899565b604052919050565b5f6001600160401b038211156118f5576118f5611899565b5060051b60200190565b5f82601f83011261190e575f80fd5b8135602061192361191e836118dd565b6118ad565b8083825260208201915060208460051b870101935086841115611944575f80fd5b602086015b848110156119605780358352918301918301611949565b509695505050505050565b5f82601f83011261197a575f80fd5b81356001600160401b0381111561199357611993611899565b6119a6601f8201601f19166020016118ad565b8181528460208386010111156119ba575f80fd5b816020850160208301375f918101602001919091529392505050565b5f805f805f60a086880312156119ea575f80fd5b6119f38661177d565b9450611a016020870161177d565b935060408601356001600160401b0380821115611a1c575f80fd5b611a2889838a016118ff565b94506060880135915080821115611a3d575f80fd5b611a4989838a016118ff565b93506080880135915080821115611a5e575f80fd5b50611a6b8882890161196b565b9150509295509295909350565b5f60208284031215611a88575f80fd5b6117f08261177d565b5f815180845260208085019450602084015f5b83811015611ac057815187529582019590820190600101611aa4565b509495945050505050565b606081525f611add6060830186611a91565b6020838203818501528186518084528284019150828160051b8501018389015f5b83811015611b2c57601f19878403018552611b1a83835161180e565b94860194925090850190600101611afe565b50508681036040880152611b408189611a91565b9a9950505050505050505050565b5f8060408385031215611b5f575f80fd5b82356001600160401b0380821115611b75575f80fd5b818501915085601f830112611b88575f80fd5b81356020611b9861191e836118dd565b82815260059290921b84018101918181019089841115611bb6575f80fd5b948201945b83861015611bdb57611bcc8661177d565b82529482019490820190611bbb565b96505086013592505080821115611bf0575f80fd5b50611bfd858286016118ff565b9150509250929050565b602081525f6117f06020830184611a91565b5f805f60608486031215611c2b575f80fd5b611c348461177d565b92506020840135915060408401356001600160401b03811115611c55575f80fd5b611c618682870161196b565b9150509250925092565b5f8060408385031215611c7c575f80fd5b611c858361177d565b915060208301358015158114611c99575f80fd5b809150509250929050565b602081525f825160806020840152611cbf60a084018261180e565b90506020840151601f1980858403016040860152611cdd838361180e565b9250604086015191508085840301606086015250611cfb828261180e565b9150506060840151151560808401528091505092915050565b608081525f611d26608083018761180e565b8281036020840152611d38818761180e565b90508281036040840152611d4c818661180e565b915050821515606083015295945050505050565b5f805f8060808587031215611d73575f80fd5b8435935060208501356001600160401b0380821115611d90575f80fd5b611d9c8883890161196b565b94506040870135915080821115611db1575f80fd5b611dbd8883890161196b565b93506060870135915080821115611dd2575f80fd5b50611ddf8782880161196b565b91505092959194509250565b5f8060408385031215611dfc575f80fd5b611e058361177d565b9150611e136020840161177d565b90509250929050565b5f805f805f60a08688031215611e30575f80fd5b611e398661177d565b9450611e476020870161177d565b9350604086013592506060860135915060808601356001600160401b03811115611e6f575f80fd5b611a6b8882890161196b565b600181811c90821680611e8f57607f821691505b602082108103611ead57634e487b7160e01b5f52602260045260245ffd5b50919050565b634e487b7160e01b5f52601160045260245ffd5b8082018082111561050357610503611eb3565b5f60018201611eeb57611eeb611eb3565b5060010190565b634e487b7160e01b5f52603260045260245ffd5b604081525f611f18604083018561180e565b90508260208301529392505050565b601f821115611f6b57805f5260205f20601f840160051c81016020851015611f4c5750805b601f840160051c820191505b81811015611159575f8155600101611f58565b505050565b81516001600160401b03811115611f8957611f89611899565b611f9d81611f978454611e7b565b84611f27565b602080601f831160018114611fd0575f8415611fb95750858301515b5f19600386901b1c1916600185901b178555611276565b5f85815260208120601f198616915b82811015611ffe57888601518255948401946001909101908401611fdf565b508582101561201b57878501515f19600388901b60f8161c191681555b5050505050600190811b01905550565b604081525f61203d6040830185611a91565b828103602084015261204f8185611a91565b95945050505050565b6001600160a01b03868116825285166020820152604081018490526060810183905260a0608082018190525f906120919083018461180e565b979650505050505050565b5f602082840312156120ac575f80fd5b81516117f0816117c0565b6001600160a01b0386811682528516602082015260a0604082018190525f906120e290830186611a91565b82810360608401526120f48186611a91565b90508281036080840152612108818561180e565b9897505050505050505056fea26469706673582212202f190000d4bcbc99dd0f0906f74ea8e8e6f941ebaef4ab6c169d0e179fd83aab64736f6c63430008180033697066733a2f2f516d4d61696e7461696e65722e2e2e2f6d657461646174612e6a736f6e697066733a2f2f516d436f6e7472696275746f722e2e2e2f6d657461646174612e6a736f6e697066733a2f2f516d4669727374436f6d6d69742e2e2e2f6d657461646174612e6a736f6e697066733a2f2f516d4163746976654465762e2e2e2f6d657461646174612e6a736f6e4d61646520796f757220666972737420636f6d6d697420746f20616e79207265706f7369746f7279417070726f766564203130206f72206d6f726520636f6d6d697473206173207265706f7369746f7279206f776e65724d6164652035206f72206d6f726520636f6d6d697473206163726f7373207265706f7369746f72696573697066733a2f2f516d5265706f43726561746f722e2e2e2f6d657461646174612e6a736f6e4d6164652033302b20636f6d6d69747320696e20746865206c617374206d6f6e7468",
			"opcodes": "PUSH1 0x80 PUSH1 0x40 MSTORE CALLVALUE DUP1 ISZERO PUSH3 0x10 JUMPI PUSH0 DUP1 REVERT JUMPDEST POP PUSH1 0x40 DUP1 MLOAD PUSH1 0x20 DUP2 ADD SWAP1 SWAP2 MSTORE PUSH0 DUP2 MSTORE CALLER SWAP1 PUSH3 0x2C DUP2 PUSH3 0x77 JUMP JUMPDEST POP PUSH1 0x1 PUSH1 0x1 PUSH1 0xA0 SHL SUB DUP2 AND PUSH3 0x5B JUMPI PUSH1 0x40 MLOAD PUSH4 0x1E4FBDF7 PUSH1 0xE0 SHL DUP2 MSTORE PUSH0 PUSH1 0x4 DUP3 ADD MSTORE PUSH1 0x24 ADD PUSH1 0x40 MLOAD DUP1 SWAP2 SUB SWAP1 REVERT JUMPDEST PUSH3 0x66 DUP2 PUSH3 0x89 JUMP JUMPDEST POP PUSH3 0x71 PUSH3 0xDA JUMP JUMPDEST PUSH3 0x746 JUMP JUMPDEST PUSH1 0x2 PUSH3 0x85 DUP3 DUP3 PUSH3 0x67A JUMP JUMPDEST POP POP JUMP JUMPDEST PUSH1 0x3 DUP1 SLOAD PUSH1 0x1 PUSH1 0x1 PUSH1 0xA0 SHL SUB DUP4 DUP2 AND PUSH1 0x1 PUSH1 0x1 PUSH1 0xA0 SHL SUB NOT DUP4 AND DUP2 OR SWAP1 SWAP4 SSTORE PUSH1 0x40 MLOAD SWAP2 AND SWAP2 SWAP1 DUP3 SWAP1 PUSH32 0x8BE0079C531659141344CD1FD0A4F28419497F9722A3DAAFE3B4186F6B6457E0 SWAP1 PUSH0 SWAP1 LOG3 POP POP JUMP JUMPDEST PUSH1 0x40 MLOAD DUP1 PUSH1 0x80 ADD PUSH1 0x40 MSTORE DUP1 PUSH1 0x40 MLOAD DUP1 PUSH1 0x40 ADD PUSH1 0x40 MSTORE DUP1 PUSH1 0xC DUP2 MSTORE PUSH1 0x20 ADD PUSH12 0x119A5C9CDD0810DBDB5B5A5D PUSH1 0xA2 SHL DUP2 MSTORE POP DUP2 MSTORE PUSH1 0x20 ADD PUSH1 0x40 MLOAD DUP1 PUSH1 0x60 ADD PUSH1 0x40 MSTORE DUP1 PUSH1 0x28 DUP2 MSTORE PUSH1 0x20 ADD PUSH3 0x292F PUSH1 0x28 SWAP2 CODECOPY DUP2 MSTORE PUSH1 0x20 ADD PUSH1 0x40 MLOAD DUP1 PUSH1 0x60 ADD PUSH1 0x40 MSTORE DUP1 PUSH1 0x25 DUP2 MSTORE PUSH1 0x20 ADD PUSH3 0x28E7 PUSH1 0x25 SWAP2 CODECOPY DUP2 MSTORE PUSH1 0x1 PUSH1 0x20 SWAP2 DUP3 ADD MSTORE PUSH0 DUP1 MSTORE PUSH1 0x4 SWAP1 MSTORE DUP1 MLOAD PUSH32 0x17EF568E3E12AB5B9C7254A8D58478811DE00F9E6EB34345ACD53BF8FD09D3EC SWAP1 DUP2 SWAP1 PUSH3 0x18B SWAP1 DUP3 PUSH3 0x67A JUMP JUMPDEST POP PUSH1 0x20 DUP3 ADD MLOAD PUSH1 0x1 DUP3 ADD SWAP1 PUSH3 0x1A2 SWAP1 DUP3 PUSH3 0x67A JUMP JUMPDEST POP PUSH1 0x40 DUP3 ADD MLOAD PUSH1 0x2 DUP3 ADD SWAP1 PUSH3 0x1B9 SWAP1 DUP3 PUSH3 0x67A JUMP JUMPDEST POP PUSH1 0x60 DUP3 ADD MLOAD DUP2 PUSH1 0x3 ADD PUSH0 PUSH2 0x100 EXP DUP2 SLOAD DUP2 PUSH1 0xFF MUL NOT AND SWAP1 DUP4 ISZERO ISZERO MUL OR SWAP1 SSTORE POP SWAP1 POP POP PUSH1 0x40 MLOAD DUP1 PUSH1 0x80 ADD PUSH1 0x40 MSTORE DUP1 PUSH1 0x40 MLOAD DUP1 PUSH1 0x40 ADD PUSH1 0x40 MSTORE DUP1 PUSH1 0x12 DUP2 MSTORE PUSH1 0x20 ADD PUSH18 0x2932B837B9B4BA37B93C9021B932B0BA37B9 PUSH1 0x71 SHL DUP2 MSTORE POP DUP2 MSTORE PUSH1 0x20 ADD PUSH1 0x40 MLOAD DUP1 PUSH1 0x40 ADD PUSH1 0x40 MSTORE DUP1 PUSH1 0x1D DUP2 MSTORE PUSH1 0x20 ADD PUSH32 0x4372656174656420796F7572206669727374207265706F7369746F7279000000 DUP2 MSTORE POP DUP2 MSTORE PUSH1 0x20 ADD PUSH1 0x40 MLOAD DUP1 PUSH1 0x60 ADD PUSH1 0x40 MSTORE DUP1 PUSH1 0x25 DUP2 MSTORE PUSH1 0x20 ADD PUSH3 0x29B0 PUSH1 0x25 SWAP2 CODECOPY DUP2 MSTORE PUSH1 0x1 PUSH1 0x20 SWAP2 DUP3 ADD DUP2 SWAP1 MSTORE PUSH0 MSTORE PUSH1 0x4 SWAP1 MSTORE DUP1 MLOAD PUSH32 0xABD6E7CB50984FF9C2F3E18A2660C3353DADF4E3291DEEB275DAE2CD1E44FE05 SWAP1 DUP2 SWAP1 PUSH3 0x2B0 SWAP1 DUP3 PUSH3 0x67A JUMP JUMPDEST POP PUSH1 0x20 DUP3 ADD MLOAD PUSH1 0x1 DUP3 ADD SWAP1 PUSH3 0x2C7 SWAP1 DUP3 PUSH3 0x67A JUMP JUMPDEST POP PUSH1 0x40 DUP3 ADD MLOAD PUSH1 0x2 DUP3 ADD SWAP1 PUSH3 0x2DE SWAP1 DUP3 PUSH3 0x67A JUMP JUMPDEST POP PUSH1 0x60 SWAP2 DUP3 ADD MLOAD PUSH1 0x3 SWAP2 SWAP1 SWAP2 ADD DUP1 SLOAD PUSH1 0xFF NOT AND SWAP2 ISZERO ISZERO SWAP2 SWAP1 SWAP2 OR SWAP1 SSTORE PUSH1 0x40 DUP1 MLOAD PUSH1 0xC0 DUP2 ADD DUP3 MSTORE PUSH1 0xB PUSH1 0x80 DUP3 ADD SWAP1 DUP2 MSTORE PUSH11 0x21B7B73A3934B13ABA37B9 PUSH1 0xA9 SHL PUSH1 0xA0 DUP4 ADD MSTORE DUP2 MSTORE DUP2 MLOAD SWAP3 DUP4 ADD SWAP1 SWAP2 MSTORE PUSH1 0x2A DUP1 DUP4 MSTORE SWAP1 SWAP2 PUSH1 0x20 DUP1 DUP5 ADD SWAP3 SWAP1 PUSH3 0x2986 SWAP1 DUP4 ADD CODECOPY DUP2 MSTORE PUSH1 0x20 ADD PUSH1 0x40 MLOAD DUP1 PUSH1 0x60 ADD PUSH1 0x40 MSTORE DUP1 PUSH1 0x25 DUP2 MSTORE PUSH1 0x20 ADD PUSH3 0x28C2 PUSH1 0x25 SWAP2 CODECOPY DUP2 MSTORE PUSH1 0x1 PUSH1 0x20 SWAP2 DUP3 ADD MSTORE PUSH1 0x2 PUSH0 MSTORE PUSH1 0x4 SWAP1 MSTORE DUP1 MLOAD PUSH32 0x91DA3FD0782E51C6B3986E9E672FD566868E71F3DBC2D6C2CD6FBB3E361AF2A7 SWAP1 DUP2 SWAP1 PUSH3 0x3A4 SWAP1 DUP3 PUSH3 0x67A JUMP JUMPDEST POP PUSH1 0x20 DUP3 ADD MLOAD PUSH1 0x1 DUP3 ADD SWAP1 PUSH3 0x3BB SWAP1 DUP3 PUSH3 0x67A JUMP JUMPDEST POP PUSH1 0x40 DUP3 ADD MLOAD PUSH1 0x2 DUP3 ADD SWAP1 PUSH3 0x3D2 SWAP1 DUP3 PUSH3 0x67A JUMP JUMPDEST POP PUSH1 0x60 SWAP2 DUP3 ADD MLOAD PUSH1 0x3 SWAP2 SWAP1 SWAP2 ADD DUP1 SLOAD PUSH1 0xFF NOT AND SWAP2 ISZERO ISZERO SWAP2 SWAP1 SWAP2 OR SWAP1 SSTORE PUSH1 0x40 DUP1 MLOAD PUSH1 0xC0 DUP2 ADD DUP3 MSTORE PUSH1 0xA PUSH1 0x80 DUP3 ADD SWAP1 DUP2 MSTORE PUSH10 0x26B0B4B73A30B4B732B9 PUSH1 0xB1 SHL PUSH1 0xA0 DUP4 ADD MSTORE DUP2 MSTORE DUP2 MLOAD SWAP3 DUP4 ADD SWAP1 SWAP2 MSTORE PUSH1 0x2F DUP1 DUP4 MSTORE SWAP1 SWAP2 PUSH1 0x20 DUP1 DUP5 ADD SWAP3 SWAP1 PUSH3 0x2957 SWAP1 DUP4 ADD CODECOPY DUP2 MSTORE PUSH1 0x20 ADD PUSH1 0x40 MLOAD DUP1 PUSH1 0x60 ADD PUSH1 0x40 MSTORE DUP1 PUSH1 0x24 DUP2 MSTORE PUSH1 0x20 ADD PUSH3 0x289E PUSH1 0x24 SWAP2 CODECOPY DUP2 MSTORE PUSH1 0x1 PUSH1 0x20 SWAP2 DUP3 ADD MSTORE PUSH1 0x3 PUSH0 MSTORE PUSH1 0x4 SWAP1 MSTORE DUP1 MLOAD PUSH32 0x2E174C10E159EA99B867CE3205125C24A42D128804E4070ED6FCC8CC98166AA0 SWAP1 DUP2 SWAP1 PUSH3 0x497 SWAP1 DUP3 PUSH3 0x67A JUMP JUMPDEST POP PUSH1 0x20 DUP3 ADD MLOAD PUSH1 0x1 DUP3 ADD SWAP1 PUSH3 0x4AE SWAP1 DUP3 PUSH3 0x67A JUMP JUMPDEST POP PUSH1 0x40 DUP3 ADD MLOAD PUSH1 0x2 DUP3 ADD SWAP1 PUSH3 0x4C5 SWAP1 DUP3 PUSH3 0x67A JUMP JUMPDEST POP PUSH1 0x60 SWAP2 DUP3 ADD MLOAD PUSH1 0x3 SWAP2 SWAP1 SWAP2 ADD DUP1 SLOAD PUSH1 0xFF NOT AND SWAP2 ISZERO ISZERO SWAP2 SWAP1 SWAP2 OR SWAP1 SSTORE PUSH1 0x40 DUP1 MLOAD PUSH1 0xC0 DUP2 ADD DUP3 MSTORE PUSH1 0x10 PUSH1 0x80 DUP3 ADD SWAP1 DUP2 MSTORE PUSH16 0x20B1BA34BB32902232BB32B637B832B9 PUSH1 0x81 SHL PUSH1 0xA0 DUP4 ADD MSTORE DUP2 MSTORE DUP2 MLOAD SWAP3 DUP4 ADD SWAP1 SWAP2 MSTORE PUSH1 0x22 DUP1 DUP4 MSTORE SWAP1 SWAP2 PUSH1 0x20 DUP1 DUP5 ADD SWAP3 SWAP1 PUSH3 0x29D5 SWAP1 DUP4 ADD CODECOPY DUP2 MSTORE PUSH1 0x20 ADD PUSH1 0x40 MLOAD DUP1 PUSH1 0x60 ADD PUSH1 0x40 MSTORE DUP1 PUSH1 0x23 DUP2 MSTORE PUSH1 0x20 ADD PUSH3 0x290C PUSH1 0x23 SWAP2 CODECOPY DUP2 MSTORE PUSH1 0x1 PUSH1 0x20 SWAP2 DUP3 ADD MSTORE PUSH1 0x4 PUSH0 DUP2 SWAP1 MSTORE SWAP1 MSTORE DUP1 MLOAD PUSH32 0x1A1E6821CDE7D0159C0D293177871E09677B4E42307C7DB3BA94F8648A5A050F SWAP1 DUP2 SWAP1 PUSH3 0x590 SWAP1 DUP3 PUSH3 0x67A JUMP JUMPDEST POP PUSH1 0x20 DUP3 ADD MLOAD PUSH1 0x1 DUP3 ADD SWAP1 PUSH3 0x5A7 SWAP1 DUP3 PUSH3 0x67A JUMP JUMPDEST POP PUSH1 0x40 DUP3 ADD MLOAD PUSH1 0x2 DUP3 ADD SWAP1 PUSH3 0x5BE SWAP1 DUP3 PUSH3 0x67A JUMP JUMPDEST POP PUSH1 0x60 SWAP2 SWAP1 SWAP2 ADD MLOAD PUSH1 0x3 SWAP1 SWAP2 ADD DUP1 SLOAD PUSH1 0xFF NOT AND SWAP2 ISZERO ISZERO SWAP2 SWAP1 SWAP2 OR SWAP1 SSTORE JUMP JUMPDEST PUSH4 0x4E487B71 PUSH1 0xE0 SHL PUSH0 MSTORE PUSH1 0x41 PUSH1 0x4 MSTORE PUSH1 0x24 PUSH0 REVERT JUMPDEST PUSH1 0x1 DUP2 DUP2 SHR SWAP1 DUP3 AND DUP1 PUSH3 0x605 JUMPI PUSH1 0x7F DUP3 AND SWAP2 POP JUMPDEST PUSH1 0x20 DUP3 LT DUP2 SUB PUSH3 0x624 JUMPI PUSH4 0x4E487B71 PUSH1 0xE0 SHL PUSH0 MSTORE PUSH1 0x22 PUSH1 0x4 MSTORE PUSH1 0x24 PUSH0 REVERT JUMPDEST POP SWAP2 SWAP1 POP JUMP JUMPDEST PUSH1 0x1F DUP3 GT ISZERO PUSH3 0x675 JUMPI DUP1 PUSH0 MSTORE PUSH1 0x20 PUSH0 KECCAK256 PUSH1 0x1F DUP5 ADD PUSH1 0x5 SHR DUP2 ADD PUSH1 0x20 DUP6 LT ISZERO PUSH3 0x651 JUMPI POP DUP1 JUMPDEST PUSH1 0x1F DUP5 ADD PUSH1 0x5 SHR DUP3 ADD SWAP2 POP JUMPDEST DUP2 DUP2 LT ISZERO PUSH3 0x672 JUMPI PUSH0 DUP2 SSTORE PUSH1 0x1 ADD PUSH3 0x65D JUMP JUMPDEST POP POP JUMPDEST POP POP POP JUMP JUMPDEST DUP2 MLOAD PUSH1 0x1 PUSH1 0x1 PUSH1 0x40 SHL SUB DUP2 GT ISZERO PUSH3 0x696 JUMPI PUSH3 0x696 PUSH3 0x5DC JUMP JUMPDEST PUSH3 0x6AE DUP2 PUSH3 0x6A7 DUP5 SLOAD PUSH3 0x5F0 JUMP JUMPDEST DUP5 PUSH3 0x62A JUMP JUMPDEST PUSH1 0x20 DUP1 PUSH1 0x1F DUP4 GT PUSH1 0x1 DUP2 EQ PUSH3 0x6E4 JUMPI PUSH0 DUP5 ISZERO PUSH3 0x6CC JUMPI POP DUP6 DUP4 ADD MLOAD JUMPDEST PUSH0 NOT PUSH1 0x3 DUP7 SWAP1 SHL SHR NOT AND PUSH1 0x1 DUP6 SWAP1 SHL OR DUP6 SSTORE PUSH3 0x73E JUMP JUMPDEST PUSH0 DUP6 DUP2 MSTORE PUSH1 0x20 DUP2 KECCAK256 PUSH1 0x1F NOT DUP7 AND SWAP2 JUMPDEST DUP3 DUP2 LT ISZERO PUSH3 0x714 JUMPI DUP9 DUP7 ADD MLOAD DUP3 SSTORE SWAP5 DUP5 ADD SWAP5 PUSH1 0x1 SWAP1 SWAP2 ADD SWAP1 DUP5 ADD PUSH3 0x6F3 JUMP JUMPDEST POP DUP6 DUP3 LT ISZERO PUSH3 0x732 JUMPI DUP8 DUP6 ADD MLOAD PUSH0 NOT PUSH1 0x3 DUP9 SWAP1 SHL PUSH1 0xF8 AND SHR NOT AND DUP2 SSTORE JUMPDEST POP POP PUSH1 0x1 DUP5 PUSH1 0x1 SHL ADD DUP6 SSTORE JUMPDEST POP POP POP POP POP POP JUMP JUMPDEST PUSH2 0x214A DUP1 PUSH3 0x754 PUSH0 CODECOPY PUSH0 RETURN INVALID PUSH1 0x80 PUSH1 0x40 MSTORE CALLVALUE DUP1 ISZERO PUSH2 0xF JUMPI PUSH0 DUP1 REVERT JUMPDEST POP PUSH1 0x4 CALLDATASIZE LT PUSH2 0x1D0 JUMPI PUSH0 CALLDATALOAD PUSH1 0xE0 SHR DUP1 PUSH4 0x74AFD802 GT PUSH2 0xFE JUMPI DUP1 PUSH4 0xB2B6B3E1 GT PUSH2 0x9E JUMPI DUP1 PUSH4 0xE97045B3 GT PUSH2 0x6E JUMPI DUP1 PUSH4 0xE97045B3 EQ PUSH2 0x473 JUMPI DUP1 PUSH4 0xE985E9C5 EQ PUSH2 0x486 JUMPI DUP1 PUSH4 0xF242432A EQ PUSH2 0x4C1 JUMPI DUP1 PUSH4 0xF2FDE38B EQ PUSH2 0x4CF JUMPI PUSH0 DUP1 REVERT JUMPDEST DUP1 PUSH4 0xB2B6B3E1 EQ PUSH2 0x3E5 JUMPI DUP1 PUSH4 0xDDEA3BC6 EQ PUSH2 0x41D JUMPI DUP1 PUSH4 0xE2045B5E EQ PUSH2 0x430 JUMPI DUP1 PUSH4 0xE2D52E1D EQ PUSH2 0x450 JUMPI PUSH0 DUP1 REVERT JUMPDEST DUP1 PUSH4 0x91C26452 GT PUSH2 0xD9 JUMPI DUP1 PUSH4 0x91C26452 EQ PUSH2 0x376 JUMPI DUP1 PUSH4 0x9A9DDD16 EQ PUSH2 0x389 JUMPI DUP1 PUSH4 0xA22CB465 EQ PUSH2 0x3A8 JUMPI DUP1 PUSH4 0xAD49C906 EQ PUSH2 0x3BB JUMPI PUSH0 DUP1 REVERT JUMPDEST DUP1 PUSH4 0x74AFD802 EQ PUSH2 0x336 JUMPI DUP1 PUSH4 0x77F30247 EQ PUSH2 0x349 JUMPI DUP1 PUSH4 0x8DA5CB5B EQ PUSH2 0x351 JUMPI PUSH0 DUP1 REVERT JUMPDEST DUP1 PUSH4 0x2EB2C2D6 GT PUSH2 0x174 JUMPI DUP1 PUSH4 0x4E1273F4 GT PUSH2 0x144 JUMPI DUP1 PUSH4 0x4E1273F4 EQ PUSH2 0x2DE JUMPI DUP1 PUSH4 0x4E43603A EQ PUSH2 0x2FE JUMPI DUP1 PUSH4 0x61FA40DC EQ PUSH2 0x326 JUMPI DUP1 PUSH4 0x715018A6 EQ PUSH2 0x32E JUMPI PUSH0 DUP1 REVERT JUMPDEST DUP1 PUSH4 0x2EB2C2D6 EQ PUSH2 0x275 JUMPI DUP1 PUSH4 0x37C245FE EQ PUSH2 0x288 JUMPI DUP1 PUSH4 0x44EDF569 EQ PUSH2 0x2AA JUMPI DUP1 PUSH4 0x4C6A70CE EQ PUSH2 0x2B1 JUMPI PUSH0 DUP1 REVERT JUMPDEST DUP1 PUSH4 0x170B7A7B GT PUSH2 0x1AF JUMPI DUP1 PUSH4 0x170B7A7B EQ PUSH2 0x23D JUMPI DUP1 PUSH4 0x29E69AE0 EQ PUSH2 0x252 JUMPI DUP1 PUSH4 0x2AABB726 EQ PUSH2 0x265 JUMPI DUP1 PUSH4 0x2B578C70 EQ PUSH2 0x26D JUMPI PUSH0 DUP1 REVERT JUMPDEST DUP1 PUSH3 0xFDD58E EQ PUSH2 0x1D4 JUMPI DUP1 PUSH4 0x1FFC9A7 EQ PUSH2 0x1FA JUMPI DUP1 PUSH4 0xE89341C EQ PUSH2 0x21D JUMPI JUMPDEST PUSH0 DUP1 REVERT JUMPDEST PUSH2 0x1E7 PUSH2 0x1E2 CALLDATASIZE PUSH1 0x4 PUSH2 0x1798 JUMP JUMPDEST PUSH2 0x4E2 JUMP JUMPDEST PUSH1 0x40 MLOAD SWAP1 DUP2 MSTORE PUSH1 0x20 ADD JUMPDEST PUSH1 0x40 MLOAD DUP1 SWAP2 SUB SWAP1 RETURN JUMPDEST PUSH2 0x20D PUSH2 0x208 CALLDATASIZE PUSH1 0x4 PUSH2 0x17D5 JUMP JUMPDEST PUSH2 0x509 JUMP JUMPDEST PUSH1 0x40 MLOAD SWAP1 ISZERO ISZERO DUP2 MSTORE PUSH1 0x20 ADD PUSH2 0x1F1 JUMP JUMPDEST PUSH2 0x230 PUSH2 0x22B CALLDATASIZE PUSH1 0x4 PUSH2 0x17F7 JUMP JUMPDEST PUSH2 0x558 JUMP JUMPDEST PUSH1 0x40 MLOAD PUSH2 0x1F1 SWAP2 SWAP1 PUSH2 0x1851 JUMP JUMPDEST PUSH2 0x250 PUSH2 0x24B CALLDATASIZE PUSH1 0x4 PUSH2 0x1863 JUMP JUMPDEST PUSH2 0x655 JUMP JUMPDEST STOP JUMPDEST PUSH2 0x250 PUSH2 0x260 CALLDATASIZE PUSH1 0x4 PUSH2 0x17F7 JUMP JUMPDEST PUSH2 0x6E1 JUMP JUMPDEST PUSH2 0x1E7 PUSH1 0x3 DUP2 JUMP JUMPDEST PUSH2 0x1E7 PUSH1 0x4 DUP2 JUMP JUMPDEST PUSH2 0x250 PUSH2 0x283 CALLDATASIZE PUSH1 0x4 PUSH2 0x19D6 JUMP JUMPDEST PUSH2 0x703 JUMP JUMPDEST PUSH2 0x29B PUSH2 0x296 CALLDATASIZE PUSH1 0x4 PUSH2 0x1A78 JUMP JUMPDEST PUSH2 0x74B JUMP JUMPDEST PUSH1 0x40 MLOAD PUSH2 0x1F1 SWAP4 SWAP3 SWAP2 SWAP1 PUSH2 0x1ACB JUMP JUMPDEST PUSH2 0x1E7 PUSH0 DUP2 JUMP JUMPDEST PUSH2 0x20D PUSH2 0x2BF CALLDATASIZE PUSH1 0x4 PUSH2 0x1798 JUMP JUMPDEST PUSH1 0x5 PUSH1 0x20 SWAP1 DUP2 MSTORE PUSH0 SWAP3 DUP4 MSTORE PUSH1 0x40 DUP1 DUP5 KECCAK256 SWAP1 SWAP2 MSTORE SWAP1 DUP3 MSTORE SWAP1 KECCAK256 SLOAD PUSH1 0xFF AND DUP2 JUMP JUMPDEST PUSH2 0x2F1 PUSH2 0x2EC CALLDATASIZE PUSH1 0x4 PUSH2 0x1B4E JUMP JUMPDEST PUSH2 0x9F2 JUMP JUMPDEST PUSH1 0x40 MLOAD PUSH2 0x1F1 SWAP2 SWAP1 PUSH2 0x1C07 JUMP JUMPDEST PUSH2 0x311 PUSH2 0x30C CALLDATASIZE PUSH1 0x4 PUSH2 0x1A78 JUMP JUMPDEST PUSH2 0xABC JUMP JUMPDEST PUSH1 0x40 DUP1 MLOAD SWAP3 DUP4 MSTORE PUSH1 0x20 DUP4 ADD SWAP2 SWAP1 SWAP2 MSTORE ADD PUSH2 0x1F1 JUMP JUMPDEST PUSH2 0x1E7 PUSH1 0x2 DUP2 JUMP JUMPDEST PUSH2 0x250 PUSH2 0xB30 JUMP JUMPDEST PUSH2 0x250 PUSH2 0x344 CALLDATASIZE PUSH1 0x4 PUSH2 0x1C19 JUMP JUMPDEST PUSH2 0xB43 JUMP JUMPDEST PUSH2 0x1E7 PUSH1 0x1 DUP2 JUMP JUMPDEST PUSH1 0x3 SLOAD PUSH1 0x1 PUSH1 0x1 PUSH1 0xA0 SHL SUB AND JUMPDEST PUSH1 0x40 MLOAD PUSH1 0x1 PUSH1 0x1 PUSH1 0xA0 SHL SUB SWAP1 SWAP2 AND DUP2 MSTORE PUSH1 0x20 ADD PUSH2 0x1F1 JUMP JUMPDEST PUSH2 0x250 PUSH2 0x384 CALLDATASIZE PUSH1 0x4 PUSH2 0x1A78 JUMP JUMPDEST PUSH2 0xD05 JUMP JUMPDEST PUSH2 0x1E7 PUSH2 0x397 CALLDATASIZE PUSH1 0x4 PUSH2 0x1A78 JUMP JUMPDEST PUSH1 0x6 PUSH1 0x20 MSTORE PUSH0 SWAP1 DUP2 MSTORE PUSH1 0x40 SWAP1 KECCAK256 SLOAD DUP2 JUMP JUMPDEST PUSH2 0x250 PUSH2 0x3B6 CALLDATASIZE PUSH1 0x4 PUSH2 0x1C6B JUMP JUMPDEST PUSH2 0xD2F JUMP JUMPDEST PUSH2 0x1E7 PUSH2 0x3C9 CALLDATASIZE PUSH1 0x4 PUSH2 0x1798 JUMP JUMPDEST PUSH1 0x7 PUSH1 0x20 SWAP1 DUP2 MSTORE PUSH0 SWAP3 DUP4 MSTORE PUSH1 0x40 DUP1 DUP5 KECCAK256 SWAP1 SWAP2 MSTORE SWAP1 DUP3 MSTORE SWAP1 KECCAK256 SLOAD DUP2 JUMP JUMPDEST PUSH2 0x20D PUSH2 0x3F3 CALLDATASIZE PUSH1 0x4 PUSH2 0x1798 JUMP JUMPDEST PUSH1 0x1 PUSH1 0x1 PUSH1 0xA0 SHL SUB SWAP2 SWAP1 SWAP2 AND PUSH0 SWAP1 DUP2 MSTORE PUSH1 0x5 PUSH1 0x20 SWAP1 DUP2 MSTORE PUSH1 0x40 DUP1 DUP4 KECCAK256 SWAP4 DUP4 MSTORE SWAP3 SWAP1 MSTORE KECCAK256 SLOAD PUSH1 0xFF AND SWAP1 JUMP JUMPDEST PUSH1 0x8 SLOAD PUSH2 0x35E SWAP1 PUSH1 0x1 PUSH1 0x1 PUSH1 0xA0 SHL SUB AND DUP2 JUMP JUMPDEST PUSH2 0x443 PUSH2 0x43E CALLDATASIZE PUSH1 0x4 PUSH2 0x17F7 JUMP JUMPDEST PUSH2 0xD3E JUMP JUMPDEST PUSH1 0x40 MLOAD PUSH2 0x1F1 SWAP2 SWAP1 PUSH2 0x1CA4 JUMP JUMPDEST PUSH2 0x463 PUSH2 0x45E CALLDATASIZE PUSH1 0x4 PUSH2 0x17F7 JUMP JUMPDEST PUSH2 0xF48 JUMP JUMPDEST PUSH1 0x40 MLOAD PUSH2 0x1F1 SWAP5 SWAP4 SWAP3 SWAP2 SWAP1 PUSH2 0x1D14 JUMP JUMPDEST PUSH2 0x250 PUSH2 0x481 CALLDATASIZE PUSH1 0x4 PUSH2 0x1D60 JUMP JUMPDEST PUSH2 0x1104 JUMP JUMPDEST PUSH2 0x20D PUSH2 0x494 CALLDATASIZE PUSH1 0x4 PUSH2 0x1DEB JUMP JUMPDEST PUSH1 0x1 PUSH1 0x1 PUSH1 0xA0 SHL SUB SWAP2 DUP3 AND PUSH0 SWAP1 DUP2 MSTORE PUSH1 0x1 PUSH1 0x20 SWAP1 DUP2 MSTORE PUSH1 0x40 DUP1 DUP4 KECCAK256 SWAP4 SWAP1 SWAP5 AND DUP3 MSTORE SWAP2 SWAP1 SWAP2 MSTORE KECCAK256 SLOAD PUSH1 0xFF AND SWAP1 JUMP JUMPDEST PUSH2 0x250 PUSH2 0x283 CALLDATASIZE PUSH1 0x4 PUSH2 0x1E1C JUMP JUMPDEST PUSH2 0x250 PUSH2 0x4DD CALLDATASIZE PUSH1 0x4 PUSH2 0x1A78 JUMP JUMPDEST PUSH2 0x1160 JUMP JUMPDEST PUSH0 DUP2 DUP2 MSTORE PUSH1 0x20 DUP2 DUP2 MSTORE PUSH1 0x40 DUP1 DUP4 KECCAK256 PUSH1 0x1 PUSH1 0x1 PUSH1 0xA0 SHL SUB DUP7 AND DUP5 MSTORE SWAP1 SWAP2 MSTORE SWAP1 KECCAK256 SLOAD JUMPDEST SWAP3 SWAP2 POP POP JUMP JUMPDEST PUSH0 PUSH1 0x1 PUSH1 0x1 PUSH1 0xE0 SHL SUB NOT DUP3 AND PUSH4 0x6CDB3D13 PUSH1 0xE1 SHL EQ DUP1 PUSH2 0x539 JUMPI POP PUSH1 0x1 PUSH1 0x1 PUSH1 0xE0 SHL SUB NOT DUP3 AND PUSH4 0x3A24D07 PUSH1 0xE2 SHL EQ JUMPDEST DUP1 PUSH2 0x503 JUMPI POP PUSH4 0x1FFC9A7 PUSH1 0xE0 SHL PUSH1 0x1 PUSH1 0x1 PUSH1 0xE0 SHL SUB NOT DUP4 AND EQ PUSH2 0x503 JUMP JUMPDEST PUSH0 DUP2 DUP2 MSTORE PUSH1 0x4 PUSH1 0x20 MSTORE PUSH1 0x40 SWAP1 KECCAK256 PUSH1 0x3 ADD SLOAD PUSH1 0x60 SWAP1 PUSH1 0xFF AND PUSH2 0x5B7 JUMPI PUSH1 0x40 MLOAD PUSH3 0x461BCD PUSH1 0xE5 SHL DUP2 MSTORE PUSH1 0x20 PUSH1 0x4 DUP3 ADD MSTORE PUSH1 0x14 PUSH1 0x24 DUP3 ADD MSTORE PUSH20 0x10985919D948191BD95CC81B9BDD08195E1A5CDD PUSH1 0x62 SHL PUSH1 0x44 DUP3 ADD MSTORE PUSH1 0x64 ADD JUMPDEST PUSH1 0x40 MLOAD DUP1 SWAP2 SUB SWAP1 REVERT JUMPDEST PUSH0 DUP3 DUP2 MSTORE PUSH1 0x4 PUSH1 0x20 MSTORE PUSH1 0x40 SWAP1 KECCAK256 PUSH1 0x2 ADD DUP1 SLOAD PUSH2 0x5D2 SWAP1 PUSH2 0x1E7B JUMP JUMPDEST DUP1 PUSH1 0x1F ADD PUSH1 0x20 DUP1 SWAP2 DIV MUL PUSH1 0x20 ADD PUSH1 0x40 MLOAD SWAP1 DUP2 ADD PUSH1 0x40 MSTORE DUP1 SWAP3 SWAP2 SWAP1 DUP2 DUP2 MSTORE PUSH1 0x20 ADD DUP3 DUP1 SLOAD PUSH2 0x5FE SWAP1 PUSH2 0x1E7B JUMP JUMPDEST DUP1 ISZERO PUSH2 0x649 JUMPI DUP1 PUSH1 0x1F LT PUSH2 0x620 JUMPI PUSH2 0x100 DUP1 DUP4 SLOAD DIV MUL DUP4 MSTORE SWAP2 PUSH1 0x20 ADD SWAP2 PUSH2 0x649 JUMP JUMPDEST DUP3 ADD SWAP2 SWAP1 PUSH0 MSTORE PUSH1 0x20 PUSH0 KECCAK256 SWAP1 JUMPDEST DUP2 SLOAD DUP2 MSTORE SWAP1 PUSH1 0x1 ADD SWAP1 PUSH1 0x20 ADD DUP1 DUP4 GT PUSH2 0x62C JUMPI DUP3 SWAP1 SUB PUSH1 0x1F AND DUP3 ADD SWAP2 JUMPDEST POP POP POP POP POP SWAP1 POP SWAP2 SWAP1 POP JUMP JUMPDEST PUSH1 0x8 SLOAD PUSH1 0x1 PUSH1 0x1 PUSH1 0xA0 SHL SUB AND CALLER EQ PUSH2 0x6AF JUMPI PUSH1 0x40 MLOAD PUSH3 0x461BCD PUSH1 0xE5 SHL DUP2 MSTORE PUSH1 0x20 PUSH1 0x4 DUP3 ADD MSTORE PUSH1 0x1C PUSH1 0x24 DUP3 ADD MSTORE PUSH32 0x4F6E6C7920666163746F72792063616E206D696E742062616467657300000000 PUSH1 0x44 DUP3 ADD MSTORE PUSH1 0x64 ADD PUSH2 0x5AE JUMP JUMPDEST PUSH1 0x1 PUSH1 0x1 PUSH1 0xA0 SHL SUB DUP5 AND PUSH0 SWAP1 DUP2 MSTORE PUSH1 0x6 PUSH1 0x20 MSTORE PUSH1 0x40 DUP2 KECCAK256 DUP1 SLOAD DUP4 SWAP3 SWAP1 PUSH2 0x6D6 SWAP1 DUP5 SWAP1 PUSH2 0x1EC7 JUMP JUMPDEST SWAP1 SWAP2 SSTORE POP POP POP POP POP POP JUMP JUMPDEST PUSH2 0x6E9 PUSH2 0x119D JUMP JUMPDEST PUSH0 SWAP1 DUP2 MSTORE PUSH1 0x4 PUSH1 0x20 MSTORE PUSH1 0x40 SWAP1 KECCAK256 PUSH1 0x3 ADD DUP1 SLOAD PUSH1 0xFF NOT AND SWAP1 SSTORE JUMP JUMPDEST PUSH1 0x40 MLOAD PUSH3 0x461BCD PUSH1 0xE5 SHL DUP2 MSTORE PUSH1 0x20 PUSH1 0x4 DUP3 ADD MSTORE PUSH1 0x1B PUSH1 0x24 DUP3 ADD MSTORE PUSH32 0x42616467657320617265206E6F6E2D7472616E7366657261626C650000000000 PUSH1 0x44 DUP3 ADD MSTORE PUSH1 0x64 ADD PUSH2 0x5AE JUMP JUMPDEST PUSH1 0x60 DUP1 PUSH1 0x60 PUSH0 DUP1 JUMPDEST PUSH1 0x4 DUP2 GT PUSH2 0x7A6 JUMPI PUSH1 0x1 PUSH1 0x1 PUSH1 0xA0 SHL SUB DUP7 AND PUSH0 SWAP1 DUP2 MSTORE PUSH1 0x5 PUSH1 0x20 SWAP1 DUP2 MSTORE PUSH1 0x40 DUP1 DUP4 KECCAK256 DUP5 DUP5 MSTORE SWAP1 SWAP2 MSTORE SWAP1 KECCAK256 SLOAD PUSH1 0xFF AND ISZERO PUSH2 0x794 JUMPI DUP2 PUSH2 0x790 DUP2 PUSH2 0x1EDA JUMP JUMPDEST SWAP3 POP POP JUMPDEST DUP1 PUSH2 0x79E DUP2 PUSH2 0x1EDA JUMP JUMPDEST SWAP2 POP POP PUSH2 0x753 JUMP JUMPDEST POP DUP1 PUSH1 0x1 PUSH1 0x1 PUSH1 0x40 SHL SUB DUP2 GT ISZERO PUSH2 0x7BF JUMPI PUSH2 0x7BF PUSH2 0x1899 JUMP JUMPDEST PUSH1 0x40 MLOAD SWAP1 DUP1 DUP3 MSTORE DUP1 PUSH1 0x20 MUL PUSH1 0x20 ADD DUP3 ADD PUSH1 0x40 MSTORE DUP1 ISZERO PUSH2 0x7E8 JUMPI DUP2 PUSH1 0x20 ADD PUSH1 0x20 DUP3 MUL DUP1 CALLDATASIZE DUP4 CALLDATACOPY ADD SWAP1 POP JUMPDEST POP SWAP4 POP DUP1 PUSH1 0x1 PUSH1 0x1 PUSH1 0x40 SHL SUB DUP2 GT ISZERO PUSH2 0x803 JUMPI PUSH2 0x803 PUSH2 0x1899 JUMP JUMPDEST PUSH1 0x40 MLOAD SWAP1 DUP1 DUP3 MSTORE DUP1 PUSH1 0x20 MUL PUSH1 0x20 ADD DUP3 ADD PUSH1 0x40 MSTORE DUP1 ISZERO PUSH2 0x836 JUMPI DUP2 PUSH1 0x20 ADD JUMPDEST PUSH1 0x60 DUP2 MSTORE PUSH1 0x20 ADD SWAP1 PUSH1 0x1 SWAP1 SUB SWAP1 DUP2 PUSH2 0x821 JUMPI SWAP1 POP JUMPDEST POP SWAP3 POP DUP1 PUSH1 0x1 PUSH1 0x1 PUSH1 0x40 SHL SUB DUP2 GT ISZERO PUSH2 0x851 JUMPI PUSH2 0x851 PUSH2 0x1899 JUMP JUMPDEST PUSH1 0x40 MLOAD SWAP1 DUP1 DUP3 MSTORE DUP1 PUSH1 0x20 MUL PUSH1 0x20 ADD DUP3 ADD PUSH1 0x40 MSTORE DUP1 ISZERO PUSH2 0x87A JUMPI DUP2 PUSH1 0x20 ADD PUSH1 0x20 DUP3 MUL DUP1 CALLDATASIZE DUP4 CALLDATACOPY ADD SWAP1 POP JUMPDEST POP SWAP2 POP PUSH0 DUP1 JUMPDEST PUSH1 0x4 DUP2 GT PUSH2 0x9E8 JUMPI PUSH1 0x1 PUSH1 0x1 PUSH1 0xA0 SHL SUB DUP8 AND PUSH0 SWAP1 DUP2 MSTORE PUSH1 0x5 PUSH1 0x20 SWAP1 DUP2 MSTORE PUSH1 0x40 DUP1 DUP4 KECCAK256 DUP5 DUP5 MSTORE SWAP1 SWAP2 MSTORE SWAP1 KECCAK256 SLOAD PUSH1 0xFF AND ISZERO PUSH2 0x9D6 JUMPI DUP1 DUP7 DUP4 DUP2 MLOAD DUP2 LT PUSH2 0x8C6 JUMPI PUSH2 0x8C6 PUSH2 0x1EF2 JUMP JUMPDEST PUSH1 0x20 SWAP1 DUP2 MUL SWAP2 SWAP1 SWAP2 ADD DUP2 ADD SWAP2 SWAP1 SWAP2 MSTORE PUSH0 DUP3 DUP2 MSTORE PUSH1 0x4 SWAP1 SWAP2 MSTORE PUSH1 0x40 SWAP1 KECCAK256 DUP1 SLOAD PUSH2 0x8ED SWAP1 PUSH2 0x1E7B JUMP JUMPDEST DUP1 PUSH1 0x1F ADD PUSH1 0x20 DUP1 SWAP2 DIV MUL PUSH1 0x20 ADD PUSH1 0x40 MLOAD SWAP1 DUP2 ADD PUSH1 0x40 MSTORE DUP1 SWAP3 SWAP2 SWAP1 DUP2 DUP2 MSTORE PUSH1 0x20 ADD DUP3 DUP1 SLOAD PUSH2 0x919 SWAP1 PUSH2 0x1E7B JUMP JUMPDEST DUP1 ISZERO PUSH2 0x964 JUMPI DUP1 PUSH1 0x1F LT PUSH2 0x93B JUMPI PUSH2 0x100 DUP1 DUP4 SLOAD DIV MUL DUP4 MSTORE SWAP2 PUSH1 0x20 ADD SWAP2 PUSH2 0x964 JUMP JUMPDEST DUP3 ADD SWAP2 SWAP1 PUSH0 MSTORE PUSH1 0x20 PUSH0 KECCAK256 SWAP1 JUMPDEST DUP2 SLOAD DUP2 MSTORE SWAP1 PUSH1 0x1 ADD SWAP1 PUSH1 0x20 ADD DUP1 DUP4 GT PUSH2 0x947 JUMPI DUP3 SWAP1 SUB PUSH1 0x1F AND DUP3 ADD SWAP2 JUMPDEST POP POP POP POP POP DUP6 DUP4 DUP2 MLOAD DUP2 LT PUSH2 0x97B JUMPI PUSH2 0x97B PUSH2 0x1EF2 JUMP JUMPDEST PUSH1 0x20 SWAP1 DUP2 MUL SWAP2 SWAP1 SWAP2 ADD DUP2 ADD SWAP2 SWAP1 SWAP2 MSTORE PUSH1 0x1 PUSH1 0x1 PUSH1 0xA0 SHL SUB DUP9 AND PUSH0 SWAP1 DUP2 MSTORE PUSH1 0x7 DUP3 MSTORE PUSH1 0x40 DUP1 DUP3 KECCAK256 DUP5 DUP4 MSTORE SWAP1 SWAP3 MSTORE KECCAK256 SLOAD DUP5 MLOAD DUP6 SWAP1 DUP5 SWAP1 DUP2 LT PUSH2 0x9BD JUMPI PUSH2 0x9BD PUSH2 0x1EF2 JUMP JUMPDEST PUSH1 0x20 SWAP1 DUP2 MUL SWAP2 SWAP1 SWAP2 ADD ADD MSTORE DUP2 PUSH2 0x9D2 DUP2 PUSH2 0x1EDA JUMP JUMPDEST SWAP3 POP POP JUMPDEST DUP1 PUSH2 0x9E0 DUP2 PUSH2 0x1EDA JUMP JUMPDEST SWAP2 POP POP PUSH2 0x880 JUMP JUMPDEST POP POP POP SWAP2 SWAP4 SWAP1 SWAP3 POP JUMP JUMPDEST PUSH1 0x60 DUP2 MLOAD DUP4 MLOAD EQ PUSH2 0xA23 JUMPI DUP2 MLOAD DUP4 MLOAD PUSH1 0x40 MLOAD PUSH4 0x5B059991 PUSH1 0xE0 SHL DUP2 MSTORE PUSH1 0x4 DUP2 ADD SWAP3 SWAP1 SWAP3 MSTORE PUSH1 0x24 DUP3 ADD MSTORE PUSH1 0x44 ADD PUSH2 0x5AE JUMP JUMPDEST PUSH0 DUP4 MLOAD PUSH1 0x1 PUSH1 0x1 PUSH1 0x40 SHL SUB DUP2 GT ISZERO PUSH2 0xA3D JUMPI PUSH2 0xA3D PUSH2 0x1899 JUMP JUMPDEST PUSH1 0x40 MLOAD SWAP1 DUP1 DUP3 MSTORE DUP1 PUSH1 0x20 MUL PUSH1 0x20 ADD DUP3 ADD PUSH1 0x40 MSTORE DUP1 ISZERO PUSH2 0xA66 JUMPI DUP2 PUSH1 0x20 ADD PUSH1 0x20 DUP3 MUL DUP1 CALLDATASIZE DUP4 CALLDATACOPY ADD SWAP1 POP JUMPDEST POP SWAP1 POP PUSH0 JUMPDEST DUP5 MLOAD DUP2 LT ISZERO PUSH2 0xAB4 JUMPI PUSH1 0x20 DUP1 DUP3 MUL DUP7 ADD ADD MLOAD PUSH2 0xA8F SWAP1 PUSH1 0x20 DUP1 DUP5 MUL DUP8 ADD ADD MLOAD PUSH2 0x4E2 JUMP JUMPDEST DUP3 DUP3 DUP2 MLOAD DUP2 LT PUSH2 0xAA1 JUMPI PUSH2 0xAA1 PUSH2 0x1EF2 JUMP JUMPDEST PUSH1 0x20 SWAP1 DUP2 MUL SWAP2 SWAP1 SWAP2 ADD ADD MSTORE PUSH1 0x1 ADD PUSH2 0xA6B JUMP JUMPDEST POP SWAP4 SWAP3 POP POP POP JUMP JUMPDEST PUSH1 0x1 PUSH1 0x1 PUSH1 0xA0 SHL SUB DUP2 AND PUSH0 SWAP1 DUP2 MSTORE PUSH1 0x6 PUSH1 0x20 MSTORE PUSH1 0x40 DUP2 KECCAK256 SLOAD SWAP1 DUP1 JUMPDEST PUSH1 0x4 DUP2 GT PUSH2 0xB2A JUMPI PUSH1 0x1 PUSH1 0x1 PUSH1 0xA0 SHL SUB DUP5 AND PUSH0 SWAP1 DUP2 MSTORE PUSH1 0x5 PUSH1 0x20 SWAP1 DUP2 MSTORE PUSH1 0x40 DUP1 DUP4 KECCAK256 DUP5 DUP5 MSTORE SWAP1 SWAP2 MSTORE SWAP1 KECCAK256 SLOAD PUSH1 0xFF AND ISZERO PUSH2 0xB18 JUMPI DUP2 PUSH2 0xB14 DUP2 PUSH2 0x1EDA JUMP JUMPDEST SWAP3 POP POP JUMPDEST DUP1 PUSH2 0xB22 DUP2 PUSH2 0x1EDA JUMP JUMPDEST SWAP2 POP POP PUSH2 0xAD7 JUMP JUMPDEST POP SWAP2 POP SWAP2 JUMP JUMPDEST PUSH2 0xB38 PUSH2 0x119D JUMP JUMPDEST PUSH2 0xB41 PUSH0 PUSH2 0x11CA JUMP JUMPDEST JUMP JUMPDEST PUSH1 0x8 SLOAD PUSH1 0x1 PUSH1 0x1 PUSH1 0xA0 SHL SUB AND CALLER EQ PUSH2 0xB9D JUMPI PUSH1 0x40 MLOAD PUSH3 0x461BCD PUSH1 0xE5 SHL DUP2 MSTORE PUSH1 0x20 PUSH1 0x4 DUP3 ADD MSTORE PUSH1 0x1C PUSH1 0x24 DUP3 ADD MSTORE PUSH32 0x4F6E6C7920666163746F72792063616E206D696E742062616467657300000000 PUSH1 0x44 DUP3 ADD MSTORE PUSH1 0x64 ADD PUSH2 0x5AE JUMP JUMPDEST PUSH0 DUP3 DUP2 MSTORE PUSH1 0x4 PUSH1 0x20 MSTORE PUSH1 0x40 SWAP1 KECCAK256 PUSH1 0x3 ADD SLOAD PUSH1 0xFF AND PUSH2 0xBF5 JUMPI PUSH1 0x40 MLOAD PUSH3 0x461BCD PUSH1 0xE5 SHL DUP2 MSTORE PUSH1 0x20 PUSH1 0x4 DUP3 ADD MSTORE PUSH1 0x15 PUSH1 0x24 DUP3 ADD MSTORE PUSH21 0x42616467652074797065206E6F7420616374697665 PUSH1 0x58 SHL PUSH1 0x44 DUP3 ADD MSTORE PUSH1 0x64 ADD PUSH2 0x5AE JUMP JUMPDEST PUSH1 0x1 PUSH1 0x1 PUSH1 0xA0 SHL SUB DUP4 AND PUSH0 SWAP1 DUP2 MSTORE PUSH1 0x5 PUSH1 0x20 SWAP1 DUP2 MSTORE PUSH1 0x40 DUP1 DUP4 KECCAK256 DUP6 DUP5 MSTORE SWAP1 SWAP2 MSTORE SWAP1 KECCAK256 SLOAD PUSH1 0xFF AND ISZERO PUSH2 0xC5F JUMPI PUSH1 0x40 MLOAD PUSH3 0x461BCD PUSH1 0xE5 SHL DUP2 MSTORE PUSH1 0x20 PUSH1 0x4 DUP3 ADD MSTORE PUSH1 0x14 PUSH1 0x24 DUP3 ADD MSTORE PUSH20 0x10985919D948185B1C9958591E4819585C9B9959 PUSH1 0x62 SHL PUSH1 0x44 DUP3 ADD MSTORE PUSH1 0x64 ADD PUSH2 0x5AE JUMP JUMPDEST PUSH1 0x1 PUSH1 0x1 PUSH1 0xA0 SHL SUB DUP4 AND PUSH0 DUP2 DUP2 MSTORE PUSH1 0x5 PUSH1 0x20 SWAP1 DUP2 MSTORE PUSH1 0x40 DUP1 DUP4 KECCAK256 DUP7 DUP5 MSTORE DUP3 MSTORE DUP1 DUP4 KECCAK256 DUP1 SLOAD PUSH1 0xFF NOT AND PUSH1 0x1 SWAP1 DUP2 OR SWAP1 SWAP2 SSTORE SWAP4 DUP4 MSTORE PUSH1 0x7 DUP3 MSTORE DUP1 DUP4 KECCAK256 DUP7 DUP5 MSTORE DUP3 MSTORE DUP1 DUP4 KECCAK256 TIMESTAMP SWAP1 SSTORE DUP1 MLOAD SWAP2 DUP3 ADD SWAP1 MSTORE SWAP1 DUP2 MSTORE PUSH2 0xCBC SWAP2 DUP6 SWAP2 DUP6 SWAP2 SWAP1 PUSH2 0x121B JUMP JUMPDEST DUP2 DUP4 PUSH1 0x1 PUSH1 0x1 PUSH1 0xA0 SHL SUB AND PUSH32 0x99190284598C40568AF7485390CE7C9B09C8F7EA380162938D3520C932754968 DUP4 TIMESTAMP PUSH1 0x40 MLOAD PUSH2 0xCF8 SWAP3 SWAP2 SWAP1 PUSH2 0x1F06 JUMP JUMPDEST PUSH1 0x40 MLOAD DUP1 SWAP2 SUB SWAP1 LOG3 POP POP POP JUMP JUMPDEST PUSH2 0xD0D PUSH2 0x119D JUMP JUMPDEST PUSH1 0x8 DUP1 SLOAD PUSH1 0x1 PUSH1 0x1 PUSH1 0xA0 SHL SUB NOT AND PUSH1 0x1 PUSH1 0x1 PUSH1 0xA0 SHL SUB SWAP3 SWAP1 SWAP3 AND SWAP2 SWAP1 SWAP2 OR SWAP1 SSTORE JUMP JUMPDEST PUSH2 0xD3A CALLER DUP4 DUP4 PUSH2 0x127E JUMP JUMPDEST POP POP JUMP JUMPDEST PUSH2 0xD6A PUSH1 0x40 MLOAD DUP1 PUSH1 0x80 ADD PUSH1 0x40 MSTORE DUP1 PUSH1 0x60 DUP2 MSTORE PUSH1 0x20 ADD PUSH1 0x60 DUP2 MSTORE PUSH1 0x20 ADD PUSH1 0x60 DUP2 MSTORE PUSH1 0x20 ADD PUSH0 ISZERO ISZERO DUP2 MSTORE POP SWAP1 JUMP JUMPDEST PUSH0 DUP3 DUP2 MSTORE PUSH1 0x4 PUSH1 0x20 MSTORE PUSH1 0x40 SWAP1 DUP2 SWAP1 KECCAK256 DUP2 MLOAD PUSH1 0x80 DUP2 ADD SWAP1 SWAP3 MSTORE DUP1 SLOAD DUP3 SWAP1 DUP3 SWAP1 PUSH2 0xD91 SWAP1 PUSH2 0x1E7B JUMP JUMPDEST DUP1 PUSH1 0x1F ADD PUSH1 0x20 DUP1 SWAP2 DIV MUL PUSH1 0x20 ADD PUSH1 0x40 MLOAD SWAP1 DUP2 ADD PUSH1 0x40 MSTORE DUP1 SWAP3 SWAP2 SWAP1 DUP2 DUP2 MSTORE PUSH1 0x20 ADD DUP3 DUP1 SLOAD PUSH2 0xDBD SWAP1 PUSH2 0x1E7B JUMP JUMPDEST DUP1 ISZERO PUSH2 0xE08 JUMPI DUP1 PUSH1 0x1F LT PUSH2 0xDDF JUMPI PUSH2 0x100 DUP1 DUP4 SLOAD DIV MUL DUP4 MSTORE SWAP2 PUSH1 0x20 ADD SWAP2 PUSH2 0xE08 JUMP JUMPDEST DUP3 ADD SWAP2 SWAP1 PUSH0 MSTORE PUSH1 0x20 PUSH0 KECCAK256 SWAP1 JUMPDEST DUP2 SLOAD DUP2 MSTORE SWAP1 PUSH1 0x1 ADD SWAP1 PUSH1 0x20 ADD DUP1 DUP4 GT PUSH2 0xDEB JUMPI DUP3 SWAP1 SUB PUSH1 0x1F AND DUP3 ADD SWAP2 JUMPDEST POP POP POP POP POP DUP2 MSTORE PUSH1 0x20 ADD PUSH1 0x1 DUP3 ADD DUP1 SLOAD PUSH2 0xE21 SWAP1 PUSH2 0x1E7B JUMP JUMPDEST DUP1 PUSH1 0x1F ADD PUSH1 0x20 DUP1 SWAP2 DIV MUL PUSH1 0x20 ADD PUSH1 0x40 MLOAD SWAP1 DUP2 ADD PUSH1 0x40 MSTORE DUP1 SWAP3 SWAP2 SWAP1 DUP2 DUP2 MSTORE PUSH1 0x20 ADD DUP3 DUP1 SLOAD PUSH2 0xE4D SWAP1 PUSH2 0x1E7B JUMP JUMPDEST DUP1 ISZERO PUSH2 0xE98 JUMPI DUP1 PUSH1 0x1F LT PUSH2 0xE6F JUMPI PUSH2 0x100 DUP1 DUP4 SLOAD DIV MUL DUP4 MSTORE SWAP2 PUSH1 0x20 ADD SWAP2 PUSH2 0xE98 JUMP JUMPDEST DUP3 ADD SWAP2 SWAP1 PUSH0 MSTORE PUSH1 0x20 PUSH0 KECCAK256 SWAP1 JUMPDEST DUP2 SLOAD DUP2 MSTORE SWAP1 PUSH1 0x1 ADD SWAP1 PUSH1 0x20 ADD DUP1 DUP4 GT PUSH2 0xE7B JUMPI DUP3 SWAP1 SUB PUSH1 0x1F AND DUP3 ADD SWAP2 JUMPDEST POP POP POP POP POP DUP2 MSTORE PUSH1 0x20 ADD PUSH1 0x2 DUP3 ADD DUP1 SLOAD PUSH2 0xEB1 SWAP1 PUSH2 0x1E7B JUMP JUMPDEST DUP1 PUSH1 0x1F ADD PUSH1 0x20 DUP1 SWAP2 DIV MUL PUSH1 0x20 ADD PUSH1 0x40 MLOAD SWAP1 DUP2 ADD PUSH1 0x40 MSTORE DUP1 SWAP3 SWAP2 SWAP1 DUP2 DUP2 MSTORE PUSH1 0x20 ADD DUP3 DUP1 SLOAD PUSH2 0xEDD SWAP1 PUSH2 0x1E7B JUMP JUMPDEST DUP1 ISZERO PUSH2 0xF28 JUMPI DUP1 PUSH1 0x1F LT PUSH2 0xEFF JUMPI PUSH2 0x100 DUP1 DUP4 SLOAD DIV MUL DUP4 MSTORE SWAP2 PUSH1 0x20 ADD SWAP2 PUSH2 0xF28 JUMP JUMPDEST DUP3 ADD SWAP2 SWAP1 PUSH0 MSTORE PUSH1 0x20 PUSH0 KECCAK256 SWAP1 JUMPDEST DUP2 SLOAD DUP2 MSTORE SWAP1 PUSH1 0x1 ADD SWAP1 PUSH1 0x20 ADD DUP1 DUP4 GT PUSH2 0xF0B JUMPI DUP3 SWAP1 SUB PUSH1 0x1F AND DUP3 ADD SWAP2 JUMPDEST POP POP POP SWAP2 DUP4 MSTORE POP POP PUSH1 0x3 SWAP2 SWAP1 SWAP2 ADD SLOAD PUSH1 0xFF AND ISZERO ISZERO PUSH1 0x20 SWAP1 SWAP2 ADD MSTORE SWAP3 SWAP2 POP POP JUMP JUMPDEST PUSH1 0x4 PUSH1 0x20 MSTORE PUSH0 SWAP1 DUP2 MSTORE PUSH1 0x40 SWAP1 KECCAK256 DUP1 SLOAD DUP2 SWAP1 PUSH2 0xF62 SWAP1 PUSH2 0x1E7B JUMP JUMPDEST DUP1 PUSH1 0x1F ADD PUSH1 0x20 DUP1 SWAP2 DIV MUL PUSH1 0x20 ADD PUSH1 0x40 MLOAD SWAP1 DUP2 ADD PUSH1 0x40 MSTORE DUP1 SWAP3 SWAP2 SWAP1 DUP2 DUP2 MSTORE PUSH1 0x20 ADD DUP3 DUP1 SLOAD PUSH2 0xF8E SWAP1 PUSH2 0x1E7B JUMP JUMPDEST DUP1 ISZERO PUSH2 0xFD9 JUMPI DUP1 PUSH1 0x1F LT PUSH2 0xFB0 JUMPI PUSH2 0x100 DUP1 DUP4 SLOAD DIV MUL DUP4 MSTORE SWAP2 PUSH1 0x20 ADD SWAP2 PUSH2 0xFD9 JUMP JUMPDEST DUP3 ADD SWAP2 SWAP1 PUSH0 MSTORE PUSH1 0x20 PUSH0 KECCAK256 SWAP1 JUMPDEST DUP2 SLOAD DUP2 MSTORE SWAP1 PUSH1 0x1 ADD SWAP1 PUSH1 0x20 ADD DUP1 DUP4 GT PUSH2 0xFBC JUMPI DUP3 SWAP1 SUB PUSH1 0x1F AND DUP3 ADD SWAP2 JUMPDEST POP POP POP POP POP SWAP1 DUP1 PUSH1 0x1 ADD DUP1 SLOAD PUSH2 0xFEE SWAP1 PUSH2 0x1E7B JUMP JUMPDEST DUP1 PUSH1 0x1F ADD PUSH1 0x20 DUP1 SWAP2 DIV MUL PUSH1 0x20 ADD PUSH1 0x40 MLOAD SWAP1 DUP2 ADD PUSH1 0x40 MSTORE DUP1 SWAP3 SWAP2 SWAP1 DUP2 DUP2 MSTORE PUSH1 0x20 ADD DUP3 DUP1 SLOAD PUSH2 0x101A SWAP1 PUSH2 0x1E7B JUMP JUMPDEST DUP1 ISZERO PUSH2 0x1065 JUMPI DUP1 PUSH1 0x1F LT PUSH2 0x103C JUMPI PUSH2 0x100 DUP1 DUP4 SLOAD DIV MUL DUP4 MSTORE SWAP2 PUSH1 0x20 ADD SWAP2 PUSH2 0x1065 JUMP JUMPDEST DUP3 ADD SWAP2 SWAP1 PUSH0 MSTORE PUSH1 0x20 PUSH0 KECCAK256 SWAP1 JUMPDEST DUP2 SLOAD DUP2 MSTORE SWAP1 PUSH1 0x1 ADD SWAP1 PUSH1 0x20 ADD DUP1 DUP4 GT PUSH2 0x1048 JUMPI DUP3 SWAP1 SUB PUSH1 0x1F AND DUP3 ADD SWAP2 JUMPDEST POP POP POP POP POP SWAP1 DUP1 PUSH1 0x2 ADD DUP1 SLOAD PUSH2 0x107A SWAP1 PUSH2 0x1E7B JUMP JUMPDEST DUP1 PUSH1 0x1F ADD PUSH1 0x20 DUP1 SWAP2 DIV MUL PUSH1 0x20 ADD PUSH1 0x40 MLOAD SWAP1 DUP2 ADD PUSH1 0x40 MSTORE DUP1 SWAP3 SWAP2 SWAP1 DUP2 DUP2 MSTORE PUSH1 0x20 ADD DUP3 DUP1 SLOAD PUSH2 0x10A6 SWAP1 PUSH2 0x1E7B JUMP JUMPDEST DUP1 ISZERO PUSH2 0x10F1 JUMPI DUP1 PUSH1 0x1F LT PUSH2 0x10C8 JUMPI PUSH2 0x100 DUP1 DUP4 SLOAD DIV MUL DUP4 MSTORE SWAP2 PUSH1 0x20 ADD SWAP2 PUSH2 0x10F1 JUMP JUMPDEST DUP3 ADD SWAP2 SWAP1 PUSH0 MSTORE PUSH1 0x20 PUSH0 KECCAK256 SWAP1 JUMPDEST DUP2 SLOAD DUP2 MSTORE SWAP1 PUSH1 0x1 ADD SWAP1 PUSH1 0x20 ADD DUP1 DUP4 GT PUSH2 0x10D4 JUMPI DUP3 SWAP1 SUB PUSH1 0x1F AND DUP3 ADD SWAP2 JUMPDEST POP POP POP PUSH1 0x3 SWAP1 SWAP4 ADD SLOAD SWAP2 SWAP3 POP POP PUSH1 0xFF AND DUP5 JUMP JUMPDEST PUSH2 0x110C PUSH2 0x119D JUMP JUMPDEST PUSH0 DUP5 DUP2 MSTORE PUSH1 0x4 PUSH1 0x20 MSTORE PUSH1 0x40 SWAP1 KECCAK256 PUSH2 0x1123 DUP5 DUP3 PUSH2 0x1F70 JUMP JUMPDEST POP PUSH0 DUP5 DUP2 MSTORE PUSH1 0x4 PUSH1 0x20 MSTORE PUSH1 0x40 SWAP1 KECCAK256 PUSH1 0x1 ADD PUSH2 0x113E DUP4 DUP3 PUSH2 0x1F70 JUMP JUMPDEST POP PUSH0 DUP5 DUP2 MSTORE PUSH1 0x4 PUSH1 0x20 MSTORE PUSH1 0x40 SWAP1 KECCAK256 PUSH1 0x2 ADD PUSH2 0x1159 DUP3 DUP3 PUSH2 0x1F70 JUMP JUMPDEST POP POP POP POP POP JUMP JUMPDEST PUSH2 0x1168 PUSH2 0x119D JUMP JUMPDEST PUSH1 0x1 PUSH1 0x1 PUSH1 0xA0 SHL SUB DUP2 AND PUSH2 0x1191 JUMPI PUSH1 0x40 MLOAD PUSH4 0x1E4FBDF7 PUSH1 0xE0 SHL DUP2 MSTORE PUSH0 PUSH1 0x4 DUP3 ADD MSTORE PUSH1 0x24 ADD PUSH2 0x5AE JUMP JUMPDEST PUSH2 0x119A DUP2 PUSH2 0x11CA JUMP JUMPDEST POP JUMP JUMPDEST PUSH1 0x3 SLOAD PUSH1 0x1 PUSH1 0x1 PUSH1 0xA0 SHL SUB AND CALLER EQ PUSH2 0xB41 JUMPI PUSH1 0x40 MLOAD PUSH4 0x118CDAA7 PUSH1 0xE0 SHL DUP2 MSTORE CALLER PUSH1 0x4 DUP3 ADD MSTORE PUSH1 0x24 ADD PUSH2 0x5AE JUMP JUMPDEST PUSH1 0x3 DUP1 SLOAD PUSH1 0x1 PUSH1 0x1 PUSH1 0xA0 SHL SUB DUP4 DUP2 AND PUSH1 0x1 PUSH1 0x1 PUSH1 0xA0 SHL SUB NOT DUP4 AND DUP2 OR SWAP1 SWAP4 SSTORE PUSH1 0x40 MLOAD SWAP2 AND SWAP2 SWAP1 DUP3 SWAP1 PUSH32 0x8BE0079C531659141344CD1FD0A4F28419497F9722A3DAAFE3B4186F6B6457E0 SWAP1 PUSH0 SWAP1 LOG3 POP POP JUMP JUMPDEST PUSH1 0x1 PUSH1 0x1 PUSH1 0xA0 SHL SUB DUP5 AND PUSH2 0x1244 JUMPI PUSH1 0x40 MLOAD PUSH4 0x2BFA23E7 PUSH1 0xE1 SHL DUP2 MSTORE PUSH0 PUSH1 0x4 DUP3 ADD MSTORE PUSH1 0x24 ADD PUSH2 0x5AE JUMP JUMPDEST PUSH1 0x40 DUP1 MLOAD PUSH1 0x1 DUP1 DUP3 MSTORE PUSH1 0x20 DUP3 ADD DUP7 SWAP1 MSTORE DUP2 DUP4 ADD SWAP1 DUP2 MSTORE PUSH1 0x60 DUP3 ADD DUP6 SWAP1 MSTORE PUSH1 0x80 DUP3 ADD SWAP1 SWAP3 MSTORE SWAP1 PUSH2 0x1276 PUSH0 DUP8 DUP5 DUP5 DUP8 PUSH2 0x130A JUMP JUMPDEST POP POP POP POP POP POP JUMP JUMPDEST PUSH1 0x1 PUSH1 0x1 PUSH1 0xA0 SHL SUB DUP3 AND PUSH2 0x12A6 JUMPI PUSH1 0x40 MLOAD PUSH3 0xCED3E1 PUSH1 0xE8 SHL DUP2 MSTORE PUSH0 PUSH1 0x4 DUP3 ADD MSTORE PUSH1 0x24 ADD PUSH2 0x5AE JUMP JUMPDEST PUSH1 0x1 PUSH1 0x1 PUSH1 0xA0 SHL SUB DUP4 DUP2 AND PUSH0 DUP2 DUP2 MSTORE PUSH1 0x1 PUSH1 0x20 SWAP1 DUP2 MSTORE PUSH1 0x40 DUP1 DUP4 KECCAK256 SWAP5 DUP8 AND DUP1 DUP5 MSTORE SWAP5 DUP3 MSTORE SWAP2 DUP3 SWAP1 KECCAK256 DUP1 SLOAD PUSH1 0xFF NOT AND DUP7 ISZERO ISZERO SWAP1 DUP2 OR SWAP1 SWAP2 SSTORE SWAP2 MLOAD SWAP2 DUP3 MSTORE PUSH32 0x17307EAB39AB6107E8899845AD3D59BD9653F200F220920489CA2B5937696C31 SWAP2 ADD PUSH2 0xCF8 JUMP JUMPDEST PUSH2 0x1316 DUP6 DUP6 DUP6 DUP6 PUSH2 0x135D JUMP JUMPDEST PUSH1 0x1 PUSH1 0x1 PUSH1 0xA0 SHL SUB DUP5 AND ISZERO PUSH2 0x1159 JUMPI DUP3 MLOAD CALLER SWAP1 PUSH1 0x1 SUB PUSH2 0x134F JUMPI PUSH1 0x20 DUP5 DUP2 ADD MLOAD SWAP1 DUP5 ADD MLOAD PUSH2 0x1348 DUP4 DUP10 DUP10 DUP6 DUP6 DUP10 PUSH2 0x156C JUMP JUMPDEST POP POP PUSH2 0x1276 JUMP JUMPDEST PUSH2 0x1276 DUP2 DUP8 DUP8 DUP8 DUP8 DUP8 PUSH2 0x1696 JUMP JUMPDEST DUP1 MLOAD DUP3 MLOAD EQ PUSH2 0x138C JUMPI DUP2 MLOAD DUP2 MLOAD PUSH1 0x40 MLOAD PUSH4 0x5B059991 PUSH1 0xE0 SHL DUP2 MSTORE PUSH1 0x4 DUP2 ADD SWAP3 SWAP1 SWAP3 MSTORE PUSH1 0x24 DUP3 ADD MSTORE PUSH1 0x44 ADD PUSH2 0x5AE JUMP JUMPDEST CALLER PUSH0 JUMPDEST DUP4 MLOAD DUP2 LT ISZERO PUSH2 0x148E JUMPI PUSH1 0x20 DUP2 DUP2 MUL DUP6 DUP2 ADD DUP3 ADD MLOAD SWAP1 DUP6 ADD SWAP1 SWAP2 ADD MLOAD PUSH1 0x1 PUSH1 0x1 PUSH1 0xA0 SHL SUB DUP9 AND ISZERO PUSH2 0x1440 JUMPI PUSH0 DUP3 DUP2 MSTORE PUSH1 0x20 DUP2 DUP2 MSTORE PUSH1 0x40 DUP1 DUP4 KECCAK256 PUSH1 0x1 PUSH1 0x1 PUSH1 0xA0 SHL SUB DUP13 AND DUP5 MSTORE SWAP1 SWAP2 MSTORE SWAP1 KECCAK256 SLOAD DUP2 DUP2 LT ISZERO PUSH2 0x141A JUMPI PUSH1 0x40 MLOAD PUSH4 0x3DEE4C5 PUSH1 0xE0 SHL DUP2 MSTORE PUSH1 0x1 PUSH1 0x1 PUSH1 0xA0 SHL SUB DUP11 AND PUSH1 0x4 DUP3 ADD MSTORE PUSH1 0x24 DUP2 ADD DUP3 SWAP1 MSTORE PUSH1 0x44 DUP2 ADD DUP4 SWAP1 MSTORE PUSH1 0x64 DUP2 ADD DUP5 SWAP1 MSTORE PUSH1 0x84 ADD PUSH2 0x5AE JUMP JUMPDEST PUSH0 DUP4 DUP2 MSTORE PUSH1 0x20 DUP2 DUP2 MSTORE PUSH1 0x40 DUP1 DUP4 KECCAK256 PUSH1 0x1 PUSH1 0x1 PUSH1 0xA0 SHL SUB DUP14 AND DUP5 MSTORE SWAP1 SWAP2 MSTORE SWAP1 KECCAK256 SWAP1 DUP3 SWAP1 SUB SWAP1 SSTORE JUMPDEST PUSH1 0x1 PUSH1 0x1 PUSH1 0xA0 SHL SUB DUP8 AND ISZERO PUSH2 0x1484 JUMPI PUSH0 DUP3 DUP2 MSTORE PUSH1 0x20 DUP2 DUP2 MSTORE PUSH1 0x40 DUP1 DUP4 KECCAK256 PUSH1 0x1 PUSH1 0x1 PUSH1 0xA0 SHL SUB DUP12 AND DUP5 MSTORE SWAP1 SWAP2 MSTORE DUP2 KECCAK256 DUP1 SLOAD DUP4 SWAP3 SWAP1 PUSH2 0x147E SWAP1 DUP5 SWAP1 PUSH2 0x1EC7 JUMP JUMPDEST SWAP1 SWAP2 SSTORE POP POP JUMPDEST POP POP PUSH1 0x1 ADD PUSH2 0x138F JUMP JUMPDEST POP DUP3 MLOAD PUSH1 0x1 SUB PUSH2 0x150E JUMPI PUSH1 0x20 DUP4 ADD MLOAD PUSH0 SWAP1 PUSH1 0x20 DUP5 ADD MLOAD SWAP1 SWAP2 POP DUP6 PUSH1 0x1 PUSH1 0x1 PUSH1 0xA0 SHL SUB AND DUP8 PUSH1 0x1 PUSH1 0x1 PUSH1 0xA0 SHL SUB AND DUP5 PUSH1 0x1 PUSH1 0x1 PUSH1 0xA0 SHL SUB AND PUSH32 0xC3D58168C5AE7397731D063D5BBF3D657854427343F4C083240F7AACAA2D0F62 DUP6 DUP6 PUSH1 0x40 MLOAD PUSH2 0x14FF SWAP3 SWAP2 SWAP1 SWAP2 DUP3 MSTORE PUSH1 0x20 DUP3 ADD MSTORE PUSH1 0x40 ADD SWAP1 JUMP JUMPDEST PUSH1 0x40 MLOAD DUP1 SWAP2 SUB SWAP1 LOG4 POP POP PUSH2 0x1159 JUMP JUMPDEST DUP4 PUSH1 0x1 PUSH1 0x1 PUSH1 0xA0 SHL SUB AND DUP6 PUSH1 0x1 PUSH1 0x1 PUSH1 0xA0 SHL SUB AND DUP3 PUSH1 0x1 PUSH1 0x1 PUSH1 0xA0 SHL SUB AND PUSH32 0x4A39DC06D4C0DBC64B70AF90FD698A233A518AA5D07E595D983B8C0526C8F7FB DUP7 DUP7 PUSH1 0x40 MLOAD PUSH2 0x155D SWAP3 SWAP2 SWAP1 PUSH2 0x202B JUMP JUMPDEST PUSH1 0x40 MLOAD DUP1 SWAP2 SUB SWAP1 LOG4 POP POP POP POP POP JUMP JUMPDEST PUSH1 0x1 PUSH1 0x1 PUSH1 0xA0 SHL SUB DUP5 AND EXTCODESIZE ISZERO PUSH2 0x1276 JUMPI PUSH1 0x40 MLOAD PUSH4 0xF23A6E61 PUSH1 0xE0 SHL DUP2 MSTORE PUSH1 0x1 PUSH1 0x1 PUSH1 0xA0 SHL SUB DUP6 AND SWAP1 PUSH4 0xF23A6E61 SWAP1 PUSH2 0x15B0 SWAP1 DUP10 SWAP1 DUP10 SWAP1 DUP9 SWAP1 DUP9 SWAP1 DUP9 SWAP1 PUSH1 0x4 ADD PUSH2 0x2058 JUMP JUMPDEST PUSH1 0x20 PUSH1 0x40 MLOAD DUP1 DUP4 SUB DUP2 PUSH0 DUP8 GAS CALL SWAP3 POP POP POP DUP1 ISZERO PUSH2 0x15EA JUMPI POP PUSH1 0x40 DUP1 MLOAD PUSH1 0x1F RETURNDATASIZE SWAP1 DUP2 ADD PUSH1 0x1F NOT AND DUP3 ADD SWAP1 SWAP3 MSTORE PUSH2 0x15E7 SWAP2 DUP2 ADD SWAP1 PUSH2 0x209C JUMP JUMPDEST PUSH1 0x1 JUMPDEST PUSH2 0x1651 JUMPI RETURNDATASIZE DUP1 DUP1 ISZERO PUSH2 0x1617 JUMPI PUSH1 0x40 MLOAD SWAP2 POP PUSH1 0x1F NOT PUSH1 0x3F RETURNDATASIZE ADD AND DUP3 ADD PUSH1 0x40 MSTORE RETURNDATASIZE DUP3 MSTORE RETURNDATASIZE PUSH0 PUSH1 0x20 DUP5 ADD RETURNDATACOPY PUSH2 0x161C JUMP JUMPDEST PUSH1 0x60 SWAP2 POP JUMPDEST POP DUP1 MLOAD PUSH0 SUB PUSH2 0x1649 JUMPI PUSH1 0x40 MLOAD PUSH4 0x2BFA23E7 PUSH1 0xE1 SHL DUP2 MSTORE PUSH1 0x1 PUSH1 0x1 PUSH1 0xA0 SHL SUB DUP7 AND PUSH1 0x4 DUP3 ADD MSTORE PUSH1 0x24 ADD PUSH2 0x5AE JUMP JUMPDEST DUP1 MLOAD PUSH1 0x20 DUP3 ADD REVERT JUMPDEST PUSH1 0x1 PUSH1 0x1 PUSH1 0xE0 SHL SUB NOT DUP2 AND PUSH4 0xF23A6E61 PUSH1 0xE0 SHL EQ PUSH2 0x168D JUMPI PUSH1 0x40 MLOAD PUSH4 0x2BFA23E7 PUSH1 0xE1 SHL DUP2 MSTORE PUSH1 0x1 PUSH1 0x1 PUSH1 0xA0 SHL SUB DUP7 AND PUSH1 0x4 DUP3 ADD MSTORE PUSH1 0x24 ADD PUSH2 0x5AE JUMP JUMPDEST POP POP POP POP POP POP POP JUMP JUMPDEST PUSH1 0x1 PUSH1 0x1 PUSH1 0xA0 SHL SUB DUP5 AND EXTCODESIZE ISZERO PUSH2 0x1276 JUMPI PUSH1 0x40 MLOAD PUSH4 0xBC197C81 PUSH1 0xE0 SHL DUP2 MSTORE PUSH1 0x1 PUSH1 0x1 PUSH1 0xA0 SHL SUB DUP6 AND SWAP1 PUSH4 0xBC197C81 SWAP1 PUSH2 0x16DA SWAP1 DUP10 SWAP1 DUP10 SWAP1 DUP9 SWAP1 DUP9 SWAP1 DUP9 SWAP1 PUSH1 0x4 ADD PUSH2 0x20B7 JUMP JUMPDEST PUSH1 0x20 PUSH1 0x40 MLOAD DUP1 DUP4 SUB DUP2 PUSH0 DUP8 GAS CALL SWAP3 POP POP POP DUP1 ISZERO PUSH2 0x1714 JUMPI POP PUSH1 0x40 DUP1 MLOAD PUSH1 0x1F RETURNDATASIZE SWAP1 DUP2 ADD PUSH1 0x1F NOT AND DUP3 ADD SWAP1 SWAP3 MSTORE PUSH2 0x1711 SWAP2 DUP2 ADD SWAP1 PUSH2 0x209C JUMP JUMPDEST PUSH1 0x1 JUMPDEST PUSH2 0x1741 JUMPI RETURNDATASIZE DUP1 DUP1 ISZERO PUSH2 0x1617 JUMPI PUSH1 0x40 MLOAD SWAP2 POP PUSH1 0x1F NOT PUSH1 0x3F RETURNDATASIZE ADD AND DUP3 ADD PUSH1 0x40 MSTORE RETURNDATASIZE DUP3 MSTORE RETURNDATASIZE PUSH0 PUSH1 0x20 DUP5 ADD RETURNDATACOPY PUSH2 0x161C JUMP JUMPDEST PUSH1 0x1 PUSH1 0x1 PUSH1 0xE0 SHL SUB NOT DUP2 AND PUSH4 0xBC197C81 PUSH1 0xE0 SHL EQ PUSH2 0x168D JUMPI PUSH1 0x40 MLOAD PUSH4 0x2BFA23E7 PUSH1 0xE1 SHL DUP2 MSTORE PUSH1 0x1 PUSH1 0x1 PUSH1 0xA0 SHL SUB DUP7 AND PUSH1 0x4 DUP3 ADD MSTORE PUSH1 0x24 ADD PUSH2 0x5AE JUMP JUMPDEST DUP1 CALLDATALOAD PUSH1 0x1 PUSH1 0x1 PUSH1 0xA0 SHL SUB DUP2 AND DUP2 EQ PUSH2 0x1793 JUMPI PUSH0 DUP1 REVERT JUMPDEST SWAP2 SWAP1 POP JUMP JUMPDEST PUSH0 DUP1 PUSH1 0x40 DUP4 DUP6 SUB SLT ISZERO PUSH2 0x17A9 JUMPI PUSH0 DUP1 REVERT JUMPDEST PUSH2 0x17B2 DUP4 PUSH2 0x177D JUMP JUMPDEST SWAP5 PUSH1 0x20 SWAP4 SWAP1 SWAP4 ADD CALLDATALOAD SWAP4 POP POP POP JUMP JUMPDEST PUSH1 0x1 PUSH1 0x1 PUSH1 0xE0 SHL SUB NOT DUP2 AND DUP2 EQ PUSH2 0x119A JUMPI PUSH0 DUP1 REVERT JUMPDEST PUSH0 PUSH1 0x20 DUP3 DUP5 SUB SLT ISZERO PUSH2 0x17E5 JUMPI PUSH0 DUP1 REVERT JUMPDEST DUP2 CALLDATALOAD PUSH2 0x17F0 DUP2 PUSH2 0x17C0 JUMP JUMPDEST SWAP4 SWAP3 POP POP POP JUMP JUMPDEST PUSH0 PUSH1 0x20 DUP3 DUP5 SUB SLT ISZERO PUSH2 0x1807 JUMPI PUSH0 DUP1 REVERT JUMPDEST POP CALLDATALOAD SWAP2 SWAP1 POP JUMP JUMPDEST PUSH0 DUP2 MLOAD DUP1 DUP5 MSTORE PUSH0 JUMPDEST DUP2 DUP2 LT ISZERO PUSH2 0x1832 JUMPI PUSH1 0x20 DUP2 DUP6 ADD DUP2 ADD MLOAD DUP7 DUP4 ADD DUP3 ADD MSTORE ADD PUSH2 0x1816 JUMP JUMPDEST POP PUSH0 PUSH1 0x20 DUP3 DUP7 ADD ADD MSTORE PUSH1 0x20 PUSH1 0x1F NOT PUSH1 0x1F DUP4 ADD AND DUP6 ADD ADD SWAP2 POP POP SWAP3 SWAP2 POP POP JUMP JUMPDEST PUSH1 0x20 DUP2 MSTORE PUSH0 PUSH2 0x17F0 PUSH1 0x20 DUP4 ADD DUP5 PUSH2 0x180E JUMP JUMPDEST PUSH0 DUP1 PUSH0 DUP1 PUSH1 0x80 DUP6 DUP8 SUB SLT ISZERO PUSH2 0x1876 JUMPI PUSH0 DUP1 REVERT JUMPDEST PUSH2 0x187F DUP6 PUSH2 0x177D JUMP JUMPDEST SWAP7 PUSH1 0x20 DUP7 ADD CALLDATALOAD SWAP7 POP PUSH1 0x40 DUP7 ADD CALLDATALOAD SWAP6 PUSH1 0x60 ADD CALLDATALOAD SWAP5 POP SWAP3 POP POP POP JUMP JUMPDEST PUSH4 0x4E487B71 PUSH1 0xE0 SHL PUSH0 MSTORE PUSH1 0x41 PUSH1 0x4 MSTORE PUSH1 0x24 PUSH0 REVERT JUMPDEST PUSH1 0x40 MLOAD PUSH1 0x1F DUP3 ADD PUSH1 0x1F NOT AND DUP2 ADD PUSH1 0x1 PUSH1 0x1 PUSH1 0x40 SHL SUB DUP2 GT DUP3 DUP3 LT OR ISZERO PUSH2 0x18D5 JUMPI PUSH2 0x18D5 PUSH2 0x1899 JUMP JUMPDEST PUSH1 0x40 MSTORE SWAP2 SWAP1 POP JUMP JUMPDEST PUSH0 PUSH1 0x1 PUSH1 0x1 PUSH1 0x40 SHL SUB DUP3 GT ISZERO PUSH2 0x18F5 JUMPI PUSH2 0x18F5 PUSH2 0x1899 JUMP JUMPDEST POP PUSH1 0x5 SHL PUSH1 0x20 ADD SWAP1 JUMP JUMPDEST PUSH0 DUP3 PUSH1 0x1F DUP4 ADD SLT PUSH2 0x190E JUMPI PUSH0 DUP1 REVERT JUMPDEST DUP2 CALLDATALOAD PUSH1 0x20 PUSH2 0x1923 PUSH2 0x191E DUP4 PUSH2 0x18DD JUMP JUMPDEST PUSH2 0x18AD JUMP JUMPDEST DUP1 DUP4 DUP3 MSTORE PUSH1 0x20 DUP3 ADD SWAP2 POP PUSH1 0x20 DUP5 PUSH1 0x5 SHL DUP8 ADD ADD SWAP4 POP DUP7 DUP5 GT ISZERO PUSH2 0x1944 JUMPI PUSH0 DUP1 REVERT JUMPDEST PUSH1 0x20 DUP7 ADD JUMPDEST DUP5 DUP2 LT ISZERO PUSH2 0x1960 JUMPI DUP1 CALLDATALOAD DUP4 MSTORE SWAP2 DUP4 ADD SWAP2 DUP4 ADD PUSH2 0x1949 JUMP JUMPDEST POP SWAP7 SWAP6 POP POP POP POP POP POP JUMP JUMPDEST PUSH0 DUP3 PUSH1 0x1F DUP4 ADD SLT PUSH2 0x197A JUMPI PUSH0 DUP1 REVERT JUMPDEST DUP2 CALLDATALOAD PUSH1 0x1 PUSH1 0x1 PUSH1 0x40 SHL SUB DUP2 GT ISZERO PUSH2 0x1993 JUMPI PUSH2 0x1993 PUSH2 0x1899 JUMP JUMPDEST PUSH2 0x19A6 PUSH1 0x1F DUP3 ADD PUSH1 0x1F NOT AND PUSH1 0x20 ADD PUSH2 0x18AD JUMP JUMPDEST DUP2 DUP2 MSTORE DUP5 PUSH1 0x20 DUP4 DUP7 ADD ADD GT ISZERO PUSH2 0x19BA JUMPI PUSH0 DUP1 REVERT JUMPDEST DUP2 PUSH1 0x20 DUP6 ADD PUSH1 0x20 DUP4 ADD CALLDATACOPY PUSH0 SWAP2 DUP2 ADD PUSH1 0x20 ADD SWAP2 SWAP1 SWAP2 MSTORE SWAP4 SWAP3 POP POP POP JUMP JUMPDEST PUSH0 DUP1 PUSH0 DUP1 PUSH0 PUSH1 0xA0 DUP7 DUP9 SUB SLT ISZERO PUSH2 0x19EA JUMPI PUSH0 DUP1 REVERT JUMPDEST PUSH2 0x19F3 DUP7 PUSH2 0x177D JUMP JUMPDEST SWAP5 POP PUSH2 0x1A01 PUSH1 0x20 DUP8 ADD PUSH2 0x177D JUMP JUMPDEST SWAP4 POP PUSH1 0x40 DUP7 ADD CALLDATALOAD PUSH1 0x1 PUSH1 0x1 PUSH1 0x40 SHL SUB DUP1 DUP3 GT ISZERO PUSH2 0x1A1C JUMPI PUSH0 DUP1 REVERT JUMPDEST PUSH2 0x1A28 DUP10 DUP4 DUP11 ADD PUSH2 0x18FF JUMP JUMPDEST SWAP5 POP PUSH1 0x60 DUP9 ADD CALLDATALOAD SWAP2 POP DUP1 DUP3 GT ISZERO PUSH2 0x1A3D JUMPI PUSH0 DUP1 REVERT JUMPDEST PUSH2 0x1A49 DUP10 DUP4 DUP11 ADD PUSH2 0x18FF JUMP JUMPDEST SWAP4 POP PUSH1 0x80 DUP9 ADD CALLDATALOAD SWAP2 POP DUP1 DUP3 GT ISZERO PUSH2 0x1A5E JUMPI PUSH0 DUP1 REVERT JUMPDEST POP PUSH2 0x1A6B DUP9 DUP3 DUP10 ADD PUSH2 0x196B JUMP JUMPDEST SWAP2 POP POP SWAP3 SWAP6 POP SWAP3 SWAP6 SWAP1 SWAP4 POP JUMP JUMPDEST PUSH0 PUSH1 0x20 DUP3 DUP5 SUB SLT ISZERO PUSH2 0x1A88 JUMPI PUSH0 DUP1 REVERT JUMPDEST PUSH2 0x17F0 DUP3 PUSH2 0x177D JUMP JUMPDEST PUSH0 DUP2 MLOAD DUP1 DUP5 MSTORE PUSH1 0x20 DUP1 DUP6 ADD SWAP5 POP PUSH1 0x20 DUP5 ADD PUSH0 JUMPDEST DUP4 DUP2 LT ISZERO PUSH2 0x1AC0 JUMPI DUP2 MLOAD DUP8 MSTORE SWAP6 DUP3 ADD SWAP6 SWAP1 DUP3 ADD SWAP1 PUSH1 0x1 ADD PUSH2 0x1AA4 JUMP JUMPDEST POP SWAP5 SWAP6 SWAP5 POP POP POP POP POP JUMP JUMPDEST PUSH1 0x60 DUP2 MSTORE PUSH0 PUSH2 0x1ADD PUSH1 0x60 DUP4 ADD DUP7 PUSH2 0x1A91 JUMP JUMPDEST PUSH1 0x20 DUP4 DUP3 SUB DUP2 DUP6 ADD MSTORE DUP2 DUP7 MLOAD DUP1 DUP5 MSTORE DUP3 DUP5 ADD SWAP2 POP DUP3 DUP2 PUSH1 0x5 SHL DUP6 ADD ADD DUP4 DUP10 ADD PUSH0 JUMPDEST DUP4 DUP2 LT ISZERO PUSH2 0x1B2C JUMPI PUSH1 0x1F NOT DUP8 DUP5 SUB ADD DUP6 MSTORE PUSH2 0x1B1A DUP4 DUP4 MLOAD PUSH2 0x180E JUMP JUMPDEST SWAP5 DUP7 ADD SWAP5 SWAP3 POP SWAP1 DUP6 ADD SWAP1 PUSH1 0x1 ADD PUSH2 0x1AFE JUMP JUMPDEST POP POP DUP7 DUP2 SUB PUSH1 0x40 DUP9 ADD MSTORE PUSH2 0x1B40 DUP2 DUP10 PUSH2 0x1A91 JUMP JUMPDEST SWAP11 SWAP10 POP POP POP POP POP POP POP POP POP POP JUMP JUMPDEST PUSH0 DUP1 PUSH1 0x40 DUP4 DUP6 SUB SLT ISZERO PUSH2 0x1B5F JUMPI PUSH0 DUP1 REVERT JUMPDEST DUP3 CALLDATALOAD PUSH1 0x1 PUSH1 0x1 PUSH1 0x40 SHL SUB DUP1 DUP3 GT ISZERO PUSH2 0x1B75 JUMPI PUSH0 DUP1 REVERT JUMPDEST DUP2 DUP6 ADD SWAP2 POP DUP6 PUSH1 0x1F DUP4 ADD SLT PUSH2 0x1B88 JUMPI PUSH0 DUP1 REVERT JUMPDEST DUP2 CALLDATALOAD PUSH1 0x20 PUSH2 0x1B98 PUSH2 0x191E DUP4 PUSH2 0x18DD JUMP JUMPDEST DUP3 DUP2 MSTORE PUSH1 0x5 SWAP3 SWAP1 SWAP3 SHL DUP5 ADD DUP2 ADD SWAP2 DUP2 DUP2 ADD SWAP1 DUP10 DUP5 GT ISZERO PUSH2 0x1BB6 JUMPI PUSH0 DUP1 REVERT JUMPDEST SWAP5 DUP3 ADD SWAP5 JUMPDEST DUP4 DUP7 LT ISZERO PUSH2 0x1BDB JUMPI PUSH2 0x1BCC DUP7 PUSH2 0x177D JUMP JUMPDEST DUP3 MSTORE SWAP5 DUP3 ADD SWAP5 SWAP1 DUP3 ADD SWAP1 PUSH2 0x1BBB JUMP JUMPDEST SWAP7 POP POP DUP7 ADD CALLDATALOAD SWAP3 POP POP DUP1 DUP3 GT ISZERO PUSH2 0x1BF0 JUMPI PUSH0 DUP1 REVERT JUMPDEST POP PUSH2 0x1BFD DUP6 DUP3 DUP7 ADD PUSH2 0x18FF JUMP JUMPDEST SWAP2 POP POP SWAP3 POP SWAP3 SWAP1 POP JUMP JUMPDEST PUSH1 0x20 DUP2 MSTORE PUSH0 PUSH2 0x17F0 PUSH1 0x20 DUP4 ADD DUP5 PUSH2 0x1A91 JUMP JUMPDEST PUSH0 DUP1 PUSH0 PUSH1 0x60 DUP5 DUP7 SUB SLT ISZERO PUSH2 0x1C2B JUMPI PUSH0 DUP1 REVERT JUMPDEST PUSH2 0x1C34 DUP5 PUSH2 0x177D JUMP JUMPDEST SWAP3 POP PUSH1 0x20 DUP5 ADD CALLDATALOAD SWAP2 POP PUSH1 0x40 DUP5 ADD CALLDATALOAD PUSH1 0x1 PUSH1 0x1 PUSH1 0x40 SHL SUB DUP2 GT ISZERO PUSH2 0x1C55 JUMPI PUSH0 DUP1 REVERT JUMPDEST PUSH2 0x1C61 DUP7 DUP3 DUP8 ADD PUSH2 0x196B JUMP JUMPDEST SWAP2 POP POP SWAP3 POP SWAP3 POP SWAP3 JUMP JUMPDEST PUSH0 DUP1 PUSH1 0x40 DUP4 DUP6 SUB SLT ISZERO PUSH2 0x1C7C JUMPI PUSH0 DUP1 REVERT JUMPDEST PUSH2 0x1C85 DUP4 PUSH2 0x177D JUMP JUMPDEST SWAP2 POP PUSH1 0x20 DUP4 ADD CALLDATALOAD DUP1 ISZERO ISZERO DUP2 EQ PUSH2 0x1C99 JUMPI PUSH0 DUP1 REVERT JUMPDEST DUP1 SWAP2 POP POP SWAP3 POP SWAP3 SWAP1 POP JUMP JUMPDEST PUSH1 0x20 DUP2 MSTORE PUSH0 DUP3 MLOAD PUSH1 0x80 PUSH1 0x20 DUP5 ADD MSTORE PUSH2 0x1CBF PUSH1 0xA0 DUP5 ADD DUP3 PUSH2 0x180E JUMP JUMPDEST SWAP1 POP PUSH1 0x20 DUP5 ADD MLOAD PUSH1 0x1F NOT DUP1 DUP6 DUP5 SUB ADD PUSH1 0x40 DUP7 ADD MSTORE PUSH2 0x1CDD DUP4 DUP4 PUSH2 0x180E JUMP JUMPDEST SWAP3 POP PUSH1 0x40 DUP7 ADD MLOAD SWAP2 POP DUP1 DUP6 DUP5 SUB ADD PUSH1 0x60 DUP7 ADD MSTORE POP PUSH2 0x1CFB DUP3 DUP3 PUSH2 0x180E JUMP JUMPDEST SWAP2 POP POP PUSH1 0x60 DUP5 ADD MLOAD ISZERO ISZERO PUSH1 0x80 DUP5 ADD MSTORE DUP1 SWAP2 POP POP SWAP3 SWAP2 POP POP JUMP JUMPDEST PUSH1 0x80 DUP2 MSTORE PUSH0 PUSH2 0x1D26 PUSH1 0x80 DUP4 ADD DUP8 PUSH2 0x180E JUMP JUMPDEST DUP3 DUP2 SUB PUSH1 0x20 DUP5 ADD MSTORE PUSH2 0x1D38 DUP2 DUP8 PUSH2 0x180E JUMP JUMPDEST SWAP1 POP DUP3 DUP2 SUB PUSH1 0x40 DUP5 ADD MSTORE PUSH2 0x1D4C DUP2 DUP7 PUSH2 0x180E JUMP JUMPDEST SWAP2 POP POP DUP3 ISZERO ISZERO PUSH1 0x60 DUP4 ADD MSTORE SWAP6 SWAP5 POP POP POP POP POP JUMP JUMPDEST PUSH0 DUP1 PUSH0 DUP1 PUSH1 0x80 DUP6 DUP8 SUB SLT ISZERO PUSH2 0x1D73 JUMPI PUSH0 DUP1 REVERT JUMPDEST DUP5 CALLDATALOAD SWAP4 POP PUSH1 0x20 DUP6 ADD CALLDATALOAD PUSH1 0x1 PUSH1 0x1 PUSH1 0x40 SHL SUB DUP1 DUP3 GT ISZERO PUSH2 0x1D90 JUMPI PUSH0 DUP1 REVERT JUMPDEST PUSH2 0x1D9C DUP9 DUP4 DUP10 ADD PUSH2 0x196B JUMP JUMPDEST SWAP5 POP PUSH1 0x40 DUP8 ADD CALLDATALOAD SWAP2 POP DUP1 DUP3 GT ISZERO PUSH2 0x1DB1 JUMPI PUSH0 DUP1 REVERT JUMPDEST PUSH2 0x1DBD DUP9 DUP4 DUP10 ADD PUSH2 0x196B JUMP JUMPDEST SWAP4 POP PUSH1 0x60 DUP8 ADD CALLDATALOAD SWAP2 POP DUP1 DUP3 GT ISZERO PUSH2 0x1DD2 JUMPI PUSH0 DUP1 REVERT JUMPDEST POP PUSH2 0x1DDF DUP8 DUP3 DUP9 ADD PUSH2 0x196B JUMP JUMPDEST SWAP2 POP POP SWAP3 SWAP6 SWAP2 SWAP5 POP SWAP3 POP JUMP JUMPDEST PUSH0 DUP1 PUSH1 0x40 DUP4 DUP6 SUB SLT ISZERO PUSH2 0x1DFC JUMPI PUSH0 DUP1 REVERT JUMPDEST PUSH2 0x1E05 DUP4 PUSH2 0x177D JUMP JUMPDEST SWAP2 POP PUSH2 0x1E13 PUSH1 0x20 DUP5 ADD PUSH2 0x177D JUMP JUMPDEST SWAP1 POP SWAP3 POP SWAP3 SWAP1 POP JUMP JUMPDEST PUSH0 DUP1 PUSH0 DUP1 PUSH0 PUSH1 0xA0 DUP7 DUP9 SUB SLT ISZERO PUSH2 0x1E30 JUMPI PUSH0 DUP1 REVERT JUMPDEST PUSH2 0x1E39 DUP7 PUSH2 0x177D JUMP JUMPDEST SWAP5 POP PUSH2 0x1E47 PUSH1 0x20 DUP8 ADD PUSH2 0x177D JUMP JUMPDEST SWAP4 POP PUSH1 0x40 DUP7 ADD CALLDATALOAD SWAP3 POP PUSH1 0x60 DUP7 ADD CALLDATALOAD SWAP2 POP PUSH1 0x80 DUP7 ADD CALLDATALOAD PUSH1 0x1 PUSH1 0x1 PUSH1 0x40 SHL SUB DUP2 GT ISZERO PUSH2 0x1E6F JUMPI PUSH0 DUP1 REVERT JUMPDEST PUSH2 0x1A6B DUP9 DUP3 DUP10 ADD PUSH2 0x196B JUMP JUMPDEST PUSH1 0x1 DUP2 DUP2 SHR SWAP1 DUP3 AND DUP1 PUSH2 0x1E8F JUMPI PUSH1 0x7F DUP3 AND SWAP2 POP JUMPDEST PUSH1 0x20 DUP3 LT DUP2 SUB PUSH2 0x1EAD JUMPI PUSH4 0x4E487B71 PUSH1 0xE0 SHL PUSH0 MSTORE PUSH1 0x22 PUSH1 0x4 MSTORE PUSH1 0x24 PUSH0 REVERT JUMPDEST POP SWAP2 SWAP1 POP JUMP JUMPDEST PUSH4 0x4E487B71 PUSH1 0xE0 SHL PUSH0 MSTORE PUSH1 0x11 PUSH1 0x4 MSTORE PUSH1 0x24 PUSH0 REVERT JUMPDEST DUP1 DUP3 ADD DUP1 DUP3 GT ISZERO PUSH2 0x503 JUMPI PUSH2 0x503 PUSH2 0x1EB3 JUMP JUMPDEST PUSH0 PUSH1 0x1 DUP3 ADD PUSH2 0x1EEB JUMPI PUSH2 0x1EEB PUSH2 0x1EB3 JUMP JUMPDEST POP PUSH1 0x1 ADD SWAP1 JUMP JUMPDEST PUSH4 0x4E487B71 PUSH1 0xE0 SHL PUSH0 MSTORE PUSH1 0x32 PUSH1 0x4 MSTORE PUSH1 0x24 PUSH0 REVERT JUMPDEST PUSH1 0x40 DUP2 MSTORE PUSH0 PUSH2 0x1F18 PUSH1 0x40 DUP4 ADD DUP6 PUSH2 0x180E JUMP JUMPDEST SWAP1 POP DUP3 PUSH1 0x20 DUP4 ADD MSTORE SWAP4 SWAP3 POP POP POP JUMP JUMPDEST PUSH1 0x1F DUP3 GT ISZERO PUSH2 0x1F6B JUMPI DUP1 PUSH0 MSTORE PUSH1 0x20 PUSH0 KECCAK256 PUSH1 0x1F DUP5 ADD PUSH1 0x5 SHR DUP2 ADD PUSH1 0x20 DUP6 LT ISZERO PUSH2 0x1F4C JUMPI POP DUP1 JUMPDEST PUSH1 0x1F DUP5 ADD PUSH1 0x5 SHR DUP3 ADD SWAP2 POP JUMPDEST DUP2 DUP2 LT ISZERO PUSH2 0x1159 JUMPI PUSH0 DUP2 SSTORE PUSH1 0x1 ADD PUSH2 0x1F58 JUMP JUMPDEST POP POP POP JUMP JUMPDEST DUP2 MLOAD PUSH1 0x1 PUSH1 0x1 PUSH1 0x40 SHL SUB DUP2 GT ISZERO PUSH2 0x1F89 JUMPI PUSH2 0x1F89 PUSH2 0x1899 JUMP JUMPDEST PUSH2 0x1F9D DUP2 PUSH2 0x1F97 DUP5 SLOAD PUSH2 0x1E7B JUMP JUMPDEST DUP5 PUSH2 0x1F27 JUMP JUMPDEST PUSH1 0x20 DUP1 PUSH1 0x1F DUP4 GT PUSH1 0x1 DUP2 EQ PUSH2 0x1FD0 JUMPI PUSH0 DUP5 ISZERO PUSH2 0x1FB9 JUMPI POP DUP6 DUP4 ADD MLOAD JUMPDEST PUSH0 NOT PUSH1 0x3 DUP7 SWAP1 SHL SHR NOT AND PUSH1 0x1 DUP6 SWAP1 SHL OR DUP6 SSTORE PUSH2 0x1276 JUMP JUMPDEST PUSH0 DUP6 DUP2 MSTORE PUSH1 0x20 DUP2 KECCAK256 PUSH1 0x1F NOT DUP7 AND SWAP2 JUMPDEST DUP3 DUP2 LT ISZERO PUSH2 0x1FFE JUMPI DUP9 DUP7 ADD MLOAD DUP3 SSTORE SWAP5 DUP5 ADD SWAP5 PUSH1 0x1 SWAP1 SWAP2 ADD SWAP1 DUP5 ADD PUSH2 0x1FDF JUMP JUMPDEST POP DUP6 DUP3 LT ISZERO PUSH2 0x201B JUMPI DUP8 DUP6 ADD MLOAD PUSH0 NOT PUSH1 0x3 DUP9 SWAP1 SHL PUSH1 0xF8 AND SHR NOT AND DUP2 SSTORE JUMPDEST POP POP POP POP POP PUSH1 0x1 SWAP1 DUP2 SHL ADD SWAP1 SSTORE POP JUMP JUMPDEST PUSH1 0x40 DUP2 MSTORE PUSH0 PUSH2 0x203D PUSH1 0x40 DUP4 ADD DUP6 PUSH2 0x1A91 JUMP JUMPDEST DUP3 DUP2 SUB PUSH1 0x20 DUP5 ADD MSTORE PUSH2 0x204F DUP2 DUP6 PUSH2 0x1A91 JUMP JUMPDEST SWAP6 SWAP5 POP POP POP POP POP JUMP JUMPDEST PUSH1 0x1 PUSH1 0x1 PUSH1 0xA0 SHL SUB DUP7 DUP2 AND DUP3 MSTORE DUP6 AND PUSH1 0x20 DUP3 ADD MSTORE PUSH1 0x40 DUP2 ADD DUP5 SWAP1 MSTORE PUSH1 0x60 DUP2 ADD DUP4 SWAP1 MSTORE PUSH1 0xA0 PUSH1 0x80 DUP3 ADD DUP2 SWAP1 MSTORE PUSH0 SWAP1 PUSH2 0x2091 SWAP1 DUP4 ADD DUP5 PUSH2 0x180E JUMP JUMPDEST SWAP8 SWAP7 POP POP POP POP POP POP POP JUMP JUMPDEST PUSH0 PUSH1 0x20 DUP3 DUP5 SUB SLT ISZERO PUSH2 0x20AC JUMPI PUSH0 DUP1 REVERT JUMPDEST DUP2 MLOAD PUSH2 0x17F0 DUP2 PUSH2 0x17C0 JUMP JUMPDEST PUSH1 0x1 PUSH1 0x1 PUSH1 0xA0 SHL SUB DUP7 DUP2 AND DUP3 MSTORE DUP6 AND PUSH1 0x20 DUP3 ADD MSTORE PUSH1 0xA0 PUSH1 0x40 DUP3 ADD DUP2 SWAP1 MSTORE PUSH0 SWAP1 PUSH2 0x20E2 SWAP1 DUP4 ADD DUP7 PUSH2 0x1A91 JUMP JUMPDEST DUP3 DUP2 SUB PUSH1 0x60 DUP5 ADD MSTORE PUSH2 0x20F4 DUP2 DUP7 PUSH2 0x1A91 JUMP JUMPDEST SWAP1 POP DUP3 DUP2 SUB PUSH1 0x80 DUP5 ADD MSTORE PUSH2 0x2108 DUP2 DUP6 PUSH2 0x180E JUMP JUMPDEST SWAP9 SWAP8 POP POP POP POP POP POP POP POP JUMP INVALID LOG2 PUSH5 0x6970667358 0x22 SLT KECCAK256 0x2F NOT STOP STOP 0xD4 0xBC 0xBC SWAP10 0xDD 0xF MULMOD MOD 0xF7 0x4E 0xA8 0xE8 0xE6 0xF9 COINBASE 0xEB 0xAE DELEGATECALL 0xAB PUSH13 0x169D0E179FD83AAB64736F6C63 NUMBER STOP ADDMOD XOR STOP CALLER PUSH10 0x7066733A2F2F516D4D61 PUSH10 0x6E7461696E65722E2E2E 0x2F PUSH14 0x657461646174612E6A736F6E6970 PUSH7 0x733A2F2F516D43 PUSH16 0x6E7472696275746F722E2E2E2F6D6574 PUSH2 0x6461 PUSH21 0x612E6A736F6E697066733A2F2F516D466972737443 PUSH16 0x6D6D69742E2E2E2F6D65746164617461 0x2E PUSH11 0x736F6E697066733A2F2F51 PUSH14 0x4163746976654465762E2E2E2F6D PUSH6 0x746164617461 0x2E PUSH11 0x736F6E4D61646520796F75 PUSH19 0x20666972737420636F6D6D697420746F20616E PUSH26 0x207265706F7369746F7279417070726F766564203130206F7220 PUSH14 0x6F726520636F6D6D697473206173 KECCAK256 PUSH19 0x65706F7369746F7279206F776E65724D616465 KECCAK256 CALLDATALOAD KECCAK256 PUSH16 0x72206D6F726520636F6D6D6974732061 PUSH4 0x726F7373 KECCAK256 PUSH19 0x65706F7369746F72696573697066733A2F2F51 PUSH14 0x5265706F43726561746F722E2E2E 0x2F PUSH14 0x657461646174612E6A736F6E4D61 PUSH5 0x652033302B KECCAK256 PUSH4 0x6F6D6D69 PUSH21 0x7320696E20746865206C617374206D6F6E74680000 "
		},
		"gasEstimates": {
			"creation": {
				"codeDepositCost": "1704400",
				"executionCost": "infinite",
				"totalCost": "infinite"
			},
			"external": {
				"ACTIVE_DEVELOPER()": "295",
				"CONTRIBUTOR()": "272",
				"FIRST_COMMIT()": "272",
				"MAINTAINER()": "273",
				"REPO_CREATOR()": "251",
				"approvalCount(address)": "2572",
				"badgeEarnedAt(address,uint256)": "2709",
				"badgeInfo(uint256)": "infinite",
				"balanceOf(address,uint256)": "2680",
				"balanceOfBatch(address[],uint256[])": "infinite",
				"deactivateBadge(uint256)": "26740",
				"getBadgeInfo(uint256)": "infinite",
				"getUserBadges(address)": "infinite",
				"getUserStats(address)": "infinite",
				"hasBadge(address,uint256)": "2733",
				"isApprovedForAll(address,address)": "infinite",
				"mintBadge(address,uint256,string)": "infinite",
				"owner()": "2409",
				"renounceOwnership()": "infinite",
				"repositoryFactory()": "2403",
				"safeBatchTransferFrom(address,address,uint256[],uint256[],bytes)": "infinite",
				"safeTransferFrom(address,address,uint256,uint256,bytes)": "infinite",
				"setApprovalForAll(address,bool)": "26757",
				"setRepositoryFactory(address)": "26778",
				"supportsInterface(bytes4)": "598",
				"transferOwnership(address)": "28443",
				"updateBadgeInfo(uint256,string,string,string)": "infinite",
				"updateUserStats(address,uint256,uint256,uint256)": "26937",
				"uri(uint256)": "infinite",
				"userHasBadge(address,uint256)": "2690"
			},
			"internal": {
				"_initializeBadges()": "infinite"
			}
		},
		"methodIdentifiers": {
			"ACTIVE_DEVELOPER()": "2b578c70",
			"CONTRIBUTOR()": "61fa40dc",
			"FIRST_COMMIT()": "44edf569",
			"MAINTAINER()": "2aabb726",
			"REPO_CREATOR()": "77f30247",
			"approvalCount(address)": "9a9ddd16",
			"badgeEarnedAt(address,uint256)": "ad49c906",
			"badgeInfo(uint256)": "e2d52e1d",
			"balanceOf(address,uint256)": "00fdd58e",
			"balanceOfBatch(address[],uint256[])": "4e1273f4",
			"deactivateBadge(uint256)": "29e69ae0",
			"getBadgeInfo(uint256)": "e2045b5e",
			"getUserBadges(address)": "37c245fe",
			"getUserStats(address)": "4e43603a",
			"hasBadge(address,uint256)": "4c6a70ce",
			"isApprovedForAll(address,address)": "e985e9c5",
			"mintBadge(address,uint256,string)": "74afd802",
			"owner()": "8da5cb5b",
			"renounceOwnership()": "715018a6",
			"repositoryFactory()": "ddea3bc6",
			"safeBatchTransferFrom(address,address,uint256[],uint256[],bytes)": "2eb2c2d6",
			"safeTransferFrom(address,address,uint256,uint256,bytes)": "f242432a",
			"setApprovalForAll(address,bool)": "a22cb465",
			"setRepositoryFactory(address)": "91c26452",
			"supportsInterface(bytes4)": "01ffc9a7",
			"transferOwnership(address)": "f2fde38b",
			"updateBadgeInfo(uint256,string,string,string)": "e97045b3",
			"updateUserStats(address,uint256,uint256,uint256)": "170b7a7b",
			"uri(uint256)": "0e89341c",
			"userHasBadge(address,uint256)": "b2b6b3e1"
		}
	},
	"abi": [
		{
			"inputs": [],
			"stateMutability": "nonpayable",
			"type": "constructor"
		},
		{
			"inputs": [
				{
					"internalType": "address",
					"name": "sender",
					"type": "address"
				},
				{
					"internalType": "uint256",
					"name": "balance",
					"type": "uint256"
				},
				{
					"internalType": "uint256",
					"name": "needed",
					"type": "uint256"
				},
				{
					"internalType": "uint256",
					"name": "tokenId",
					"type": "uint256"
				}
			],
			"name": "ERC1155InsufficientBalance",
			"type": "error"
		},
		{
			"inputs": [
				{
					"internalType": "address",
					"name": "approver",
					"type": "address"
				}
			],
			"name": "ERC1155InvalidApprover",
			"type": "error"
		},
		{
			"inputs": [
				{
					"internalType": "uint256",
					"name": "idsLength",
					"type": "uint256"
				},
				{
					"internalType": "uint256",
					"name": "valuesLength",
					"type": "uint256"
				}
			],
			"name": "ERC1155InvalidArrayLength",
			"type": "error"
		},
		{
			"inputs": [
				{
					"internalType": "address",
					"name": "operator",
					"type": "address"
				}
			],
			"name": "ERC1155InvalidOperator",
			"type": "error"
		},
		{
			"inputs": [
				{
					"internalType": "address",
					"name": "receiver",
					"type": "address"
				}
			],
			"name": "ERC1155InvalidReceiver",
			"type": "error"
		},
		{
			"inputs": [
				{
					"internalType": "address",
					"name": "sender",
					"type": "address"
				}
			],
			"name": "ERC1155InvalidSender",
			"type": "error"
		},
		{
			"inputs": [
				{
					"internalType": "address",
					"name": "operator",
					"type": "address"
				},
				{
					"internalType": "address",
					"name": "owner",
					"type": "address"
				}
			],
			"name": "ERC1155MissingApprovalForAll",
			"type": "error"
		},
		{
			"inputs": [
				{
					"internalType": "address",
					"name": "owner",
					"type": "address"
				}
			],
			"name": "OwnableInvalidOwner",
			"type": "error"
		},
		{
			"inputs": [
				{
					"internalType": "address",
					"name": "account",
					"type": "address"
				}
			],
			"name": "OwnableUnauthorizedAccount",
			"type": "error"
		},
		{
			"anonymous": false,
			"inputs": [
				{
					"indexed": true,
					"internalType": "address",
					"name": "account",
					"type": "address"
				},
				{
					"indexed": true,
					"internalType": "address",
					"name": "operator",
					"type": "address"
				},
				{
					"indexed": false,
					"internalType": "bool",
					"name": "approved",
					"type": "bool"
				}
			],
			"name": "ApprovalForAll",
			"type": "event"
		},
		{
			"anonymous": false,
			"inputs": [
				{
					"indexed": true,
					"internalType": "address",
					"name": "user",
					"type": "address"
				},
				{
					"indexed": true,
					"internalType": "uint256",
					"name": "badgeId",
					"type": "uint256"
				},
				{
					"indexed": false,
					"internalType": "string",
					"name": "repoName",
					"type": "string"
				},
				{
					"indexed": false,
					"internalType": "uint256",
					"name": "timestamp",
					"type": "uint256"
				}
			],
			"name": "BadgeEarned",
			"type": "event"
		},
		{
			"anonymous": false,
			"inputs": [
				{
					"indexed": true,
					"internalType": "address",
					"name": "previousOwner",
					"type": "address"
				},
				{
					"indexed": true,
					"internalType": "address",
					"name": "newOwner",
					"type": "address"
				}
			],
			"name": "OwnershipTransferred",
			"type": "event"
		},
		{
			"anonymous": false,
			"inputs": [
				{
					"indexed": true,
					"internalType": "address",
					"name": "operator",
					"type": "address"
				},
				{
					"indexed": true,
					"internalType": "address",
					"name": "from",
					"type": "address"
				},
				{
					"indexed": true,
					"internalType": "address",
					"name": "to",
					"type": "address"
				},
				{
					"indexed": false,
					"internalType": "uint256[]",
					"name": "ids",
					"type": "uint256[]"
				},
				{
					"indexed": false,
					"internalType": "uint256[]",
					"name": "values",
					"type": "uint256[]"
				}
			],
			"name": "TransferBatch",
			"type": "event"
		},
		{
			"anonymous": false,
			"inputs": [
				{
					"indexed": true,
					"internalType": "address",
					"name": "operator",
					"type": "address"
				},
				{
					"indexed": true,
					"internalType": "address",
					"name": "from",
					"type": "address"
				},
				{
					"indexed": true,
					"internalType": "address",
					"name": "to",
					"type": "address"
				},
				{
					"indexed": false,
					"internalType": "uint256",
					"name": "id",
					"type": "uint256"
				},
				{
					"indexed": false,
					"internalType": "uint256",
					"name": "value",
					"type": "uint256"
				}
			],
			"name": "TransferSingle",
			"type": "event"
		},
		{
			"anonymous": false,
			"inputs": [
				{
					"indexed": false,
					"internalType": "string",
					"name": "value",
					"type": "string"
				},
				{
					"indexed": true,
					"internalType": "uint256",
					"name": "id",
					"type": "uint256"
				}
			],
			"name": "URI",
			"type": "event"
		},
		{
			"inputs": [],
			"name": "ACTIVE_DEVELOPER",
			"outputs": [
				{
					"internalType": "uint256",
					"name": "",
					"type": "uint256"
				}
			],
			"stateMutability": "view",
			"type": "function"
		},
		{
			"inputs": [],
			"name": "CONTRIBUTOR",
			"outputs": [
				{
					"internalType": "uint256",
					"name": "",
					"type": "uint256"
				}
			],
			"stateMutability": "view",
			"type": "function"
		},
		{
			"inputs": [],
			"name": "FIRST_COMMIT",
			"outputs": [
				{
					"internalType": "uint256",
					"name": "",
					"type": "uint256"
				}
			],
			"stateMutability": "view",
			"type": "function"
		},
		{
			"inputs": [],
			"name": "MAINTAINER",
			"outputs": [
				{
					"internalType": "uint256",
					"name": "",
					"type": "uint256"
				}
			],
			"stateMutability": "view",
			"type": "function"
		},
		{
			"inputs": [],
			"name": "REPO_CREATOR",
			"outputs": [
				{
					"internalType": "uint256",
					"name": "",
					"type": "uint256"
				}
			],
			"stateMutability": "view",
			"type": "function"
		},
		{
			"inputs": [
				{
					"internalType": "address",
					"name": "",
					"type": "address"
				}
			],
			"name": "approvalCount",
			"outputs": [
				{
					"internalType": "uint256",
					"name": "",
					"type": "uint256"
				}
			],
			"stateMutability": "view",
			"type": "function"
		},
		{
			"inputs": [
				{
					"internalType": "address",
					"name": "",
					"type": "address"
				},
				{
					"internalType": "uint256",
					"name": "",
					"type": "uint256"
				}
			],
			"name": "badgeEarnedAt",
			"outputs": [
				{
					"internalType": "uint256",
					"name": "",
					"type": "uint256"
				}
			],
			"stateMutability": "view",
			"type": "function"
		},
		{
			"inputs": [
				{
					"internalType": "uint256",
					"name": "",
					"type": "uint256"
				}
			],
			"name": "badgeInfo",
			"outputs": [
				{
					"internalType": "string",
					"name": "name",
					"type": "string"
				},
				{
					"internalType": "string",
					"name": "description",
					"type": "string"
				},
				{
					"internalType": "string",
					"name": "imageURI",
					"type": "string"
				},
				{
					"internalType": "bool",
					"name": "isActive",
					"type": "bool"
				}
			],
			"stateMutability": "view",
			"type": "function"
		},
		{
			"inputs": [
				{
					"internalType": "address",
					"name": "account",
					"type": "address"
				},
				{
					"internalType": "uint256",
					"name": "id",
					"type": "uint256"
				}
			],
			"name": "balanceOf",
			"outputs": [
				{
					"internalType": "uint256",
					"name": "",
					"type": "uint256"
				}
			],
			"stateMutability": "view",
			"type": "function"
		},
		{
			"inputs": [
				{
					"internalType": "address[]",
					"name": "accounts",
					"type": "address[]"
				},
				{
					"internalType": "uint256[]",
					"name": "ids",
					"type": "uint256[]"
				}
			],
			"name": "balanceOfBatch",
			"outputs": [
				{
					"internalType": "uint256[]",
					"name": "",
					"type": "uint256[]"
				}
			],
			"stateMutability": "view",
			"type": "function"
		},
		{
			"inputs": [
				{
					"internalType": "uint256",
					"name": "badgeId",
					"type": "uint256"
				}
			],
			"name": "deactivateBadge",
			"outputs": [],
			"stateMutability": "nonpayable",
			"type": "function"
		},
		{
			"inputs": [
				{
					"internalType": "uint256",
					"name": "badgeId",
					"type": "uint256"
				}
			],
			"name": "getBadgeInfo",
			"outputs": [
				{
					"components": [
						{
							"internalType": "string",
							"name": "name",
							"type": "string"
						},
						{
							"internalType": "string",
							"name": "description",
							"type": "string"
						},
						{
							"internalType": "string",
							"name": "imageURI",
							"type": "string"
						},
						{
							"internalType": "bool",
							"name": "isActive",
							"type": "bool"
						}
					],
					"internalType": "struct BlockhubPOAP.BadgeInfo",
					"name": "",
					"type": "tuple"
				}
			],
			"stateMutability": "view",
			"type": "function"
		},
		{
			"inputs": [
				{
					"internalType": "address",
					"name": "user",
					"type": "address"
				}
			],
			"name": "getUserBadges",
			"outputs": [
				{
					"internalType": "uint256[]",
					"name": "badgeIds",
					"type": "uint256[]"
				},
				{
					"internalType": "string[]",
					"name": "names",
					"type": "string[]"
				},
				{
					"internalType": "uint256[]",
					"name": "timestamps",
					"type": "uint256[]"
				}
			],
			"stateMutability": "view",
			"type": "function"
		},
		{
			"inputs": [
				{
					"internalType": "address",
					"name": "user",
					"type": "address"
				}
			],
			"name": "getUserStats",
			"outputs": [
				{
					"internalType": "uint256",
					"name": "totalApprovals",
					"type": "uint256"
				},
				{
					"internalType": "uint256",
					"name": "totalBadges",
					"type": "uint256"
				}
			],
			"stateMutability": "view",
			"type": "function"
		},
		{
			"inputs": [
				{
					"internalType": "address",
					"name": "",
					"type": "address"
				},
				{
					"internalType": "uint256",
					"name": "",
					"type": "uint256"
				}
			],
			"name": "hasBadge",
			"outputs": [
				{
					"internalType": "bool",
					"name": "",
					"type": "bool"
				}
			],
			"stateMutability": "view",
			"type": "function"
		},
		{
			"inputs": [
				{
					"internalType": "address",
					"name": "account",
					"type": "address"
				},
				{
					"internalType": "address",
					"name": "operator",
					"type": "address"
				}
			],
			"name": "isApprovedForAll",
			"outputs": [
				{
					"internalType": "bool",
					"name": "",
					"type": "bool"
				}
			],
			"stateMutability": "view",
			"type": "function"
		},
		{
			"inputs": [
				{
					"internalType": "address",
					"name": "to",
					"type": "address"
				},
				{
					"internalType": "uint256",
					"name": "badgeId",
					"type": "uint256"
				},
				{
					"internalType": "string",
					"name": "repoName",
					"type": "string"
				}
			],
			"name": "mintBadge",
			"outputs": [],
			"stateMutability": "nonpayable",
			"type": "function"
		},
		{
			"inputs": [],
			"name": "owner",
			"outputs": [
				{
					"internalType": "address",
					"name": "",
					"type": "address"
				}
			],
			"stateMutability": "view",
			"type": "function"
		},
		{
			"inputs": [],
			"name": "renounceOwnership",
			"outputs": [],
			"stateMutability": "nonpayable",
			"type": "function"
		},
		{
			"inputs": [],
			"name": "repositoryFactory",
			"outputs": [
				{
					"internalType": "address",
					"name": "",
					"type": "address"
				}
			],
			"stateMutability": "view",
			"type": "function"
		},
		{
			"inputs": [
				{
					"internalType": "address",
					"name": "",
					"type": "address"
				},
				{
					"internalType": "address",
					"name": "",
					"type": "address"
				},
				{
					"internalType": "uint256[]",
					"name": "",
					"type": "uint256[]"
				},
				{
					"internalType": "uint256[]",
					"name": "",
					"type": "uint256[]"
				},
				{
					"internalType": "bytes",
					"name": "",
					"type": "bytes"
				}
			],
			"name": "safeBatchTransferFrom",
			"outputs": [],
			"stateMutability": "pure",
			"type": "function"
		},
		{
			"inputs": [
				{
					"internalType": "address",
					"name": "",
					"type": "address"
				},
				{
					"internalType": "address",
					"name": "",
					"type": "address"
				},
				{
					"internalType": "uint256",
					"name": "",
					"type": "uint256"
				},
				{
					"internalType": "uint256",
					"name": "",
					"type": "uint256"
				},
				{
					"internalType": "bytes",
					"name": "",
					"type": "bytes"
				}
			],
			"name": "safeTransferFrom",
			"outputs": [],
			"stateMutability": "pure",
			"type": "function"
		},
		{
			"inputs": [
				{
					"internalType": "address",
					"name": "operator",
					"type": "address"
				},
				{
					"internalType": "bool",
					"name": "approved",
					"type": "bool"
				}
			],
			"name": "setApprovalForAll",
			"outputs": [],
			"stateMutability": "nonpayable",
			"type": "function"
		},
		{
			"inputs": [
				{
					"internalType": "address",
					"name": "_factory",
					"type": "address"
				}
			],
			"name": "setRepositoryFactory",
			"outputs": [],
			"stateMutability": "nonpayable",
			"type": "function"
		},
		{
			"inputs": [
				{
					"internalType": "bytes4",
					"name": "interfaceId",
					"type": "bytes4"
				}
			],
			"name": "supportsInterface",
			"outputs": [
				{
					"internalType": "bool",
					"name": "",
					"type": "bool"
				}
			],
			"stateMutability": "view",
			"type": "function"
		},
		{
			"inputs": [
				{
					"internalType": "address",
					"name": "newOwner",
					"type": "address"
				}
			],
			"name": "transferOwnership",
			"outputs": [],
			"stateMutability": "nonpayable",
			"type": "function"
		},
		{
			"inputs": [
				{
					"internalType": "uint256",
					"name": "badgeId",
					"type": "uint256"
				},
				{
					"internalType": "string",
					"name": "name",
					"type": "string"
				},
				{
					"internalType": "string",
					"name": "description",
					"type": "string"
				},
				{
					"internalType": "string",
					"name": "imageURI",
					"type": "string"
				}
			],
			"name": "updateBadgeInfo",
			"outputs": [],
			"stateMutability": "nonpayable",
			"type": "function"
		},
		{
			"inputs": [
				{
					"internalType": "address",
					"name": "user",
					"type": "address"
				},
				{
					"internalType": "uint256",
					"name": "newCommits",
					"type": "uint256"
				},
				{
					"internalType": "uint256",
					"name": "newRepos",
					"type": "uint256"
				},
				{
					"internalType": "uint256",
					"name": "newApprovals",
					"type": "uint256"
				}
			],
			"name": "updateUserStats",
			"outputs": [],
			"stateMutability": "nonpayable",
			"type": "function"
		},
		{
			"inputs": [
				{
					"internalType": "uint256",
					"name": "tokenId",
					"type": "uint256"
				}
			],
			"name": "uri",
			"outputs": [
				{
					"internalType": "string",
					"name": "",
					"type": "string"
				}
			],
			"stateMutability": "view",
			"type": "function"
		},
		{
			"inputs": [
				{
					"internalType": "address",
					"name": "user",
					"type": "address"
				},
				{
					"internalType": "uint256",
					"name": "badgeId",
					"type": "uint256"
				}
			],
			"name": "userHasBadge",
			"outputs": [
				{
					"internalType": "bool",
					"name": "",
					"type": "bool"
				}
			],
			"stateMutability": "view",
			"type": "function"
		}
	]
}