{
	"data": {
		"bytecode": {
			"linkReferences": {},
			"object": "60806040525f600b5534801562000014575f80fd5b50604051806040016040528060118152602001705265706f7369746f7279466163746f727960781b815250604051806040016040528060048152602001635245504f60e01b815250815f90816200006c919062000122565b5060016200007b828262000122565b505050620001ee565b634e487b7160e01b5f52604160045260245ffd5b600181811c90821680620000ad57607f821691505b602082108103620000cc57634e487b7160e01b5f52602260045260245ffd5b50919050565b601f8211156200011d57805f5260205f20601f840160051c81016020851015620000f95750805b601f840160051c820191505b818110156200011a575f815560010162000105565b50505b505050565b81516001600160401b038111156200013e576200013e62000084565b62000156816200014f845462000098565b84620000d2565b602080601f8311600181146200018c575f8415620001745750858301515b5f19600386901b1c1916600185901b178555620001e6565b5f85815260208120601f198616915b82811015620001bc578886015182559484019460019091019084016200019b565b5085821015620001da57878501515f19600388901b60f8161c191681555b505060018460011b0185555b505050505050565b61533780620001fc5f395ff3fe60806040526004361062000233575f3560e01c806370a08231116200012a578063aa8c217c11620000aa578063c87b56dd1162000076578063c87b56dd146200070f578063c8be95681462000733578063e985e9c5146200074a578063f0492eaf146200076e578063f5cc98c914620007a0575f80fd5b8063aa8c217c1462000681578063b3b9f3a91462000698578063b88d4fde14620006c7578063c269276014620006eb575f80fd5b80637b1ca23e11620000f65780637b1ca23e14620005dd5780638d6d4925146200060157806395d89b411462000622578063a22cb4651462000639578063a7e16255146200065d575f80fd5b806370a082311462000520578063721fe685146200054457806376652709146200057357806377cd258114620005ab575f80fd5b80632f745c5911620001b65780634888221a11620001825780634888221a14620004605780634f6ccce71462000492578063552f8fd314620004b65780636352211e14620004cd5780637051994514620004f1575f80fd5b80632f745c5914620003bf57806337c245fe14620003e357806342842e0e146200041857806347d212da146200043c575f80fd5b8063095ea7b31162000202578063095ea7b3146200030957806318160ddd146200032f5780631a8c23c5146200034f5780631e010439146200037757806323b872dd146200039b575f80fd5b806301ffc9a7146200023757806303a811e6146200027057806306fdde0314620002a6578063081812fc14620002cc575b5f80fd5b34801562000243575f80fd5b506200025b620002553660046200295b565b620007c9565b60405190151581526020015b60405180910390f35b3480156200027c575f80fd5b50620002946200028e36600462002979565b620007f6565b60405162000267949392919062002ab4565b348015620002b2575f80fd5b50620002bd62000888565b60405162000267919062002b13565b348015620002d8575f80fd5b50620002f0620002ea36600462002979565b6200091f565b6040516001600160a01b03909116815260200162000267565b34801562000315575f80fd5b506200032d6200032736600462002b3c565b62000949565b005b3480156200033b575f80fd5b506008545b60405190815260200162000267565b3480156200035b575f80fd5b50620003666200095a565b604051620002679392919062002b69565b34801562000383575f80fd5b50620003406200039536600462002979565b62000bda565b348015620003a7575f80fd5b506200032d620003b936600462002bb1565b62000c4f565b348015620003cb575f80fd5b5062000340620003dd36600462002b3c565b62000ce2565b348015620003ef575f80fd5b50620004076200040136600462002bf4565b62000d49565b604051620002679392919062002c12565b34801562000424575f80fd5b506200032d6200043636600462002bb1565b62000e21565b34801562000448575f80fd5b506200032d6200045a36600462002bf4565b62000e42565b3480156200046c575f80fd5b506200025b6200047e36600462002bf4565b600e6020525f908152604090205460ff1681565b3480156200049e575f80fd5b5062000340620004b036600462002979565b62000ebf565b6200032d620004c736600462002979565b62000f1a565b348015620004d9575f80fd5b50620002f0620004eb36600462002979565b62001045565b348015620004fd575f80fd5b50620003406200050f36600462002bf4565b60106020525f908152604090205481565b3480156200052c575f80fd5b50620003406200053e36600462002bf4565b62001051565b34801562000550575f80fd5b50620003406200056236600462002bf4565b600f6020525f908152604090205481565b3480156200057f575f80fd5b50620002f06200059136600462002979565b600a6020525f90815260409020546001600160a01b031681565b348015620005b7575f80fd5b506200025b620005c936600462002bf4565b60126020525f908152604090205460ff1681565b348015620005e9575f80fd5b506200032d620005fb36600462002c50565b62001098565b3480156200060d575f80fd5b50600c54620002f0906001600160a01b031681565b3480156200062e575f80fd5b50620002bd62001236565b34801562000645575f80fd5b506200032d6200065736600462002c71565b62001247565b34801562000669575f80fd5b506200032d6200067b36600462002d81565b62001254565b3480156200068d575f80fd5b5062000340600b5481565b348015620006a4575f80fd5b5062000340620006b636600462002bf4565b60116020525f908152604090205481565b348015620006d3575f80fd5b506200032d620006e536600462002def565b62001403565b348015620006f7575f80fd5b506200032d6200070936600462002e72565b6200141f565b3480156200071b575f80fd5b50620002bd6200072d36600462002979565b62001613565b6200032d6200074436600462002ed8565b6200168d565b34801562000756575f80fd5b506200025b6200076836600462002f02565b62001c57565b3480156200077a575f80fd5b506200025b6200078c36600462002bf4565b600d6020525f908152604090205460ff1681565b348015620007ac575f80fd5b50620007b762001c84565b60405162000267949392919062002f33565b5f6001600160e01b0319821663780e9d6360e01b1480620007f05750620007f08262001f7c565b92915050565b5f818152600a6020526040808220548151630178fba960e51b815291516060938493849384936001600160a01b03909116928392632f1f752092600480830193928290030181865afa1580156200084f573d5f803e3d5ffd5b505050506040513d5f823e601f3d908101601f19168201604052620008789190810190620030e7565b9450945094509450509193509193565b60605f80546200089890620031ef565b80601f0160208091040260200160405190810160405280929190818152602001828054620008c690620031ef565b8015620009155780601f10620008eb5761010080835404028352916020019162000915565b820191905f5260205f20905b815481529060010190602001808311620008f757829003601f168201915b5050505050905090565b5f6200092b8262001fce565b505f828152600460205260409020546001600160a01b0316620007f0565b6200095682823362002008565b5050565b60608060605f6200096b3362001051565b9050806001600160401b0381111562000988576200098862002cb0565b604051908082528060200260200182016040528015620009bd57816020015b6060815260200190600190039081620009a75790505b509350806001600160401b03811115620009db57620009db62002cb0565b60405190808252806020026020018201604052801562000a05578160200160208202803683370190505b509250806001600160401b0381111562000a235762000a2362002cb0565b60405190808252806020026020018201604052801562000a5857816020015b606081526020019060019003908162000a425790505b5091505f5b8181101562000bd3575f62000a73338362000ce2565b5f818152600a60205260408082205481516350b7b52160e01b815291519394506001600160a01b0316926350b7b521926004808401939192918290030181865afa15801562000ac4573d5f803e3d5ffd5b505050506040513d5f823e601f3d908101601f1916820160405262000aed919081019062003229565b86838151811062000b025762000b026200325e565b60200260200101819052508085838151811062000b235762000b236200325e565b6020908102919091018101919091525f828152600a90915260408082205481516372ab508d60e01b815291516001600160a01b03909116926372ab508d92600480820193918290030181865afa15801562000b80573d5f803e3d5ffd5b505050506040513d5f823e601f3d908101601f1916820160405262000ba9919081019062003229565b84838151811062000bbe5762000bbe6200325e565b60209081029190910101525060010162000a5d565b5050909192565b5f818152600a60209081526040808320548151629032ff60e51b815291516001600160a01b03909116926312065fe092600480820193918290030181865afa15801562000c29573d5f803e3d5ffd5b505050506040513d601f19601f82011682018060405250810190620007f0919062003272565b6001600160a01b03821662000c7e57604051633250574960e11b81525f60048201526024015b60405180910390fd5b5f62000c8c83833362002017565b9050836001600160a01b0316816001600160a01b03161462000cdc576040516364283d7b60e01b81526001600160a01b038086166004830152602482018490528216604482015260640162000c75565b50505050565b5f62000cee8362001051565b821062000d215760405163295f44f760e21b81526001600160a01b03841660048201526024810183905260440162000c75565b506001600160a01b03919091165f908152600660209081526040808320938352929052205490565b600c54606090819081906001600160a01b031662000da35760405162461bcd60e51b815260206004820152601660248201527510985919d94818dbdb9d1c9858dd081b9bdd081cd95d60521b604482015260640162000c75565b600c54604051631be122ff60e11b81526001600160a01b038681166004830152909116906337c245fe906024015f60405180830381865afa15801562000deb573d5f803e3d5ffd5b505050506040513d5f823e601f3d908101601f1916820160405262000e1491908101906200328a565b9250925092509193909250565b62000e3d83838360405180602001604052805f81525062001403565b505050565b600c546001600160a01b03161562000e9d5760405162461bcd60e51b815260206004820152601a60248201527f426164676520636f6e747261637420616c726561647920736574000000000000604482015260640162000c75565b600c80546001600160a01b0319166001600160a01b0392909216919091179055565b5f62000eca60085490565b821062000ef45760405163295f44f760e21b81525f60048201526024810183905260440162000c75565b6008828154811062000f0a5762000f0a6200325e565b905f5260205f2001549050919050565b5f818152600a60205260409020546001600160a01b03163462000f705760405162461bcd60e51b815260206004820152600d60248201526c09aeae6e840e6cadcc8408aa89609b1b604482015260640162000c75565b5f816001600160a01b0316346040515f6040518083038185875af1925050503d805f811462000fbb576040519150601f19603f3d011682016040523d82523d5f602084013e62000fc0565b606091505b5050905080620010085760405162461bcd60e51b81526020600482015260126024820152711155120819195c1bdcda5d0819985a5b195960721b604482015260640162000c75565b604051348152339084907f7c8bf926f5e34b4f582277bffb1c649f313a32090dd87607a610c6537e0a1f77906020015b60405180910390a3505050565b5f620007f08262001fce565b5f6001600160a01b0382166200107d576040516322718ad960e21b81525f600482015260240162000c75565b506001600160a01b03165f9081526003602052604090205490565b5f828152600a602052604080822054905163c9c2b40360e01b8152600481018490523360248201526001600160a01b039091169190829063c9c2b403906044016020604051808303815f875af1158015620010f5573d5f803e3d5ffd5b505050506040513d601f19601f820116820180604052508101906200111b91906200330b565b9050816001600160a01b031663d4493e8d6040518163ffffffff1660e01b8152600401602060405180830381865afa1580156200115a573d5f803e3d5ffd5b505050506040513d601f19601f820116820180604052508101906200118091906200330b565b6001600160a01b0316816001600160a01b03167f6f1965a011c204d91dc322cd7613bb5f5fa5e6975958ebddc3300e35c1544742846001600160a01b03166350b7b5216040518163ffffffff1660e01b81526004015f60405180830381865afa158015620011f0573d5f803e3d5ffd5b505050506040513d5f823e601f3d908101601f1916820160405262001219919081019062003229565b60405162001228919062002b13565b60405180910390a350505050565b6060600180546200089890620031ef565b62000956338383620020f9565b5f838152600a602052604090819020549051633be0e0c960e21b81526001600160a01b0390911690819063ef83832490620012989086903390879060040162003329565b5f604051808303815f87803b158015620012b0575f80fd5b505af1158015620012c3573d5f803e3d5ffd5b5050335f908152600f60205260408120805493509150620012e48362003374565b9190505550336001600160a01b0316816001600160a01b031663d4493e8d6040518163ffffffff1660e01b8152600401602060405180830381865afa15801562001330573d5f803e3d5ffd5b505050506040513d601f19601f820116820180604052508101906200135691906200330b565b6001600160a01b0316857f1a5ac0b7fcf6b30640b4992ebd66099ffc10245802adc7597a9d2ac5e4df15fc846001600160a01b03166350b7b5216040518163ffffffff1660e01b81526004015f60405180830381865afa158015620013bd573d5f803e3d5ffd5b505050506040513d5f823e601f3d908101601f19168201604052620013e6919081019062003229565b604051620013f5919062002b13565b60405180910390a450505050565b6200141084848462000c4f565b62000cdc338585858562002192565b5f6200142a60085490565b620014379060016200338f565b9050620014453382620022c7565b828233604051620014569062002934565b6200146493929190620033a5565b604051809103905ff0801580156200147e573d5f803e3d5ffd5b505f828152600a6020908152604080832080546001600160a01b0319166001600160a01b039590951694909417909355338252600d9052205460ff16158015620014d25750600c546001600160a01b031615155b15620015c157335f818152600d602052604090819020805460ff19166001908117909155600c549151633a57ec0160e11b81526001600160a01b0392909216926374afd802926200152992908890600401620033e6565b5f604051808303815f87803b15801562001541575f80fd5b505af115801562001554573d5f803e3d5ffd5b5050600c5460405163170b7a7b60e01b81526001600160a01b03909116925063170b7a7b9150620015919033905f90600190829060040162003417565b5f604051808303815f87803b158015620015a9575f80fd5b505af1158015620015bc573d5f803e3d5ffd5b505050505b600b8054905f620015d28362003374565b9190505550336001600160a01b0316817f8217b84d983a45d5ddabbb2d78a0a0ba6bc43b3bafb843110f28f5a8418664858460405162001038919062002b13565b6060620016208262001fce565b505f6200163760408051602081019091525f815290565b90505f815111620016575760405180602001604052805f81525062001686565b806200166384620022e2565b604051602001620016769291906200343d565b6040516020818303038152906040525b9392505050565b5f838152600a6020526040808220548151630178fba960e51b815291516001600160a01b0390911692918391632f1f75209160048082019286929091908290030181865afa158015620016e2573d5f803e3d5ffd5b505050506040513d5f823e601f3d908101601f191682016040526200170b9190810190620030e7565b50925050505f8185815181106200172657620017266200325e565b602090810291909101015160405163fb4db28d60e01b815260048101879052602481018690523360448201529091506001600160a01b0384169063fb4db28d906064015f604051808303815f87803b15801562001781575f80fd5b505af115801562001794573d5f803e3d5ffd5b5050600c546001600160a01b0316159150620019ff9050576001600160a01b0381165f9081526012602052604090205460ff16620018b5576001600160a01b038082165f90815260126020526040808220805460ff19166001179055600c5481516372ab508d60e01b81529151908416936374afd8029386939092918916916372ab508d9160048082019286929091908290030181865afa1580156200183c573d5f803e3d5ffd5b505050506040513d5f823e601f3d908101601f1916820160405262001865919081019062003229565b6040518463ffffffff1660e01b81526004016200188593929190620033e6565b5f604051808303815f87803b1580156200189d575f80fd5b505af1158015620018b0573d5f803e3d5ffd5b505050505b6001600160a01b0381165f908152601160205260408120805491620018da8362003374565b9091555050600c5460405163170b7a7b60e01b81526001600160a01b039091169063170b7a7b90620019189084906001905f90819060040162003417565b5f604051808303815f87803b15801562001930575f80fd5b505af115801562001943573d5f803e3d5ffd5b505050506001600160a01b0381165f90815260116020526040902054600503620019ff57600c54604051633a57ec0160e11b81526001600160a01b0383811660048301526002602483015260606044830152601960648301527f4d756c7469706c6520417070726f76656420436f6d6d697473000000000000006084830152909116906374afd8029060a4015f604051808303815f87803b158015620019e7575f80fd5b505af1158015620019fa573d5f803e3d5ffd5b505050505b335f90815260106020526040812080549162001a1b8362003374565b9091555050335f90815260106020526040902054600a14801562001a495750600c546001600160a01b031615155b1562001b4557600c54604051633a57ec0160e11b8152336004820152600360248201526060604482015260156064820152744d756c7469706c65205265706f7369746f7269657360581b60848201526001600160a01b03909116906374afd8029060a4015f604051808303815f87803b15801562001ac5575f80fd5b505af115801562001ad8573d5f803e3d5ffd5b5050600c5460405163170b7a7b60e01b81526001600160a01b03909116925063170b7a7b915062001b159033905f90819060019060040162003417565b5f604051808303815f87803b15801562001b2d575f80fd5b505af115801562001b40573d5f803e3d5ffd5b505050505b826001600160a01b031663d4493e8d6040518163ffffffff1660e01b8152600401602060405180830381865afa15801562001b82573d5f803e3d5ffd5b505050506040513d601f19601f8201168201806040525081019062001ba891906200330b565b6001600160a01b0316867f41db8845c5558a11a8c19e2c29b13947a23f7f959ac460e97d20e675c7becb84856001600160a01b03166350b7b5216040518163ffffffff1660e01b81526004015f60405180830381865afa15801562001c0f573d5f803e3d5ffd5b505050506040513d5f823e601f3d908101601f1916820160405262001c38919081019062003229565b60405162001c47919062002b13565b60405180910390a3505050505050565b6001600160a01b039182165f90815260056020908152604080832093909416825291909152205460ff1690565b6060806060805f62001c9560085490565b9050806001600160401b0381111562001cb25762001cb262002cb0565b60405190808252806020026020018201604052801562001ce757816020015b606081526020019060019003908162001cd15790505b509450806001600160401b0381111562001d055762001d0562002cb0565b60405190808252806020026020018201604052801562001d2f578160200160208202803683370190505b509350806001600160401b0381111562001d4d5762001d4d62002cb0565b60405190808252806020026020018201604052801562001d77578160200160208202803683370190505b509250806001600160401b0381111562001d955762001d9562002cb0565b60405190808252806020026020018201604052801562001dca57816020015b606081526020019060019003908162001db45790505b5091505f5b8181101562001f74575f62001de48262000ebf565b5f818152600a60205260408082205481516350b7b52160e01b815291519394506001600160a01b0316926350b7b521926004808401939192918290030181865afa15801562001e35573d5f803e3d5ffd5b505050506040513d5f823e601f3d908101601f1916820160405262001e5e919081019062003229565b87838151811062001e735762001e736200325e565b60200260200101819052508086838151811062001e945762001e946200325e565b60200260200101818152505062001eab8162001045565b85838151811062001ec05762001ec06200325e565b6001600160a01b039283166020918202929092018101919091525f838152600a90915260408082205481516372ab508d60e01b815291519316926372ab508d926004808401939192918290030181865afa15801562001f21573d5f803e3d5ffd5b505050506040513d5f823e601f3d908101601f1916820160405262001f4a919081019062003229565b84838151811062001f5f5762001f5f6200325e565b60209081029190910101525060010162001dcf565b505090919293565b5f6001600160e01b031982166380ac58cd60e01b148062001fad57506001600160e01b03198216635b5e139f60e01b145b80620007f057506301ffc9a760e01b6001600160e01b0319831614620007f0565b5f818152600260205260408120546001600160a01b031680620007f057604051637e27328960e01b81526004810184905260240162000c75565b62000e3d838383600162002378565b5f806200202685858562002487565b90506001600160a01b03811662002085576200207f84600880545f838152600960205260408120829055600182018355919091527ff3f7a9fe364faab93b216da50a3214154f22a0a2b415b23a84c8169e8b636ee30155565b620020ab565b846001600160a01b0316816001600160a01b031614620020ab57620020ab818562002580565b6001600160a01b038516620020cb57620020c58462002600565b620020f1565b846001600160a01b0316816001600160a01b031614620020f157620020f18585620026b2565b949350505050565b6001600160a01b0382166200212d57604051630b61174360e31b81526001600160a01b038316600482015260240162000c75565b6001600160a01b038381165f81815260056020908152604080832094871680845294825291829020805460ff191686151590811790915591519182527f17307eab39ab6107e8899845ad3d59bd9653f200f220920489ca2b5937696c31910162001038565b6001600160a01b0383163b15620022c057604051630a85bd0160e11b81526001600160a01b0384169063150b7a0290620021d79088908890879087906004016200346f565b6020604051808303815f875af192505050801562002214575060408051601f3d908101601f191682019092526200221191810190620034a3565b60015b62002280573d80801562002244576040519150601f19603f3d011682016040523d82523d5f602084013e62002249565b606091505b5080515f036200227857604051633250574960e11b81526001600160a01b038516600482015260240162000c75565b805160208201fd5b6001600160e01b03198116630a85bd0160e11b14620022be57604051633250574960e11b81526001600160a01b038516600482015260240162000c75565b505b5050505050565b62000956828260405180602001604052805f81525062002704565b60605f620022f0836200271f565b60010190505f816001600160401b0381111562002311576200231162002cb0565b6040519080825280601f01601f1916602001820160405280156200233c576020820181803683370190505b5090508181016020015b5f19016f181899199a1a9b1b9c1cb0b131b232b360811b600a86061a8153600a85049450846200234657509392505050565b80806200238d57506001600160a01b03821615155b1562002458575f6200239f8462001fce565b90506001600160a01b03831615801590620023cc5750826001600160a01b0316816001600160a01b031614155b8015620023e25750620023e0818462001c57565b155b156200240d5760405163a9fbf51f60e01b81526001600160a01b038416600482015260240162000c75565b8115620024565783856001600160a01b0316826001600160a01b03167f8c5be1e5ebec7d5bd14f71427d1e84f3dd0314c0f7b2291e5b200ac8c7c3b92560405160405180910390a45b505b50505f90815260046020526040902080546001600160a01b0319166001600160a01b0392909216919091179055565b5f828152600260205260408120546001600160a01b0390811690831615620024b657620024b6818486620027fd565b6001600160a01b03811615620024f357620024d45f855f8062002378565b6001600160a01b0381165f90815260036020526040902080545f190190555b6001600160a01b0385161562002522576001600160a01b0385165f908152600360205260409020805460010190555b5f8481526002602052604080822080546001600160a01b0319166001600160a01b0389811691821790925591518793918516917fddf252ad1be2c89b69c2b068fc378daa952ba7f163c4a11628f55a4df523b3ef91a4949350505050565b5f6200258c8362001051565b5f838152600760209081526040808320546001600160a01b0388168452600690925290912091925090818314620025e2575f83815260208281526040808320548584528184208190558352600790915290208290555b5f938452600760209081526040808620869055938552525081205550565b6008545f906200261390600190620034c1565b5f83815260096020526040812054600880549394509092849081106200263d576200263d6200325e565b905f5260205f200154905080600883815481106200265f576200265f6200325e565b5f918252602080832090910192909255828152600990915260408082208490558582528120556008805480620026995762002699620034d7565b600190038181905f5260205f20015f9055905550505050565b5f6001620026c08462001051565b620026cc9190620034c1565b6001600160a01b039093165f908152600660209081526040808320868452825280832085905593825260079052919091209190915550565b62002710838362002867565b62000e3d335f85858562002192565b5f8072184f03e93ff9f4daa797ed6e38ed64bf6a1f0160401b83106200275e5772184f03e93ff9f4daa797ed6e38ed64bf6a1f0160401b830492506040015b6d04ee2d6d415b85acef810000000083106200278b576d04ee2d6d415b85acef8100000000830492506020015b662386f26fc100008310620027aa57662386f26fc10000830492506010015b6305f5e1008310620027c3576305f5e100830492506008015b6127108310620027d857612710830492506004015b60648310620027eb576064830492506002015b600a8310620007f05760010192915050565b6200280a838383620028ce565b62000e3d576001600160a01b0383166200283b57604051637e27328960e01b81526004810182905260240162000c75565b60405163177e802f60e01b81526001600160a01b03831660048201526024810182905260440162000c75565b6001600160a01b0382166200289257604051633250574960e11b81525f600482015260240162000c75565b5f620028a083835f62002017565b90506001600160a01b0381161562000e3d576040516339e3563760e11b81525f600482015260240162000c75565b5f6001600160a01b03831615801590620020f15750826001600160a01b0316846001600160a01b031614806200290b57506200290b848462001c57565b80620020f15750505f908152600460205260409020546001600160a01b03908116911614919050565b611e1680620034ec83390190565b6001600160e01b03198116811462002958575f80fd5b50565b5f602082840312156200296c575f80fd5b8135620016868162002942565b5f602082840312156200298a575f80fd5b5035919050565b5f5b83811015620029ad57818101518382015260200162002993565b50505f910152565b5f8151808452620029ce81602086016020860162002991565b601f01601f19169290920160200192915050565b5f8282518085526020808601955060208260051b840101602086015f5b8481101562002a3157601f1986840301895262002a1e838351620029b5565b98840198925090830190600101620029ff565b5090979650505050505050565b5f815180845260208085019450602084015f5b8381101562002a6f5781518752958201959082019060010162002a51565b509495945050505050565b5f815180845260208085019450602084015f5b8381101562002a6f5781516001600160a01b03168752958201959082019060010162002a8d565b608081525f62002ac86080830187620029e2565b828103602084015262002adc818762002a3e565b9050828103604084015262002af2818662002a7a565b9050828103606084015262002b08818562002a3e565b979650505050505050565b602081525f620016866020830184620029b5565b6001600160a01b038116811462002958575f80fd5b5f806040838503121562002b4e575f80fd5b823562002b5b8162002b27565b946020939093013593505050565b606081525f62002b7d6060830186620029e2565b828103602084015262002b91818662002a3e565b9050828103604084015262002ba78185620029e2565b9695505050505050565b5f805f6060848603121562002bc4575f80fd5b833562002bd18162002b27565b9250602084013562002be38162002b27565b929592945050506040919091013590565b5f6020828403121562002c05575f80fd5b8135620016868162002b27565b606081525f62002c26606083018662002a3e565b828103602084015262002c3a8186620029e2565b9050828103604084015262002ba7818562002a3e565b5f806040838503121562002c62575f80fd5b50508035926020909101359150565b5f806040838503121562002c83575f80fd5b823562002c908162002b27565b91506020830135801515811462002ca5575f80fd5b809150509250929050565b634e487b7160e01b5f52604160045260245ffd5b604051601f8201601f191681016001600160401b038111828210171562002cef5762002cef62002cb0565b604052919050565b5f6001600160401b0382111562002d125762002d1262002cb0565b50601f01601f191660200190565b5f62002d3662002d308462002cf7565b62002cc4565b905082815283838301111562002d4a575f80fd5b828260208301375f602084830101529392505050565b5f82601f83011262002d70575f80fd5b620016868383356020850162002d20565b5f805f6060848603121562002d94575f80fd5b8335925060208401356001600160401b038082111562002db2575f80fd5b62002dc08783880162002d60565b9350604086013591508082111562002dd6575f80fd5b5062002de58682870162002d60565b9150509250925092565b5f805f806080858703121562002e03575f80fd5b843562002e108162002b27565b9350602085013562002e228162002b27565b92506040850135915060608501356001600160401b0381111562002e44575f80fd5b8501601f8101871362002e55575f80fd5b62002e668782356020840162002d20565b91505092959194509250565b5f806040838503121562002e84575f80fd5b82356001600160401b038082111562002e9b575f80fd5b62002ea98683870162002d60565b9350602085013591508082111562002ebf575f80fd5b5062002ece8582860162002d60565b9150509250929050565b5f805f6060848603121562002eeb575f80fd5b505081359360208301359350604090920135919050565b5f806040838503121562002f14575f80fd5b823562002f218162002b27565b9150602083013562002ca58162002b27565b608081525f62002f476080830187620029e2565b828103602084015262002f5b818762002a3e565b9050828103604084015262002f71818662002a7a565b9050828103606084015262002b088185620029e2565b5f6001600160401b0382111562002fa25762002fa262002cb0565b5060051b60200190565b5f82601f83011262002fbc575f80fd5b815162002fcd62002d308262002cf7565b81815284602083860101111562002fe2575f80fd5b620020f182602083016020870162002991565b5f82601f83011262003005575f80fd5b815160206200301862002d308362002f87565b82815260059290921b8401810191818101908684111562003037575f80fd5b8286015b84811015620030795780516001600160401b038111156200305a575f80fd5b6200306a8986838b010162002fac565b8452509183019183016200303b565b509695505050505050565b5f82601f83011262003094575f80fd5b81516020620030a762002d308362002f87565b8083825260208201915060208460051b870101935086841115620030c9575f80fd5b602086015b84811015620030795780518352918301918301620030ce565b5f805f8060808587031215620030fb575f80fd5b84516001600160401b038082111562003112575f80fd5b620031208883890162002ff5565b955060209150818701518181111562003137575f80fd5b6200314589828a0162003084565b9550506040870151818111156200315a575f80fd5b8701601f810189136200316b575f80fd5b80516200317c62002d308262002f87565b81815260059190911b8201840190848101908b8311156200319b575f80fd5b928501925b82841015620031c6578351620031b68162002b27565b82529285019290850190620031a0565b60608b0151909750945050505080821115620031e0575f80fd5b5062002e668782880162003084565b600181811c908216806200320457607f821691505b6020821081036200322357634e487b7160e01b5f52602260045260245ffd5b50919050565b5f602082840312156200323a575f80fd5b81516001600160401b0381111562003250575f80fd5b620020f18482850162002fac565b634e487b7160e01b5f52603260045260245ffd5b5f6020828403121562003283575f80fd5b5051919050565b5f805f606084860312156200329d575f80fd5b83516001600160401b0380821115620032b4575f80fd5b620032c28783880162003084565b94506020860151915080821115620032d8575f80fd5b620032e68783880162002ff5565b93506040860151915080821115620032fc575f80fd5b5062002de58682870162003084565b5f602082840312156200331c575f80fd5b8151620016868162002b27565b606081525f6200333d6060830186620029b5565b6001600160a01b0385166020840152828103604084015262002ba78185620029b5565b634e487b7160e01b5f52601160045260245ffd5b5f6001820162003388576200338862003360565b5060010190565b80820180821115620007f057620007f062003360565b606081525f620033b96060830186620029b5565b8281036020840152620033cd8186620029b5565b91505060018060a01b0383166040830152949350505050565b60018060a01b0384168152826020820152606060408201525f6200340e6060830184620029b5565b95945050505050565b6001600160a01b0394909416845260208401929092526040830152606082015260800190565b5f83516200345081846020880162002991565b8351908301906200346681836020880162002991565b01949350505050565b6001600160a01b03858116825284166020820152604081018390526080606082018190525f9062002ba790830184620029b5565b5f60208284031215620034b4575f80fd5b8151620016868162002942565b81810381811115620007f057620007f062003360565b634e487b7160e01b5f52603160045260245ffdfe608060405234801562000010575f80fd5b5060405162001e1638038062001e168339810160408190526200003391620001a2565b6040518060400160405280600d81526020016c14995c1bdcda5d1bdc9e539195609a1b815250604051806040016040528060048152602001635245504f60e01b815250815f9081620000869190620002b3565b506001620000958282620002b3565b5060069150620000a890508482620002b3565b506007620000b78382620002b3565b50600880546001600160a01b0319166001600160a01b0392909216919091179055506200037f9050565b634e487b7160e01b5f52604160045260245ffd5b5f82601f83011262000105575f80fd5b81516001600160401b0380821115620001225762000122620000e1565b604051601f8301601f19908116603f011681019082821181831017156200014d576200014d620000e1565b81604052838152602092508660208588010111156200016a575f80fd5b5f91505b838210156200018d57858201830151818301840152908201906200016e565b5f602085830101528094505050505092915050565b5f805f60608486031215620001b5575f80fd5b83516001600160401b0380821115620001cc575f80fd5b620001da87838801620000f5565b94506020860151915080821115620001f0575f80fd5b50620001ff86828701620000f5565b604086015190935090506001600160a01b03811681146200021e575f80fd5b809150509250925092565b600181811c908216806200023e57607f821691505b6020821081036200025d57634e487b7160e01b5f52602260045260245ffd5b50919050565b601f821115620002ae57805f5260205f20601f840160051c810160208510156200028a5750805b601f840160051c820191505b81811015620002ab575f815560010162000296565b50505b505050565b81516001600160401b03811115620002cf57620002cf620000e1565b620002e781620002e0845462000229565b8462000263565b602080601f8311600181146200031d575f8415620003055750858301515b5f19600386901b1c1916600185901b17855562000377565b5f85815260208120601f198616915b828110156200034d578886015182559484019460019091019084016200032c565b50858210156200036b57878501515f19600388901b60f8161c191681555b505060018460011b0185555b505050505050565b611a89806200038d5f395ff3fe608060405260043610610129575f3560e01c806370a08231116100a8578063c87b56dd1161006d578063c87b56dd14610317578063c9c2b40314610336578063d4493e8d14610355578063e985e9c514610372578063ef83832414610391578063fb4db28d146103b0575f80fd5b806370a082311461029257806372ab508d146102b157806395d89b41146102c5578063a22cb465146102d9578063b88d4fde146102f8575f80fd5b806323b872dd116100ee57806323b872dd146101fd5780632f1f75201461021c57806342842e0e1461024057806350b7b5211461025f5780636352211e14610273575f80fd5b806301ffc9a71461013457806306fdde0314610168578063081812fc14610189578063095ea7b3146101c057806312065fe0146101e1575f80fd5b3661013057005b5f80fd5b34801561013f575f80fd5b5061015361014e36600461132b565b6103c3565b60405190151581526020015b60405180910390f35b348015610173575f80fd5b5061017c610414565b60405161015f9190611393565b348015610194575f80fd5b506101a86101a33660046113a5565b6104a3565b6040516001600160a01b03909116815260200161015f565b3480156101cb575f80fd5b506101df6101da3660046113d0565b6104ca565b005b3480156101ec575f80fd5b50475b60405190815260200161015f565b348015610208575f80fd5b506101df6102173660046113fa565b6104d9565b348015610227575f80fd5b50610230610567565b60405161015f94939291906114aa565b34801561024b575f80fd5b506101df61025a3660046113fa565b6107fe565b34801561026a575f80fd5b5061017c61081d565b34801561027e575f80fd5b506101a861028d3660046113a5565b61082c565b34801561029d575f80fd5b506101ef6102ac366004611549565b610836565b3480156102bc575f80fd5b5061017c61087b565b3480156102d0575f80fd5b5061017c61088a565b3480156102e4575f80fd5b506101df6102f3366004611564565b610899565b348015610303575f80fd5b506101df610312366004611626565b6108a4565b348015610322575f80fd5b5061017c6103313660046113a5565b6108bc565b348015610341575f80fd5b506101a86103503660046116a1565b61092d565b348015610360575f80fd5b506008546001600160a01b03166101a8565b34801561037d575f80fd5b5061015361038c3660046116c4565b610a1a565b34801561039c575f80fd5b506101df6103ab36600461170e565b610a47565b6101df6103be366004611781565b610b14565b5f6001600160e01b031982166380ac58cd60e01b14806103f357506001600160e01b03198216635b5e139f60e01b145b8061040e57506301ffc9a760e01b6001600160e01b03198316145b92915050565b60605f8054610422906117b7565b80601f016020809104026020016040519081016040528092919081815260200182805461044e906117b7565b80156104995780601f1061047057610100808354040283529160200191610499565b820191905f5260205f20905b81548152906001019060200180831161047c57829003601f168201915b5050505050905090565b5f6104ad82610ce5565b505f828152600460205260409020546001600160a01b031661040e565b6104d5828233610d1d565b5050565b6001600160a01b03821661050757604051633250574960e11b81525f60048201526024015b60405180910390fd5b5f610513838333610d2a565b9050836001600160a01b0316816001600160a01b031614610561576040516364283d7b60e01b81526001600160a01b03808616600483015260248201849052821660448201526064016104fe565b50505050565b6009546060908190819081908067ffffffffffffffff81111561058c5761058c61159f565b6040519080825280602002602001820160405280156105bf57816020015b60608152602001906001900390816105aa5790505b5094508067ffffffffffffffff8111156105db576105db61159f565b604051908082528060200260200182016040528015610604578160200160208202803683370190505b5093508067ffffffffffffffff8111156106205761062061159f565b604051908082528060200260200182016040528015610649578160200160208202803683370190505b5092508067ffffffffffffffff8111156106655761066561159f565b60405190808252806020026020018201604052801561068e578160200160208202803683370190505b5091505f5b818110156107f6575f600982815481106106af576106af6117ef565b905f5260205f2090600502019050805f0180546106cb906117b7565b80601f01602080910402602001604051908101604052809291908181526020018280546106f7906117b7565b80156107425780601f1061071957610100808354040283529160200191610742565b820191905f5260205f20905b81548152906001019060200180831161072557829003601f168201915b5050505050878381518110610759576107596117ef565b6020026020010181905250806001015486838151811061077b5761077b6117ef565b6020908102919091010152600281015485516001600160a01b03909116908690849081106107ab576107ab6117ef565b60200260200101906001600160a01b031690816001600160a01b03168152505080600401548483815181106107e2576107e26117ef565b602090810291909101015250600101610693565b505090919293565b61081883838360405180602001604052805f8152506108a4565b505050565b606060078054610422906117b7565b5f61040e82610ce5565b5f6001600160a01b038216610860576040516322718ad960e21b81525f60048201526024016104fe565b506001600160a01b03165f9081526003602052604090205490565b606060068054610422906117b7565b606060018054610422906117b7565b6104d5338383610e1c565b6108af8484846104d9565b6105613385858585610eba565b60606108c782610ce5565b505f6108dd60408051602081019091525f815290565b90505f8151116108fb5760405180602001604052805f815250610926565b8061090584610fe0565b604051602001610916929190611803565b6040516020818303038152906040525b9392505050565b6008545f9082906001600160a01b0380831691161461098e5760405162461bcd60e51b815260206004820181905260248201527f4e6f206572657320656c206475656e6f2064656c207265706f7369746f72696f60448201526064016104fe565b5f600985815481106109a2576109a26117ef565b905f5260205f209060050201905080600401545f146109fe5760405162461bcd60e51b815260206004820152601860248201527710dbdb5b5a5d08185b1c9958591e481c1c9bd8d95cdcd95960421b60448201526064016104fe565b60026004820181905501546001600160a01b0316949350505050565b6001600160a01b039182165f90815260056020908152604080832093909416825291909152205460ff1690565b6040805160a0810182528481524260208201526001600160a01b03841691810191909152606081018290525f60808201819052600980546001810182559152815182916005027f6e1540171b6c0c960b71a7020d9f60077f6af931a8bbf590da0223dacf75c7af01908190610abc9082611875565b506020820151600182015560408201516002820180546001600160a01b0319166001600160a01b0390921691909117905560608201516003820190610b019082611875565b5060808201518160040155505050505050565b60085481906001600160a01b03808316911614610b735760405162461bcd60e51b815260206004820181905260248201527f4e6f206572657320656c206475656e6f2064656c207265706f7369746f72696f60448201526064016104fe565b5f60098581548110610b8757610b876117ef565b905f5260205f209060050201905080600401545f14610be35760405162461bcd60e51b815260206004820152601860248201527710dbdb5b5a5d08185b1c9958591e481c1c9bd8d95cdcd95960421b60448201526064016104fe565b83471015610c335760405162461bcd60e51b815260206004820152601a60248201527f4e6f7420656e6f7567682045544820696e20636f6e747261637400000000000060448201526064016104fe565b600160048201556007610c496003830182611931565b5060028101546040515f916001600160a01b03169086908381818185875af1925050503d805f8114610c96576040519150601f19603f3d011682016040523d82523d5f602084013e610c9b565b606091505b5050905080610cdd5760405162461bcd60e51b815260206004820152600e60248201526d14185e5b595b9d0819985a5b195960921b60448201526064016104fe565b505050505050565b5f818152600260205260408120546001600160a01b03168061040e57604051637e27328960e01b8152600481018490526024016104fe565b6108188383836001611070565b5f828152600260205260408120546001600160a01b0390811690831615610d5657610d56818486611174565b6001600160a01b03811615610d9057610d715f855f80611070565b6001600160a01b0381165f90815260036020526040902080545f190190555b6001600160a01b03851615610dbe576001600160a01b0385165f908152600360205260409020805460010190555b5f8481526002602052604080822080546001600160a01b0319166001600160a01b0389811691821790925591518793918516917fddf252ad1be2c89b69c2b068fc378daa952ba7f163c4a11628f55a4df523b3ef91a4949350505050565b6001600160a01b038216610e4e57604051630b61174360e31b81526001600160a01b03831660048201526024016104fe565b6001600160a01b038381165f81815260056020908152604080832094871680845294825291829020805460ff191686151590811790915591519182527f17307eab39ab6107e8899845ad3d59bd9653f200f220920489ca2b5937696c31910160405180910390a3505050565b6001600160a01b0383163b15610fd957604051630a85bd0160e11b81526001600160a01b0384169063150b7a0290610efc9088908890879087906004016119fc565b6020604051808303815f875af1925050508015610f36575060408051601f3d908101601f19168201909252610f3391810190611a38565b60015b610f9d573d808015610f63576040519150601f19603f3d011682016040523d82523d5f602084013e610f68565b606091505b5080515f03610f9557604051633250574960e11b81526001600160a01b03851660048201526024016104fe565b805160208201fd5b6001600160e01b03198116630a85bd0160e11b14610cdd57604051633250574960e11b81526001600160a01b03851660048201526024016104fe565b5050505050565b60605f610fec836111d8565b60010190505f8167ffffffffffffffff81111561100b5761100b61159f565b6040519080825280601f01601f191660200182016040528015611035576020820181803683370190505b5090508181016020015b5f19016f181899199a1a9b1b9c1cb0b131b232b360811b600a86061a8153600a850494508461103f57509392505050565b808061108457506001600160a01b03821615155b15611145575f61109384610ce5565b90506001600160a01b038316158015906110bf5750826001600160a01b0316816001600160a01b031614155b80156110d257506110d08184610a1a565b155b156110fb5760405163a9fbf51f60e01b81526001600160a01b03841660048201526024016104fe565b81156111435783856001600160a01b0316826001600160a01b03167f8c5be1e5ebec7d5bd14f71427d1e84f3dd0314c0f7b2291e5b200ac8c7c3b92560405160405180910390a45b505b50505f90815260046020526040902080546001600160a01b0319166001600160a01b0392909216919091179055565b61117f8383836112af565b610818576001600160a01b0383166111ad57604051637e27328960e01b8152600481018290526024016104fe565b60405163177e802f60e01b81526001600160a01b0383166004820152602481018290526044016104fe565b5f8072184f03e93ff9f4daa797ed6e38ed64bf6a1f0160401b83106112165772184f03e93ff9f4daa797ed6e38ed64bf6a1f0160401b830492506040015b6d04ee2d6d415b85acef81000000008310611242576d04ee2d6d415b85acef8100000000830492506020015b662386f26fc10000831061126057662386f26fc10000830492506010015b6305f5e1008310611278576305f5e100830492506008015b612710831061128c57612710830492506004015b6064831061129e576064830492506002015b600a831061040e5760010192915050565b5f6001600160a01b0383161580159061130b5750826001600160a01b0316846001600160a01b031614806112e857506112e88484610a1a565b8061130b57505f828152600460205260409020546001600160a01b038481169116145b949350505050565b6001600160e01b031981168114611328575f80fd5b50565b5f6020828403121561133b575f80fd5b813561092681611313565b5f5b83811015611360578181015183820152602001611348565b50505f910152565b5f815180845261137f816020860160208601611346565b601f01601f19169290920160200192915050565b602081525f6109266020830184611368565b5f602082840312156113b5575f80fd5b5035919050565b6001600160a01b0381168114611328575f80fd5b5f80604083850312156113e1575f80fd5b82356113ec816113bc565b946020939093013593505050565b5f805f6060848603121561140c575f80fd5b8335611417816113bc565b92506020840135611427816113bc565b929592945050506040919091013590565b5f815180845260208085019450602084015f5b838110156114675781518752958201959082019060010161144b565b509495945050505050565b5f815180845260208085019450602084015f5b838110156114675781516001600160a01b031687529582019590820190600101611485565b5f608082016080835280875180835260a08501915060a08160051b86010192506020808a015f5b838110156114ff57609f198887030185526114ed868351611368565b955093820193908201906001016114d1565b505050505082810360208401526115168187611438565b9050828103604084015261152a8186611472565b9050828103606084015261153e8185611438565b979650505050505050565b5f60208284031215611559575f80fd5b8135610926816113bc565b5f8060408385031215611575575f80fd5b8235611580816113bc565b915060208301358015158114611594575f80fd5b809150509250929050565b634e487b7160e01b5f52604160045260245ffd5b5f67ffffffffffffffff808411156115cd576115cd61159f565b604051601f8501601f19908116603f011681019082821181831017156115f5576115f561159f565b8160405280935085815286868601111561160d575f80fd5b858560208301375f602087830101525050509392505050565b5f805f8060808587031215611639575f80fd5b8435611644816113bc565b93506020850135611654816113bc565b925060408501359150606085013567ffffffffffffffff811115611676575f80fd5b8501601f81018713611686575f80fd5b611695878235602084016115b3565b91505092959194509250565b5f80604083850312156116b2575f80fd5b823591506020830135611594816113bc565b5f80604083850312156116d5575f80fd5b82356116e0816113bc565b91506020830135611594816113bc565b5f82601f8301126116ff575f80fd5b610926838335602085016115b3565b5f805f60608486031215611720575f80fd5b833567ffffffffffffffff80821115611737575f80fd5b611743878388016116f0565b945060208601359150611755826113bc565b9092506040850135908082111561176a575f80fd5b50611777868287016116f0565b9150509250925092565b5f805f60608486031215611793575f80fd5b833592506020840135915060408401356117ac816113bc565b809150509250925092565b600181811c908216806117cb57607f821691505b6020821081036117e957634e487b7160e01b5f52602260045260245ffd5b50919050565b634e487b7160e01b5f52603260045260245ffd5b5f8351611814818460208801611346565b835190830190611828818360208801611346565b01949350505050565b601f82111561081857805f5260205f20601f840160051c810160208510156118565750805b601f840160051c820191505b81811015610fd9575f8155600101611862565b815167ffffffffffffffff81111561188f5761188f61159f565b6118a38161189d84546117b7565b84611831565b602080601f8311600181146118d6575f84156118bf5750858301515b5f19600386901b1c1916600185901b178555610cdd565b5f85815260208120601f198616915b82811015611904578886015182559484019460019091019084016118e5565b508582101561192157878501515f19600388901b60f8161c191681555b5050505050600190811b01905550565b81810361193c575050565b61194682546117b7565b67ffffffffffffffff81111561195e5761195e61159f565b61196c8161189d84546117b7565b5f601f82116001811461199d575f83156119865750848201545b5f19600385901b1c1916600184901b178455610fd9565b5f8581526020808220868352908220601f198616925b838110156119d357828601548255600195860195909101906020016119b3565b5085831015611921579301545f1960f8600387901b161c19169092555050600190811b01905550565b6001600160a01b03858116825284166020820152604081018390526080606082018190525f90611a2e90830184611368565b9695505050505050565b5f60208284031215611a48575f80fd5b81516109268161131356fea2646970667358221220e345985c9062bc5b740a99784416dee39ef2861512f05eac55e2e8975dd80b8264736f6c63430008180033a2646970667358221220d1353fea7389c40de58d8a0f1dcc7439c310c592daa42073b96cffe1d88e7af264736f6c63430008180033",
			"opcodes": "PUSH1 0x80 PUSH1 0x40 MSTORE PUSH0 PUSH1 0xB SSTORE CALLVALUE DUP1 ISZERO PUSH3 0x14 JUMPI PUSH0 DUP1 REVERT JUMPDEST POP PUSH1 0x40 MLOAD DUP1 PUSH1 0x40 ADD PUSH1 0x40 MSTORE DUP1 PUSH1 0x11 DUP2 MSTORE PUSH1 0x20 ADD PUSH17 0x5265706F7369746F7279466163746F7279 PUSH1 0x78 SHL DUP2 MSTORE POP PUSH1 0x40 MLOAD DUP1 PUSH1 0x40 ADD PUSH1 0x40 MSTORE DUP1 PUSH1 0x4 DUP2 MSTORE PUSH1 0x20 ADD PUSH4 0x5245504F PUSH1 0xE0 SHL DUP2 MSTORE POP DUP2 PUSH0 SWAP1 DUP2 PUSH3 0x6C SWAP2 SWAP1 PUSH3 0x122 JUMP JUMPDEST POP PUSH1 0x1 PUSH3 0x7B DUP3 DUP3 PUSH3 0x122 JUMP JUMPDEST POP POP POP PUSH3 0x1EE JUMP JUMPDEST PUSH4 0x4E487B71 PUSH1 0xE0 SHL PUSH0 MSTORE PUSH1 0x41 PUSH1 0x4 MSTORE PUSH1 0x24 PUSH0 REVERT JUMPDEST PUSH1 0x1 DUP2 DUP2 SHR SWAP1 DUP3 AND DUP1 PUSH3 0xAD JUMPI PUSH1 0x7F DUP3 AND SWAP2 POP JUMPDEST PUSH1 0x20 DUP3 LT DUP2 SUB PUSH3 0xCC JUMPI PUSH4 0x4E487B71 PUSH1 0xE0 SHL PUSH0 MSTORE PUSH1 0x22 PUSH1 0x4 MSTORE PUSH1 0x24 PUSH0 REVERT JUMPDEST POP SWAP2 SWAP1 POP JUMP JUMPDEST PUSH1 0x1F DUP3 GT ISZERO PUSH3 0x11D JUMPI DUP1 PUSH0 MSTORE PUSH1 0x20 PUSH0 KECCAK256 PUSH1 0x1F DUP5 ADD PUSH1 0x5 SHR DUP2 ADD PUSH1 0x20 DUP6 LT ISZERO PUSH3 0xF9 JUMPI POP DUP1 JUMPDEST PUSH1 0x1F DUP5 ADD PUSH1 0x5 SHR DUP3 ADD SWAP2 POP JUMPDEST DUP2 DUP2 LT ISZERO PUSH3 0x11A JUMPI PUSH0 DUP2 SSTORE PUSH1 0x1 ADD PUSH3 0x105 JUMP JUMPDEST POP POP JUMPDEST POP POP POP JUMP JUMPDEST DUP2 MLOAD PUSH1 0x1 PUSH1 0x1 PUSH1 0x40 SHL SUB DUP2 GT ISZERO PUSH3 0x13E JUMPI PUSH3 0x13E PUSH3 0x84 JUMP JUMPDEST PUSH3 0x156 DUP2 PUSH3 0x14F DUP5 SLOAD PUSH3 0x98 JUMP JUMPDEST DUP5 PUSH3 0xD2 JUMP JUMPDEST PUSH1 0x20 DUP1 PUSH1 0x1F DUP4 GT PUSH1 0x1 DUP2 EQ PUSH3 0x18C JUMPI PUSH0 DUP5 ISZERO PUSH3 0x174 JUMPI POP DUP6 DUP4 ADD MLOAD JUMPDEST PUSH0 NOT PUSH1 0x3 DUP7 SWAP1 SHL SHR NOT AND PUSH1 0x1 DUP6 SWAP1 SHL OR DUP6 SSTORE PUSH3 0x1E6 JUMP JUMPDEST PUSH0 DUP6 DUP2 MSTORE PUSH1 0x20 DUP2 KECCAK256 PUSH1 0x1F NOT DUP7 AND SWAP2 JUMPDEST DUP3 DUP2 LT ISZERO PUSH3 0x1BC JUMPI DUP9 DUP7 ADD MLOAD DUP3 SSTORE SWAP5 DUP5 ADD SWAP5 PUSH1 0x1 SWAP1 SWAP2 ADD SWAP1 DUP5 ADD PUSH3 0x19B JUMP JUMPDEST POP DUP6 DUP3 LT ISZERO PUSH3 0x1DA JUMPI DUP8 DUP6 ADD MLOAD PUSH0 NOT PUSH1 0x3 DUP9 SWAP1 SHL PUSH1 0xF8 AND SHR NOT AND DUP2 SSTORE JUMPDEST POP POP PUSH1 0x1 DUP5 PUSH1 0x1 SHL ADD DUP6 SSTORE JUMPDEST POP POP POP POP POP POP JUMP JUMPDEST PUSH2 0x5337 DUP1 PUSH3 0x1FC PUSH0 CODECOPY PUSH0 RETURN INVALID PUSH1 0x80 PUSH1 0x40 MSTORE PUSH1 0x4 CALLDATASIZE LT PUSH3 0x233 JUMPI PUSH0 CALLDATALOAD PUSH1 0xE0 SHR DUP1 PUSH4 0x70A08231 GT PUSH3 0x12A JUMPI DUP1 PUSH4 0xAA8C217C GT PUSH3 0xAA JUMPI DUP1 PUSH4 0xC87B56DD GT PUSH3 0x76 JUMPI DUP1 PUSH4 0xC87B56DD EQ PUSH3 0x70F JUMPI DUP1 PUSH4 0xC8BE9568 EQ PUSH3 0x733 JUMPI DUP1 PUSH4 0xE985E9C5 EQ PUSH3 0x74A JUMPI DUP1 PUSH4 0xF0492EAF EQ PUSH3 0x76E JUMPI DUP1 PUSH4 0xF5CC98C9 EQ PUSH3 0x7A0 JUMPI PUSH0 DUP1 REVERT JUMPDEST DUP1 PUSH4 0xAA8C217C EQ PUSH3 0x681 JUMPI DUP1 PUSH4 0xB3B9F3A9 EQ PUSH3 0x698 JUMPI DUP1 PUSH4 0xB88D4FDE EQ PUSH3 0x6C7 JUMPI DUP1 PUSH4 0xC2692760 EQ PUSH3 0x6EB JUMPI PUSH0 DUP1 REVERT JUMPDEST DUP1 PUSH4 0x7B1CA23E GT PUSH3 0xF6 JUMPI DUP1 PUSH4 0x7B1CA23E EQ PUSH3 0x5DD JUMPI DUP1 PUSH4 0x8D6D4925 EQ PUSH3 0x601 JUMPI DUP1 PUSH4 0x95D89B41 EQ PUSH3 0x622 JUMPI DUP1 PUSH4 0xA22CB465 EQ PUSH3 0x639 JUMPI DUP1 PUSH4 0xA7E16255 EQ PUSH3 0x65D JUMPI PUSH0 DUP1 REVERT JUMPDEST DUP1 PUSH4 0x70A08231 EQ PUSH3 0x520 JUMPI DUP1 PUSH4 0x721FE685 EQ PUSH3 0x544 JUMPI DUP1 PUSH4 0x76652709 EQ PUSH3 0x573 JUMPI DUP1 PUSH4 0x77CD2581 EQ PUSH3 0x5AB JUMPI PUSH0 DUP1 REVERT JUMPDEST DUP1 PUSH4 0x2F745C59 GT PUSH3 0x1B6 JUMPI DUP1 PUSH4 0x4888221A GT PUSH3 0x182 JUMPI DUP1 PUSH4 0x4888221A EQ PUSH3 0x460 JUMPI DUP1 PUSH4 0x4F6CCCE7 EQ PUSH3 0x492 JUMPI DUP1 PUSH4 0x552F8FD3 EQ PUSH3 0x4B6 JUMPI DUP1 PUSH4 0x6352211E EQ PUSH3 0x4CD JUMPI DUP1 PUSH4 0x70519945 EQ PUSH3 0x4F1 JUMPI PUSH0 DUP1 REVERT JUMPDEST DUP1 PUSH4 0x2F745C59 EQ PUSH3 0x3BF JUMPI DUP1 PUSH4 0x37C245FE EQ PUSH3 0x3E3 JUMPI DUP1 PUSH4 0x42842E0E EQ PUSH3 0x418 JUMPI DUP1 PUSH4 0x47D212DA EQ PUSH3 0x43C JUMPI PUSH0 DUP1 REVERT JUMPDEST DUP1 PUSH4 0x95EA7B3 GT PUSH3 0x202 JUMPI DUP1 PUSH4 0x95EA7B3 EQ PUSH3 0x309 JUMPI DUP1 PUSH4 0x18160DDD EQ PUSH3 0x32F JUMPI DUP1 PUSH4 0x1A8C23C5 EQ PUSH3 0x34F JUMPI DUP1 PUSH4 0x1E010439 EQ PUSH3 0x377 JUMPI DUP1 PUSH4 0x23B872DD EQ PUSH3 0x39B JUMPI PUSH0 DUP1 REVERT JUMPDEST DUP1 PUSH4 0x1FFC9A7 EQ PUSH3 0x237 JUMPI DUP1 PUSH4 0x3A811E6 EQ PUSH3 0x270 JUMPI DUP1 PUSH4 0x6FDDE03 EQ PUSH3 0x2A6 JUMPI DUP1 PUSH4 0x81812FC EQ PUSH3 0x2CC JUMPI JUMPDEST PUSH0 DUP1 REVERT JUMPDEST CALLVALUE DUP1 ISZERO PUSH3 0x243 JUMPI PUSH0 DUP1 REVERT JUMPDEST POP PUSH3 0x25B PUSH3 0x255 CALLDATASIZE PUSH1 0x4 PUSH3 0x295B JUMP JUMPDEST PUSH3 0x7C9 JUMP JUMPDEST PUSH1 0x40 MLOAD SWAP1 ISZERO ISZERO DUP2 MSTORE PUSH1 0x20 ADD JUMPDEST PUSH1 0x40 MLOAD DUP1 SWAP2 SUB SWAP1 RETURN JUMPDEST CALLVALUE DUP1 ISZERO PUSH3 0x27C JUMPI PUSH0 DUP1 REVERT JUMPDEST POP PUSH3 0x294 PUSH3 0x28E CALLDATASIZE PUSH1 0x4 PUSH3 0x2979 JUMP JUMPDEST PUSH3 0x7F6 JUMP JUMPDEST PUSH1 0x40 MLOAD PUSH3 0x267 SWAP5 SWAP4 SWAP3 SWAP2 SWAP1 PUSH3 0x2AB4 JUMP JUMPDEST CALLVALUE DUP1 ISZERO PUSH3 0x2B2 JUMPI PUSH0 DUP1 REVERT JUMPDEST POP PUSH3 0x2BD PUSH3 0x888 JUMP JUMPDEST PUSH1 0x40 MLOAD PUSH3 0x267 SWAP2 SWAP1 PUSH3 0x2B13 JUMP JUMPDEST CALLVALUE DUP1 ISZERO PUSH3 0x2D8 JUMPI PUSH0 DUP1 REVERT JUMPDEST POP PUSH3 0x2F0 PUSH3 0x2EA CALLDATASIZE PUSH1 0x4 PUSH3 0x2979 JUMP JUMPDEST PUSH3 0x91F JUMP JUMPDEST PUSH1 0x40 MLOAD PUSH1 0x1 PUSH1 0x1 PUSH1 0xA0 SHL SUB SWAP1 SWAP2 AND DUP2 MSTORE PUSH1 0x20 ADD PUSH3 0x267 JUMP JUMPDEST CALLVALUE DUP1 ISZERO PUSH3 0x315 JUMPI PUSH0 DUP1 REVERT JUMPDEST POP PUSH3 0x32D PUSH3 0x327 CALLDATASIZE PUSH1 0x4 PUSH3 0x2B3C JUMP JUMPDEST PUSH3 0x949 JUMP JUMPDEST STOP JUMPDEST CALLVALUE DUP1 ISZERO PUSH3 0x33B JUMPI PUSH0 DUP1 REVERT JUMPDEST POP PUSH1 0x8 SLOAD JUMPDEST PUSH1 0x40 MLOAD SWAP1 DUP2 MSTORE PUSH1 0x20 ADD PUSH3 0x267 JUMP JUMPDEST CALLVALUE DUP1 ISZERO PUSH3 0x35B JUMPI PUSH0 DUP1 REVERT JUMPDEST POP PUSH3 0x366 PUSH3 0x95A JUMP JUMPDEST PUSH1 0x40 MLOAD PUSH3 0x267 SWAP4 SWAP3 SWAP2 SWAP1 PUSH3 0x2B69 JUMP JUMPDEST CALLVALUE DUP1 ISZERO PUSH3 0x383 JUMPI PUSH0 DUP1 REVERT JUMPDEST POP PUSH3 0x340 PUSH3 0x395 CALLDATASIZE PUSH1 0x4 PUSH3 0x2979 JUMP JUMPDEST PUSH3 0xBDA JUMP JUMPDEST CALLVALUE DUP1 ISZERO PUSH3 0x3A7 JUMPI PUSH0 DUP1 REVERT JUMPDEST POP PUSH3 0x32D PUSH3 0x3B9 CALLDATASIZE PUSH1 0x4 PUSH3 0x2BB1 JUMP JUMPDEST PUSH3 0xC4F JUMP JUMPDEST CALLVALUE DUP1 ISZERO PUSH3 0x3CB JUMPI PUSH0 DUP1 REVERT JUMPDEST POP PUSH3 0x340 PUSH3 0x3DD CALLDATASIZE PUSH1 0x4 PUSH3 0x2B3C JUMP JUMPDEST PUSH3 0xCE2 JUMP JUMPDEST CALLVALUE DUP1 ISZERO PUSH3 0x3EF JUMPI PUSH0 DUP1 REVERT JUMPDEST POP PUSH3 0x407 PUSH3 0x401 CALLDATASIZE PUSH1 0x4 PUSH3 0x2BF4 JUMP JUMPDEST PUSH3 0xD49 JUMP JUMPDEST PUSH1 0x40 MLOAD PUSH3 0x267 SWAP4 SWAP3 SWAP2 SWAP1 PUSH3 0x2C12 JUMP JUMPDEST CALLVALUE DUP1 ISZERO PUSH3 0x424 JUMPI PUSH0 DUP1 REVERT JUMPDEST POP PUSH3 0x32D PUSH3 0x436 CALLDATASIZE PUSH1 0x4 PUSH3 0x2BB1 JUMP JUMPDEST PUSH3 0xE21 JUMP JUMPDEST CALLVALUE DUP1 ISZERO PUSH3 0x448 JUMPI PUSH0 DUP1 REVERT JUMPDEST POP PUSH3 0x32D PUSH3 0x45A CALLDATASIZE PUSH1 0x4 PUSH3 0x2BF4 JUMP JUMPDEST PUSH3 0xE42 JUMP JUMPDEST CALLVALUE DUP1 ISZERO PUSH3 0x46C JUMPI PUSH0 DUP1 REVERT JUMPDEST POP PUSH3 0x25B PUSH3 0x47E CALLDATASIZE PUSH1 0x4 PUSH3 0x2BF4 JUMP JUMPDEST PUSH1 0xE PUSH1 0x20 MSTORE PUSH0 SWAP1 DUP2 MSTORE PUSH1 0x40 SWAP1 KECCAK256 SLOAD PUSH1 0xFF AND DUP2 JUMP JUMPDEST CALLVALUE DUP1 ISZERO PUSH3 0x49E JUMPI PUSH0 DUP1 REVERT JUMPDEST POP PUSH3 0x340 PUSH3 0x4B0 CALLDATASIZE PUSH1 0x4 PUSH3 0x2979 JUMP JUMPDEST PUSH3 0xEBF JUMP JUMPDEST PUSH3 0x32D PUSH3 0x4C7 CALLDATASIZE PUSH1 0x4 PUSH3 0x2979 JUMP JUMPDEST PUSH3 0xF1A JUMP JUMPDEST CALLVALUE DUP1 ISZERO PUSH3 0x4D9 JUMPI PUSH0 DUP1 REVERT JUMPDEST POP PUSH3 0x2F0 PUSH3 0x4EB CALLDATASIZE PUSH1 0x4 PUSH3 0x2979 JUMP JUMPDEST PUSH3 0x1045 JUMP JUMPDEST CALLVALUE DUP1 ISZERO PUSH3 0x4FD JUMPI PUSH0 DUP1 REVERT JUMPDEST POP PUSH3 0x340 PUSH3 0x50F CALLDATASIZE PUSH1 0x4 PUSH3 0x2BF4 JUMP JUMPDEST PUSH1 0x10 PUSH1 0x20 MSTORE PUSH0 SWAP1 DUP2 MSTORE PUSH1 0x40 SWAP1 KECCAK256 SLOAD DUP2 JUMP JUMPDEST CALLVALUE DUP1 ISZERO PUSH3 0x52C JUMPI PUSH0 DUP1 REVERT JUMPDEST POP PUSH3 0x340 PUSH3 0x53E CALLDATASIZE PUSH1 0x4 PUSH3 0x2BF4 JUMP JUMPDEST PUSH3 0x1051 JUMP JUMPDEST CALLVALUE DUP1 ISZERO PUSH3 0x550 JUMPI PUSH0 DUP1 REVERT JUMPDEST POP PUSH3 0x340 PUSH3 0x562 CALLDATASIZE PUSH1 0x4 PUSH3 0x2BF4 JUMP JUMPDEST PUSH1 0xF PUSH1 0x20 MSTORE PUSH0 SWAP1 DUP2 MSTORE PUSH1 0x40 SWAP1 KECCAK256 SLOAD DUP2 JUMP JUMPDEST CALLVALUE DUP1 ISZERO PUSH3 0x57F JUMPI PUSH0 DUP1 REVERT JUMPDEST POP PUSH3 0x2F0 PUSH3 0x591 CALLDATASIZE PUSH1 0x4 PUSH3 0x2979 JUMP JUMPDEST PUSH1 0xA PUSH1 0x20 MSTORE PUSH0 SWAP1 DUP2 MSTORE PUSH1 0x40 SWAP1 KECCAK256 SLOAD PUSH1 0x1 PUSH1 0x1 PUSH1 0xA0 SHL SUB AND DUP2 JUMP JUMPDEST CALLVALUE DUP1 ISZERO PUSH3 0x5B7 JUMPI PUSH0 DUP1 REVERT JUMPDEST POP PUSH3 0x25B PUSH3 0x5C9 CALLDATASIZE PUSH1 0x4 PUSH3 0x2BF4 JUMP JUMPDEST PUSH1 0x12 PUSH1 0x20 MSTORE PUSH0 SWAP1 DUP2 MSTORE PUSH1 0x40 SWAP1 KECCAK256 SLOAD PUSH1 0xFF AND DUP2 JUMP JUMPDEST CALLVALUE DUP1 ISZERO PUSH3 0x5E9 JUMPI PUSH0 DUP1 REVERT JUMPDEST POP PUSH3 0x32D PUSH3 0x5FB CALLDATASIZE PUSH1 0x4 PUSH3 0x2C50 JUMP JUMPDEST PUSH3 0x1098 JUMP JUMPDEST CALLVALUE DUP1 ISZERO PUSH3 0x60D JUMPI PUSH0 DUP1 REVERT JUMPDEST POP PUSH1 0xC SLOAD PUSH3 0x2F0 SWAP1 PUSH1 0x1 PUSH1 0x1 PUSH1 0xA0 SHL SUB AND DUP2 JUMP JUMPDEST CALLVALUE DUP1 ISZERO PUSH3 0x62E JUMPI PUSH0 DUP1 REVERT JUMPDEST POP PUSH3 0x2BD PUSH3 0x1236 JUMP JUMPDEST CALLVALUE DUP1 ISZERO PUSH3 0x645 JUMPI PUSH0 DUP1 REVERT JUMPDEST POP PUSH3 0x32D PUSH3 0x657 CALLDATASIZE PUSH1 0x4 PUSH3 0x2C71 JUMP JUMPDEST PUSH3 0x1247 JUMP JUMPDEST CALLVALUE DUP1 ISZERO PUSH3 0x669 JUMPI PUSH0 DUP1 REVERT JUMPDEST POP PUSH3 0x32D PUSH3 0x67B CALLDATASIZE PUSH1 0x4 PUSH3 0x2D81 JUMP JUMPDEST PUSH3 0x1254 JUMP JUMPDEST CALLVALUE DUP1 ISZERO PUSH3 0x68D JUMPI PUSH0 DUP1 REVERT JUMPDEST POP PUSH3 0x340 PUSH1 0xB SLOAD DUP2 JUMP JUMPDEST CALLVALUE DUP1 ISZERO PUSH3 0x6A4 JUMPI PUSH0 DUP1 REVERT JUMPDEST POP PUSH3 0x340 PUSH3 0x6B6 CALLDATASIZE PUSH1 0x4 PUSH3 0x2BF4 JUMP JUMPDEST PUSH1 0x11 PUSH1 0x20 MSTORE PUSH0 SWAP1 DUP2 MSTORE PUSH1 0x40 SWAP1 KECCAK256 SLOAD DUP2 JUMP JUMPDEST CALLVALUE DUP1 ISZERO PUSH3 0x6D3 JUMPI PUSH0 DUP1 REVERT JUMPDEST POP PUSH3 0x32D PUSH3 0x6E5 CALLDATASIZE PUSH1 0x4 PUSH3 0x2DEF JUMP JUMPDEST PUSH3 0x1403 JUMP JUMPDEST CALLVALUE DUP1 ISZERO PUSH3 0x6F7 JUMPI PUSH0 DUP1 REVERT JUMPDEST POP PUSH3 0x32D PUSH3 0x709 CALLDATASIZE PUSH1 0x4 PUSH3 0x2E72 JUMP JUMPDEST PUSH3 0x141F JUMP JUMPDEST CALLVALUE DUP1 ISZERO PUSH3 0x71B JUMPI PUSH0 DUP1 REVERT JUMPDEST POP PUSH3 0x2BD PUSH3 0x72D CALLDATASIZE PUSH1 0x4 PUSH3 0x2979 JUMP JUMPDEST PUSH3 0x1613 JUMP JUMPDEST PUSH3 0x32D PUSH3 0x744 CALLDATASIZE PUSH1 0x4 PUSH3 0x2ED8 JUMP JUMPDEST PUSH3 0x168D JUMP JUMPDEST CALLVALUE DUP1 ISZERO PUSH3 0x756 JUMPI PUSH0 DUP1 REVERT JUMPDEST POP PUSH3 0x25B PUSH3 0x768 CALLDATASIZE PUSH1 0x4 PUSH3 0x2F02 JUMP JUMPDEST PUSH3 0x1C57 JUMP JUMPDEST CALLVALUE DUP1 ISZERO PUSH3 0x77A JUMPI PUSH0 DUP1 REVERT JUMPDEST POP PUSH3 0x25B PUSH3 0x78C CALLDATASIZE PUSH1 0x4 PUSH3 0x2BF4 JUMP JUMPDEST PUSH1 0xD PUSH1 0x20 MSTORE PUSH0 SWAP1 DUP2 MSTORE PUSH1 0x40 SWAP1 KECCAK256 SLOAD PUSH1 0xFF AND DUP2 JUMP JUMPDEST CALLVALUE DUP1 ISZERO PUSH3 0x7AC JUMPI PUSH0 DUP1 REVERT JUMPDEST POP PUSH3 0x7B7 PUSH3 0x1C84 JUMP JUMPDEST PUSH1 0x40 MLOAD PUSH3 0x267 SWAP5 SWAP4 SWAP3 SWAP2 SWAP1 PUSH3 0x2F33 JUMP JUMPDEST PUSH0 PUSH1 0x1 PUSH1 0x1 PUSH1 0xE0 SHL SUB NOT DUP3 AND PUSH4 0x780E9D63 PUSH1 0xE0 SHL EQ DUP1 PUSH3 0x7F0 JUMPI POP PUSH3 0x7F0 DUP3 PUSH3 0x1F7C JUMP JUMPDEST SWAP3 SWAP2 POP POP JUMP JUMPDEST PUSH0 DUP2 DUP2 MSTORE PUSH1 0xA PUSH1 0x20 MSTORE PUSH1 0x40 DUP1 DUP3 KECCAK256 SLOAD DUP2 MLOAD PUSH4 0x178FBA9 PUSH1 0xE5 SHL DUP2 MSTORE SWAP2 MLOAD PUSH1 0x60 SWAP4 DUP5 SWAP4 DUP5 SWAP4 DUP5 SWAP4 PUSH1 0x1 PUSH1 0x1 PUSH1 0xA0 SHL SUB SWAP1 SWAP2 AND SWAP3 DUP4 SWAP3 PUSH4 0x2F1F7520 SWAP3 PUSH1 0x4 DUP1 DUP4 ADD SWAP4 SWAP3 DUP3 SWAP1 SUB ADD DUP2 DUP7 GAS STATICCALL ISZERO DUP1 ISZERO PUSH3 0x84F JUMPI RETURNDATASIZE PUSH0 DUP1 RETURNDATACOPY RETURNDATASIZE PUSH0 REVERT JUMPDEST POP POP POP POP PUSH1 0x40 MLOAD RETURNDATASIZE PUSH0 DUP3 RETURNDATACOPY PUSH1 0x1F RETURNDATASIZE SWAP1 DUP2 ADD PUSH1 0x1F NOT AND DUP3 ADD PUSH1 0x40 MSTORE PUSH3 0x878 SWAP2 SWAP1 DUP2 ADD SWAP1 PUSH3 0x30E7 JUMP JUMPDEST SWAP5 POP SWAP5 POP SWAP5 POP SWAP5 POP POP SWAP2 SWAP4 POP SWAP2 SWAP4 JUMP JUMPDEST PUSH1 0x60 PUSH0 DUP1 SLOAD PUSH3 0x898 SWAP1 PUSH3 0x31EF JUMP JUMPDEST DUP1 PUSH1 0x1F ADD PUSH1 0x20 DUP1 SWAP2 DIV MUL PUSH1 0x20 ADD PUSH1 0x40 MLOAD SWAP1 DUP2 ADD PUSH1 0x40 MSTORE DUP1 SWAP3 SWAP2 SWAP1 DUP2 DUP2 MSTORE PUSH1 0x20 ADD DUP3 DUP1 SLOAD PUSH3 0x8C6 SWAP1 PUSH3 0x31EF JUMP JUMPDEST DUP1 ISZERO PUSH3 0x915 JUMPI DUP1 PUSH1 0x1F LT PUSH3 0x8EB JUMPI PUSH2 0x100 DUP1 DUP4 SLOAD DIV MUL DUP4 MSTORE SWAP2 PUSH1 0x20 ADD SWAP2 PUSH3 0x915 JUMP JUMPDEST DUP3 ADD SWAP2 SWAP1 PUSH0 MSTORE PUSH1 0x20 PUSH0 KECCAK256 SWAP1 JUMPDEST DUP2 SLOAD DUP2 MSTORE SWAP1 PUSH1 0x1 ADD SWAP1 PUSH1 0x20 ADD DUP1 DUP4 GT PUSH3 0x8F7 JUMPI DUP3 SWAP1 SUB PUSH1 0x1F AND DUP3 ADD SWAP2 JUMPDEST POP POP POP POP POP SWAP1 POP SWAP1 JUMP JUMPDEST PUSH0 PUSH3 0x92B DUP3 PUSH3 0x1FCE JUMP JUMPDEST POP PUSH0 DUP3 DUP2 MSTORE PUSH1 0x4 PUSH1 0x20 MSTORE PUSH1 0x40 SWAP1 KECCAK256 SLOAD PUSH1 0x1 PUSH1 0x1 PUSH1 0xA0 SHL SUB AND PUSH3 0x7F0 JUMP JUMPDEST PUSH3 0x956 DUP3 DUP3 CALLER PUSH3 0x2008 JUMP JUMPDEST POP POP JUMP JUMPDEST PUSH1 0x60 DUP1 PUSH1 0x60 PUSH0 PUSH3 0x96B CALLER PUSH3 0x1051 JUMP JUMPDEST SWAP1 POP DUP1 PUSH1 0x1 PUSH1 0x1 PUSH1 0x40 SHL SUB DUP2 GT ISZERO PUSH3 0x988 JUMPI PUSH3 0x988 PUSH3 0x2CB0 JUMP JUMPDEST PUSH1 0x40 MLOAD SWAP1 DUP1 DUP3 MSTORE DUP1 PUSH1 0x20 MUL PUSH1 0x20 ADD DUP3 ADD PUSH1 0x40 MSTORE DUP1 ISZERO PUSH3 0x9BD JUMPI DUP2 PUSH1 0x20 ADD JUMPDEST PUSH1 0x60 DUP2 MSTORE PUSH1 0x20 ADD SWAP1 PUSH1 0x1 SWAP1 SUB SWAP1 DUP2 PUSH3 0x9A7 JUMPI SWAP1 POP JUMPDEST POP SWAP4 POP DUP1 PUSH1 0x1 PUSH1 0x1 PUSH1 0x40 SHL SUB DUP2 GT ISZERO PUSH3 0x9DB JUMPI PUSH3 0x9DB PUSH3 0x2CB0 JUMP JUMPDEST PUSH1 0x40 MLOAD SWAP1 DUP1 DUP3 MSTORE DUP1 PUSH1 0x20 MUL PUSH1 0x20 ADD DUP3 ADD PUSH1 0x40 MSTORE DUP1 ISZERO PUSH3 0xA05 JUMPI DUP2 PUSH1 0x20 ADD PUSH1 0x20 DUP3 MUL DUP1 CALLDATASIZE DUP4 CALLDATACOPY ADD SWAP1 POP JUMPDEST POP SWAP3 POP DUP1 PUSH1 0x1 PUSH1 0x1 PUSH1 0x40 SHL SUB DUP2 GT ISZERO PUSH3 0xA23 JUMPI PUSH3 0xA23 PUSH3 0x2CB0 JUMP JUMPDEST PUSH1 0x40 MLOAD SWAP1 DUP1 DUP3 MSTORE DUP1 PUSH1 0x20 MUL PUSH1 0x20 ADD DUP3 ADD PUSH1 0x40 MSTORE DUP1 ISZERO PUSH3 0xA58 JUMPI DUP2 PUSH1 0x20 ADD JUMPDEST PUSH1 0x60 DUP2 MSTORE PUSH1 0x20 ADD SWAP1 PUSH1 0x1 SWAP1 SUB SWAP1 DUP2 PUSH3 0xA42 JUMPI SWAP1 POP JUMPDEST POP SWAP2 POP PUSH0 JUMPDEST DUP2 DUP2 LT ISZERO PUSH3 0xBD3 JUMPI PUSH0 PUSH3 0xA73 CALLER DUP4 PUSH3 0xCE2 JUMP JUMPDEST PUSH0 DUP2 DUP2 MSTORE PUSH1 0xA PUSH1 0x20 MSTORE PUSH1 0x40 DUP1 DUP3 KECCAK256 SLOAD DUP2 MLOAD PUSH4 0x50B7B521 PUSH1 0xE0 SHL DUP2 MSTORE SWAP2 MLOAD SWAP4 SWAP5 POP PUSH1 0x1 PUSH1 0x1 PUSH1 0xA0 SHL SUB AND SWAP3 PUSH4 0x50B7B521 SWAP3 PUSH1 0x4 DUP1 DUP5 ADD SWAP4 SWAP2 SWAP3 SWAP2 DUP3 SWAP1 SUB ADD DUP2 DUP7 GAS STATICCALL ISZERO DUP1 ISZERO PUSH3 0xAC4 JUMPI RETURNDATASIZE PUSH0 DUP1 RETURNDATACOPY RETURNDATASIZE PUSH0 REVERT JUMPDEST POP POP POP POP PUSH1 0x40 MLOAD RETURNDATASIZE PUSH0 DUP3 RETURNDATACOPY PUSH1 0x1F RETURNDATASIZE SWAP1 DUP2 ADD PUSH1 0x1F NOT AND DUP3 ADD PUSH1 0x40 MSTORE PUSH3 0xAED SWAP2 SWAP1 DUP2 ADD SWAP1 PUSH3 0x3229 JUMP JUMPDEST DUP7 DUP4 DUP2 MLOAD DUP2 LT PUSH3 0xB02 JUMPI PUSH3 0xB02 PUSH3 0x325E JUMP JUMPDEST PUSH1 0x20 MUL PUSH1 0x20 ADD ADD DUP2 SWAP1 MSTORE POP DUP1 DUP6 DUP4 DUP2 MLOAD DUP2 LT PUSH3 0xB23 JUMPI PUSH3 0xB23 PUSH3 0x325E JUMP JUMPDEST PUSH1 0x20 SWAP1 DUP2 MUL SWAP2 SWAP1 SWAP2 ADD DUP2 ADD SWAP2 SWAP1 SWAP2 MSTORE PUSH0 DUP3 DUP2 MSTORE PUSH1 0xA SWAP1 SWAP2 MSTORE PUSH1 0x40 DUP1 DUP3 KECCAK256 SLOAD DUP2 MLOAD PUSH4 0x72AB508D PUSH1 0xE0 SHL DUP2 MSTORE SWAP2 MLOAD PUSH1 0x1 PUSH1 0x1 PUSH1 0xA0 SHL SUB SWAP1 SWAP2 AND SWAP3 PUSH4 0x72AB508D SWAP3 PUSH1 0x4 DUP1 DUP3 ADD SWAP4 SWAP2 DUP3 SWAP1 SUB ADD DUP2 DUP7 GAS STATICCALL ISZERO DUP1 ISZERO PUSH3 0xB80 JUMPI RETURNDATASIZE PUSH0 DUP1 RETURNDATACOPY RETURNDATASIZE PUSH0 REVERT JUMPDEST POP POP POP POP PUSH1 0x40 MLOAD RETURNDATASIZE PUSH0 DUP3 RETURNDATACOPY PUSH1 0x1F RETURNDATASIZE SWAP1 DUP2 ADD PUSH1 0x1F NOT AND DUP3 ADD PUSH1 0x40 MSTORE PUSH3 0xBA9 SWAP2 SWAP1 DUP2 ADD SWAP1 PUSH3 0x3229 JUMP JUMPDEST DUP5 DUP4 DUP2 MLOAD DUP2 LT PUSH3 0xBBE JUMPI PUSH3 0xBBE PUSH3 0x325E JUMP JUMPDEST PUSH1 0x20 SWAP1 DUP2 MUL SWAP2 SWAP1 SWAP2 ADD ADD MSTORE POP PUSH1 0x1 ADD PUSH3 0xA5D JUMP JUMPDEST POP POP SWAP1 SWAP2 SWAP3 JUMP JUMPDEST PUSH0 DUP2 DUP2 MSTORE PUSH1 0xA PUSH1 0x20 SWAP1 DUP2 MSTORE PUSH1 0x40 DUP1 DUP4 KECCAK256 SLOAD DUP2 MLOAD PUSH3 0x9032FF PUSH1 0xE5 SHL DUP2 MSTORE SWAP2 MLOAD PUSH1 0x1 PUSH1 0x1 PUSH1 0xA0 SHL SUB SWAP1 SWAP2 AND SWAP3 PUSH4 0x12065FE0 SWAP3 PUSH1 0x4 DUP1 DUP3 ADD SWAP4 SWAP2 DUP3 SWAP1 SUB ADD DUP2 DUP7 GAS STATICCALL ISZERO DUP1 ISZERO PUSH3 0xC29 JUMPI RETURNDATASIZE PUSH0 DUP1 RETURNDATACOPY RETURNDATASIZE PUSH0 REVERT JUMPDEST POP POP POP POP PUSH1 0x40 MLOAD RETURNDATASIZE PUSH1 0x1F NOT PUSH1 0x1F DUP3 ADD AND DUP3 ADD DUP1 PUSH1 0x40 MSTORE POP DUP2 ADD SWAP1 PUSH3 0x7F0 SWAP2 SWAP1 PUSH3 0x3272 JUMP JUMPDEST PUSH1 0x1 PUSH1 0x1 PUSH1 0xA0 SHL SUB DUP3 AND PUSH3 0xC7E JUMPI PUSH1 0x40 MLOAD PUSH4 0x32505749 PUSH1 0xE1 SHL DUP2 MSTORE PUSH0 PUSH1 0x4 DUP3 ADD MSTORE PUSH1 0x24 ADD JUMPDEST PUSH1 0x40 MLOAD DUP1 SWAP2 SUB SWAP1 REVERT JUMPDEST PUSH0 PUSH3 0xC8C DUP4 DUP4 CALLER PUSH3 0x2017 JUMP JUMPDEST SWAP1 POP DUP4 PUSH1 0x1 PUSH1 0x1 PUSH1 0xA0 SHL SUB AND DUP2 PUSH1 0x1 PUSH1 0x1 PUSH1 0xA0 SHL SUB AND EQ PUSH3 0xCDC JUMPI PUSH1 0x40 MLOAD PUSH4 0x64283D7B PUSH1 0xE0 SHL DUP2 MSTORE PUSH1 0x1 PUSH1 0x1 PUSH1 0xA0 SHL SUB DUP1 DUP7 AND PUSH1 0x4 DUP4 ADD MSTORE PUSH1 0x24 DUP3 ADD DUP5 SWAP1 MSTORE DUP3 AND PUSH1 0x44 DUP3 ADD MSTORE PUSH1 0x64 ADD PUSH3 0xC75 JUMP JUMPDEST POP POP POP POP JUMP JUMPDEST PUSH0 PUSH3 0xCEE DUP4 PUSH3 0x1051 JUMP JUMPDEST DUP3 LT PUSH3 0xD21 JUMPI PUSH1 0x40 MLOAD PUSH4 0x295F44F7 PUSH1 0xE2 SHL DUP2 MSTORE PUSH1 0x1 PUSH1 0x1 PUSH1 0xA0 SHL SUB DUP5 AND PUSH1 0x4 DUP3 ADD MSTORE PUSH1 0x24 DUP2 ADD DUP4 SWAP1 MSTORE PUSH1 0x44 ADD PUSH3 0xC75 JUMP JUMPDEST POP PUSH1 0x1 PUSH1 0x1 PUSH1 0xA0 SHL SUB SWAP2 SWAP1 SWAP2 AND PUSH0 SWAP1 DUP2 MSTORE PUSH1 0x6 PUSH1 0x20 SWAP1 DUP2 MSTORE PUSH1 0x40 DUP1 DUP4 KECCAK256 SWAP4 DUP4 MSTORE SWAP3 SWAP1 MSTORE KECCAK256 SLOAD SWAP1 JUMP JUMPDEST PUSH1 0xC SLOAD PUSH1 0x60 SWAP1 DUP2 SWAP1 DUP2 SWAP1 PUSH1 0x1 PUSH1 0x1 PUSH1 0xA0 SHL SUB AND PUSH3 0xDA3 JUMPI PUSH1 0x40 MLOAD PUSH3 0x461BCD PUSH1 0xE5 SHL DUP2 MSTORE PUSH1 0x20 PUSH1 0x4 DUP3 ADD MSTORE PUSH1 0x16 PUSH1 0x24 DUP3 ADD MSTORE PUSH22 0x10985919D94818DBDB9D1C9858DD081B9BDD081CD95D PUSH1 0x52 SHL PUSH1 0x44 DUP3 ADD MSTORE PUSH1 0x64 ADD PUSH3 0xC75 JUMP JUMPDEST PUSH1 0xC SLOAD PUSH1 0x40 MLOAD PUSH4 0x1BE122FF PUSH1 0xE1 SHL DUP2 MSTORE PUSH1 0x1 PUSH1 0x1 PUSH1 0xA0 SHL SUB DUP7 DUP2 AND PUSH1 0x4 DUP4 ADD MSTORE SWAP1 SWAP2 AND SWAP1 PUSH4 0x37C245FE SWAP1 PUSH1 0x24 ADD PUSH0 PUSH1 0x40 MLOAD DUP1 DUP4 SUB DUP2 DUP7 GAS STATICCALL ISZERO DUP1 ISZERO PUSH3 0xDEB JUMPI RETURNDATASIZE PUSH0 DUP1 RETURNDATACOPY RETURNDATASIZE PUSH0 REVERT JUMPDEST POP POP POP POP PUSH1 0x40 MLOAD RETURNDATASIZE PUSH0 DUP3 RETURNDATACOPY PUSH1 0x1F RETURNDATASIZE SWAP1 DUP2 ADD PUSH1 0x1F NOT AND DUP3 ADD PUSH1 0x40 MSTORE PUSH3 0xE14 SWAP2 SWAP1 DUP2 ADD SWAP1 PUSH3 0x328A JUMP JUMPDEST SWAP3 POP SWAP3 POP SWAP3 POP SWAP2 SWAP4 SWAP1 SWAP3 POP JUMP JUMPDEST PUSH3 0xE3D DUP4 DUP4 DUP4 PUSH1 0x40 MLOAD DUP1 PUSH1 0x20 ADD PUSH1 0x40 MSTORE DUP1 PUSH0 DUP2 MSTORE POP PUSH3 0x1403 JUMP JUMPDEST POP POP POP JUMP JUMPDEST PUSH1 0xC SLOAD PUSH1 0x1 PUSH1 0x1 PUSH1 0xA0 SHL SUB AND ISZERO PUSH3 0xE9D JUMPI PUSH1 0x40 MLOAD PUSH3 0x461BCD PUSH1 0xE5 SHL DUP2 MSTORE PUSH1 0x20 PUSH1 0x4 DUP3 ADD MSTORE PUSH1 0x1A PUSH1 0x24 DUP3 ADD MSTORE PUSH32 0x426164676520636F6E747261637420616C726561647920736574000000000000 PUSH1 0x44 DUP3 ADD MSTORE PUSH1 0x64 ADD PUSH3 0xC75 JUMP JUMPDEST PUSH1 0xC DUP1 SLOAD PUSH1 0x1 PUSH1 0x1 PUSH1 0xA0 SHL SUB NOT AND PUSH1 0x1 PUSH1 0x1 PUSH1 0xA0 SHL SUB SWAP3 SWAP1 SWAP3 AND SWAP2 SWAP1 SWAP2 OR SWAP1 SSTORE JUMP JUMPDEST PUSH0 PUSH3 0xECA PUSH1 0x8 SLOAD SWAP1 JUMP JUMPDEST DUP3 LT PUSH3 0xEF4 JUMPI PUSH1 0x40 MLOAD PUSH4 0x295F44F7 PUSH1 0xE2 SHL DUP2 MSTORE PUSH0 PUSH1 0x4 DUP3 ADD MSTORE PUSH1 0x24 DUP2 ADD DUP4 SWAP1 MSTORE PUSH1 0x44 ADD PUSH3 0xC75 JUMP JUMPDEST PUSH1 0x8 DUP3 DUP2 SLOAD DUP2 LT PUSH3 0xF0A JUMPI PUSH3 0xF0A PUSH3 0x325E JUMP JUMPDEST SWAP1 PUSH0 MSTORE PUSH1 0x20 PUSH0 KECCAK256 ADD SLOAD SWAP1 POP SWAP2 SWAP1 POP JUMP JUMPDEST PUSH0 DUP2 DUP2 MSTORE PUSH1 0xA PUSH1 0x20 MSTORE PUSH1 0x40 SWAP1 KECCAK256 SLOAD PUSH1 0x1 PUSH1 0x1 PUSH1 0xA0 SHL SUB AND CALLVALUE PUSH3 0xF70 JUMPI PUSH1 0x40 MLOAD PUSH3 0x461BCD PUSH1 0xE5 SHL DUP2 MSTORE PUSH1 0x20 PUSH1 0x4 DUP3 ADD MSTORE PUSH1 0xD PUSH1 0x24 DUP3 ADD MSTORE PUSH13 0x9AEAE6E840E6CADCC8408AA89 PUSH1 0x9B SHL PUSH1 0x44 DUP3 ADD MSTORE PUSH1 0x64 ADD PUSH3 0xC75 JUMP JUMPDEST PUSH0 DUP2 PUSH1 0x1 PUSH1 0x1 PUSH1 0xA0 SHL SUB AND CALLVALUE PUSH1 0x40 MLOAD PUSH0 PUSH1 0x40 MLOAD DUP1 DUP4 SUB DUP2 DUP6 DUP8 GAS CALL SWAP3 POP POP POP RETURNDATASIZE DUP1 PUSH0 DUP2 EQ PUSH3 0xFBB JUMPI PUSH1 0x40 MLOAD SWAP2 POP PUSH1 0x1F NOT PUSH1 0x3F RETURNDATASIZE ADD AND DUP3 ADD PUSH1 0x40 MSTORE RETURNDATASIZE DUP3 MSTORE RETURNDATASIZE PUSH0 PUSH1 0x20 DUP5 ADD RETURNDATACOPY PUSH3 0xFC0 JUMP JUMPDEST PUSH1 0x60 SWAP2 POP JUMPDEST POP POP SWAP1 POP DUP1 PUSH3 0x1008 JUMPI PUSH1 0x40 MLOAD PUSH3 0x461BCD PUSH1 0xE5 SHL DUP2 MSTORE PUSH1 0x20 PUSH1 0x4 DUP3 ADD MSTORE PUSH1 0x12 PUSH1 0x24 DUP3 ADD MSTORE PUSH18 0x1155120819195C1BDCDA5D0819985A5B1959 PUSH1 0x72 SHL PUSH1 0x44 DUP3 ADD MSTORE PUSH1 0x64 ADD PUSH3 0xC75 JUMP JUMPDEST PUSH1 0x40 MLOAD CALLVALUE DUP2 MSTORE CALLER SWAP1 DUP5 SWAP1 PUSH32 0x7C8BF926F5E34B4F582277BFFB1C649F313A32090DD87607A610C6537E0A1F77 SWAP1 PUSH1 0x20 ADD JUMPDEST PUSH1 0x40 MLOAD DUP1 SWAP2 SUB SWAP1 LOG3 POP POP POP JUMP JUMPDEST PUSH0 PUSH3 0x7F0 DUP3 PUSH3 0x1FCE JUMP JUMPDEST PUSH0 PUSH1 0x1 PUSH1 0x1 PUSH1 0xA0 SHL SUB DUP3 AND PUSH3 0x107D JUMPI PUSH1 0x40 MLOAD PUSH4 0x22718AD9 PUSH1 0xE2 SHL DUP2 MSTORE PUSH0 PUSH1 0x4 DUP3 ADD MSTORE PUSH1 0x24 ADD PUSH3 0xC75 JUMP JUMPDEST POP PUSH1 0x1 PUSH1 0x1 PUSH1 0xA0 SHL SUB AND PUSH0 SWAP1 DUP2 MSTORE PUSH1 0x3 PUSH1 0x20 MSTORE PUSH1 0x40 SWAP1 KECCAK256 SLOAD SWAP1 JUMP JUMPDEST PUSH0 DUP3 DUP2 MSTORE PUSH1 0xA PUSH1 0x20 MSTORE PUSH1 0x40 DUP1 DUP3 KECCAK256 SLOAD SWAP1 MLOAD PUSH4 0xC9C2B403 PUSH1 0xE0 SHL DUP2 MSTORE PUSH1 0x4 DUP2 ADD DUP5 SWAP1 MSTORE CALLER PUSH1 0x24 DUP3 ADD MSTORE PUSH1 0x1 PUSH1 0x1 PUSH1 0xA0 SHL SUB SWAP1 SWAP2 AND SWAP2 SWAP1 DUP3 SWAP1 PUSH4 0xC9C2B403 SWAP1 PUSH1 0x44 ADD PUSH1 0x20 PUSH1 0x40 MLOAD DUP1 DUP4 SUB DUP2 PUSH0 DUP8 GAS CALL ISZERO DUP1 ISZERO PUSH3 0x10F5 JUMPI RETURNDATASIZE PUSH0 DUP1 RETURNDATACOPY RETURNDATASIZE PUSH0 REVERT JUMPDEST POP POP POP POP PUSH1 0x40 MLOAD RETURNDATASIZE PUSH1 0x1F NOT PUSH1 0x1F DUP3 ADD AND DUP3 ADD DUP1 PUSH1 0x40 MSTORE POP DUP2 ADD SWAP1 PUSH3 0x111B SWAP2 SWAP1 PUSH3 0x330B JUMP JUMPDEST SWAP1 POP DUP2 PUSH1 0x1 PUSH1 0x1 PUSH1 0xA0 SHL SUB AND PUSH4 0xD4493E8D PUSH1 0x40 MLOAD DUP2 PUSH4 0xFFFFFFFF AND PUSH1 0xE0 SHL DUP2 MSTORE PUSH1 0x4 ADD PUSH1 0x20 PUSH1 0x40 MLOAD DUP1 DUP4 SUB DUP2 DUP7 GAS STATICCALL ISZERO DUP1 ISZERO PUSH3 0x115A JUMPI RETURNDATASIZE PUSH0 DUP1 RETURNDATACOPY RETURNDATASIZE PUSH0 REVERT JUMPDEST POP POP POP POP PUSH1 0x40 MLOAD RETURNDATASIZE PUSH1 0x1F NOT PUSH1 0x1F DUP3 ADD AND DUP3 ADD DUP1 PUSH1 0x40 MSTORE POP DUP2 ADD SWAP1 PUSH3 0x1180 SWAP2 SWAP1 PUSH3 0x330B JUMP JUMPDEST PUSH1 0x1 PUSH1 0x1 PUSH1 0xA0 SHL SUB AND DUP2 PUSH1 0x1 PUSH1 0x1 PUSH1 0xA0 SHL SUB AND PUSH32 0x6F1965A011C204D91DC322CD7613BB5F5FA5E6975958EBDDC3300E35C1544742 DUP5 PUSH1 0x1 PUSH1 0x1 PUSH1 0xA0 SHL SUB AND PUSH4 0x50B7B521 PUSH1 0x40 MLOAD DUP2 PUSH4 0xFFFFFFFF AND PUSH1 0xE0 SHL DUP2 MSTORE PUSH1 0x4 ADD PUSH0 PUSH1 0x40 MLOAD DUP1 DUP4 SUB DUP2 DUP7 GAS STATICCALL ISZERO DUP1 ISZERO PUSH3 0x11F0 JUMPI RETURNDATASIZE PUSH0 DUP1 RETURNDATACOPY RETURNDATASIZE PUSH0 REVERT JUMPDEST POP POP POP POP PUSH1 0x40 MLOAD RETURNDATASIZE PUSH0 DUP3 RETURNDATACOPY PUSH1 0x1F RETURNDATASIZE SWAP1 DUP2 ADD PUSH1 0x1F NOT AND DUP3 ADD PUSH1 0x40 MSTORE PUSH3 0x1219 SWAP2 SWAP1 DUP2 ADD SWAP1 PUSH3 0x3229 JUMP JUMPDEST PUSH1 0x40 MLOAD PUSH3 0x1228 SWAP2 SWAP1 PUSH3 0x2B13 JUMP JUMPDEST PUSH1 0x40 MLOAD DUP1 SWAP2 SUB SWAP1 LOG3 POP POP POP POP JUMP JUMPDEST PUSH1 0x60 PUSH1 0x1 DUP1 SLOAD PUSH3 0x898 SWAP1 PUSH3 0x31EF JUMP JUMPDEST PUSH3 0x956 CALLER DUP4 DUP4 PUSH3 0x20F9 JUMP JUMPDEST PUSH0 DUP4 DUP2 MSTORE PUSH1 0xA PUSH1 0x20 MSTORE PUSH1 0x40 SWAP1 DUP2 SWAP1 KECCAK256 SLOAD SWAP1 MLOAD PUSH4 0x3BE0E0C9 PUSH1 0xE2 SHL DUP2 MSTORE PUSH1 0x1 PUSH1 0x1 PUSH1 0xA0 SHL SUB SWAP1 SWAP2 AND SWAP1 DUP2 SWAP1 PUSH4 0xEF838324 SWAP1 PUSH3 0x1298 SWAP1 DUP7 SWAP1 CALLER SWAP1 DUP8 SWAP1 PUSH1 0x4 ADD PUSH3 0x3329 JUMP JUMPDEST PUSH0 PUSH1 0x40 MLOAD DUP1 DUP4 SUB DUP2 PUSH0 DUP8 DUP1 EXTCODESIZE ISZERO DUP1 ISZERO PUSH3 0x12B0 JUMPI PUSH0 DUP1 REVERT JUMPDEST POP GAS CALL ISZERO DUP1 ISZERO PUSH3 0x12C3 JUMPI RETURNDATASIZE PUSH0 DUP1 RETURNDATACOPY RETURNDATASIZE PUSH0 REVERT JUMPDEST POP POP CALLER PUSH0 SWAP1 DUP2 MSTORE PUSH1 0xF PUSH1 0x20 MSTORE PUSH1 0x40 DUP2 KECCAK256 DUP1 SLOAD SWAP4 POP SWAP2 POP PUSH3 0x12E4 DUP4 PUSH3 0x3374 JUMP JUMPDEST SWAP2 SWAP1 POP SSTORE POP CALLER PUSH1 0x1 PUSH1 0x1 PUSH1 0xA0 SHL SUB AND DUP2 PUSH1 0x1 PUSH1 0x1 PUSH1 0xA0 SHL SUB AND PUSH4 0xD4493E8D PUSH1 0x40 MLOAD DUP2 PUSH4 0xFFFFFFFF AND PUSH1 0xE0 SHL DUP2 MSTORE PUSH1 0x4 ADD PUSH1 0x20 PUSH1 0x40 MLOAD DUP1 DUP4 SUB DUP2 DUP7 GAS STATICCALL ISZERO DUP1 ISZERO PUSH3 0x1330 JUMPI RETURNDATASIZE PUSH0 DUP1 RETURNDATACOPY RETURNDATASIZE PUSH0 REVERT JUMPDEST POP POP POP POP PUSH1 0x40 MLOAD RETURNDATASIZE PUSH1 0x1F NOT PUSH1 0x1F DUP3 ADD AND DUP3 ADD DUP1 PUSH1 0x40 MSTORE POP DUP2 ADD SWAP1 PUSH3 0x1356 SWAP2 SWAP1 PUSH3 0x330B JUMP JUMPDEST PUSH1 0x1 PUSH1 0x1 PUSH1 0xA0 SHL SUB AND DUP6 PUSH32 0x1A5AC0B7FCF6B30640B4992EBD66099FFC10245802ADC7597A9D2AC5E4DF15FC DUP5 PUSH1 0x1 PUSH1 0x1 PUSH1 0xA0 SHL SUB AND PUSH4 0x50B7B521 PUSH1 0x40 MLOAD DUP2 PUSH4 0xFFFFFFFF AND PUSH1 0xE0 SHL DUP2 MSTORE PUSH1 0x4 ADD PUSH0 PUSH1 0x40 MLOAD DUP1 DUP4 SUB DUP2 DUP7 GAS STATICCALL ISZERO DUP1 ISZERO PUSH3 0x13BD JUMPI RETURNDATASIZE PUSH0 DUP1 RETURNDATACOPY RETURNDATASIZE PUSH0 REVERT JUMPDEST POP POP POP POP PUSH1 0x40 MLOAD RETURNDATASIZE PUSH0 DUP3 RETURNDATACOPY PUSH1 0x1F RETURNDATASIZE SWAP1 DUP2 ADD PUSH1 0x1F NOT AND DUP3 ADD PUSH1 0x40 MSTORE PUSH3 0x13E6 SWAP2 SWAP1 DUP2 ADD SWAP1 PUSH3 0x3229 JUMP JUMPDEST PUSH1 0x40 MLOAD PUSH3 0x13F5 SWAP2 SWAP1 PUSH3 0x2B13 JUMP JUMPDEST PUSH1 0x40 MLOAD DUP1 SWAP2 SUB SWAP1 LOG4 POP POP POP POP JUMP JUMPDEST PUSH3 0x1410 DUP5 DUP5 DUP5 PUSH3 0xC4F JUMP JUMPDEST PUSH3 0xCDC CALLER DUP6 DUP6 DUP6 DUP6 PUSH3 0x2192 JUMP JUMPDEST PUSH0 PUSH3 0x142A PUSH1 0x8 SLOAD SWAP1 JUMP JUMPDEST PUSH3 0x1437 SWAP1 PUSH1 0x1 PUSH3 0x338F JUMP JUMPDEST SWAP1 POP PUSH3 0x1445 CALLER DUP3 PUSH3 0x22C7 JUMP JUMPDEST DUP3 DUP3 CALLER PUSH1 0x40 MLOAD PUSH3 0x1456 SWAP1 PUSH3 0x2934 JUMP JUMPDEST PUSH3 0x1464 SWAP4 SWAP3 SWAP2 SWAP1 PUSH3 0x33A5 JUMP JUMPDEST PUSH1 0x40 MLOAD DUP1 SWAP2 SUB SWAP1 PUSH0 CREATE DUP1 ISZERO DUP1 ISZERO PUSH3 0x147E JUMPI RETURNDATASIZE PUSH0 DUP1 RETURNDATACOPY RETURNDATASIZE PUSH0 REVERT JUMPDEST POP PUSH0 DUP3 DUP2 MSTORE PUSH1 0xA PUSH1 0x20 SWAP1 DUP2 MSTORE PUSH1 0x40 DUP1 DUP4 KECCAK256 DUP1 SLOAD PUSH1 0x1 PUSH1 0x1 PUSH1 0xA0 SHL SUB NOT AND PUSH1 0x1 PUSH1 0x1 PUSH1 0xA0 SHL SUB SWAP6 SWAP1 SWAP6 AND SWAP5 SWAP1 SWAP5 OR SWAP1 SWAP4 SSTORE CALLER DUP3 MSTORE PUSH1 0xD SWAP1 MSTORE KECCAK256 SLOAD PUSH1 0xFF AND ISZERO DUP1 ISZERO PUSH3 0x14D2 JUMPI POP PUSH1 0xC SLOAD PUSH1 0x1 PUSH1 0x1 PUSH1 0xA0 SHL SUB AND ISZERO ISZERO JUMPDEST ISZERO PUSH3 0x15C1 JUMPI CALLER PUSH0 DUP2 DUP2 MSTORE PUSH1 0xD PUSH1 0x20 MSTORE PUSH1 0x40 SWAP1 DUP2 SWAP1 KECCAK256 DUP1 SLOAD PUSH1 0xFF NOT AND PUSH1 0x1 SWAP1 DUP2 OR SWAP1 SWAP2 SSTORE PUSH1 0xC SLOAD SWAP2 MLOAD PUSH4 0x3A57EC01 PUSH1 0xE1 SHL DUP2 MSTORE PUSH1 0x1 PUSH1 0x1 PUSH1 0xA0 SHL SUB SWAP3 SWAP1 SWAP3 AND SWAP3 PUSH4 0x74AFD802 SWAP3 PUSH3 0x1529 SWAP3 SWAP1 DUP9 SWAP1 PUSH1 0x4 ADD PUSH3 0x33E6 JUMP JUMPDEST PUSH0 PUSH1 0x40 MLOAD DUP1 DUP4 SUB DUP2 PUSH0 DUP8 DUP1 EXTCODESIZE ISZERO DUP1 ISZERO PUSH3 0x1541 JUMPI PUSH0 DUP1 REVERT JUMPDEST POP GAS CALL ISZERO DUP1 ISZERO PUSH3 0x1554 JUMPI RETURNDATASIZE PUSH0 DUP1 RETURNDATACOPY RETURNDATASIZE PUSH0 REVERT JUMPDEST POP POP PUSH1 0xC SLOAD PUSH1 0x40 MLOAD PUSH4 0x170B7A7B PUSH1 0xE0 SHL DUP2 MSTORE PUSH1 0x1 PUSH1 0x1 PUSH1 0xA0 SHL SUB SWAP1 SWAP2 AND SWAP3 POP PUSH4 0x170B7A7B SWAP2 POP PUSH3 0x1591 SWAP1 CALLER SWAP1 PUSH0 SWAP1 PUSH1 0x1 SWAP1 DUP3 SWAP1 PUSH1 0x4 ADD PUSH3 0x3417 JUMP JUMPDEST PUSH0 PUSH1 0x40 MLOAD DUP1 DUP4 SUB DUP2 PUSH0 DUP8 DUP1 EXTCODESIZE ISZERO DUP1 ISZERO PUSH3 0x15A9 JUMPI PUSH0 DUP1 REVERT JUMPDEST POP GAS CALL ISZERO DUP1 ISZERO PUSH3 0x15BC JUMPI RETURNDATASIZE PUSH0 DUP1 RETURNDATACOPY RETURNDATASIZE PUSH0 REVERT JUMPDEST POP POP POP POP JUMPDEST PUSH1 0xB DUP1 SLOAD SWAP1 PUSH0 PUSH3 0x15D2 DUP4 PUSH3 0x3374 JUMP JUMPDEST SWAP2 SWAP1 POP SSTORE POP CALLER PUSH1 0x1 PUSH1 0x1 PUSH1 0xA0 SHL SUB AND DUP2 PUSH32 0x8217B84D983A45D5DDABBB2D78A0A0BA6BC43B3BAFB843110F28F5A841866485 DUP5 PUSH1 0x40 MLOAD PUSH3 0x1038 SWAP2 SWAP1 PUSH3 0x2B13 JUMP JUMPDEST PUSH1 0x60 PUSH3 0x1620 DUP3 PUSH3 0x1FCE JUMP JUMPDEST POP PUSH0 PUSH3 0x1637 PUSH1 0x40 DUP1 MLOAD PUSH1 0x20 DUP2 ADD SWAP1 SWAP2 MSTORE PUSH0 DUP2 MSTORE SWAP1 JUMP JUMPDEST SWAP1 POP PUSH0 DUP2 MLOAD GT PUSH3 0x1657 JUMPI PUSH1 0x40 MLOAD DUP1 PUSH1 0x20 ADD PUSH1 0x40 MSTORE DUP1 PUSH0 DUP2 MSTORE POP PUSH3 0x1686 JUMP JUMPDEST DUP1 PUSH3 0x1663 DUP5 PUSH3 0x22E2 JUMP JUMPDEST PUSH1 0x40 MLOAD PUSH1 0x20 ADD PUSH3 0x1676 SWAP3 SWAP2 SWAP1 PUSH3 0x343D JUMP JUMPDEST PUSH1 0x40 MLOAD PUSH1 0x20 DUP2 DUP4 SUB SUB DUP2 MSTORE SWAP1 PUSH1 0x40 MSTORE JUMPDEST SWAP4 SWAP3 POP POP POP JUMP JUMPDEST PUSH0 DUP4 DUP2 MSTORE PUSH1 0xA PUSH1 0x20 MSTORE PUSH1 0x40 DUP1 DUP3 KECCAK256 SLOAD DUP2 MLOAD PUSH4 0x178FBA9 PUSH1 0xE5 SHL DUP2 MSTORE SWAP2 MLOAD PUSH1 0x1 PUSH1 0x1 PUSH1 0xA0 SHL SUB SWAP1 SWAP2 AND SWAP3 SWAP2 DUP4 SWAP2 PUSH4 0x2F1F7520 SWAP2 PUSH1 0x4 DUP1 DUP3 ADD SWAP3 DUP7 SWAP3 SWAP1 SWAP2 SWAP1 DUP3 SWAP1 SUB ADD DUP2 DUP7 GAS STATICCALL ISZERO DUP1 ISZERO PUSH3 0x16E2 JUMPI RETURNDATASIZE PUSH0 DUP1 RETURNDATACOPY RETURNDATASIZE PUSH0 REVERT JUMPDEST POP POP POP POP PUSH1 0x40 MLOAD RETURNDATASIZE PUSH0 DUP3 RETURNDATACOPY PUSH1 0x1F RETURNDATASIZE SWAP1 DUP2 ADD PUSH1 0x1F NOT AND DUP3 ADD PUSH1 0x40 MSTORE PUSH3 0x170B SWAP2 SWAP1 DUP2 ADD SWAP1 PUSH3 0x30E7 JUMP JUMPDEST POP SWAP3 POP POP POP PUSH0 DUP2 DUP6 DUP2 MLOAD DUP2 LT PUSH3 0x1726 JUMPI PUSH3 0x1726 PUSH3 0x325E JUMP JUMPDEST PUSH1 0x20 SWAP1 DUP2 MUL SWAP2 SWAP1 SWAP2 ADD ADD MLOAD PUSH1 0x40 MLOAD PUSH4 0xFB4DB28D PUSH1 0xE0 SHL DUP2 MSTORE PUSH1 0x4 DUP2 ADD DUP8 SWAP1 MSTORE PUSH1 0x24 DUP2 ADD DUP7 SWAP1 MSTORE CALLER PUSH1 0x44 DUP3 ADD MSTORE SWAP1 SWAP2 POP PUSH1 0x1 PUSH1 0x1 PUSH1 0xA0 SHL SUB DUP5 AND SWAP1 PUSH4 0xFB4DB28D SWAP1 PUSH1 0x64 ADD PUSH0 PUSH1 0x40 MLOAD DUP1 DUP4 SUB DUP2 PUSH0 DUP8 DUP1 EXTCODESIZE ISZERO DUP1 ISZERO PUSH3 0x1781 JUMPI PUSH0 DUP1 REVERT JUMPDEST POP GAS CALL ISZERO DUP1 ISZERO PUSH3 0x1794 JUMPI RETURNDATASIZE PUSH0 DUP1 RETURNDATACOPY RETURNDATASIZE PUSH0 REVERT JUMPDEST POP POP PUSH1 0xC SLOAD PUSH1 0x1 PUSH1 0x1 PUSH1 0xA0 SHL SUB AND ISZERO SWAP2 POP PUSH3 0x19FF SWAP1 POP JUMPI PUSH1 0x1 PUSH1 0x1 PUSH1 0xA0 SHL SUB DUP2 AND PUSH0 SWAP1 DUP2 MSTORE PUSH1 0x12 PUSH1 0x20 MSTORE PUSH1 0x40 SWAP1 KECCAK256 SLOAD PUSH1 0xFF AND PUSH3 0x18B5 JUMPI PUSH1 0x1 PUSH1 0x1 PUSH1 0xA0 SHL SUB DUP1 DUP3 AND PUSH0 SWAP1 DUP2 MSTORE PUSH1 0x12 PUSH1 0x20 MSTORE PUSH1 0x40 DUP1 DUP3 KECCAK256 DUP1 SLOAD PUSH1 0xFF NOT AND PUSH1 0x1 OR SWAP1 SSTORE PUSH1 0xC SLOAD DUP2 MLOAD PUSH4 0x72AB508D PUSH1 0xE0 SHL DUP2 MSTORE SWAP2 MLOAD SWAP1 DUP5 AND SWAP4 PUSH4 0x74AFD802 SWAP4 DUP7 SWAP4 SWAP1 SWAP3 SWAP2 DUP10 AND SWAP2 PUSH4 0x72AB508D SWAP2 PUSH1 0x4 DUP1 DUP3 ADD SWAP3 DUP7 SWAP3 SWAP1 SWAP2 SWAP1 DUP3 SWAP1 SUB ADD DUP2 DUP7 GAS STATICCALL ISZERO DUP1 ISZERO PUSH3 0x183C JUMPI RETURNDATASIZE PUSH0 DUP1 RETURNDATACOPY RETURNDATASIZE PUSH0 REVERT JUMPDEST POP POP POP POP PUSH1 0x40 MLOAD RETURNDATASIZE PUSH0 DUP3 RETURNDATACOPY PUSH1 0x1F RETURNDATASIZE SWAP1 DUP2 ADD PUSH1 0x1F NOT AND DUP3 ADD PUSH1 0x40 MSTORE PUSH3 0x1865 SWAP2 SWAP1 DUP2 ADD SWAP1 PUSH3 0x3229 JUMP JUMPDEST PUSH1 0x40 MLOAD DUP5 PUSH4 0xFFFFFFFF AND PUSH1 0xE0 SHL DUP2 MSTORE PUSH1 0x4 ADD PUSH3 0x1885 SWAP4 SWAP3 SWAP2 SWAP1 PUSH3 0x33E6 JUMP JUMPDEST PUSH0 PUSH1 0x40 MLOAD DUP1 DUP4 SUB DUP2 PUSH0 DUP8 DUP1 EXTCODESIZE ISZERO DUP1 ISZERO PUSH3 0x189D JUMPI PUSH0 DUP1 REVERT JUMPDEST POP GAS CALL ISZERO DUP1 ISZERO PUSH3 0x18B0 JUMPI RETURNDATASIZE PUSH0 DUP1 RETURNDATACOPY RETURNDATASIZE PUSH0 REVERT JUMPDEST POP POP POP POP JUMPDEST PUSH1 0x1 PUSH1 0x1 PUSH1 0xA0 SHL SUB DUP2 AND PUSH0 SWAP1 DUP2 MSTORE PUSH1 0x11 PUSH1 0x20 MSTORE PUSH1 0x40 DUP2 KECCAK256 DUP1 SLOAD SWAP2 PUSH3 0x18DA DUP4 PUSH3 0x3374 JUMP JUMPDEST SWAP1 SWAP2 SSTORE POP POP PUSH1 0xC SLOAD PUSH1 0x40 MLOAD PUSH4 0x170B7A7B PUSH1 0xE0 SHL DUP2 MSTORE PUSH1 0x1 PUSH1 0x1 PUSH1 0xA0 SHL SUB SWAP1 SWAP2 AND SWAP1 PUSH4 0x170B7A7B SWAP1 PUSH3 0x1918 SWAP1 DUP5 SWAP1 PUSH1 0x1 SWAP1 PUSH0 SWAP1 DUP2 SWAP1 PUSH1 0x4 ADD PUSH3 0x3417 JUMP JUMPDEST PUSH0 PUSH1 0x40 MLOAD DUP1 DUP4 SUB DUP2 PUSH0 DUP8 DUP1 EXTCODESIZE ISZERO DUP1 ISZERO PUSH3 0x1930 JUMPI PUSH0 DUP1 REVERT JUMPDEST POP GAS CALL ISZERO DUP1 ISZERO PUSH3 0x1943 JUMPI RETURNDATASIZE PUSH0 DUP1 RETURNDATACOPY RETURNDATASIZE PUSH0 REVERT JUMPDEST POP POP POP POP PUSH1 0x1 PUSH1 0x1 PUSH1 0xA0 SHL SUB DUP2 AND PUSH0 SWAP1 DUP2 MSTORE PUSH1 0x11 PUSH1 0x20 MSTORE PUSH1 0x40 SWAP1 KECCAK256 SLOAD PUSH1 0x5 SUB PUSH3 0x19FF JUMPI PUSH1 0xC SLOAD PUSH1 0x40 MLOAD PUSH4 0x3A57EC01 PUSH1 0xE1 SHL DUP2 MSTORE PUSH1 0x1 PUSH1 0x1 PUSH1 0xA0 SHL SUB DUP4 DUP2 AND PUSH1 0x4 DUP4 ADD MSTORE PUSH1 0x2 PUSH1 0x24 DUP4 ADD MSTORE PUSH1 0x60 PUSH1 0x44 DUP4 ADD MSTORE PUSH1 0x19 PUSH1 0x64 DUP4 ADD MSTORE PUSH32 0x4D756C7469706C6520417070726F76656420436F6D6D69747300000000000000 PUSH1 0x84 DUP4 ADD MSTORE SWAP1 SWAP2 AND SWAP1 PUSH4 0x74AFD802 SWAP1 PUSH1 0xA4 ADD PUSH0 PUSH1 0x40 MLOAD DUP1 DUP4 SUB DUP2 PUSH0 DUP8 DUP1 EXTCODESIZE ISZERO DUP1 ISZERO PUSH3 0x19E7 JUMPI PUSH0 DUP1 REVERT JUMPDEST POP GAS CALL ISZERO DUP1 ISZERO PUSH3 0x19FA JUMPI RETURNDATASIZE PUSH0 DUP1 RETURNDATACOPY RETURNDATASIZE PUSH0 REVERT JUMPDEST POP POP POP POP JUMPDEST CALLER PUSH0 SWAP1 DUP2 MSTORE PUSH1 0x10 PUSH1 0x20 MSTORE PUSH1 0x40 DUP2 KECCAK256 DUP1 SLOAD SWAP2 PUSH3 0x1A1B DUP4 PUSH3 0x3374 JUMP JUMPDEST SWAP1 SWAP2 SSTORE POP POP CALLER PUSH0 SWAP1 DUP2 MSTORE PUSH1 0x10 PUSH1 0x20 MSTORE PUSH1 0x40 SWAP1 KECCAK256 SLOAD PUSH1 0xA EQ DUP1 ISZERO PUSH3 0x1A49 JUMPI POP PUSH1 0xC SLOAD PUSH1 0x1 PUSH1 0x1 PUSH1 0xA0 SHL SUB AND ISZERO ISZERO JUMPDEST ISZERO PUSH3 0x1B45 JUMPI PUSH1 0xC SLOAD PUSH1 0x40 MLOAD PUSH4 0x3A57EC01 PUSH1 0xE1 SHL DUP2 MSTORE CALLER PUSH1 0x4 DUP3 ADD MSTORE PUSH1 0x3 PUSH1 0x24 DUP3 ADD MSTORE PUSH1 0x60 PUSH1 0x44 DUP3 ADD MSTORE PUSH1 0x15 PUSH1 0x64 DUP3 ADD MSTORE PUSH21 0x4D756C7469706C65205265706F7369746F72696573 PUSH1 0x58 SHL PUSH1 0x84 DUP3 ADD MSTORE PUSH1 0x1 PUSH1 0x1 PUSH1 0xA0 SHL SUB SWAP1 SWAP2 AND SWAP1 PUSH4 0x74AFD802 SWAP1 PUSH1 0xA4 ADD PUSH0 PUSH1 0x40 MLOAD DUP1 DUP4 SUB DUP2 PUSH0 DUP8 DUP1 EXTCODESIZE ISZERO DUP1 ISZERO PUSH3 0x1AC5 JUMPI PUSH0 DUP1 REVERT JUMPDEST POP GAS CALL ISZERO DUP1 ISZERO PUSH3 0x1AD8 JUMPI RETURNDATASIZE PUSH0 DUP1 RETURNDATACOPY RETURNDATASIZE PUSH0 REVERT JUMPDEST POP POP PUSH1 0xC SLOAD PUSH1 0x40 MLOAD PUSH4 0x170B7A7B PUSH1 0xE0 SHL DUP2 MSTORE PUSH1 0x1 PUSH1 0x1 PUSH1 0xA0 SHL SUB SWAP1 SWAP2 AND SWAP3 POP PUSH4 0x170B7A7B SWAP2 POP PUSH3 0x1B15 SWAP1 CALLER SWAP1 PUSH0 SWAP1 DUP2 SWAP1 PUSH1 0x1 SWAP1 PUSH1 0x4 ADD PUSH3 0x3417 JUMP JUMPDEST PUSH0 PUSH1 0x40 MLOAD DUP1 DUP4 SUB DUP2 PUSH0 DUP8 DUP1 EXTCODESIZE ISZERO DUP1 ISZERO PUSH3 0x1B2D JUMPI PUSH0 DUP1 REVERT JUMPDEST POP GAS CALL ISZERO DUP1 ISZERO PUSH3 0x1B40 JUMPI RETURNDATASIZE PUSH0 DUP1 RETURNDATACOPY RETURNDATASIZE PUSH0 REVERT JUMPDEST POP POP POP POP JUMPDEST DUP3 PUSH1 0x1 PUSH1 0x1 PUSH1 0xA0 SHL SUB AND PUSH4 0xD4493E8D PUSH1 0x40 MLOAD DUP2 PUSH4 0xFFFFFFFF AND PUSH1 0xE0 SHL DUP2 MSTORE PUSH1 0x4 ADD PUSH1 0x20 PUSH1 0x40 MLOAD DUP1 DUP4 SUB DUP2 DUP7 GAS STATICCALL ISZERO DUP1 ISZERO PUSH3 0x1B82 JUMPI RETURNDATASIZE PUSH0 DUP1 RETURNDATACOPY RETURNDATASIZE PUSH0 REVERT JUMPDEST POP POP POP POP PUSH1 0x40 MLOAD RETURNDATASIZE PUSH1 0x1F NOT PUSH1 0x1F DUP3 ADD AND DUP3 ADD DUP1 PUSH1 0x40 MSTORE POP DUP2 ADD SWAP1 PUSH3 0x1BA8 SWAP2 SWAP1 PUSH3 0x330B JUMP JUMPDEST PUSH1 0x1 PUSH1 0x1 PUSH1 0xA0 SHL SUB AND DUP7 PUSH32 0x41DB8845C5558A11A8C19E2C29B13947A23F7F959AC460E97D20E675C7BECB84 DUP6 PUSH1 0x1 PUSH1 0x1 PUSH1 0xA0 SHL SUB AND PUSH4 0x50B7B521 PUSH1 0x40 MLOAD DUP2 PUSH4 0xFFFFFFFF AND PUSH1 0xE0 SHL DUP2 MSTORE PUSH1 0x4 ADD PUSH0 PUSH1 0x40 MLOAD DUP1 DUP4 SUB DUP2 DUP7 GAS STATICCALL ISZERO DUP1 ISZERO PUSH3 0x1C0F JUMPI RETURNDATASIZE PUSH0 DUP1 RETURNDATACOPY RETURNDATASIZE PUSH0 REVERT JUMPDEST POP POP POP POP PUSH1 0x40 MLOAD RETURNDATASIZE PUSH0 DUP3 RETURNDATACOPY PUSH1 0x1F RETURNDATASIZE SWAP1 DUP2 ADD PUSH1 0x1F NOT AND DUP3 ADD PUSH1 0x40 MSTORE PUSH3 0x1C38 SWAP2 SWAP1 DUP2 ADD SWAP1 PUSH3 0x3229 JUMP JUMPDEST PUSH1 0x40 MLOAD PUSH3 0x1C47 SWAP2 SWAP1 PUSH3 0x2B13 JUMP JUMPDEST PUSH1 0x40 MLOAD DUP1 SWAP2 SUB SWAP1 LOG3 POP POP POP POP POP POP JUMP JUMPDEST PUSH1 0x1 PUSH1 0x1 PUSH1 0xA0 SHL SUB SWAP2 DUP3 AND PUSH0 SWAP1 DUP2 MSTORE PUSH1 0x5 PUSH1 0x20 SWAP1 DUP2 MSTORE PUSH1 0x40 DUP1 DUP4 KECCAK256 SWAP4 SWAP1 SWAP5 AND DUP3 MSTORE SWAP2 SWAP1 SWAP2 MSTORE KECCAK256 SLOAD PUSH1 0xFF AND SWAP1 JUMP JUMPDEST PUSH1 0x60 DUP1 PUSH1 0x60 DUP1 PUSH0 PUSH3 0x1C95 PUSH1 0x8 SLOAD SWAP1 JUMP JUMPDEST SWAP1 POP DUP1 PUSH1 0x1 PUSH1 0x1 PUSH1 0x40 SHL SUB DUP2 GT ISZERO PUSH3 0x1CB2 JUMPI PUSH3 0x1CB2 PUSH3 0x2CB0 JUMP JUMPDEST PUSH1 0x40 MLOAD SWAP1 DUP1 DUP3 MSTORE DUP1 PUSH1 0x20 MUL PUSH1 0x20 ADD DUP3 ADD PUSH1 0x40 MSTORE DUP1 ISZERO PUSH3 0x1CE7 JUMPI DUP2 PUSH1 0x20 ADD JUMPDEST PUSH1 0x60 DUP2 MSTORE PUSH1 0x20 ADD SWAP1 PUSH1 0x1 SWAP1 SUB SWAP1 DUP2 PUSH3 0x1CD1 JUMPI SWAP1 POP JUMPDEST POP SWAP5 POP DUP1 PUSH1 0x1 PUSH1 0x1 PUSH1 0x40 SHL SUB DUP2 GT ISZERO PUSH3 0x1D05 JUMPI PUSH3 0x1D05 PUSH3 0x2CB0 JUMP JUMPDEST PUSH1 0x40 MLOAD SWAP1 DUP1 DUP3 MSTORE DUP1 PUSH1 0x20 MUL PUSH1 0x20 ADD DUP3 ADD PUSH1 0x40 MSTORE DUP1 ISZERO PUSH3 0x1D2F JUMPI DUP2 PUSH1 0x20 ADD PUSH1 0x20 DUP3 MUL DUP1 CALLDATASIZE DUP4 CALLDATACOPY ADD SWAP1 POP JUMPDEST POP SWAP4 POP DUP1 PUSH1 0x1 PUSH1 0x1 PUSH1 0x40 SHL SUB DUP2 GT ISZERO PUSH3 0x1D4D JUMPI PUSH3 0x1D4D PUSH3 0x2CB0 JUMP JUMPDEST PUSH1 0x40 MLOAD SWAP1 DUP1 DUP3 MSTORE DUP1 PUSH1 0x20 MUL PUSH1 0x20 ADD DUP3 ADD PUSH1 0x40 MSTORE DUP1 ISZERO PUSH3 0x1D77 JUMPI DUP2 PUSH1 0x20 ADD PUSH1 0x20 DUP3 MUL DUP1 CALLDATASIZE DUP4 CALLDATACOPY ADD SWAP1 POP JUMPDEST POP SWAP3 POP DUP1 PUSH1 0x1 PUSH1 0x1 PUSH1 0x40 SHL SUB DUP2 GT ISZERO PUSH3 0x1D95 JUMPI PUSH3 0x1D95 PUSH3 0x2CB0 JUMP JUMPDEST PUSH1 0x40 MLOAD SWAP1 DUP1 DUP3 MSTORE DUP1 PUSH1 0x20 MUL PUSH1 0x20 ADD DUP3 ADD PUSH1 0x40 MSTORE DUP1 ISZERO PUSH3 0x1DCA JUMPI DUP2 PUSH1 0x20 ADD JUMPDEST PUSH1 0x60 DUP2 MSTORE PUSH1 0x20 ADD SWAP1 PUSH1 0x1 SWAP1 SUB SWAP1 DUP2 PUSH3 0x1DB4 JUMPI SWAP1 POP JUMPDEST POP SWAP2 POP PUSH0 JUMPDEST DUP2 DUP2 LT ISZERO PUSH3 0x1F74 JUMPI PUSH0 PUSH3 0x1DE4 DUP3 PUSH3 0xEBF JUMP JUMPDEST PUSH0 DUP2 DUP2 MSTORE PUSH1 0xA PUSH1 0x20 MSTORE PUSH1 0x40 DUP1 DUP3 KECCAK256 SLOAD DUP2 MLOAD PUSH4 0x50B7B521 PUSH1 0xE0 SHL DUP2 MSTORE SWAP2 MLOAD SWAP4 SWAP5 POP PUSH1 0x1 PUSH1 0x1 PUSH1 0xA0 SHL SUB AND SWAP3 PUSH4 0x50B7B521 SWAP3 PUSH1 0x4 DUP1 DUP5 ADD SWAP4 SWAP2 SWAP3 SWAP2 DUP3 SWAP1 SUB ADD DUP2 DUP7 GAS STATICCALL ISZERO DUP1 ISZERO PUSH3 0x1E35 JUMPI RETURNDATASIZE PUSH0 DUP1 RETURNDATACOPY RETURNDATASIZE PUSH0 REVERT JUMPDEST POP POP POP POP PUSH1 0x40 MLOAD RETURNDATASIZE PUSH0 DUP3 RETURNDATACOPY PUSH1 0x1F RETURNDATASIZE SWAP1 DUP2 ADD PUSH1 0x1F NOT AND DUP3 ADD PUSH1 0x40 MSTORE PUSH3 0x1E5E SWAP2 SWAP1 DUP2 ADD SWAP1 PUSH3 0x3229 JUMP JUMPDEST DUP8 DUP4 DUP2 MLOAD DUP2 LT PUSH3 0x1E73 JUMPI PUSH3 0x1E73 PUSH3 0x325E JUMP JUMPDEST PUSH1 0x20 MUL PUSH1 0x20 ADD ADD DUP2 SWAP1 MSTORE POP DUP1 DUP7 DUP4 DUP2 MLOAD DUP2 LT PUSH3 0x1E94 JUMPI PUSH3 0x1E94 PUSH3 0x325E JUMP JUMPDEST PUSH1 0x20 MUL PUSH1 0x20 ADD ADD DUP2 DUP2 MSTORE POP POP PUSH3 0x1EAB DUP2 PUSH3 0x1045 JUMP JUMPDEST DUP6 DUP4 DUP2 MLOAD DUP2 LT PUSH3 0x1EC0 JUMPI PUSH3 0x1EC0 PUSH3 0x325E JUMP JUMPDEST PUSH1 0x1 PUSH1 0x1 PUSH1 0xA0 SHL SUB SWAP3 DUP4 AND PUSH1 0x20 SWAP2 DUP3 MUL SWAP3 SWAP1 SWAP3 ADD DUP2 ADD SWAP2 SWAP1 SWAP2 MSTORE PUSH0 DUP4 DUP2 MSTORE PUSH1 0xA SWAP1 SWAP2 MSTORE PUSH1 0x40 DUP1 DUP3 KECCAK256 SLOAD DUP2 MLOAD PUSH4 0x72AB508D PUSH1 0xE0 SHL DUP2 MSTORE SWAP2 MLOAD SWAP4 AND SWAP3 PUSH4 0x72AB508D SWAP3 PUSH1 0x4 DUP1 DUP5 ADD SWAP4 SWAP2 SWAP3 SWAP2 DUP3 SWAP1 SUB ADD DUP2 DUP7 GAS STATICCALL ISZERO DUP1 ISZERO PUSH3 0x1F21 JUMPI RETURNDATASIZE PUSH0 DUP1 RETURNDATACOPY RETURNDATASIZE PUSH0 REVERT JUMPDEST POP POP POP POP PUSH1 0x40 MLOAD RETURNDATASIZE PUSH0 DUP3 RETURNDATACOPY PUSH1 0x1F RETURNDATASIZE SWAP1 DUP2 ADD PUSH1 0x1F NOT AND DUP3 ADD PUSH1 0x40 MSTORE PUSH3 0x1F4A SWAP2 SWAP1 DUP2 ADD SWAP1 PUSH3 0x3229 JUMP JUMPDEST DUP5 DUP4 DUP2 MLOAD DUP2 LT PUSH3 0x1F5F JUMPI PUSH3 0x1F5F PUSH3 0x325E JUMP JUMPDEST PUSH1 0x20 SWAP1 DUP2 MUL SWAP2 SWAP1 SWAP2 ADD ADD MSTORE POP PUSH1 0x1 ADD PUSH3 0x1DCF JUMP JUMPDEST POP POP SWAP1 SWAP2 SWAP3 SWAP4 JUMP JUMPDEST PUSH0 PUSH1 0x1 PUSH1 0x1 PUSH1 0xE0 SHL SUB NOT DUP3 AND PUSH4 0x80AC58CD PUSH1 0xE0 SHL EQ DUP1 PUSH3 0x1FAD JUMPI POP PUSH1 0x1 PUSH1 0x1 PUSH1 0xE0 SHL SUB NOT DUP3 AND PUSH4 0x5B5E139F PUSH1 0xE0 SHL EQ JUMPDEST DUP1 PUSH3 0x7F0 JUMPI POP PUSH4 0x1FFC9A7 PUSH1 0xE0 SHL PUSH1 0x1 PUSH1 0x1 PUSH1 0xE0 SHL SUB NOT DUP4 AND EQ PUSH3 0x7F0 JUMP JUMPDEST PUSH0 DUP2 DUP2 MSTORE PUSH1 0x2 PUSH1 0x20 MSTORE PUSH1 0x40 DUP2 KECCAK256 SLOAD PUSH1 0x1 PUSH1 0x1 PUSH1 0xA0 SHL SUB AND DUP1 PUSH3 0x7F0 JUMPI PUSH1 0x40 MLOAD PUSH4 0x7E273289 PUSH1 0xE0 SHL DUP2 MSTORE PUSH1 0x4 DUP2 ADD DUP5 SWAP1 MSTORE PUSH1 0x24 ADD PUSH3 0xC75 JUMP JUMPDEST PUSH3 0xE3D DUP4 DUP4 DUP4 PUSH1 0x1 PUSH3 0x2378 JUMP JUMPDEST PUSH0 DUP1 PUSH3 0x2026 DUP6 DUP6 DUP6 PUSH3 0x2487 JUMP JUMPDEST SWAP1 POP PUSH1 0x1 PUSH1 0x1 PUSH1 0xA0 SHL SUB DUP2 AND PUSH3 0x2085 JUMPI PUSH3 0x207F DUP5 PUSH1 0x8 DUP1 SLOAD PUSH0 DUP4 DUP2 MSTORE PUSH1 0x9 PUSH1 0x20 MSTORE PUSH1 0x40 DUP2 KECCAK256 DUP3 SWAP1 SSTORE PUSH1 0x1 DUP3 ADD DUP4 SSTORE SWAP2 SWAP1 SWAP2 MSTORE PUSH32 0xF3F7A9FE364FAAB93B216DA50A3214154F22A0A2B415B23A84C8169E8B636EE3 ADD SSTORE JUMP JUMPDEST PUSH3 0x20AB JUMP JUMPDEST DUP5 PUSH1 0x1 PUSH1 0x1 PUSH1 0xA0 SHL SUB AND DUP2 PUSH1 0x1 PUSH1 0x1 PUSH1 0xA0 SHL SUB AND EQ PUSH3 0x20AB JUMPI PUSH3 0x20AB DUP2 DUP6 PUSH3 0x2580 JUMP JUMPDEST PUSH1 0x1 PUSH1 0x1 PUSH1 0xA0 SHL SUB DUP6 AND PUSH3 0x20CB JUMPI PUSH3 0x20C5 DUP5 PUSH3 0x2600 JUMP JUMPDEST PUSH3 0x20F1 JUMP JUMPDEST DUP5 PUSH1 0x1 PUSH1 0x1 PUSH1 0xA0 SHL SUB AND DUP2 PUSH1 0x1 PUSH1 0x1 PUSH1 0xA0 SHL SUB AND EQ PUSH3 0x20F1 JUMPI PUSH3 0x20F1 DUP6 DUP6 PUSH3 0x26B2 JUMP JUMPDEST SWAP5 SWAP4 POP POP POP POP JUMP JUMPDEST PUSH1 0x1 PUSH1 0x1 PUSH1 0xA0 SHL SUB DUP3 AND PUSH3 0x212D JUMPI PUSH1 0x40 MLOAD PUSH4 0xB611743 PUSH1 0xE3 SHL DUP2 MSTORE PUSH1 0x1 PUSH1 0x1 PUSH1 0xA0 SHL SUB DUP4 AND PUSH1 0x4 DUP3 ADD MSTORE PUSH1 0x24 ADD PUSH3 0xC75 JUMP JUMPDEST PUSH1 0x1 PUSH1 0x1 PUSH1 0xA0 SHL SUB DUP4 DUP2 AND PUSH0 DUP2 DUP2 MSTORE PUSH1 0x5 PUSH1 0x20 SWAP1 DUP2 MSTORE PUSH1 0x40 DUP1 DUP4 KECCAK256 SWAP5 DUP8 AND DUP1 DUP5 MSTORE SWAP5 DUP3 MSTORE SWAP2 DUP3 SWAP1 KECCAK256 DUP1 SLOAD PUSH1 0xFF NOT AND DUP7 ISZERO ISZERO SWAP1 DUP2 OR SWAP1 SWAP2 SSTORE SWAP2 MLOAD SWAP2 DUP3 MSTORE PUSH32 0x17307EAB39AB6107E8899845AD3D59BD9653F200F220920489CA2B5937696C31 SWAP2 ADD PUSH3 0x1038 JUMP JUMPDEST PUSH1 0x1 PUSH1 0x1 PUSH1 0xA0 SHL SUB DUP4 AND EXTCODESIZE ISZERO PUSH3 0x22C0 JUMPI PUSH1 0x40 MLOAD PUSH4 0xA85BD01 PUSH1 0xE1 SHL DUP2 MSTORE PUSH1 0x1 PUSH1 0x1 PUSH1 0xA0 SHL SUB DUP5 AND SWAP1 PUSH4 0x150B7A02 SWAP1 PUSH3 0x21D7 SWAP1 DUP9 SWAP1 DUP9 SWAP1 DUP8 SWAP1 DUP8 SWAP1 PUSH1 0x4 ADD PUSH3 0x346F JUMP JUMPDEST PUSH1 0x20 PUSH1 0x40 MLOAD DUP1 DUP4 SUB DUP2 PUSH0 DUP8 GAS CALL SWAP3 POP POP POP DUP1 ISZERO PUSH3 0x2214 JUMPI POP PUSH1 0x40 DUP1 MLOAD PUSH1 0x1F RETURNDATASIZE SWAP1 DUP2 ADD PUSH1 0x1F NOT AND DUP3 ADD SWAP1 SWAP3 MSTORE PUSH3 0x2211 SWAP2 DUP2 ADD SWAP1 PUSH3 0x34A3 JUMP JUMPDEST PUSH1 0x1 JUMPDEST PUSH3 0x2280 JUMPI RETURNDATASIZE DUP1 DUP1 ISZERO PUSH3 0x2244 JUMPI PUSH1 0x40 MLOAD SWAP2 POP PUSH1 0x1F NOT PUSH1 0x3F RETURNDATASIZE ADD AND DUP3 ADD PUSH1 0x40 MSTORE RETURNDATASIZE DUP3 MSTORE RETURNDATASIZE PUSH0 PUSH1 0x20 DUP5 ADD RETURNDATACOPY PUSH3 0x2249 JUMP JUMPDEST PUSH1 0x60 SWAP2 POP JUMPDEST POP DUP1 MLOAD PUSH0 SUB PUSH3 0x2278 JUMPI PUSH1 0x40 MLOAD PUSH4 0x32505749 PUSH1 0xE1 SHL DUP2 MSTORE PUSH1 0x1 PUSH1 0x1 PUSH1 0xA0 SHL SUB DUP6 AND PUSH1 0x4 DUP3 ADD MSTORE PUSH1 0x24 ADD PUSH3 0xC75 JUMP JUMPDEST DUP1 MLOAD PUSH1 0x20 DUP3 ADD REVERT JUMPDEST PUSH1 0x1 PUSH1 0x1 PUSH1 0xE0 SHL SUB NOT DUP2 AND PUSH4 0xA85BD01 PUSH1 0xE1 SHL EQ PUSH3 0x22BE JUMPI PUSH1 0x40 MLOAD PUSH4 0x32505749 PUSH1 0xE1 SHL DUP2 MSTORE PUSH1 0x1 PUSH1 0x1 PUSH1 0xA0 SHL SUB DUP6 AND PUSH1 0x4 DUP3 ADD MSTORE PUSH1 0x24 ADD PUSH3 0xC75 JUMP JUMPDEST POP JUMPDEST POP POP POP POP POP JUMP JUMPDEST PUSH3 0x956 DUP3 DUP3 PUSH1 0x40 MLOAD DUP1 PUSH1 0x20 ADD PUSH1 0x40 MSTORE DUP1 PUSH0 DUP2 MSTORE POP PUSH3 0x2704 JUMP JUMPDEST PUSH1 0x60 PUSH0 PUSH3 0x22F0 DUP4 PUSH3 0x271F JUMP JUMPDEST PUSH1 0x1 ADD SWAP1 POP PUSH0 DUP2 PUSH1 0x1 PUSH1 0x1 PUSH1 0x40 SHL SUB DUP2 GT ISZERO PUSH3 0x2311 JUMPI PUSH3 0x2311 PUSH3 0x2CB0 JUMP JUMPDEST PUSH1 0x40 MLOAD SWAP1 DUP1 DUP3 MSTORE DUP1 PUSH1 0x1F ADD PUSH1 0x1F NOT AND PUSH1 0x20 ADD DUP3 ADD PUSH1 0x40 MSTORE DUP1 ISZERO PUSH3 0x233C JUMPI PUSH1 0x20 DUP3 ADD DUP2 DUP1 CALLDATASIZE DUP4 CALLDATACOPY ADD SWAP1 POP JUMPDEST POP SWAP1 POP DUP2 DUP2 ADD PUSH1 0x20 ADD JUMPDEST PUSH0 NOT ADD PUSH16 0x181899199A1A9B1B9C1CB0B131B232B3 PUSH1 0x81 SHL PUSH1 0xA DUP7 MOD BYTE DUP2 MSTORE8 PUSH1 0xA DUP6 DIV SWAP5 POP DUP5 PUSH3 0x2346 JUMPI POP SWAP4 SWAP3 POP POP POP JUMP JUMPDEST DUP1 DUP1 PUSH3 0x238D JUMPI POP PUSH1 0x1 PUSH1 0x1 PUSH1 0xA0 SHL SUB DUP3 AND ISZERO ISZERO JUMPDEST ISZERO PUSH3 0x2458 JUMPI PUSH0 PUSH3 0x239F DUP5 PUSH3 0x1FCE JUMP JUMPDEST SWAP1 POP PUSH1 0x1 PUSH1 0x1 PUSH1 0xA0 SHL SUB DUP4 AND ISZERO DUP1 ISZERO SWAP1 PUSH3 0x23CC JUMPI POP DUP3 PUSH1 0x1 PUSH1 0x1 PUSH1 0xA0 SHL SUB AND DUP2 PUSH1 0x1 PUSH1 0x1 PUSH1 0xA0 SHL SUB AND EQ ISZERO JUMPDEST DUP1 ISZERO PUSH3 0x23E2 JUMPI POP PUSH3 0x23E0 DUP2 DUP5 PUSH3 0x1C57 JUMP JUMPDEST ISZERO JUMPDEST ISZERO PUSH3 0x240D JUMPI PUSH1 0x40 MLOAD PUSH4 0xA9FBF51F PUSH1 0xE0 SHL DUP2 MSTORE PUSH1 0x1 PUSH1 0x1 PUSH1 0xA0 SHL SUB DUP5 AND PUSH1 0x4 DUP3 ADD MSTORE PUSH1 0x24 ADD PUSH3 0xC75 JUMP JUMPDEST DUP2 ISZERO PUSH3 0x2456 JUMPI DUP4 DUP6 PUSH1 0x1 PUSH1 0x1 PUSH1 0xA0 SHL SUB AND DUP3 PUSH1 0x1 PUSH1 0x1 PUSH1 0xA0 SHL SUB AND PUSH32 0x8C5BE1E5EBEC7D5BD14F71427D1E84F3DD0314C0F7B2291E5B200AC8C7C3B925 PUSH1 0x40 MLOAD PUSH1 0x40 MLOAD DUP1 SWAP2 SUB SWAP1 LOG4 JUMPDEST POP JUMPDEST POP POP PUSH0 SWAP1 DUP2 MSTORE PUSH1 0x4 PUSH1 0x20 MSTORE PUSH1 0x40 SWAP1 KECCAK256 DUP1 SLOAD PUSH1 0x1 PUSH1 0x1 PUSH1 0xA0 SHL SUB NOT AND PUSH1 0x1 PUSH1 0x1 PUSH1 0xA0 SHL SUB SWAP3 SWAP1 SWAP3 AND SWAP2 SWAP1 SWAP2 OR SWAP1 SSTORE JUMP JUMPDEST PUSH0 DUP3 DUP2 MSTORE PUSH1 0x2 PUSH1 0x20 MSTORE PUSH1 0x40 DUP2 KECCAK256 SLOAD PUSH1 0x1 PUSH1 0x1 PUSH1 0xA0 SHL SUB SWAP1 DUP2 AND SWAP1 DUP4 AND ISZERO PUSH3 0x24B6 JUMPI PUSH3 0x24B6 DUP2 DUP5 DUP7 PUSH3 0x27FD JUMP JUMPDEST PUSH1 0x1 PUSH1 0x1 PUSH1 0xA0 SHL SUB DUP2 AND ISZERO PUSH3 0x24F3 JUMPI PUSH3 0x24D4 PUSH0 DUP6 PUSH0 DUP1 PUSH3 0x2378 JUMP JUMPDEST PUSH1 0x1 PUSH1 0x1 PUSH1 0xA0 SHL SUB DUP2 AND PUSH0 SWAP1 DUP2 MSTORE PUSH1 0x3 PUSH1 0x20 MSTORE PUSH1 0x40 SWAP1 KECCAK256 DUP1 SLOAD PUSH0 NOT ADD SWAP1 SSTORE JUMPDEST PUSH1 0x1 PUSH1 0x1 PUSH1 0xA0 SHL SUB DUP6 AND ISZERO PUSH3 0x2522 JUMPI PUSH1 0x1 PUSH1 0x1 PUSH1 0xA0 SHL SUB DUP6 AND PUSH0 SWAP1 DUP2 MSTORE PUSH1 0x3 PUSH1 0x20 MSTORE PUSH1 0x40 SWAP1 KECCAK256 DUP1 SLOAD PUSH1 0x1 ADD SWAP1 SSTORE JUMPDEST PUSH0 DUP5 DUP2 MSTORE PUSH1 0x2 PUSH1 0x20 MSTORE PUSH1 0x40 DUP1 DUP3 KECCAK256 DUP1 SLOAD PUSH1 0x1 PUSH1 0x1 PUSH1 0xA0 SHL SUB NOT AND PUSH1 0x1 PUSH1 0x1 PUSH1 0xA0 SHL SUB DUP10 DUP2 AND SWAP2 DUP3 OR SWAP1 SWAP3 SSTORE SWAP2 MLOAD DUP8 SWAP4 SWAP2 DUP6 AND SWAP2 PUSH32 0xDDF252AD1BE2C89B69C2B068FC378DAA952BA7F163C4A11628F55A4DF523B3EF SWAP2 LOG4 SWAP5 SWAP4 POP POP POP POP JUMP JUMPDEST PUSH0 PUSH3 0x258C DUP4 PUSH3 0x1051 JUMP JUMPDEST PUSH0 DUP4 DUP2 MSTORE PUSH1 0x7 PUSH1 0x20 SWAP1 DUP2 MSTORE PUSH1 0x40 DUP1 DUP4 KECCAK256 SLOAD PUSH1 0x1 PUSH1 0x1 PUSH1 0xA0 SHL SUB DUP9 AND DUP5 MSTORE PUSH1 0x6 SWAP1 SWAP3 MSTORE SWAP1 SWAP2 KECCAK256 SWAP2 SWAP3 POP SWAP1 DUP2 DUP4 EQ PUSH3 0x25E2 JUMPI PUSH0 DUP4 DUP2 MSTORE PUSH1 0x20 DUP3 DUP2 MSTORE PUSH1 0x40 DUP1 DUP4 KECCAK256 SLOAD DUP6 DUP5 MSTORE DUP2 DUP5 KECCAK256 DUP2 SWAP1 SSTORE DUP4 MSTORE PUSH1 0x7 SWAP1 SWAP2 MSTORE SWAP1 KECCAK256 DUP3 SWAP1 SSTORE JUMPDEST PUSH0 SWAP4 DUP5 MSTORE PUSH1 0x7 PUSH1 0x20 SWAP1 DUP2 MSTORE PUSH1 0x40 DUP1 DUP7 KECCAK256 DUP7 SWAP1 SSTORE SWAP4 DUP6 MSTORE MSTORE POP DUP2 KECCAK256 SSTORE POP JUMP JUMPDEST PUSH1 0x8 SLOAD PUSH0 SWAP1 PUSH3 0x2613 SWAP1 PUSH1 0x1 SWAP1 PUSH3 0x34C1 JUMP JUMPDEST PUSH0 DUP4 DUP2 MSTORE PUSH1 0x9 PUSH1 0x20 MSTORE PUSH1 0x40 DUP2 KECCAK256 SLOAD PUSH1 0x8 DUP1 SLOAD SWAP4 SWAP5 POP SWAP1 SWAP3 DUP5 SWAP1 DUP2 LT PUSH3 0x263D JUMPI PUSH3 0x263D PUSH3 0x325E JUMP JUMPDEST SWAP1 PUSH0 MSTORE PUSH1 0x20 PUSH0 KECCAK256 ADD SLOAD SWAP1 POP DUP1 PUSH1 0x8 DUP4 DUP2 SLOAD DUP2 LT PUSH3 0x265F JUMPI PUSH3 0x265F PUSH3 0x325E JUMP JUMPDEST PUSH0 SWAP2 DUP3 MSTORE PUSH1 0x20 DUP1 DUP4 KECCAK256 SWAP1 SWAP2 ADD SWAP3 SWAP1 SWAP3 SSTORE DUP3 DUP2 MSTORE PUSH1 0x9 SWAP1 SWAP2 MSTORE PUSH1 0x40 DUP1 DUP3 KECCAK256 DUP5 SWAP1 SSTORE DUP6 DUP3 MSTORE DUP2 KECCAK256 SSTORE PUSH1 0x8 DUP1 SLOAD DUP1 PUSH3 0x2699 JUMPI PUSH3 0x2699 PUSH3 0x34D7 JUMP JUMPDEST PUSH1 0x1 SWAP1 SUB DUP2 DUP2 SWAP1 PUSH0 MSTORE PUSH1 0x20 PUSH0 KECCAK256 ADD PUSH0 SWAP1 SSTORE SWAP1 SSTORE POP POP POP POP JUMP JUMPDEST PUSH0 PUSH1 0x1 PUSH3 0x26C0 DUP5 PUSH3 0x1051 JUMP JUMPDEST PUSH3 0x26CC SWAP2 SWAP1 PUSH3 0x34C1 JUMP JUMPDEST PUSH1 0x1 PUSH1 0x1 PUSH1 0xA0 SHL SUB SWAP1 SWAP4 AND PUSH0 SWAP1 DUP2 MSTORE PUSH1 0x6 PUSH1 0x20 SWAP1 DUP2 MSTORE PUSH1 0x40 DUP1 DUP4 KECCAK256 DUP7 DUP5 MSTORE DUP3 MSTORE DUP1 DUP4 KECCAK256 DUP6 SWAP1 SSTORE SWAP4 DUP3 MSTORE PUSH1 0x7 SWAP1 MSTORE SWAP2 SWAP1 SWAP2 KECCAK256 SWAP2 SWAP1 SWAP2 SSTORE POP JUMP JUMPDEST PUSH3 0x2710 DUP4 DUP4 PUSH3 0x2867 JUMP JUMPDEST PUSH3 0xE3D CALLER PUSH0 DUP6 DUP6 DUP6 PUSH3 0x2192 JUMP JUMPDEST PUSH0 DUP1 PUSH19 0x184F03E93FF9F4DAA797ED6E38ED64BF6A1F01 PUSH1 0x40 SHL DUP4 LT PUSH3 0x275E JUMPI PUSH19 0x184F03E93FF9F4DAA797ED6E38ED64BF6A1F01 PUSH1 0x40 SHL DUP4 DIV SWAP3 POP PUSH1 0x40 ADD JUMPDEST PUSH14 0x4EE2D6D415B85ACEF8100000000 DUP4 LT PUSH3 0x278B JUMPI PUSH14 0x4EE2D6D415B85ACEF8100000000 DUP4 DIV SWAP3 POP PUSH1 0x20 ADD JUMPDEST PUSH7 0x2386F26FC10000 DUP4 LT PUSH3 0x27AA JUMPI PUSH7 0x2386F26FC10000 DUP4 DIV SWAP3 POP PUSH1 0x10 ADD JUMPDEST PUSH4 0x5F5E100 DUP4 LT PUSH3 0x27C3 JUMPI PUSH4 0x5F5E100 DUP4 DIV SWAP3 POP PUSH1 0x8 ADD JUMPDEST PUSH2 0x2710 DUP4 LT PUSH3 0x27D8 JUMPI PUSH2 0x2710 DUP4 DIV SWAP3 POP PUSH1 0x4 ADD JUMPDEST PUSH1 0x64 DUP4 LT PUSH3 0x27EB JUMPI PUSH1 0x64 DUP4 DIV SWAP3 POP PUSH1 0x2 ADD JUMPDEST PUSH1 0xA DUP4 LT PUSH3 0x7F0 JUMPI PUSH1 0x1 ADD SWAP3 SWAP2 POP POP JUMP JUMPDEST PUSH3 0x280A DUP4 DUP4 DUP4 PUSH3 0x28CE JUMP JUMPDEST PUSH3 0xE3D JUMPI PUSH1 0x1 PUSH1 0x1 PUSH1 0xA0 SHL SUB DUP4 AND PUSH3 0x283B JUMPI PUSH1 0x40 MLOAD PUSH4 0x7E273289 PUSH1 0xE0 SHL DUP2 MSTORE PUSH1 0x4 DUP2 ADD DUP3 SWAP1 MSTORE PUSH1 0x24 ADD PUSH3 0xC75 JUMP JUMPDEST PUSH1 0x40 MLOAD PUSH4 0x177E802F PUSH1 0xE0 SHL DUP2 MSTORE PUSH1 0x1 PUSH1 0x1 PUSH1 0xA0 SHL SUB DUP4 AND PUSH1 0x4 DUP3 ADD MSTORE PUSH1 0x24 DUP2 ADD DUP3 SWAP1 MSTORE PUSH1 0x44 ADD PUSH3 0xC75 JUMP JUMPDEST PUSH1 0x1 PUSH1 0x1 PUSH1 0xA0 SHL SUB DUP3 AND PUSH3 0x2892 JUMPI PUSH1 0x40 MLOAD PUSH4 0x32505749 PUSH1 0xE1 SHL DUP2 MSTORE PUSH0 PUSH1 0x4 DUP3 ADD MSTORE PUSH1 0x24 ADD PUSH3 0xC75 JUMP JUMPDEST PUSH0 PUSH3 0x28A0 DUP4 DUP4 PUSH0 PUSH3 0x2017 JUMP JUMPDEST SWAP1 POP PUSH1 0x1 PUSH1 0x1 PUSH1 0xA0 SHL SUB DUP2 AND ISZERO PUSH3 0xE3D JUMPI PUSH1 0x40 MLOAD PUSH4 0x39E35637 PUSH1 0xE1 SHL DUP2 MSTORE PUSH0 PUSH1 0x4 DUP3 ADD MSTORE PUSH1 0x24 ADD PUSH3 0xC75 JUMP JUMPDEST PUSH0 PUSH1 0x1 PUSH1 0x1 PUSH1 0xA0 SHL SUB DUP4 AND ISZERO DUP1 ISZERO SWAP1 PUSH3 0x20F1 JUMPI POP DUP3 PUSH1 0x1 PUSH1 0x1 PUSH1 0xA0 SHL SUB AND DUP5 PUSH1 0x1 PUSH1 0x1 PUSH1 0xA0 SHL SUB AND EQ DUP1 PUSH3 0x290B JUMPI POP PUSH3 0x290B DUP5 DUP5 PUSH3 0x1C57 JUMP JUMPDEST DUP1 PUSH3 0x20F1 JUMPI POP POP PUSH0 SWAP1 DUP2 MSTORE PUSH1 0x4 PUSH1 0x20 MSTORE PUSH1 0x40 SWAP1 KECCAK256 SLOAD PUSH1 0x1 PUSH1 0x1 PUSH1 0xA0 SHL SUB SWAP1 DUP2 AND SWAP2 AND EQ SWAP2 SWAP1 POP JUMP JUMPDEST PUSH2 0x1E16 DUP1 PUSH3 0x34EC DUP4 CODECOPY ADD SWAP1 JUMP JUMPDEST PUSH1 0x1 PUSH1 0x1 PUSH1 0xE0 SHL SUB NOT DUP2 AND DUP2 EQ PUSH3 0x2958 JUMPI PUSH0 DUP1 REVERT JUMPDEST POP JUMP JUMPDEST PUSH0 PUSH1 0x20 DUP3 DUP5 SUB SLT ISZERO PUSH3 0x296C JUMPI PUSH0 DUP1 REVERT JUMPDEST DUP2 CALLDATALOAD PUSH3 0x1686 DUP2 PUSH3 0x2942 JUMP JUMPDEST PUSH0 PUSH1 0x20 DUP3 DUP5 SUB SLT ISZERO PUSH3 0x298A JUMPI PUSH0 DUP1 REVERT JUMPDEST POP CALLDATALOAD SWAP2 SWAP1 POP JUMP JUMPDEST PUSH0 JUMPDEST DUP4 DUP2 LT ISZERO PUSH3 0x29AD JUMPI DUP2 DUP2 ADD MLOAD DUP4 DUP3 ADD MSTORE PUSH1 0x20 ADD PUSH3 0x2993 JUMP JUMPDEST POP POP PUSH0 SWAP2 ADD MSTORE JUMP JUMPDEST PUSH0 DUP2 MLOAD DUP1 DUP5 MSTORE PUSH3 0x29CE DUP2 PUSH1 0x20 DUP7 ADD PUSH1 0x20 DUP7 ADD PUSH3 0x2991 JUMP JUMPDEST PUSH1 0x1F ADD PUSH1 0x1F NOT AND SWAP3 SWAP1 SWAP3 ADD PUSH1 0x20 ADD SWAP3 SWAP2 POP POP JUMP JUMPDEST PUSH0 DUP3 DUP3 MLOAD DUP1 DUP6 MSTORE PUSH1 0x20 DUP1 DUP7 ADD SWAP6 POP PUSH1 0x20 DUP3 PUSH1 0x5 SHL DUP5 ADD ADD PUSH1 0x20 DUP7 ADD PUSH0 JUMPDEST DUP5 DUP2 LT ISZERO PUSH3 0x2A31 JUMPI PUSH1 0x1F NOT DUP7 DUP5 SUB ADD DUP10 MSTORE PUSH3 0x2A1E DUP4 DUP4 MLOAD PUSH3 0x29B5 JUMP JUMPDEST SWAP9 DUP5 ADD SWAP9 SWAP3 POP SWAP1 DUP4 ADD SWAP1 PUSH1 0x1 ADD PUSH3 0x29FF JUMP JUMPDEST POP SWAP1 SWAP8 SWAP7 POP POP POP POP POP POP POP JUMP JUMPDEST PUSH0 DUP2 MLOAD DUP1 DUP5 MSTORE PUSH1 0x20 DUP1 DUP6 ADD SWAP5 POP PUSH1 0x20 DUP5 ADD PUSH0 JUMPDEST DUP4 DUP2 LT ISZERO PUSH3 0x2A6F JUMPI DUP2 MLOAD DUP8 MSTORE SWAP6 DUP3 ADD SWAP6 SWAP1 DUP3 ADD SWAP1 PUSH1 0x1 ADD PUSH3 0x2A51 JUMP JUMPDEST POP SWAP5 SWAP6 SWAP5 POP POP POP POP POP JUMP JUMPDEST PUSH0 DUP2 MLOAD DUP1 DUP5 MSTORE PUSH1 0x20 DUP1 DUP6 ADD SWAP5 POP PUSH1 0x20 DUP5 ADD PUSH0 JUMPDEST DUP4 DUP2 LT ISZERO PUSH3 0x2A6F JUMPI DUP2 MLOAD PUSH1 0x1 PUSH1 0x1 PUSH1 0xA0 SHL SUB AND DUP8 MSTORE SWAP6 DUP3 ADD SWAP6 SWAP1 DUP3 ADD SWAP1 PUSH1 0x1 ADD PUSH3 0x2A8D JUMP JUMPDEST PUSH1 0x80 DUP2 MSTORE PUSH0 PUSH3 0x2AC8 PUSH1 0x80 DUP4 ADD DUP8 PUSH3 0x29E2 JUMP JUMPDEST DUP3 DUP2 SUB PUSH1 0x20 DUP5 ADD MSTORE PUSH3 0x2ADC DUP2 DUP8 PUSH3 0x2A3E JUMP JUMPDEST SWAP1 POP DUP3 DUP2 SUB PUSH1 0x40 DUP5 ADD MSTORE PUSH3 0x2AF2 DUP2 DUP7 PUSH3 0x2A7A JUMP JUMPDEST SWAP1 POP DUP3 DUP2 SUB PUSH1 0x60 DUP5 ADD MSTORE PUSH3 0x2B08 DUP2 DUP6 PUSH3 0x2A3E JUMP JUMPDEST SWAP8 SWAP7 POP POP POP POP POP POP POP JUMP JUMPDEST PUSH1 0x20 DUP2 MSTORE PUSH0 PUSH3 0x1686 PUSH1 0x20 DUP4 ADD DUP5 PUSH3 0x29B5 JUMP JUMPDEST PUSH1 0x1 PUSH1 0x1 PUSH1 0xA0 SHL SUB DUP2 AND DUP2 EQ PUSH3 0x2958 JUMPI PUSH0 DUP1 REVERT JUMPDEST PUSH0 DUP1 PUSH1 0x40 DUP4 DUP6 SUB SLT ISZERO PUSH3 0x2B4E JUMPI PUSH0 DUP1 REVERT JUMPDEST DUP3 CALLDATALOAD PUSH3 0x2B5B DUP2 PUSH3 0x2B27 JUMP JUMPDEST SWAP5 PUSH1 0x20 SWAP4 SWAP1 SWAP4 ADD CALLDATALOAD SWAP4 POP POP POP JUMP JUMPDEST PUSH1 0x60 DUP2 MSTORE PUSH0 PUSH3 0x2B7D PUSH1 0x60 DUP4 ADD DUP7 PUSH3 0x29E2 JUMP JUMPDEST DUP3 DUP2 SUB PUSH1 0x20 DUP5 ADD MSTORE PUSH3 0x2B91 DUP2 DUP7 PUSH3 0x2A3E JUMP JUMPDEST SWAP1 POP DUP3 DUP2 SUB PUSH1 0x40 DUP5 ADD MSTORE PUSH3 0x2BA7 DUP2 DUP6 PUSH3 0x29E2 JUMP JUMPDEST SWAP7 SWAP6 POP POP POP POP POP POP JUMP JUMPDEST PUSH0 DUP1 PUSH0 PUSH1 0x60 DUP5 DUP7 SUB SLT ISZERO PUSH3 0x2BC4 JUMPI PUSH0 DUP1 REVERT JUMPDEST DUP4 CALLDATALOAD PUSH3 0x2BD1 DUP2 PUSH3 0x2B27 JUMP JUMPDEST SWAP3 POP PUSH1 0x20 DUP5 ADD CALLDATALOAD PUSH3 0x2BE3 DUP2 PUSH3 0x2B27 JUMP JUMPDEST SWAP3 SWAP6 SWAP3 SWAP5 POP POP POP PUSH1 0x40 SWAP2 SWAP1 SWAP2 ADD CALLDATALOAD SWAP1 JUMP JUMPDEST PUSH0 PUSH1 0x20 DUP3 DUP5 SUB SLT ISZERO PUSH3 0x2C05 JUMPI PUSH0 DUP1 REVERT JUMPDEST DUP2 CALLDATALOAD PUSH3 0x1686 DUP2 PUSH3 0x2B27 JUMP JUMPDEST PUSH1 0x60 DUP2 MSTORE PUSH0 PUSH3 0x2C26 PUSH1 0x60 DUP4 ADD DUP7 PUSH3 0x2A3E JUMP JUMPDEST DUP3 DUP2 SUB PUSH1 0x20 DUP5 ADD MSTORE PUSH3 0x2C3A DUP2 DUP7 PUSH3 0x29E2 JUMP JUMPDEST SWAP1 POP DUP3 DUP2 SUB PUSH1 0x40 DUP5 ADD MSTORE PUSH3 0x2BA7 DUP2 DUP6 PUSH3 0x2A3E JUMP JUMPDEST PUSH0 DUP1 PUSH1 0x40 DUP4 DUP6 SUB SLT ISZERO PUSH3 0x2C62 JUMPI PUSH0 DUP1 REVERT JUMPDEST POP POP DUP1 CALLDATALOAD SWAP3 PUSH1 0x20 SWAP1 SWAP2 ADD CALLDATALOAD SWAP2 POP JUMP JUMPDEST PUSH0 DUP1 PUSH1 0x40 DUP4 DUP6 SUB SLT ISZERO PUSH3 0x2C83 JUMPI PUSH0 DUP1 REVERT JUMPDEST DUP3 CALLDATALOAD PUSH3 0x2C90 DUP2 PUSH3 0x2B27 JUMP JUMPDEST SWAP2 POP PUSH1 0x20 DUP4 ADD CALLDATALOAD DUP1 ISZERO ISZERO DUP2 EQ PUSH3 0x2CA5 JUMPI PUSH0 DUP1 REVERT JUMPDEST DUP1 SWAP2 POP POP SWAP3 POP SWAP3 SWAP1 POP JUMP JUMPDEST PUSH4 0x4E487B71 PUSH1 0xE0 SHL PUSH0 MSTORE PUSH1 0x41 PUSH1 0x4 MSTORE PUSH1 0x24 PUSH0 REVERT JUMPDEST PUSH1 0x40 MLOAD PUSH1 0x1F DUP3 ADD PUSH1 0x1F NOT AND DUP2 ADD PUSH1 0x1 PUSH1 0x1 PUSH1 0x40 SHL SUB DUP2 GT DUP3 DUP3 LT OR ISZERO PUSH3 0x2CEF JUMPI PUSH3 0x2CEF PUSH3 0x2CB0 JUMP JUMPDEST PUSH1 0x40 MSTORE SWAP2 SWAP1 POP JUMP JUMPDEST PUSH0 PUSH1 0x1 PUSH1 0x1 PUSH1 0x40 SHL SUB DUP3 GT ISZERO PUSH3 0x2D12 JUMPI PUSH3 0x2D12 PUSH3 0x2CB0 JUMP JUMPDEST POP PUSH1 0x1F ADD PUSH1 0x1F NOT AND PUSH1 0x20 ADD SWAP1 JUMP JUMPDEST PUSH0 PUSH3 0x2D36 PUSH3 0x2D30 DUP5 PUSH3 0x2CF7 JUMP JUMPDEST PUSH3 0x2CC4 JUMP JUMPDEST SWAP1 POP DUP3 DUP2 MSTORE DUP4 DUP4 DUP4 ADD GT ISZERO PUSH3 0x2D4A JUMPI PUSH0 DUP1 REVERT JUMPDEST DUP3 DUP3 PUSH1 0x20 DUP4 ADD CALLDATACOPY PUSH0 PUSH1 0x20 DUP5 DUP4 ADD ADD MSTORE SWAP4 SWAP3 POP POP POP JUMP JUMPDEST PUSH0 DUP3 PUSH1 0x1F DUP4 ADD SLT PUSH3 0x2D70 JUMPI PUSH0 DUP1 REVERT JUMPDEST PUSH3 0x1686 DUP4 DUP4 CALLDATALOAD PUSH1 0x20 DUP6 ADD PUSH3 0x2D20 JUMP JUMPDEST PUSH0 DUP1 PUSH0 PUSH1 0x60 DUP5 DUP7 SUB SLT ISZERO PUSH3 0x2D94 JUMPI PUSH0 DUP1 REVERT JUMPDEST DUP4 CALLDATALOAD SWAP3 POP PUSH1 0x20 DUP5 ADD CALLDATALOAD PUSH1 0x1 PUSH1 0x1 PUSH1 0x40 SHL SUB DUP1 DUP3 GT ISZERO PUSH3 0x2DB2 JUMPI PUSH0 DUP1 REVERT JUMPDEST PUSH3 0x2DC0 DUP8 DUP4 DUP9 ADD PUSH3 0x2D60 JUMP JUMPDEST SWAP4 POP PUSH1 0x40 DUP7 ADD CALLDATALOAD SWAP2 POP DUP1 DUP3 GT ISZERO PUSH3 0x2DD6 JUMPI PUSH0 DUP1 REVERT JUMPDEST POP PUSH3 0x2DE5 DUP7 DUP3 DUP8 ADD PUSH3 0x2D60 JUMP JUMPDEST SWAP2 POP POP SWAP3 POP SWAP3 POP SWAP3 JUMP JUMPDEST PUSH0 DUP1 PUSH0 DUP1 PUSH1 0x80 DUP6 DUP8 SUB SLT ISZERO PUSH3 0x2E03 JUMPI PUSH0 DUP1 REVERT JUMPDEST DUP5 CALLDATALOAD PUSH3 0x2E10 DUP2 PUSH3 0x2B27 JUMP JUMPDEST SWAP4 POP PUSH1 0x20 DUP6 ADD CALLDATALOAD PUSH3 0x2E22 DUP2 PUSH3 0x2B27 JUMP JUMPDEST SWAP3 POP PUSH1 0x40 DUP6 ADD CALLDATALOAD SWAP2 POP PUSH1 0x60 DUP6 ADD CALLDATALOAD PUSH1 0x1 PUSH1 0x1 PUSH1 0x40 SHL SUB DUP2 GT ISZERO PUSH3 0x2E44 JUMPI PUSH0 DUP1 REVERT JUMPDEST DUP6 ADD PUSH1 0x1F DUP2 ADD DUP8 SGT PUSH3 0x2E55 JUMPI PUSH0 DUP1 REVERT JUMPDEST PUSH3 0x2E66 DUP8 DUP3 CALLDATALOAD PUSH1 0x20 DUP5 ADD PUSH3 0x2D20 JUMP JUMPDEST SWAP2 POP POP SWAP3 SWAP6 SWAP2 SWAP5 POP SWAP3 POP JUMP JUMPDEST PUSH0 DUP1 PUSH1 0x40 DUP4 DUP6 SUB SLT ISZERO PUSH3 0x2E84 JUMPI PUSH0 DUP1 REVERT JUMPDEST DUP3 CALLDATALOAD PUSH1 0x1 PUSH1 0x1 PUSH1 0x40 SHL SUB DUP1 DUP3 GT ISZERO PUSH3 0x2E9B JUMPI PUSH0 DUP1 REVERT JUMPDEST PUSH3 0x2EA9 DUP7 DUP4 DUP8 ADD PUSH3 0x2D60 JUMP JUMPDEST SWAP4 POP PUSH1 0x20 DUP6 ADD CALLDATALOAD SWAP2 POP DUP1 DUP3 GT ISZERO PUSH3 0x2EBF JUMPI PUSH0 DUP1 REVERT JUMPDEST POP PUSH3 0x2ECE DUP6 DUP3 DUP7 ADD PUSH3 0x2D60 JUMP JUMPDEST SWAP2 POP POP SWAP3 POP SWAP3 SWAP1 POP JUMP JUMPDEST PUSH0 DUP1 PUSH0 PUSH1 0x60 DUP5 DUP7 SUB SLT ISZERO PUSH3 0x2EEB JUMPI PUSH0 DUP1 REVERT JUMPDEST POP POP DUP2 CALLDATALOAD SWAP4 PUSH1 0x20 DUP4 ADD CALLDATALOAD SWAP4 POP PUSH1 0x40 SWAP1 SWAP3 ADD CALLDATALOAD SWAP2 SWAP1 POP JUMP JUMPDEST PUSH0 DUP1 PUSH1 0x40 DUP4 DUP6 SUB SLT ISZERO PUSH3 0x2F14 JUMPI PUSH0 DUP1 REVERT JUMPDEST DUP3 CALLDATALOAD PUSH3 0x2F21 DUP2 PUSH3 0x2B27 JUMP JUMPDEST SWAP2 POP PUSH1 0x20 DUP4 ADD CALLDATALOAD PUSH3 0x2CA5 DUP2 PUSH3 0x2B27 JUMP JUMPDEST PUSH1 0x80 DUP2 MSTORE PUSH0 PUSH3 0x2F47 PUSH1 0x80 DUP4 ADD DUP8 PUSH3 0x29E2 JUMP JUMPDEST DUP3 DUP2 SUB PUSH1 0x20 DUP5 ADD MSTORE PUSH3 0x2F5B DUP2 DUP8 PUSH3 0x2A3E JUMP JUMPDEST SWAP1 POP DUP3 DUP2 SUB PUSH1 0x40 DUP5 ADD MSTORE PUSH3 0x2F71 DUP2 DUP7 PUSH3 0x2A7A JUMP JUMPDEST SWAP1 POP DUP3 DUP2 SUB PUSH1 0x60 DUP5 ADD MSTORE PUSH3 0x2B08 DUP2 DUP6 PUSH3 0x29E2 JUMP JUMPDEST PUSH0 PUSH1 0x1 PUSH1 0x1 PUSH1 0x40 SHL SUB DUP3 GT ISZERO PUSH3 0x2FA2 JUMPI PUSH3 0x2FA2 PUSH3 0x2CB0 JUMP JUMPDEST POP PUSH1 0x5 SHL PUSH1 0x20 ADD SWAP1 JUMP JUMPDEST PUSH0 DUP3 PUSH1 0x1F DUP4 ADD SLT PUSH3 0x2FBC JUMPI PUSH0 DUP1 REVERT JUMPDEST DUP2 MLOAD PUSH3 0x2FCD PUSH3 0x2D30 DUP3 PUSH3 0x2CF7 JUMP JUMPDEST DUP2 DUP2 MSTORE DUP5 PUSH1 0x20 DUP4 DUP7 ADD ADD GT ISZERO PUSH3 0x2FE2 JUMPI PUSH0 DUP1 REVERT JUMPDEST PUSH3 0x20F1 DUP3 PUSH1 0x20 DUP4 ADD PUSH1 0x20 DUP8 ADD PUSH3 0x2991 JUMP JUMPDEST PUSH0 DUP3 PUSH1 0x1F DUP4 ADD SLT PUSH3 0x3005 JUMPI PUSH0 DUP1 REVERT JUMPDEST DUP2 MLOAD PUSH1 0x20 PUSH3 0x3018 PUSH3 0x2D30 DUP4 PUSH3 0x2F87 JUMP JUMPDEST DUP3 DUP2 MSTORE PUSH1 0x5 SWAP3 SWAP1 SWAP3 SHL DUP5 ADD DUP2 ADD SWAP2 DUP2 DUP2 ADD SWAP1 DUP7 DUP5 GT ISZERO PUSH3 0x3037 JUMPI PUSH0 DUP1 REVERT JUMPDEST DUP3 DUP7 ADD JUMPDEST DUP5 DUP2 LT ISZERO PUSH3 0x3079 JUMPI DUP1 MLOAD PUSH1 0x1 PUSH1 0x1 PUSH1 0x40 SHL SUB DUP2 GT ISZERO PUSH3 0x305A JUMPI PUSH0 DUP1 REVERT JUMPDEST PUSH3 0x306A DUP10 DUP7 DUP4 DUP12 ADD ADD PUSH3 0x2FAC JUMP JUMPDEST DUP5 MSTORE POP SWAP2 DUP4 ADD SWAP2 DUP4 ADD PUSH3 0x303B JUMP JUMPDEST POP SWAP7 SWAP6 POP POP POP POP POP POP JUMP JUMPDEST PUSH0 DUP3 PUSH1 0x1F DUP4 ADD SLT PUSH3 0x3094 JUMPI PUSH0 DUP1 REVERT JUMPDEST DUP2 MLOAD PUSH1 0x20 PUSH3 0x30A7 PUSH3 0x2D30 DUP4 PUSH3 0x2F87 JUMP JUMPDEST DUP1 DUP4 DUP3 MSTORE PUSH1 0x20 DUP3 ADD SWAP2 POP PUSH1 0x20 DUP5 PUSH1 0x5 SHL DUP8 ADD ADD SWAP4 POP DUP7 DUP5 GT ISZERO PUSH3 0x30C9 JUMPI PUSH0 DUP1 REVERT JUMPDEST PUSH1 0x20 DUP7 ADD JUMPDEST DUP5 DUP2 LT ISZERO PUSH3 0x3079 JUMPI DUP1 MLOAD DUP4 MSTORE SWAP2 DUP4 ADD SWAP2 DUP4 ADD PUSH3 0x30CE JUMP JUMPDEST PUSH0 DUP1 PUSH0 DUP1 PUSH1 0x80 DUP6 DUP8 SUB SLT ISZERO PUSH3 0x30FB JUMPI PUSH0 DUP1 REVERT JUMPDEST DUP5 MLOAD PUSH1 0x1 PUSH1 0x1 PUSH1 0x40 SHL SUB DUP1 DUP3 GT ISZERO PUSH3 0x3112 JUMPI PUSH0 DUP1 REVERT JUMPDEST PUSH3 0x3120 DUP9 DUP4 DUP10 ADD PUSH3 0x2FF5 JUMP JUMPDEST SWAP6 POP PUSH1 0x20 SWAP2 POP DUP2 DUP8 ADD MLOAD DUP2 DUP2 GT ISZERO PUSH3 0x3137 JUMPI PUSH0 DUP1 REVERT JUMPDEST PUSH3 0x3145 DUP10 DUP3 DUP11 ADD PUSH3 0x3084 JUMP JUMPDEST SWAP6 POP POP PUSH1 0x40 DUP8 ADD MLOAD DUP2 DUP2 GT ISZERO PUSH3 0x315A JUMPI PUSH0 DUP1 REVERT JUMPDEST DUP8 ADD PUSH1 0x1F DUP2 ADD DUP10 SGT PUSH3 0x316B JUMPI PUSH0 DUP1 REVERT JUMPDEST DUP1 MLOAD PUSH3 0x317C PUSH3 0x2D30 DUP3 PUSH3 0x2F87 JUMP JUMPDEST DUP2 DUP2 MSTORE PUSH1 0x5 SWAP2 SWAP1 SWAP2 SHL DUP3 ADD DUP5 ADD SWAP1 DUP5 DUP2 ADD SWAP1 DUP12 DUP4 GT ISZERO PUSH3 0x319B JUMPI PUSH0 DUP1 REVERT JUMPDEST SWAP3 DUP6 ADD SWAP3 JUMPDEST DUP3 DUP5 LT ISZERO PUSH3 0x31C6 JUMPI DUP4 MLOAD PUSH3 0x31B6 DUP2 PUSH3 0x2B27 JUMP JUMPDEST DUP3 MSTORE SWAP3 DUP6 ADD SWAP3 SWAP1 DUP6 ADD SWAP1 PUSH3 0x31A0 JUMP JUMPDEST PUSH1 0x60 DUP12 ADD MLOAD SWAP1 SWAP8 POP SWAP5 POP POP POP POP DUP1 DUP3 GT ISZERO PUSH3 0x31E0 JUMPI PUSH0 DUP1 REVERT JUMPDEST POP PUSH3 0x2E66 DUP8 DUP3 DUP9 ADD PUSH3 0x3084 JUMP JUMPDEST PUSH1 0x1 DUP2 DUP2 SHR SWAP1 DUP3 AND DUP1 PUSH3 0x3204 JUMPI PUSH1 0x7F DUP3 AND SWAP2 POP JUMPDEST PUSH1 0x20 DUP3 LT DUP2 SUB PUSH3 0x3223 JUMPI PUSH4 0x4E487B71 PUSH1 0xE0 SHL PUSH0 MSTORE PUSH1 0x22 PUSH1 0x4 MSTORE PUSH1 0x24 PUSH0 REVERT JUMPDEST POP SWAP2 SWAP1 POP JUMP JUMPDEST PUSH0 PUSH1 0x20 DUP3 DUP5 SUB SLT ISZERO PUSH3 0x323A JUMPI PUSH0 DUP1 REVERT JUMPDEST DUP2 MLOAD PUSH1 0x1 PUSH1 0x1 PUSH1 0x40 SHL SUB DUP2 GT ISZERO PUSH3 0x3250 JUMPI PUSH0 DUP1 REVERT JUMPDEST PUSH3 0x20F1 DUP5 DUP3 DUP6 ADD PUSH3 0x2FAC JUMP JUMPDEST PUSH4 0x4E487B71 PUSH1 0xE0 SHL PUSH0 MSTORE PUSH1 0x32 PUSH1 0x4 MSTORE PUSH1 0x24 PUSH0 REVERT JUMPDEST PUSH0 PUSH1 0x20 DUP3 DUP5 SUB SLT ISZERO PUSH3 0x3283 JUMPI PUSH0 DUP1 REVERT JUMPDEST POP MLOAD SWAP2 SWAP1 POP JUMP JUMPDEST PUSH0 DUP1 PUSH0 PUSH1 0x60 DUP5 DUP7 SUB SLT ISZERO PUSH3 0x329D JUMPI PUSH0 DUP1 REVERT JUMPDEST DUP4 MLOAD PUSH1 0x1 PUSH1 0x1 PUSH1 0x40 SHL SUB DUP1 DUP3 GT ISZERO PUSH3 0x32B4 JUMPI PUSH0 DUP1 REVERT JUMPDEST PUSH3 0x32C2 DUP8 DUP4 DUP9 ADD PUSH3 0x3084 JUMP JUMPDEST SWAP5 POP PUSH1 0x20 DUP7 ADD MLOAD SWAP2 POP DUP1 DUP3 GT ISZERO PUSH3 0x32D8 JUMPI PUSH0 DUP1 REVERT JUMPDEST PUSH3 0x32E6 DUP8 DUP4 DUP9 ADD PUSH3 0x2FF5 JUMP JUMPDEST SWAP4 POP PUSH1 0x40 DUP7 ADD MLOAD SWAP2 POP DUP1 DUP3 GT ISZERO PUSH3 0x32FC JUMPI PUSH0 DUP1 REVERT JUMPDEST POP PUSH3 0x2DE5 DUP7 DUP3 DUP8 ADD PUSH3 0x3084 JUMP JUMPDEST PUSH0 PUSH1 0x20 DUP3 DUP5 SUB SLT ISZERO PUSH3 0x331C JUMPI PUSH0 DUP1 REVERT JUMPDEST DUP2 MLOAD PUSH3 0x1686 DUP2 PUSH3 0x2B27 JUMP JUMPDEST PUSH1 0x60 DUP2 MSTORE PUSH0 PUSH3 0x333D PUSH1 0x60 DUP4 ADD DUP7 PUSH3 0x29B5 JUMP JUMPDEST PUSH1 0x1 PUSH1 0x1 PUSH1 0xA0 SHL SUB DUP6 AND PUSH1 0x20 DUP5 ADD MSTORE DUP3 DUP2 SUB PUSH1 0x40 DUP5 ADD MSTORE PUSH3 0x2BA7 DUP2 DUP6 PUSH3 0x29B5 JUMP JUMPDEST PUSH4 0x4E487B71 PUSH1 0xE0 SHL PUSH0 MSTORE PUSH1 0x11 PUSH1 0x4 MSTORE PUSH1 0x24 PUSH0 REVERT JUMPDEST PUSH0 PUSH1 0x1 DUP3 ADD PUSH3 0x3388 JUMPI PUSH3 0x3388 PUSH3 0x3360 JUMP JUMPDEST POP PUSH1 0x1 ADD SWAP1 JUMP JUMPDEST DUP1 DUP3 ADD DUP1 DUP3 GT ISZERO PUSH3 0x7F0 JUMPI PUSH3 0x7F0 PUSH3 0x3360 JUMP JUMPDEST PUSH1 0x60 DUP2 MSTORE PUSH0 PUSH3 0x33B9 PUSH1 0x60 DUP4 ADD DUP7 PUSH3 0x29B5 JUMP JUMPDEST DUP3 DUP2 SUB PUSH1 0x20 DUP5 ADD MSTORE PUSH3 0x33CD DUP2 DUP7 PUSH3 0x29B5 JUMP JUMPDEST SWAP2 POP POP PUSH1 0x1 DUP1 PUSH1 0xA0 SHL SUB DUP4 AND PUSH1 0x40 DUP4 ADD MSTORE SWAP5 SWAP4 POP POP POP POP JUMP JUMPDEST PUSH1 0x1 DUP1 PUSH1 0xA0 SHL SUB DUP5 AND DUP2 MSTORE DUP3 PUSH1 0x20 DUP3 ADD MSTORE PUSH1 0x60 PUSH1 0x40 DUP3 ADD MSTORE PUSH0 PUSH3 0x340E PUSH1 0x60 DUP4 ADD DUP5 PUSH3 0x29B5 JUMP JUMPDEST SWAP6 SWAP5 POP POP POP POP POP JUMP JUMPDEST PUSH1 0x1 PUSH1 0x1 PUSH1 0xA0 SHL SUB SWAP5 SWAP1 SWAP5 AND DUP5 MSTORE PUSH1 0x20 DUP5 ADD SWAP3 SWAP1 SWAP3 MSTORE PUSH1 0x40 DUP4 ADD MSTORE PUSH1 0x60 DUP3 ADD MSTORE PUSH1 0x80 ADD SWAP1 JUMP JUMPDEST PUSH0 DUP4 MLOAD PUSH3 0x3450 DUP2 DUP5 PUSH1 0x20 DUP9 ADD PUSH3 0x2991 JUMP JUMPDEST DUP4 MLOAD SWAP1 DUP4 ADD SWAP1 PUSH3 0x3466 DUP2 DUP4 PUSH1 0x20 DUP9 ADD PUSH3 0x2991 JUMP JUMPDEST ADD SWAP5 SWAP4 POP POP POP POP JUMP JUMPDEST PUSH1 0x1 PUSH1 0x1 PUSH1 0xA0 SHL SUB DUP6 DUP2 AND DUP3 MSTORE DUP5 AND PUSH1 0x20 DUP3 ADD MSTORE PUSH1 0x40 DUP2 ADD DUP4 SWAP1 MSTORE PUSH1 0x80 PUSH1 0x60 DUP3 ADD DUP2 SWAP1 MSTORE PUSH0 SWAP1 PUSH3 0x2BA7 SWAP1 DUP4 ADD DUP5 PUSH3 0x29B5 JUMP JUMPDEST PUSH0 PUSH1 0x20 DUP3 DUP5 SUB SLT ISZERO PUSH3 0x34B4 JUMPI PUSH0 DUP1 REVERT JUMPDEST DUP2 MLOAD PUSH3 0x1686 DUP2 PUSH3 0x2942 JUMP JUMPDEST DUP2 DUP2 SUB DUP2 DUP2 GT ISZERO PUSH3 0x7F0 JUMPI PUSH3 0x7F0 PUSH3 0x3360 JUMP JUMPDEST PUSH4 0x4E487B71 PUSH1 0xE0 SHL PUSH0 MSTORE PUSH1 0x31 PUSH1 0x4 MSTORE PUSH1 0x24 PUSH0 REVERT INVALID PUSH1 0x80 PUSH1 0x40 MSTORE CALLVALUE DUP1 ISZERO PUSH3 0x10 JUMPI PUSH0 DUP1 REVERT JUMPDEST POP PUSH1 0x40 MLOAD PUSH3 0x1E16 CODESIZE SUB DUP1 PUSH3 0x1E16 DUP4 CODECOPY DUP2 ADD PUSH1 0x40 DUP2 SWAP1 MSTORE PUSH3 0x33 SWAP2 PUSH3 0x1A2 JUMP JUMPDEST PUSH1 0x40 MLOAD DUP1 PUSH1 0x40 ADD PUSH1 0x40 MSTORE DUP1 PUSH1 0xD DUP2 MSTORE PUSH1 0x20 ADD PUSH13 0x14995C1BDCDA5D1BDC9E539195 PUSH1 0x9A SHL DUP2 MSTORE POP PUSH1 0x40 MLOAD DUP1 PUSH1 0x40 ADD PUSH1 0x40 MSTORE DUP1 PUSH1 0x4 DUP2 MSTORE PUSH1 0x20 ADD PUSH4 0x5245504F PUSH1 0xE0 SHL DUP2 MSTORE POP DUP2 PUSH0 SWAP1 DUP2 PUSH3 0x86 SWAP2 SWAP1 PUSH3 0x2B3 JUMP JUMPDEST POP PUSH1 0x1 PUSH3 0x95 DUP3 DUP3 PUSH3 0x2B3 JUMP JUMPDEST POP PUSH1 0x6 SWAP2 POP PUSH3 0xA8 SWAP1 POP DUP5 DUP3 PUSH3 0x2B3 JUMP JUMPDEST POP PUSH1 0x7 PUSH3 0xB7 DUP4 DUP3 PUSH3 0x2B3 JUMP JUMPDEST POP PUSH1 0x8 DUP1 SLOAD PUSH1 0x1 PUSH1 0x1 PUSH1 0xA0 SHL SUB NOT AND PUSH1 0x1 PUSH1 0x1 PUSH1 0xA0 SHL SUB SWAP3 SWAP1 SWAP3 AND SWAP2 SWAP1 SWAP2 OR SWAP1 SSTORE POP PUSH3 0x37F SWAP1 POP JUMP JUMPDEST PUSH4 0x4E487B71 PUSH1 0xE0 SHL PUSH0 MSTORE PUSH1 0x41 PUSH1 0x4 MSTORE PUSH1 0x24 PUSH0 REVERT JUMPDEST PUSH0 DUP3 PUSH1 0x1F DUP4 ADD SLT PUSH3 0x105 JUMPI PUSH0 DUP1 REVERT JUMPDEST DUP2 MLOAD PUSH1 0x1 PUSH1 0x1 PUSH1 0x40 SHL SUB DUP1 DUP3 GT ISZERO PUSH3 0x122 JUMPI PUSH3 0x122 PUSH3 0xE1 JUMP JUMPDEST PUSH1 0x40 MLOAD PUSH1 0x1F DUP4 ADD PUSH1 0x1F NOT SWAP1 DUP2 AND PUSH1 0x3F ADD AND DUP2 ADD SWAP1 DUP3 DUP3 GT DUP2 DUP4 LT OR ISZERO PUSH3 0x14D JUMPI PUSH3 0x14D PUSH3 0xE1 JUMP JUMPDEST DUP2 PUSH1 0x40 MSTORE DUP4 DUP2 MSTORE PUSH1 0x20 SWAP3 POP DUP7 PUSH1 0x20 DUP6 DUP9 ADD ADD GT ISZERO PUSH3 0x16A JUMPI PUSH0 DUP1 REVERT JUMPDEST PUSH0 SWAP2 POP JUMPDEST DUP4 DUP3 LT ISZERO PUSH3 0x18D JUMPI DUP6 DUP3 ADD DUP4 ADD MLOAD DUP2 DUP4 ADD DUP5 ADD MSTORE SWAP1 DUP3 ADD SWAP1 PUSH3 0x16E JUMP JUMPDEST PUSH0 PUSH1 0x20 DUP6 DUP4 ADD ADD MSTORE DUP1 SWAP5 POP POP POP POP POP SWAP3 SWAP2 POP POP JUMP JUMPDEST PUSH0 DUP1 PUSH0 PUSH1 0x60 DUP5 DUP7 SUB SLT ISZERO PUSH3 0x1B5 JUMPI PUSH0 DUP1 REVERT JUMPDEST DUP4 MLOAD PUSH1 0x1 PUSH1 0x1 PUSH1 0x40 SHL SUB DUP1 DUP3 GT ISZERO PUSH3 0x1CC JUMPI PUSH0 DUP1 REVERT JUMPDEST PUSH3 0x1DA DUP8 DUP4 DUP9 ADD PUSH3 0xF5 JUMP JUMPDEST SWAP5 POP PUSH1 0x20 DUP7 ADD MLOAD SWAP2 POP DUP1 DUP3 GT ISZERO PUSH3 0x1F0 JUMPI PUSH0 DUP1 REVERT JUMPDEST POP PUSH3 0x1FF DUP7 DUP3 DUP8 ADD PUSH3 0xF5 JUMP JUMPDEST PUSH1 0x40 DUP7 ADD MLOAD SWAP1 SWAP4 POP SWAP1 POP PUSH1 0x1 PUSH1 0x1 PUSH1 0xA0 SHL SUB DUP2 AND DUP2 EQ PUSH3 0x21E JUMPI PUSH0 DUP1 REVERT JUMPDEST DUP1 SWAP2 POP POP SWAP3 POP SWAP3 POP SWAP3 JUMP JUMPDEST PUSH1 0x1 DUP2 DUP2 SHR SWAP1 DUP3 AND DUP1 PUSH3 0x23E JUMPI PUSH1 0x7F DUP3 AND SWAP2 POP JUMPDEST PUSH1 0x20 DUP3 LT DUP2 SUB PUSH3 0x25D JUMPI PUSH4 0x4E487B71 PUSH1 0xE0 SHL PUSH0 MSTORE PUSH1 0x22 PUSH1 0x4 MSTORE PUSH1 0x24 PUSH0 REVERT JUMPDEST POP SWAP2 SWAP1 POP JUMP JUMPDEST PUSH1 0x1F DUP3 GT ISZERO PUSH3 0x2AE JUMPI DUP1 PUSH0 MSTORE PUSH1 0x20 PUSH0 KECCAK256 PUSH1 0x1F DUP5 ADD PUSH1 0x5 SHR DUP2 ADD PUSH1 0x20 DUP6 LT ISZERO PUSH3 0x28A JUMPI POP DUP1 JUMPDEST PUSH1 0x1F DUP5 ADD PUSH1 0x5 SHR DUP3 ADD SWAP2 POP JUMPDEST DUP2 DUP2 LT ISZERO PUSH3 0x2AB JUMPI PUSH0 DUP2 SSTORE PUSH1 0x1 ADD PUSH3 0x296 JUMP JUMPDEST POP POP JUMPDEST POP POP POP JUMP JUMPDEST DUP2 MLOAD PUSH1 0x1 PUSH1 0x1 PUSH1 0x40 SHL SUB DUP2 GT ISZERO PUSH3 0x2CF JUMPI PUSH3 0x2CF PUSH3 0xE1 JUMP JUMPDEST PUSH3 0x2E7 DUP2 PUSH3 0x2E0 DUP5 SLOAD PUSH3 0x229 JUMP JUMPDEST DUP5 PUSH3 0x263 JUMP JUMPDEST PUSH1 0x20 DUP1 PUSH1 0x1F DUP4 GT PUSH1 0x1 DUP2 EQ PUSH3 0x31D JUMPI PUSH0 DUP5 ISZERO PUSH3 0x305 JUMPI POP DUP6 DUP4 ADD MLOAD JUMPDEST PUSH0 NOT PUSH1 0x3 DUP7 SWAP1 SHL SHR NOT AND PUSH1 0x1 DUP6 SWAP1 SHL OR DUP6 SSTORE PUSH3 0x377 JUMP JUMPDEST PUSH0 DUP6 DUP2 MSTORE PUSH1 0x20 DUP2 KECCAK256 PUSH1 0x1F NOT DUP7 AND SWAP2 JUMPDEST DUP3 DUP2 LT ISZERO PUSH3 0x34D JUMPI DUP9 DUP7 ADD MLOAD DUP3 SSTORE SWAP5 DUP5 ADD SWAP5 PUSH1 0x1 SWAP1 SWAP2 ADD SWAP1 DUP5 ADD PUSH3 0x32C JUMP JUMPDEST POP DUP6 DUP3 LT ISZERO PUSH3 0x36B JUMPI DUP8 DUP6 ADD MLOAD PUSH0 NOT PUSH1 0x3 DUP9 SWAP1 SHL PUSH1 0xF8 AND SHR NOT AND DUP2 SSTORE JUMPDEST POP POP PUSH1 0x1 DUP5 PUSH1 0x1 SHL ADD DUP6 SSTORE JUMPDEST POP POP POP POP POP POP JUMP JUMPDEST PUSH2 0x1A89 DUP1 PUSH3 0x38D PUSH0 CODECOPY PUSH0 RETURN INVALID PUSH1 0x80 PUSH1 0x40 MSTORE PUSH1 0x4 CALLDATASIZE LT PUSH2 0x129 JUMPI PUSH0 CALLDATALOAD PUSH1 0xE0 SHR DUP1 PUSH4 0x70A08231 GT PUSH2 0xA8 JUMPI DUP1 PUSH4 0xC87B56DD GT PUSH2 0x6D JUMPI DUP1 PUSH4 0xC87B56DD EQ PUSH2 0x317 JUMPI DUP1 PUSH4 0xC9C2B403 EQ PUSH2 0x336 JUMPI DUP1 PUSH4 0xD4493E8D EQ PUSH2 0x355 JUMPI DUP1 PUSH4 0xE985E9C5 EQ PUSH2 0x372 JUMPI DUP1 PUSH4 0xEF838324 EQ PUSH2 0x391 JUMPI DUP1 PUSH4 0xFB4DB28D EQ PUSH2 0x3B0 JUMPI PUSH0 DUP1 REVERT JUMPDEST DUP1 PUSH4 0x70A08231 EQ PUSH2 0x292 JUMPI DUP1 PUSH4 0x72AB508D EQ PUSH2 0x2B1 JUMPI DUP1 PUSH4 0x95D89B41 EQ PUSH2 0x2C5 JUMPI DUP1 PUSH4 0xA22CB465 EQ PUSH2 0x2D9 JUMPI DUP1 PUSH4 0xB88D4FDE EQ PUSH2 0x2F8 JUMPI PUSH0 DUP1 REVERT JUMPDEST DUP1 PUSH4 0x23B872DD GT PUSH2 0xEE JUMPI DUP1 PUSH4 0x23B872DD EQ PUSH2 0x1FD JUMPI DUP1 PUSH4 0x2F1F7520 EQ PUSH2 0x21C JUMPI DUP1 PUSH4 0x42842E0E EQ PUSH2 0x240 JUMPI DUP1 PUSH4 0x50B7B521 EQ PUSH2 0x25F JUMPI DUP1 PUSH4 0x6352211E EQ PUSH2 0x273 JUMPI PUSH0 DUP1 REVERT JUMPDEST DUP1 PUSH4 0x1FFC9A7 EQ PUSH2 0x134 JUMPI DUP1 PUSH4 0x6FDDE03 EQ PUSH2 0x168 JUMPI DUP1 PUSH4 0x81812FC EQ PUSH2 0x189 JUMPI DUP1 PUSH4 0x95EA7B3 EQ PUSH2 0x1C0 JUMPI DUP1 PUSH4 0x12065FE0 EQ PUSH2 0x1E1 JUMPI PUSH0 DUP1 REVERT JUMPDEST CALLDATASIZE PUSH2 0x130 JUMPI STOP JUMPDEST PUSH0 DUP1 REVERT JUMPDEST CALLVALUE DUP1 ISZERO PUSH2 0x13F JUMPI PUSH0 DUP1 REVERT JUMPDEST POP PUSH2 0x153 PUSH2 0x14E CALLDATASIZE PUSH1 0x4 PUSH2 0x132B JUMP JUMPDEST PUSH2 0x3C3 JUMP JUMPDEST PUSH1 0x40 MLOAD SWAP1 ISZERO ISZERO DUP2 MSTORE PUSH1 0x20 ADD JUMPDEST PUSH1 0x40 MLOAD DUP1 SWAP2 SUB SWAP1 RETURN JUMPDEST CALLVALUE DUP1 ISZERO PUSH2 0x173 JUMPI PUSH0 DUP1 REVERT JUMPDEST POP PUSH2 0x17C PUSH2 0x414 JUMP JUMPDEST PUSH1 0x40 MLOAD PUSH2 0x15F SWAP2 SWAP1 PUSH2 0x1393 JUMP JUMPDEST CALLVALUE DUP1 ISZERO PUSH2 0x194 JUMPI PUSH0 DUP1 REVERT JUMPDEST POP PUSH2 0x1A8 PUSH2 0x1A3 CALLDATASIZE PUSH1 0x4 PUSH2 0x13A5 JUMP JUMPDEST PUSH2 0x4A3 JUMP JUMPDEST PUSH1 0x40 MLOAD PUSH1 0x1 PUSH1 0x1 PUSH1 0xA0 SHL SUB SWAP1 SWAP2 AND DUP2 MSTORE PUSH1 0x20 ADD PUSH2 0x15F JUMP JUMPDEST CALLVALUE DUP1 ISZERO PUSH2 0x1CB JUMPI PUSH0 DUP1 REVERT JUMPDEST POP PUSH2 0x1DF PUSH2 0x1DA CALLDATASIZE PUSH1 0x4 PUSH2 0x13D0 JUMP JUMPDEST PUSH2 0x4CA JUMP JUMPDEST STOP JUMPDEST CALLVALUE DUP1 ISZERO PUSH2 0x1EC JUMPI PUSH0 DUP1 REVERT JUMPDEST POP SELFBALANCE JUMPDEST PUSH1 0x40 MLOAD SWAP1 DUP2 MSTORE PUSH1 0x20 ADD PUSH2 0x15F JUMP JUMPDEST CALLVALUE DUP1 ISZERO PUSH2 0x208 JUMPI PUSH0 DUP1 REVERT JUMPDEST POP PUSH2 0x1DF PUSH2 0x217 CALLDATASIZE PUSH1 0x4 PUSH2 0x13FA JUMP JUMPDEST PUSH2 0x4D9 JUMP JUMPDEST CALLVALUE DUP1 ISZERO PUSH2 0x227 JUMPI PUSH0 DUP1 REVERT JUMPDEST POP PUSH2 0x230 PUSH2 0x567 JUMP JUMPDEST PUSH1 0x40 MLOAD PUSH2 0x15F SWAP5 SWAP4 SWAP3 SWAP2 SWAP1 PUSH2 0x14AA JUMP JUMPDEST CALLVALUE DUP1 ISZERO PUSH2 0x24B JUMPI PUSH0 DUP1 REVERT JUMPDEST POP PUSH2 0x1DF PUSH2 0x25A CALLDATASIZE PUSH1 0x4 PUSH2 0x13FA JUMP JUMPDEST PUSH2 0x7FE JUMP JUMPDEST CALLVALUE DUP1 ISZERO PUSH2 0x26A JUMPI PUSH0 DUP1 REVERT JUMPDEST POP PUSH2 0x17C PUSH2 0x81D JUMP JUMPDEST CALLVALUE DUP1 ISZERO PUSH2 0x27E JUMPI PUSH0 DUP1 REVERT JUMPDEST POP PUSH2 0x1A8 PUSH2 0x28D CALLDATASIZE PUSH1 0x4 PUSH2 0x13A5 JUMP JUMPDEST PUSH2 0x82C JUMP JUMPDEST CALLVALUE DUP1 ISZERO PUSH2 0x29D JUMPI PUSH0 DUP1 REVERT JUMPDEST POP PUSH2 0x1EF PUSH2 0x2AC CALLDATASIZE PUSH1 0x4 PUSH2 0x1549 JUMP JUMPDEST PUSH2 0x836 JUMP JUMPDEST CALLVALUE DUP1 ISZERO PUSH2 0x2BC JUMPI PUSH0 DUP1 REVERT JUMPDEST POP PUSH2 0x17C PUSH2 0x87B JUMP JUMPDEST CALLVALUE DUP1 ISZERO PUSH2 0x2D0 JUMPI PUSH0 DUP1 REVERT JUMPDEST POP PUSH2 0x17C PUSH2 0x88A JUMP JUMPDEST CALLVALUE DUP1 ISZERO PUSH2 0x2E4 JUMPI PUSH0 DUP1 REVERT JUMPDEST POP PUSH2 0x1DF PUSH2 0x2F3 CALLDATASIZE PUSH1 0x4 PUSH2 0x1564 JUMP JUMPDEST PUSH2 0x899 JUMP JUMPDEST CALLVALUE DUP1 ISZERO PUSH2 0x303 JUMPI PUSH0 DUP1 REVERT JUMPDEST POP PUSH2 0x1DF PUSH2 0x312 CALLDATASIZE PUSH1 0x4 PUSH2 0x1626 JUMP JUMPDEST PUSH2 0x8A4 JUMP JUMPDEST CALLVALUE DUP1 ISZERO PUSH2 0x322 JUMPI PUSH0 DUP1 REVERT JUMPDEST POP PUSH2 0x17C PUSH2 0x331 CALLDATASIZE PUSH1 0x4 PUSH2 0x13A5 JUMP JUMPDEST PUSH2 0x8BC JUMP JUMPDEST CALLVALUE DUP1 ISZERO PUSH2 0x341 JUMPI PUSH0 DUP1 REVERT JUMPDEST POP PUSH2 0x1A8 PUSH2 0x350 CALLDATASIZE PUSH1 0x4 PUSH2 0x16A1 JUMP JUMPDEST PUSH2 0x92D JUMP JUMPDEST CALLVALUE DUP1 ISZERO PUSH2 0x360 JUMPI PUSH0 DUP1 REVERT JUMPDEST POP PUSH1 0x8 SLOAD PUSH1 0x1 PUSH1 0x1 PUSH1 0xA0 SHL SUB AND PUSH2 0x1A8 JUMP JUMPDEST CALLVALUE DUP1 ISZERO PUSH2 0x37D JUMPI PUSH0 DUP1 REVERT JUMPDEST POP PUSH2 0x153 PUSH2 0x38C CALLDATASIZE PUSH1 0x4 PUSH2 0x16C4 JUMP JUMPDEST PUSH2 0xA1A JUMP JUMPDEST CALLVALUE DUP1 ISZERO PUSH2 0x39C JUMPI PUSH0 DUP1 REVERT JUMPDEST POP PUSH2 0x1DF PUSH2 0x3AB CALLDATASIZE PUSH1 0x4 PUSH2 0x170E JUMP JUMPDEST PUSH2 0xA47 JUMP JUMPDEST PUSH2 0x1DF PUSH2 0x3BE CALLDATASIZE PUSH1 0x4 PUSH2 0x1781 JUMP JUMPDEST PUSH2 0xB14 JUMP JUMPDEST PUSH0 PUSH1 0x1 PUSH1 0x1 PUSH1 0xE0 SHL SUB NOT DUP3 AND PUSH4 0x80AC58CD PUSH1 0xE0 SHL EQ DUP1 PUSH2 0x3F3 JUMPI POP PUSH1 0x1 PUSH1 0x1 PUSH1 0xE0 SHL SUB NOT DUP3 AND PUSH4 0x5B5E139F PUSH1 0xE0 SHL EQ JUMPDEST DUP1 PUSH2 0x40E JUMPI POP PUSH4 0x1FFC9A7 PUSH1 0xE0 SHL PUSH1 0x1 PUSH1 0x1 PUSH1 0xE0 SHL SUB NOT DUP4 AND EQ JUMPDEST SWAP3 SWAP2 POP POP JUMP JUMPDEST PUSH1 0x60 PUSH0 DUP1 SLOAD PUSH2 0x422 SWAP1 PUSH2 0x17B7 JUMP JUMPDEST DUP1 PUSH1 0x1F ADD PUSH1 0x20 DUP1 SWAP2 DIV MUL PUSH1 0x20 ADD PUSH1 0x40 MLOAD SWAP1 DUP2 ADD PUSH1 0x40 MSTORE DUP1 SWAP3 SWAP2 SWAP1 DUP2 DUP2 MSTORE PUSH1 0x20 ADD DUP3 DUP1 SLOAD PUSH2 0x44E SWAP1 PUSH2 0x17B7 JUMP JUMPDEST DUP1 ISZERO PUSH2 0x499 JUMPI DUP1 PUSH1 0x1F LT PUSH2 0x470 JUMPI PUSH2 0x100 DUP1 DUP4 SLOAD DIV MUL DUP4 MSTORE SWAP2 PUSH1 0x20 ADD SWAP2 PUSH2 0x499 JUMP JUMPDEST DUP3 ADD SWAP2 SWAP1 PUSH0 MSTORE PUSH1 0x20 PUSH0 KECCAK256 SWAP1 JUMPDEST DUP2 SLOAD DUP2 MSTORE SWAP1 PUSH1 0x1 ADD SWAP1 PUSH1 0x20 ADD DUP1 DUP4 GT PUSH2 0x47C JUMPI DUP3 SWAP1 SUB PUSH1 0x1F AND DUP3 ADD SWAP2 JUMPDEST POP POP POP POP POP SWAP1 POP SWAP1 JUMP JUMPDEST PUSH0 PUSH2 0x4AD DUP3 PUSH2 0xCE5 JUMP JUMPDEST POP PUSH0 DUP3 DUP2 MSTORE PUSH1 0x4 PUSH1 0x20 MSTORE PUSH1 0x40 SWAP1 KECCAK256 SLOAD PUSH1 0x1 PUSH1 0x1 PUSH1 0xA0 SHL SUB AND PUSH2 0x40E JUMP JUMPDEST PUSH2 0x4D5 DUP3 DUP3 CALLER PUSH2 0xD1D JUMP JUMPDEST POP POP JUMP JUMPDEST PUSH1 0x1 PUSH1 0x1 PUSH1 0xA0 SHL SUB DUP3 AND PUSH2 0x507 JUMPI PUSH1 0x40 MLOAD PUSH4 0x32505749 PUSH1 0xE1 SHL DUP2 MSTORE PUSH0 PUSH1 0x4 DUP3 ADD MSTORE PUSH1 0x24 ADD JUMPDEST PUSH1 0x40 MLOAD DUP1 SWAP2 SUB SWAP1 REVERT JUMPDEST PUSH0 PUSH2 0x513 DUP4 DUP4 CALLER PUSH2 0xD2A JUMP JUMPDEST SWAP1 POP DUP4 PUSH1 0x1 PUSH1 0x1 PUSH1 0xA0 SHL SUB AND DUP2 PUSH1 0x1 PUSH1 0x1 PUSH1 0xA0 SHL SUB AND EQ PUSH2 0x561 JUMPI PUSH1 0x40 MLOAD PUSH4 0x64283D7B PUSH1 0xE0 SHL DUP2 MSTORE PUSH1 0x1 PUSH1 0x1 PUSH1 0xA0 SHL SUB DUP1 DUP7 AND PUSH1 0x4 DUP4 ADD MSTORE PUSH1 0x24 DUP3 ADD DUP5 SWAP1 MSTORE DUP3 AND PUSH1 0x44 DUP3 ADD MSTORE PUSH1 0x64 ADD PUSH2 0x4FE JUMP JUMPDEST POP POP POP POP JUMP JUMPDEST PUSH1 0x9 SLOAD PUSH1 0x60 SWAP1 DUP2 SWAP1 DUP2 SWAP1 DUP2 SWAP1 DUP1 PUSH8 0xFFFFFFFFFFFFFFFF DUP2 GT ISZERO PUSH2 0x58C JUMPI PUSH2 0x58C PUSH2 0x159F JUMP JUMPDEST PUSH1 0x40 MLOAD SWAP1 DUP1 DUP3 MSTORE DUP1 PUSH1 0x20 MUL PUSH1 0x20 ADD DUP3 ADD PUSH1 0x40 MSTORE DUP1 ISZERO PUSH2 0x5BF JUMPI DUP2 PUSH1 0x20 ADD JUMPDEST PUSH1 0x60 DUP2 MSTORE PUSH1 0x20 ADD SWAP1 PUSH1 0x1 SWAP1 SUB SWAP1 DUP2 PUSH2 0x5AA JUMPI SWAP1 POP JUMPDEST POP SWAP5 POP DUP1 PUSH8 0xFFFFFFFFFFFFFFFF DUP2 GT ISZERO PUSH2 0x5DB JUMPI PUSH2 0x5DB PUSH2 0x159F JUMP JUMPDEST PUSH1 0x40 MLOAD SWAP1 DUP1 DUP3 MSTORE DUP1 PUSH1 0x20 MUL PUSH1 0x20 ADD DUP3 ADD PUSH1 0x40 MSTORE DUP1 ISZERO PUSH2 0x604 JUMPI DUP2 PUSH1 0x20 ADD PUSH1 0x20 DUP3 MUL DUP1 CALLDATASIZE DUP4 CALLDATACOPY ADD SWAP1 POP JUMPDEST POP SWAP4 POP DUP1 PUSH8 0xFFFFFFFFFFFFFFFF DUP2 GT ISZERO PUSH2 0x620 JUMPI PUSH2 0x620 PUSH2 0x159F JUMP JUMPDEST PUSH1 0x40 MLOAD SWAP1 DUP1 DUP3 MSTORE DUP1 PUSH1 0x20 MUL PUSH1 0x20 ADD DUP3 ADD PUSH1 0x40 MSTORE DUP1 ISZERO PUSH2 0x649 JUMPI DUP2 PUSH1 0x20 ADD PUSH1 0x20 DUP3 MUL DUP1 CALLDATASIZE DUP4 CALLDATACOPY ADD SWAP1 POP JUMPDEST POP SWAP3 POP DUP1 PUSH8 0xFFFFFFFFFFFFFFFF DUP2 GT ISZERO PUSH2 0x665 JUMPI PUSH2 0x665 PUSH2 0x159F JUMP JUMPDEST PUSH1 0x40 MLOAD SWAP1 DUP1 DUP3 MSTORE DUP1 PUSH1 0x20 MUL PUSH1 0x20 ADD DUP3 ADD PUSH1 0x40 MSTORE DUP1 ISZERO PUSH2 0x68E JUMPI DUP2 PUSH1 0x20 ADD PUSH1 0x20 DUP3 MUL DUP1 CALLDATASIZE DUP4 CALLDATACOPY ADD SWAP1 POP JUMPDEST POP SWAP2 POP PUSH0 JUMPDEST DUP2 DUP2 LT ISZERO PUSH2 0x7F6 JUMPI PUSH0 PUSH1 0x9 DUP3 DUP2 SLOAD DUP2 LT PUSH2 0x6AF JUMPI PUSH2 0x6AF PUSH2 0x17EF JUMP JUMPDEST SWAP1 PUSH0 MSTORE PUSH1 0x20 PUSH0 KECCAK256 SWAP1 PUSH1 0x5 MUL ADD SWAP1 POP DUP1 PUSH0 ADD DUP1 SLOAD PUSH2 0x6CB SWAP1 PUSH2 0x17B7 JUMP JUMPDEST DUP1 PUSH1 0x1F ADD PUSH1 0x20 DUP1 SWAP2 DIV MUL PUSH1 0x20 ADD PUSH1 0x40 MLOAD SWAP1 DUP2 ADD PUSH1 0x40 MSTORE DUP1 SWAP3 SWAP2 SWAP1 DUP2 DUP2 MSTORE PUSH1 0x20 ADD DUP3 DUP1 SLOAD PUSH2 0x6F7 SWAP1 PUSH2 0x17B7 JUMP JUMPDEST DUP1 ISZERO PUSH2 0x742 JUMPI DUP1 PUSH1 0x1F LT PUSH2 0x719 JUMPI PUSH2 0x100 DUP1 DUP4 SLOAD DIV MUL DUP4 MSTORE SWAP2 PUSH1 0x20 ADD SWAP2 PUSH2 0x742 JUMP JUMPDEST DUP3 ADD SWAP2 SWAP1 PUSH0 MSTORE PUSH1 0x20 PUSH0 KECCAK256 SWAP1 JUMPDEST DUP2 SLOAD DUP2 MSTORE SWAP1 PUSH1 0x1 ADD SWAP1 PUSH1 0x20 ADD DUP1 DUP4 GT PUSH2 0x725 JUMPI DUP3 SWAP1 SUB PUSH1 0x1F AND DUP3 ADD SWAP2 JUMPDEST POP POP POP POP POP DUP8 DUP4 DUP2 MLOAD DUP2 LT PUSH2 0x759 JUMPI PUSH2 0x759 PUSH2 0x17EF JUMP JUMPDEST PUSH1 0x20 MUL PUSH1 0x20 ADD ADD DUP2 SWAP1 MSTORE POP DUP1 PUSH1 0x1 ADD SLOAD DUP7 DUP4 DUP2 MLOAD DUP2 LT PUSH2 0x77B JUMPI PUSH2 0x77B PUSH2 0x17EF JUMP JUMPDEST PUSH1 0x20 SWAP1 DUP2 MUL SWAP2 SWAP1 SWAP2 ADD ADD MSTORE PUSH1 0x2 DUP2 ADD SLOAD DUP6 MLOAD PUSH1 0x1 PUSH1 0x1 PUSH1 0xA0 SHL SUB SWAP1 SWAP2 AND SWAP1 DUP7 SWAP1 DUP5 SWAP1 DUP2 LT PUSH2 0x7AB JUMPI PUSH2 0x7AB PUSH2 0x17EF JUMP JUMPDEST PUSH1 0x20 MUL PUSH1 0x20 ADD ADD SWAP1 PUSH1 0x1 PUSH1 0x1 PUSH1 0xA0 SHL SUB AND SWAP1 DUP2 PUSH1 0x1 PUSH1 0x1 PUSH1 0xA0 SHL SUB AND DUP2 MSTORE POP POP DUP1 PUSH1 0x4 ADD SLOAD DUP5 DUP4 DUP2 MLOAD DUP2 LT PUSH2 0x7E2 JUMPI PUSH2 0x7E2 PUSH2 0x17EF JUMP JUMPDEST PUSH1 0x20 SWAP1 DUP2 MUL SWAP2 SWAP1 SWAP2 ADD ADD MSTORE POP PUSH1 0x1 ADD PUSH2 0x693 JUMP JUMPDEST POP POP SWAP1 SWAP2 SWAP3 SWAP4 JUMP JUMPDEST PUSH2 0x818 DUP4 DUP4 DUP4 PUSH1 0x40 MLOAD DUP1 PUSH1 0x20 ADD PUSH1 0x40 MSTORE DUP1 PUSH0 DUP2 MSTORE POP PUSH2 0x8A4 JUMP JUMPDEST POP POP POP JUMP JUMPDEST PUSH1 0x60 PUSH1 0x7 DUP1 SLOAD PUSH2 0x422 SWAP1 PUSH2 0x17B7 JUMP JUMPDEST PUSH0 PUSH2 0x40E DUP3 PUSH2 0xCE5 JUMP JUMPDEST PUSH0 PUSH1 0x1 PUSH1 0x1 PUSH1 0xA0 SHL SUB DUP3 AND PUSH2 0x860 JUMPI PUSH1 0x40 MLOAD PUSH4 0x22718AD9 PUSH1 0xE2 SHL DUP2 MSTORE PUSH0 PUSH1 0x4 DUP3 ADD MSTORE PUSH1 0x24 ADD PUSH2 0x4FE JUMP JUMPDEST POP PUSH1 0x1 PUSH1 0x1 PUSH1 0xA0 SHL SUB AND PUSH0 SWAP1 DUP2 MSTORE PUSH1 0x3 PUSH1 0x20 MSTORE PUSH1 0x40 SWAP1 KECCAK256 SLOAD SWAP1 JUMP JUMPDEST PUSH1 0x60 PUSH1 0x6 DUP1 SLOAD PUSH2 0x422 SWAP1 PUSH2 0x17B7 JUMP JUMPDEST PUSH1 0x60 PUSH1 0x1 DUP1 SLOAD PUSH2 0x422 SWAP1 PUSH2 0x17B7 JUMP JUMPDEST PUSH2 0x4D5 CALLER DUP4 DUP4 PUSH2 0xE1C JUMP JUMPDEST PUSH2 0x8AF DUP5 DUP5 DUP5 PUSH2 0x4D9 JUMP JUMPDEST PUSH2 0x561 CALLER DUP6 DUP6 DUP6 DUP6 PUSH2 0xEBA JUMP JUMPDEST PUSH1 0x60 PUSH2 0x8C7 DUP3 PUSH2 0xCE5 JUMP JUMPDEST POP PUSH0 PUSH2 0x8DD PUSH1 0x40 DUP1 MLOAD PUSH1 0x20 DUP2 ADD SWAP1 SWAP2 MSTORE PUSH0 DUP2 MSTORE SWAP1 JUMP JUMPDEST SWAP1 POP PUSH0 DUP2 MLOAD GT PUSH2 0x8FB JUMPI PUSH1 0x40 MLOAD DUP1 PUSH1 0x20 ADD PUSH1 0x40 MSTORE DUP1 PUSH0 DUP2 MSTORE POP PUSH2 0x926 JUMP JUMPDEST DUP1 PUSH2 0x905 DUP5 PUSH2 0xFE0 JUMP JUMPDEST PUSH1 0x40 MLOAD PUSH1 0x20 ADD PUSH2 0x916 SWAP3 SWAP2 SWAP1 PUSH2 0x1803 JUMP JUMPDEST PUSH1 0x40 MLOAD PUSH1 0x20 DUP2 DUP4 SUB SUB DUP2 MSTORE SWAP1 PUSH1 0x40 MSTORE JUMPDEST SWAP4 SWAP3 POP POP POP JUMP JUMPDEST PUSH1 0x8 SLOAD PUSH0 SWAP1 DUP3 SWAP1 PUSH1 0x1 PUSH1 0x1 PUSH1 0xA0 SHL SUB DUP1 DUP4 AND SWAP2 AND EQ PUSH2 0x98E JUMPI PUSH1 0x40 MLOAD PUSH3 0x461BCD PUSH1 0xE5 SHL DUP2 MSTORE PUSH1 0x20 PUSH1 0x4 DUP3 ADD DUP2 SWAP1 MSTORE PUSH1 0x24 DUP3 ADD MSTORE PUSH32 0x4E6F206572657320656C206475656E6F2064656C207265706F7369746F72696F PUSH1 0x44 DUP3 ADD MSTORE PUSH1 0x64 ADD PUSH2 0x4FE JUMP JUMPDEST PUSH0 PUSH1 0x9 DUP6 DUP2 SLOAD DUP2 LT PUSH2 0x9A2 JUMPI PUSH2 0x9A2 PUSH2 0x17EF JUMP JUMPDEST SWAP1 PUSH0 MSTORE PUSH1 0x20 PUSH0 KECCAK256 SWAP1 PUSH1 0x5 MUL ADD SWAP1 POP DUP1 PUSH1 0x4 ADD SLOAD PUSH0 EQ PUSH2 0x9FE JUMPI PUSH1 0x40 MLOAD PUSH3 0x461BCD PUSH1 0xE5 SHL DUP2 MSTORE PUSH1 0x20 PUSH1 0x4 DUP3 ADD MSTORE PUSH1 0x18 PUSH1 0x24 DUP3 ADD MSTORE PUSH24 0x10DBDB5B5A5D08185B1C9958591E481C1C9BD8D95CDCD959 PUSH1 0x42 SHL PUSH1 0x44 DUP3 ADD MSTORE PUSH1 0x64 ADD PUSH2 0x4FE JUMP JUMPDEST PUSH1 0x2 PUSH1 0x4 DUP3 ADD DUP2 SWAP1 SSTORE ADD SLOAD PUSH1 0x1 PUSH1 0x1 PUSH1 0xA0 SHL SUB AND SWAP5 SWAP4 POP POP POP POP JUMP JUMPDEST PUSH1 0x1 PUSH1 0x1 PUSH1 0xA0 SHL SUB SWAP2 DUP3 AND PUSH0 SWAP1 DUP2 MSTORE PUSH1 0x5 PUSH1 0x20 SWAP1 DUP2 MSTORE PUSH1 0x40 DUP1 DUP4 KECCAK256 SWAP4 SWAP1 SWAP5 AND DUP3 MSTORE SWAP2 SWAP1 SWAP2 MSTORE KECCAK256 SLOAD PUSH1 0xFF AND SWAP1 JUMP JUMPDEST PUSH1 0x40 DUP1 MLOAD PUSH1 0xA0 DUP2 ADD DUP3 MSTORE DUP5 DUP2 MSTORE TIMESTAMP PUSH1 0x20 DUP3 ADD MSTORE PUSH1 0x1 PUSH1 0x1 PUSH1 0xA0 SHL SUB DUP5 AND SWAP2 DUP2 ADD SWAP2 SWAP1 SWAP2 MSTORE PUSH1 0x60 DUP2 ADD DUP3 SWAP1 MSTORE PUSH0 PUSH1 0x80 DUP3 ADD DUP2 SWAP1 MSTORE PUSH1 0x9 DUP1 SLOAD PUSH1 0x1 DUP2 ADD DUP3 SSTORE SWAP2 MSTORE DUP2 MLOAD DUP3 SWAP2 PUSH1 0x5 MUL PUSH32 0x6E1540171B6C0C960B71A7020D9F60077F6AF931A8BBF590DA0223DACF75C7AF ADD SWAP1 DUP2 SWAP1 PUSH2 0xABC SWAP1 DUP3 PUSH2 0x1875 JUMP JUMPDEST POP PUSH1 0x20 DUP3 ADD MLOAD PUSH1 0x1 DUP3 ADD SSTORE PUSH1 0x40 DUP3 ADD MLOAD PUSH1 0x2 DUP3 ADD DUP1 SLOAD PUSH1 0x1 PUSH1 0x1 PUSH1 0xA0 SHL SUB NOT AND PUSH1 0x1 PUSH1 0x1 PUSH1 0xA0 SHL SUB SWAP1 SWAP3 AND SWAP2 SWAP1 SWAP2 OR SWAP1 SSTORE PUSH1 0x60 DUP3 ADD MLOAD PUSH1 0x3 DUP3 ADD SWAP1 PUSH2 0xB01 SWAP1 DUP3 PUSH2 0x1875 JUMP JUMPDEST POP PUSH1 0x80 DUP3 ADD MLOAD DUP2 PUSH1 0x4 ADD SSTORE POP POP POP POP POP POP JUMP JUMPDEST PUSH1 0x8 SLOAD DUP2 SWAP1 PUSH1 0x1 PUSH1 0x1 PUSH1 0xA0 SHL SUB DUP1 DUP4 AND SWAP2 AND EQ PUSH2 0xB73 JUMPI PUSH1 0x40 MLOAD PUSH3 0x461BCD PUSH1 0xE5 SHL DUP2 MSTORE PUSH1 0x20 PUSH1 0x4 DUP3 ADD DUP2 SWAP1 MSTORE PUSH1 0x24 DUP3 ADD MSTORE PUSH32 0x4E6F206572657320656C206475656E6F2064656C207265706F7369746F72696F PUSH1 0x44 DUP3 ADD MSTORE PUSH1 0x64 ADD PUSH2 0x4FE JUMP JUMPDEST PUSH0 PUSH1 0x9 DUP6 DUP2 SLOAD DUP2 LT PUSH2 0xB87 JUMPI PUSH2 0xB87 PUSH2 0x17EF JUMP JUMPDEST SWAP1 PUSH0 MSTORE PUSH1 0x20 PUSH0 KECCAK256 SWAP1 PUSH1 0x5 MUL ADD SWAP1 POP DUP1 PUSH1 0x4 ADD SLOAD PUSH0 EQ PUSH2 0xBE3 JUMPI PUSH1 0x40 MLOAD PUSH3 0x461BCD PUSH1 0xE5 SHL DUP2 MSTORE PUSH1 0x20 PUSH1 0x4 DUP3 ADD MSTORE PUSH1 0x18 PUSH1 0x24 DUP3 ADD MSTORE PUSH24 0x10DBDB5B5A5D08185B1C9958591E481C1C9BD8D95CDCD959 PUSH1 0x42 SHL PUSH1 0x44 DUP3 ADD MSTORE PUSH1 0x64 ADD PUSH2 0x4FE JUMP JUMPDEST DUP4 SELFBALANCE LT ISZERO PUSH2 0xC33 JUMPI PUSH1 0x40 MLOAD PUSH3 0x461BCD PUSH1 0xE5 SHL DUP2 MSTORE PUSH1 0x20 PUSH1 0x4 DUP3 ADD MSTORE PUSH1 0x1A PUSH1 0x24 DUP3 ADD MSTORE PUSH32 0x4E6F7420656E6F7567682045544820696E20636F6E7472616374000000000000 PUSH1 0x44 DUP3 ADD MSTORE PUSH1 0x64 ADD PUSH2 0x4FE JUMP JUMPDEST PUSH1 0x1 PUSH1 0x4 DUP3 ADD SSTORE PUSH1 0x7 PUSH2 0xC49 PUSH1 0x3 DUP4 ADD DUP3 PUSH2 0x1931 JUMP JUMPDEST POP PUSH1 0x2 DUP2 ADD SLOAD PUSH1 0x40 MLOAD PUSH0 SWAP2 PUSH1 0x1 PUSH1 0x1 PUSH1 0xA0 SHL SUB AND SWAP1 DUP7 SWAP1 DUP4 DUP2 DUP2 DUP2 DUP6 DUP8 GAS CALL SWAP3 POP POP POP RETURNDATASIZE DUP1 PUSH0 DUP2 EQ PUSH2 0xC96 JUMPI PUSH1 0x40 MLOAD SWAP2 POP PUSH1 0x1F NOT PUSH1 0x3F RETURNDATASIZE ADD AND DUP3 ADD PUSH1 0x40 MSTORE RETURNDATASIZE DUP3 MSTORE RETURNDATASIZE PUSH0 PUSH1 0x20 DUP5 ADD RETURNDATACOPY PUSH2 0xC9B JUMP JUMPDEST PUSH1 0x60 SWAP2 POP JUMPDEST POP POP SWAP1 POP DUP1 PUSH2 0xCDD JUMPI PUSH1 0x40 MLOAD PUSH3 0x461BCD PUSH1 0xE5 SHL DUP2 MSTORE PUSH1 0x20 PUSH1 0x4 DUP3 ADD MSTORE PUSH1 0xE PUSH1 0x24 DUP3 ADD MSTORE PUSH14 0x14185E5B595B9D0819985A5B1959 PUSH1 0x92 SHL PUSH1 0x44 DUP3 ADD MSTORE PUSH1 0x64 ADD PUSH2 0x4FE JUMP JUMPDEST POP POP POP POP POP POP JUMP JUMPDEST PUSH0 DUP2 DUP2 MSTORE PUSH1 0x2 PUSH1 0x20 MSTORE PUSH1 0x40 DUP2 KECCAK256 SLOAD PUSH1 0x1 PUSH1 0x1 PUSH1 0xA0 SHL SUB AND DUP1 PUSH2 0x40E JUMPI PUSH1 0x40 MLOAD PUSH4 0x7E273289 PUSH1 0xE0 SHL DUP2 MSTORE PUSH1 0x4 DUP2 ADD DUP5 SWAP1 MSTORE PUSH1 0x24 ADD PUSH2 0x4FE JUMP JUMPDEST PUSH2 0x818 DUP4 DUP4 DUP4 PUSH1 0x1 PUSH2 0x1070 JUMP JUMPDEST PUSH0 DUP3 DUP2 MSTORE PUSH1 0x2 PUSH1 0x20 MSTORE PUSH1 0x40 DUP2 KECCAK256 SLOAD PUSH1 0x1 PUSH1 0x1 PUSH1 0xA0 SHL SUB SWAP1 DUP2 AND SWAP1 DUP4 AND ISZERO PUSH2 0xD56 JUMPI PUSH2 0xD56 DUP2 DUP5 DUP7 PUSH2 0x1174 JUMP JUMPDEST PUSH1 0x1 PUSH1 0x1 PUSH1 0xA0 SHL SUB DUP2 AND ISZERO PUSH2 0xD90 JUMPI PUSH2 0xD71 PUSH0 DUP6 PUSH0 DUP1 PUSH2 0x1070 JUMP JUMPDEST PUSH1 0x1 PUSH1 0x1 PUSH1 0xA0 SHL SUB DUP2 AND PUSH0 SWAP1 DUP2 MSTORE PUSH1 0x3 PUSH1 0x20 MSTORE PUSH1 0x40 SWAP1 KECCAK256 DUP1 SLOAD PUSH0 NOT ADD SWAP1 SSTORE JUMPDEST PUSH1 0x1 PUSH1 0x1 PUSH1 0xA0 SHL SUB DUP6 AND ISZERO PUSH2 0xDBE JUMPI PUSH1 0x1 PUSH1 0x1 PUSH1 0xA0 SHL SUB DUP6 AND PUSH0 SWAP1 DUP2 MSTORE PUSH1 0x3 PUSH1 0x20 MSTORE PUSH1 0x40 SWAP1 KECCAK256 DUP1 SLOAD PUSH1 0x1 ADD SWAP1 SSTORE JUMPDEST PUSH0 DUP5 DUP2 MSTORE PUSH1 0x2 PUSH1 0x20 MSTORE PUSH1 0x40 DUP1 DUP3 KECCAK256 DUP1 SLOAD PUSH1 0x1 PUSH1 0x1 PUSH1 0xA0 SHL SUB NOT AND PUSH1 0x1 PUSH1 0x1 PUSH1 0xA0 SHL SUB DUP10 DUP2 AND SWAP2 DUP3 OR SWAP1 SWAP3 SSTORE SWAP2 MLOAD DUP8 SWAP4 SWAP2 DUP6 AND SWAP2 PUSH32 0xDDF252AD1BE2C89B69C2B068FC378DAA952BA7F163C4A11628F55A4DF523B3EF SWAP2 LOG4 SWAP5 SWAP4 POP POP POP POP JUMP JUMPDEST PUSH1 0x1 PUSH1 0x1 PUSH1 0xA0 SHL SUB DUP3 AND PUSH2 0xE4E JUMPI PUSH1 0x40 MLOAD PUSH4 0xB611743 PUSH1 0xE3 SHL DUP2 MSTORE PUSH1 0x1 PUSH1 0x1 PUSH1 0xA0 SHL SUB DUP4 AND PUSH1 0x4 DUP3 ADD MSTORE PUSH1 0x24 ADD PUSH2 0x4FE JUMP JUMPDEST PUSH1 0x1 PUSH1 0x1 PUSH1 0xA0 SHL SUB DUP4 DUP2 AND PUSH0 DUP2 DUP2 MSTORE PUSH1 0x5 PUSH1 0x20 SWAP1 DUP2 MSTORE PUSH1 0x40 DUP1 DUP4 KECCAK256 SWAP5 DUP8 AND DUP1 DUP5 MSTORE SWAP5 DUP3 MSTORE SWAP2 DUP3 SWAP1 KECCAK256 DUP1 SLOAD PUSH1 0xFF NOT AND DUP7 ISZERO ISZERO SWAP1 DUP2 OR SWAP1 SWAP2 SSTORE SWAP2 MLOAD SWAP2 DUP3 MSTORE PUSH32 0x17307EAB39AB6107E8899845AD3D59BD9653F200F220920489CA2B5937696C31 SWAP2 ADD PUSH1 0x40 MLOAD DUP1 SWAP2 SUB SWAP1 LOG3 POP POP POP JUMP JUMPDEST PUSH1 0x1 PUSH1 0x1 PUSH1 0xA0 SHL SUB DUP4 AND EXTCODESIZE ISZERO PUSH2 0xFD9 JUMPI PUSH1 0x40 MLOAD PUSH4 0xA85BD01 PUSH1 0xE1 SHL DUP2 MSTORE PUSH1 0x1 PUSH1 0x1 PUSH1 0xA0 SHL SUB DUP5 AND SWAP1 PUSH4 0x150B7A02 SWAP1 PUSH2 0xEFC SWAP1 DUP9 SWAP1 DUP9 SWAP1 DUP8 SWAP1 DUP8 SWAP1 PUSH1 0x4 ADD PUSH2 0x19FC JUMP JUMPDEST PUSH1 0x20 PUSH1 0x40 MLOAD DUP1 DUP4 SUB DUP2 PUSH0 DUP8 GAS CALL SWAP3 POP POP POP DUP1 ISZERO PUSH2 0xF36 JUMPI POP PUSH1 0x40 DUP1 MLOAD PUSH1 0x1F RETURNDATASIZE SWAP1 DUP2 ADD PUSH1 0x1F NOT AND DUP3 ADD SWAP1 SWAP3 MSTORE PUSH2 0xF33 SWAP2 DUP2 ADD SWAP1 PUSH2 0x1A38 JUMP JUMPDEST PUSH1 0x1 JUMPDEST PUSH2 0xF9D JUMPI RETURNDATASIZE DUP1 DUP1 ISZERO PUSH2 0xF63 JUMPI PUSH1 0x40 MLOAD SWAP2 POP PUSH1 0x1F NOT PUSH1 0x3F RETURNDATASIZE ADD AND DUP3 ADD PUSH1 0x40 MSTORE RETURNDATASIZE DUP3 MSTORE RETURNDATASIZE PUSH0 PUSH1 0x20 DUP5 ADD RETURNDATACOPY PUSH2 0xF68 JUMP JUMPDEST PUSH1 0x60 SWAP2 POP JUMPDEST POP DUP1 MLOAD PUSH0 SUB PUSH2 0xF95 JUMPI PUSH1 0x40 MLOAD PUSH4 0x32505749 PUSH1 0xE1 SHL DUP2 MSTORE PUSH1 0x1 PUSH1 0x1 PUSH1 0xA0 SHL SUB DUP6 AND PUSH1 0x4 DUP3 ADD MSTORE PUSH1 0x24 ADD PUSH2 0x4FE JUMP JUMPDEST DUP1 MLOAD PUSH1 0x20 DUP3 ADD REVERT JUMPDEST PUSH1 0x1 PUSH1 0x1 PUSH1 0xE0 SHL SUB NOT DUP2 AND PUSH4 0xA85BD01 PUSH1 0xE1 SHL EQ PUSH2 0xCDD JUMPI PUSH1 0x40 MLOAD PUSH4 0x32505749 PUSH1 0xE1 SHL DUP2 MSTORE PUSH1 0x1 PUSH1 0x1 PUSH1 0xA0 SHL SUB DUP6 AND PUSH1 0x4 DUP3 ADD MSTORE PUSH1 0x24 ADD PUSH2 0x4FE JUMP JUMPDEST POP POP POP POP POP JUMP JUMPDEST PUSH1 0x60 PUSH0 PUSH2 0xFEC DUP4 PUSH2 0x11D8 JUMP JUMPDEST PUSH1 0x1 ADD SWAP1 POP PUSH0 DUP2 PUSH8 0xFFFFFFFFFFFFFFFF DUP2 GT ISZERO PUSH2 0x100B JUMPI PUSH2 0x100B PUSH2 0x159F JUMP JUMPDEST PUSH1 0x40 MLOAD SWAP1 DUP1 DUP3 MSTORE DUP1 PUSH1 0x1F ADD PUSH1 0x1F NOT AND PUSH1 0x20 ADD DUP3 ADD PUSH1 0x40 MSTORE DUP1 ISZERO PUSH2 0x1035 JUMPI PUSH1 0x20 DUP3 ADD DUP2 DUP1 CALLDATASIZE DUP4 CALLDATACOPY ADD SWAP1 POP JUMPDEST POP SWAP1 POP DUP2 DUP2 ADD PUSH1 0x20 ADD JUMPDEST PUSH0 NOT ADD PUSH16 0x181899199A1A9B1B9C1CB0B131B232B3 PUSH1 0x81 SHL PUSH1 0xA DUP7 MOD BYTE DUP2 MSTORE8 PUSH1 0xA DUP6 DIV SWAP5 POP DUP5 PUSH2 0x103F JUMPI POP SWAP4 SWAP3 POP POP POP JUMP JUMPDEST DUP1 DUP1 PUSH2 0x1084 JUMPI POP PUSH1 0x1 PUSH1 0x1 PUSH1 0xA0 SHL SUB DUP3 AND ISZERO ISZERO JUMPDEST ISZERO PUSH2 0x1145 JUMPI PUSH0 PUSH2 0x1093 DUP5 PUSH2 0xCE5 JUMP JUMPDEST SWAP1 POP PUSH1 0x1 PUSH1 0x1 PUSH1 0xA0 SHL SUB DUP4 AND ISZERO DUP1 ISZERO SWAP1 PUSH2 0x10BF JUMPI POP DUP3 PUSH1 0x1 PUSH1 0x1 PUSH1 0xA0 SHL SUB AND DUP2 PUSH1 0x1 PUSH1 0x1 PUSH1 0xA0 SHL SUB AND EQ ISZERO JUMPDEST DUP1 ISZERO PUSH2 0x10D2 JUMPI POP PUSH2 0x10D0 DUP2 DUP5 PUSH2 0xA1A JUMP JUMPDEST ISZERO JUMPDEST ISZERO PUSH2 0x10FB JUMPI PUSH1 0x40 MLOAD PUSH4 0xA9FBF51F PUSH1 0xE0 SHL DUP2 MSTORE PUSH1 0x1 PUSH1 0x1 PUSH1 0xA0 SHL SUB DUP5 AND PUSH1 0x4 DUP3 ADD MSTORE PUSH1 0x24 ADD PUSH2 0x4FE JUMP JUMPDEST DUP2 ISZERO PUSH2 0x1143 JUMPI DUP4 DUP6 PUSH1 0x1 PUSH1 0x1 PUSH1 0xA0 SHL SUB AND DUP3 PUSH1 0x1 PUSH1 0x1 PUSH1 0xA0 SHL SUB AND PUSH32 0x8C5BE1E5EBEC7D5BD14F71427D1E84F3DD0314C0F7B2291E5B200AC8C7C3B925 PUSH1 0x40 MLOAD PUSH1 0x40 MLOAD DUP1 SWAP2 SUB SWAP1 LOG4 JUMPDEST POP JUMPDEST POP POP PUSH0 SWAP1 DUP2 MSTORE PUSH1 0x4 PUSH1 0x20 MSTORE PUSH1 0x40 SWAP1 KECCAK256 DUP1 SLOAD PUSH1 0x1 PUSH1 0x1 PUSH1 0xA0 SHL SUB NOT AND PUSH1 0x1 PUSH1 0x1 PUSH1 0xA0 SHL SUB SWAP3 SWAP1 SWAP3 AND SWAP2 SWAP1 SWAP2 OR SWAP1 SSTORE JUMP JUMPDEST PUSH2 0x117F DUP4 DUP4 DUP4 PUSH2 0x12AF JUMP JUMPDEST PUSH2 0x818 JUMPI PUSH1 0x1 PUSH1 0x1 PUSH1 0xA0 SHL SUB DUP4 AND PUSH2 0x11AD JUMPI PUSH1 0x40 MLOAD PUSH4 0x7E273289 PUSH1 0xE0 SHL DUP2 MSTORE PUSH1 0x4 DUP2 ADD DUP3 SWAP1 MSTORE PUSH1 0x24 ADD PUSH2 0x4FE JUMP JUMPDEST PUSH1 0x40 MLOAD PUSH4 0x177E802F PUSH1 0xE0 SHL DUP2 MSTORE PUSH1 0x1 PUSH1 0x1 PUSH1 0xA0 SHL SUB DUP4 AND PUSH1 0x4 DUP3 ADD MSTORE PUSH1 0x24 DUP2 ADD DUP3 SWAP1 MSTORE PUSH1 0x44 ADD PUSH2 0x4FE JUMP JUMPDEST PUSH0 DUP1 PUSH19 0x184F03E93FF9F4DAA797ED6E38ED64BF6A1F01 PUSH1 0x40 SHL DUP4 LT PUSH2 0x1216 JUMPI PUSH19 0x184F03E93FF9F4DAA797ED6E38ED64BF6A1F01 PUSH1 0x40 SHL DUP4 DIV SWAP3 POP PUSH1 0x40 ADD JUMPDEST PUSH14 0x4EE2D6D415B85ACEF8100000000 DUP4 LT PUSH2 0x1242 JUMPI PUSH14 0x4EE2D6D415B85ACEF8100000000 DUP4 DIV SWAP3 POP PUSH1 0x20 ADD JUMPDEST PUSH7 0x2386F26FC10000 DUP4 LT PUSH2 0x1260 JUMPI PUSH7 0x2386F26FC10000 DUP4 DIV SWAP3 POP PUSH1 0x10 ADD JUMPDEST PUSH4 0x5F5E100 DUP4 LT PUSH2 0x1278 JUMPI PUSH4 0x5F5E100 DUP4 DIV SWAP3 POP PUSH1 0x8 ADD JUMPDEST PUSH2 0x2710 DUP4 LT PUSH2 0x128C JUMPI PUSH2 0x2710 DUP4 DIV SWAP3 POP PUSH1 0x4 ADD JUMPDEST PUSH1 0x64 DUP4 LT PUSH2 0x129E JUMPI PUSH1 0x64 DUP4 DIV SWAP3 POP PUSH1 0x2 ADD JUMPDEST PUSH1 0xA DUP4 LT PUSH2 0x40E JUMPI PUSH1 0x1 ADD SWAP3 SWAP2 POP POP JUMP JUMPDEST PUSH0 PUSH1 0x1 PUSH1 0x1 PUSH1 0xA0 SHL SUB DUP4 AND ISZERO DUP1 ISZERO SWAP1 PUSH2 0x130B JUMPI POP DUP3 PUSH1 0x1 PUSH1 0x1 PUSH1 0xA0 SHL SUB AND DUP5 PUSH1 0x1 PUSH1 0x1 PUSH1 0xA0 SHL SUB AND EQ DUP1 PUSH2 0x12E8 JUMPI POP PUSH2 0x12E8 DUP5 DUP5 PUSH2 0xA1A JUMP JUMPDEST DUP1 PUSH2 0x130B JUMPI POP PUSH0 DUP3 DUP2 MSTORE PUSH1 0x4 PUSH1 0x20 MSTORE PUSH1 0x40 SWAP1 KECCAK256 SLOAD PUSH1 0x1 PUSH1 0x1 PUSH1 0xA0 SHL SUB DUP5 DUP2 AND SWAP2 AND EQ JUMPDEST SWAP5 SWAP4 POP POP POP POP JUMP JUMPDEST PUSH1 0x1 PUSH1 0x1 PUSH1 0xE0 SHL SUB NOT DUP2 AND DUP2 EQ PUSH2 0x1328 JUMPI PUSH0 DUP1 REVERT JUMPDEST POP JUMP JUMPDEST PUSH0 PUSH1 0x20 DUP3 DUP5 SUB SLT ISZERO PUSH2 0x133B JUMPI PUSH0 DUP1 REVERT JUMPDEST DUP2 CALLDATALOAD PUSH2 0x926 DUP2 PUSH2 0x1313 JUMP JUMPDEST PUSH0 JUMPDEST DUP4 DUP2 LT ISZERO PUSH2 0x1360 JUMPI DUP2 DUP2 ADD MLOAD DUP4 DUP3 ADD MSTORE PUSH1 0x20 ADD PUSH2 0x1348 JUMP JUMPDEST POP POP PUSH0 SWAP2 ADD MSTORE JUMP JUMPDEST PUSH0 DUP2 MLOAD DUP1 DUP5 MSTORE PUSH2 0x137F DUP2 PUSH1 0x20 DUP7 ADD PUSH1 0x20 DUP7 ADD PUSH2 0x1346 JUMP JUMPDEST PUSH1 0x1F ADD PUSH1 0x1F NOT AND SWAP3 SWAP1 SWAP3 ADD PUSH1 0x20 ADD SWAP3 SWAP2 POP POP JUMP JUMPDEST PUSH1 0x20 DUP2 MSTORE PUSH0 PUSH2 0x926 PUSH1 0x20 DUP4 ADD DUP5 PUSH2 0x1368 JUMP JUMPDEST PUSH0 PUSH1 0x20 DUP3 DUP5 SUB SLT ISZERO PUSH2 0x13B5 JUMPI PUSH0 DUP1 REVERT JUMPDEST POP CALLDATALOAD SWAP2 SWAP1 POP JUMP JUMPDEST PUSH1 0x1 PUSH1 0x1 PUSH1 0xA0 SHL SUB DUP2 AND DUP2 EQ PUSH2 0x1328 JUMPI PUSH0 DUP1 REVERT JUMPDEST PUSH0 DUP1 PUSH1 0x40 DUP4 DUP6 SUB SLT ISZERO PUSH2 0x13E1 JUMPI PUSH0 DUP1 REVERT JUMPDEST DUP3 CALLDATALOAD PUSH2 0x13EC DUP2 PUSH2 0x13BC JUMP JUMPDEST SWAP5 PUSH1 0x20 SWAP4 SWAP1 SWAP4 ADD CALLDATALOAD SWAP4 POP POP POP JUMP JUMPDEST PUSH0 DUP1 PUSH0 PUSH1 0x60 DUP5 DUP7 SUB SLT ISZERO PUSH2 0x140C JUMPI PUSH0 DUP1 REVERT JUMPDEST DUP4 CALLDATALOAD PUSH2 0x1417 DUP2 PUSH2 0x13BC JUMP JUMPDEST SWAP3 POP PUSH1 0x20 DUP5 ADD CALLDATALOAD PUSH2 0x1427 DUP2 PUSH2 0x13BC JUMP JUMPDEST SWAP3 SWAP6 SWAP3 SWAP5 POP POP POP PUSH1 0x40 SWAP2 SWAP1 SWAP2 ADD CALLDATALOAD SWAP1 JUMP JUMPDEST PUSH0 DUP2 MLOAD DUP1 DUP5 MSTORE PUSH1 0x20 DUP1 DUP6 ADD SWAP5 POP PUSH1 0x20 DUP5 ADD PUSH0 JUMPDEST DUP4 DUP2 LT ISZERO PUSH2 0x1467 JUMPI DUP2 MLOAD DUP8 MSTORE SWAP6 DUP3 ADD SWAP6 SWAP1 DUP3 ADD SWAP1 PUSH1 0x1 ADD PUSH2 0x144B JUMP JUMPDEST POP SWAP5 SWAP6 SWAP5 POP POP POP POP POP JUMP JUMPDEST PUSH0 DUP2 MLOAD DUP1 DUP5 MSTORE PUSH1 0x20 DUP1 DUP6 ADD SWAP5 POP PUSH1 0x20 DUP5 ADD PUSH0 JUMPDEST DUP4 DUP2 LT ISZERO PUSH2 0x1467 JUMPI DUP2 MLOAD PUSH1 0x1 PUSH1 0x1 PUSH1 0xA0 SHL SUB AND DUP8 MSTORE SWAP6 DUP3 ADD SWAP6 SWAP1 DUP3 ADD SWAP1 PUSH1 0x1 ADD PUSH2 0x1485 JUMP JUMPDEST PUSH0 PUSH1 0x80 DUP3 ADD PUSH1 0x80 DUP4 MSTORE DUP1 DUP8 MLOAD DUP1 DUP4 MSTORE PUSH1 0xA0 DUP6 ADD SWAP2 POP PUSH1 0xA0 DUP2 PUSH1 0x5 SHL DUP7 ADD ADD SWAP3 POP PUSH1 0x20 DUP1 DUP11 ADD PUSH0 JUMPDEST DUP4 DUP2 LT ISZERO PUSH2 0x14FF JUMPI PUSH1 0x9F NOT DUP9 DUP8 SUB ADD DUP6 MSTORE PUSH2 0x14ED DUP7 DUP4 MLOAD PUSH2 0x1368 JUMP JUMPDEST SWAP6 POP SWAP4 DUP3 ADD SWAP4 SWAP1 DUP3 ADD SWAP1 PUSH1 0x1 ADD PUSH2 0x14D1 JUMP JUMPDEST POP POP POP POP POP DUP3 DUP2 SUB PUSH1 0x20 DUP5 ADD MSTORE PUSH2 0x1516 DUP2 DUP8 PUSH2 0x1438 JUMP JUMPDEST SWAP1 POP DUP3 DUP2 SUB PUSH1 0x40 DUP5 ADD MSTORE PUSH2 0x152A DUP2 DUP7 PUSH2 0x1472 JUMP JUMPDEST SWAP1 POP DUP3 DUP2 SUB PUSH1 0x60 DUP5 ADD MSTORE PUSH2 0x153E DUP2 DUP6 PUSH2 0x1438 JUMP JUMPDEST SWAP8 SWAP7 POP POP POP POP POP POP POP JUMP JUMPDEST PUSH0 PUSH1 0x20 DUP3 DUP5 SUB SLT ISZERO PUSH2 0x1559 JUMPI PUSH0 DUP1 REVERT JUMPDEST DUP2 CALLDATALOAD PUSH2 0x926 DUP2 PUSH2 0x13BC JUMP JUMPDEST PUSH0 DUP1 PUSH1 0x40 DUP4 DUP6 SUB SLT ISZERO PUSH2 0x1575 JUMPI PUSH0 DUP1 REVERT JUMPDEST DUP3 CALLDATALOAD PUSH2 0x1580 DUP2 PUSH2 0x13BC JUMP JUMPDEST SWAP2 POP PUSH1 0x20 DUP4 ADD CALLDATALOAD DUP1 ISZERO ISZERO DUP2 EQ PUSH2 0x1594 JUMPI PUSH0 DUP1 REVERT JUMPDEST DUP1 SWAP2 POP POP SWAP3 POP SWAP3 SWAP1 POP JUMP JUMPDEST PUSH4 0x4E487B71 PUSH1 0xE0 SHL PUSH0 MSTORE PUSH1 0x41 PUSH1 0x4 MSTORE PUSH1 0x24 PUSH0 REVERT JUMPDEST PUSH0 PUSH8 0xFFFFFFFFFFFFFFFF DUP1 DUP5 GT ISZERO PUSH2 0x15CD JUMPI PUSH2 0x15CD PUSH2 0x159F JUMP JUMPDEST PUSH1 0x40 MLOAD PUSH1 0x1F DUP6 ADD PUSH1 0x1F NOT SWAP1 DUP2 AND PUSH1 0x3F ADD AND DUP2 ADD SWAP1 DUP3 DUP3 GT DUP2 DUP4 LT OR ISZERO PUSH2 0x15F5 JUMPI PUSH2 0x15F5 PUSH2 0x159F JUMP JUMPDEST DUP2 PUSH1 0x40 MSTORE DUP1 SWAP4 POP DUP6 DUP2 MSTORE DUP7 DUP7 DUP7 ADD GT ISZERO PUSH2 0x160D JUMPI PUSH0 DUP1 REVERT JUMPDEST DUP6 DUP6 PUSH1 0x20 DUP4 ADD CALLDATACOPY PUSH0 PUSH1 0x20 DUP8 DUP4 ADD ADD MSTORE POP POP POP SWAP4 SWAP3 POP POP POP JUMP JUMPDEST PUSH0 DUP1 PUSH0 DUP1 PUSH1 0x80 DUP6 DUP8 SUB SLT ISZERO PUSH2 0x1639 JUMPI PUSH0 DUP1 REVERT JUMPDEST DUP5 CALLDATALOAD PUSH2 0x1644 DUP2 PUSH2 0x13BC JUMP JUMPDEST SWAP4 POP PUSH1 0x20 DUP6 ADD CALLDATALOAD PUSH2 0x1654 DUP2 PUSH2 0x13BC JUMP JUMPDEST SWAP3 POP PUSH1 0x40 DUP6 ADD CALLDATALOAD SWAP2 POP PUSH1 0x60 DUP6 ADD CALLDATALOAD PUSH8 0xFFFFFFFFFFFFFFFF DUP2 GT ISZERO PUSH2 0x1676 JUMPI PUSH0 DUP1 REVERT JUMPDEST DUP6 ADD PUSH1 0x1F DUP2 ADD DUP8 SGT PUSH2 0x1686 JUMPI PUSH0 DUP1 REVERT JUMPDEST PUSH2 0x1695 DUP8 DUP3 CALLDATALOAD PUSH1 0x20 DUP5 ADD PUSH2 0x15B3 JUMP JUMPDEST SWAP2 POP POP SWAP3 SWAP6 SWAP2 SWAP5 POP SWAP3 POP JUMP JUMPDEST PUSH0 DUP1 PUSH1 0x40 DUP4 DUP6 SUB SLT ISZERO PUSH2 0x16B2 JUMPI PUSH0 DUP1 REVERT JUMPDEST DUP3 CALLDATALOAD SWAP2 POP PUSH1 0x20 DUP4 ADD CALLDATALOAD PUSH2 0x1594 DUP2 PUSH2 0x13BC JUMP JUMPDEST PUSH0 DUP1 PUSH1 0x40 DUP4 DUP6 SUB SLT ISZERO PUSH2 0x16D5 JUMPI PUSH0 DUP1 REVERT JUMPDEST DUP3 CALLDATALOAD PUSH2 0x16E0 DUP2 PUSH2 0x13BC JUMP JUMPDEST SWAP2 POP PUSH1 0x20 DUP4 ADD CALLDATALOAD PUSH2 0x1594 DUP2 PUSH2 0x13BC JUMP JUMPDEST PUSH0 DUP3 PUSH1 0x1F DUP4 ADD SLT PUSH2 0x16FF JUMPI PUSH0 DUP1 REVERT JUMPDEST PUSH2 0x926 DUP4 DUP4 CALLDATALOAD PUSH1 0x20 DUP6 ADD PUSH2 0x15B3 JUMP JUMPDEST PUSH0 DUP1 PUSH0 PUSH1 0x60 DUP5 DUP7 SUB SLT ISZERO PUSH2 0x1720 JUMPI PUSH0 DUP1 REVERT JUMPDEST DUP4 CALLDATALOAD PUSH8 0xFFFFFFFFFFFFFFFF DUP1 DUP3 GT ISZERO PUSH2 0x1737 JUMPI PUSH0 DUP1 REVERT JUMPDEST PUSH2 0x1743 DUP8 DUP4 DUP9 ADD PUSH2 0x16F0 JUMP JUMPDEST SWAP5 POP PUSH1 0x20 DUP7 ADD CALLDATALOAD SWAP2 POP PUSH2 0x1755 DUP3 PUSH2 0x13BC JUMP JUMPDEST SWAP1 SWAP3 POP PUSH1 0x40 DUP6 ADD CALLDATALOAD SWAP1 DUP1 DUP3 GT ISZERO PUSH2 0x176A JUMPI PUSH0 DUP1 REVERT JUMPDEST POP PUSH2 0x1777 DUP7 DUP3 DUP8 ADD PUSH2 0x16F0 JUMP JUMPDEST SWAP2 POP POP SWAP3 POP SWAP3 POP SWAP3 JUMP JUMPDEST PUSH0 DUP1 PUSH0 PUSH1 0x60 DUP5 DUP7 SUB SLT ISZERO PUSH2 0x1793 JUMPI PUSH0 DUP1 REVERT JUMPDEST DUP4 CALLDATALOAD SWAP3 POP PUSH1 0x20 DUP5 ADD CALLDATALOAD SWAP2 POP PUSH1 0x40 DUP5 ADD CALLDATALOAD PUSH2 0x17AC DUP2 PUSH2 0x13BC JUMP JUMPDEST DUP1 SWAP2 POP POP SWAP3 POP SWAP3 POP SWAP3 JUMP JUMPDEST PUSH1 0x1 DUP2 DUP2 SHR SWAP1 DUP3 AND DUP1 PUSH2 0x17CB JUMPI PUSH1 0x7F DUP3 AND SWAP2 POP JUMPDEST PUSH1 0x20 DUP3 LT DUP2 SUB PUSH2 0x17E9 JUMPI PUSH4 0x4E487B71 PUSH1 0xE0 SHL PUSH0 MSTORE PUSH1 0x22 PUSH1 0x4 MSTORE PUSH1 0x24 PUSH0 REVERT JUMPDEST POP SWAP2 SWAP1 POP JUMP JUMPDEST PUSH4 0x4E487B71 PUSH1 0xE0 SHL PUSH0 MSTORE PUSH1 0x32 PUSH1 0x4 MSTORE PUSH1 0x24 PUSH0 REVERT JUMPDEST PUSH0 DUP4 MLOAD PUSH2 0x1814 DUP2 DUP5 PUSH1 0x20 DUP9 ADD PUSH2 0x1346 JUMP JUMPDEST DUP4 MLOAD SWAP1 DUP4 ADD SWAP1 PUSH2 0x1828 DUP2 DUP4 PUSH1 0x20 DUP9 ADD PUSH2 0x1346 JUMP JUMPDEST ADD SWAP5 SWAP4 POP POP POP POP JUMP JUMPDEST PUSH1 0x1F DUP3 GT ISZERO PUSH2 0x818 JUMPI DUP1 PUSH0 MSTORE PUSH1 0x20 PUSH0 KECCAK256 PUSH1 0x1F DUP5 ADD PUSH1 0x5 SHR DUP2 ADD PUSH1 0x20 DUP6 LT ISZERO PUSH2 0x1856 JUMPI POP DUP1 JUMPDEST PUSH1 0x1F DUP5 ADD PUSH1 0x5 SHR DUP3 ADD SWAP2 POP JUMPDEST DUP2 DUP2 LT ISZERO PUSH2 0xFD9 JUMPI PUSH0 DUP2 SSTORE PUSH1 0x1 ADD PUSH2 0x1862 JUMP JUMPDEST DUP2 MLOAD PUSH8 0xFFFFFFFFFFFFFFFF DUP2 GT ISZERO PUSH2 0x188F JUMPI PUSH2 0x188F PUSH2 0x159F JUMP JUMPDEST PUSH2 0x18A3 DUP2 PUSH2 0x189D DUP5 SLOAD PUSH2 0x17B7 JUMP JUMPDEST DUP5 PUSH2 0x1831 JUMP JUMPDEST PUSH1 0x20 DUP1 PUSH1 0x1F DUP4 GT PUSH1 0x1 DUP2 EQ PUSH2 0x18D6 JUMPI PUSH0 DUP5 ISZERO PUSH2 0x18BF JUMPI POP DUP6 DUP4 ADD MLOAD JUMPDEST PUSH0 NOT PUSH1 0x3 DUP7 SWAP1 SHL SHR NOT AND PUSH1 0x1 DUP6 SWAP1 SHL OR DUP6 SSTORE PUSH2 0xCDD JUMP JUMPDEST PUSH0 DUP6 DUP2 MSTORE PUSH1 0x20 DUP2 KECCAK256 PUSH1 0x1F NOT DUP7 AND SWAP2 JUMPDEST DUP3 DUP2 LT ISZERO PUSH2 0x1904 JUMPI DUP9 DUP7 ADD MLOAD DUP3 SSTORE SWAP5 DUP5 ADD SWAP5 PUSH1 0x1 SWAP1 SWAP2 ADD SWAP1 DUP5 ADD PUSH2 0x18E5 JUMP JUMPDEST POP DUP6 DUP3 LT ISZERO PUSH2 0x1921 JUMPI DUP8 DUP6 ADD MLOAD PUSH0 NOT PUSH1 0x3 DUP9 SWAP1 SHL PUSH1 0xF8 AND SHR NOT AND DUP2 SSTORE JUMPDEST POP POP POP POP POP PUSH1 0x1 SWAP1 DUP2 SHL ADD SWAP1 SSTORE POP JUMP JUMPDEST DUP2 DUP2 SUB PUSH2 0x193C JUMPI POP POP JUMP JUMPDEST PUSH2 0x1946 DUP3 SLOAD PUSH2 0x17B7 JUMP JUMPDEST PUSH8 0xFFFFFFFFFFFFFFFF DUP2 GT ISZERO PUSH2 0x195E JUMPI PUSH2 0x195E PUSH2 0x159F JUMP JUMPDEST PUSH2 0x196C DUP2 PUSH2 0x189D DUP5 SLOAD PUSH2 0x17B7 JUMP JUMPDEST PUSH0 PUSH1 0x1F DUP3 GT PUSH1 0x1 DUP2 EQ PUSH2 0x199D JUMPI PUSH0 DUP4 ISZERO PUSH2 0x1986 JUMPI POP DUP5 DUP3 ADD SLOAD JUMPDEST PUSH0 NOT PUSH1 0x3 DUP6 SWAP1 SHL SHR NOT AND PUSH1 0x1 DUP5 SWAP1 SHL OR DUP5 SSTORE PUSH2 0xFD9 JUMP JUMPDEST PUSH0 DUP6 DUP2 MSTORE PUSH1 0x20 DUP1 DUP3 KECCAK256 DUP7 DUP4 MSTORE SWAP1 DUP3 KECCAK256 PUSH1 0x1F NOT DUP7 AND SWAP3 JUMPDEST DUP4 DUP2 LT ISZERO PUSH2 0x19D3 JUMPI DUP3 DUP7 ADD SLOAD DUP3 SSTORE PUSH1 0x1 SWAP6 DUP7 ADD SWAP6 SWAP1 SWAP2 ADD SWAP1 PUSH1 0x20 ADD PUSH2 0x19B3 JUMP JUMPDEST POP DUP6 DUP4 LT ISZERO PUSH2 0x1921 JUMPI SWAP4 ADD SLOAD PUSH0 NOT PUSH1 0xF8 PUSH1 0x3 DUP8 SWAP1 SHL AND SHR NOT AND SWAP1 SWAP3 SSTORE POP POP PUSH1 0x1 SWAP1 DUP2 SHL ADD SWAP1 SSTORE POP JUMP JUMPDEST PUSH1 0x1 PUSH1 0x1 PUSH1 0xA0 SHL SUB DUP6 DUP2 AND DUP3 MSTORE DUP5 AND PUSH1 0x20 DUP3 ADD MSTORE PUSH1 0x40 DUP2 ADD DUP4 SWAP1 MSTORE PUSH1 0x80 PUSH1 0x60 DUP3 ADD DUP2 SWAP1 MSTORE PUSH0 SWAP1 PUSH2 0x1A2E SWAP1 DUP4 ADD DUP5 PUSH2 0x1368 JUMP JUMPDEST SWAP7 SWAP6 POP POP POP POP POP POP JUMP JUMPDEST PUSH0 PUSH1 0x20 DUP3 DUP5 SUB SLT ISZERO PUSH2 0x1A48 JUMPI PUSH0 DUP1 REVERT JUMPDEST DUP2 MLOAD PUSH2 0x926 DUP2 PUSH2 0x1313 JUMP INVALID LOG2 PUSH5 0x6970667358 0x22 SLT KECCAK256 0xE3 GASLIMIT SWAP9 TLOAD SWAP1 PUSH3 0xBC5B74 EXP SWAP10 PUSH25 0x4416DEE39EF2861512F05EAC55E2E8975DD80B8264736F6C63 NUMBER STOP ADDMOD XOR STOP CALLER LOG2 PUSH5 0x6970667358 0x22 SLT KECCAK256 0xD1 CALLDATALOAD EXTCODEHASH 0xEA PUSH20 0x89C40DE58D8A0F1DCC7439C310C592DAA42073B9 PUSH13 0xFFE1D88E7AF264736F6C634300 ADDMOD XOR STOP CALLER "
		},
		"gasEstimates": {
			"creation": {
				"codeDepositCost": "4260600",
				"executionCost": "infinite",
				"totalCost": "infinite"
			},
			"external": {
				"amount()": "2339",
				"approve(address,uint256)": "31481",
				"approveCommit(uint256,uint256,uint256)": "infinite",
				"badgeContract()": "2403",
				"balanceOf(address)": "2625",
				"createRepository(string,string)": "infinite",
				"depositToRepo(uint256)": "infinite",
				"getAllRepos()": "infinite",
				"getAllReposByOwner()": "infinite",
				"getApproved(uint256)": "infinite",
				"getBalance(uint256)": "infinite",
				"getUserBadges(address)": "infinite",
				"hasFirstApprovedCommit(address)": "2623",
				"hasFirstCommit(address)": "2556",
				"hasFirstRepo(address)": "2621",
				"isApprovedForAll(address,address)": "infinite",
				"name()": "infinite",
				"ownerOf(uint256)": "infinite",
				"processNewCommit(uint256,string,string)": "infinite",
				"rejectCommit(uint256,uint256)": "infinite",
				"repositories(uint256)": "2564",
				"retrieveCommits(uint256)": "infinite",
				"safeTransferFrom(address,address,uint256)": "infinite",
				"safeTransferFrom(address,address,uint256,bytes)": "infinite",
				"setApprovalForAll(address,bool)": "26773",
				"setBadgeContract(address)": "26813",
				"supportsInterface(bytes4)": "infinite",
				"symbol()": "infinite",
				"tokenByIndex(uint256)": "6777",
				"tokenOfOwnerByIndex(address,uint256)": "4964",
				"tokenURI(uint256)": "infinite",
				"totalSupply()": "2348",
				"transferFrom(address,address,uint256)": "infinite",
				"userApprovalCount(address)": "2643",
				"userApprovedCommits(address)": "2577",
				"userCommitCount(address)": "2578"
			}
		},
		"methodIdentifiers": {
			"amount()": "aa8c217c",
			"approve(address,uint256)": "095ea7b3",
			"approveCommit(uint256,uint256,uint256)": "c8be9568",
			"badgeContract()": "8d6d4925",
			"balanceOf(address)": "70a08231",
			"createRepository(string,string)": "c2692760",
			"depositToRepo(uint256)": "552f8fd3",
			"getAllRepos()": "f5cc98c9",
			"getAllReposByOwner()": "1a8c23c5",
			"getApproved(uint256)": "081812fc",
			"getBalance(uint256)": "1e010439",
			"getUserBadges(address)": "37c245fe",
			"hasFirstApprovedCommit(address)": "77cd2581",
			"hasFirstCommit(address)": "4888221a",
			"hasFirstRepo(address)": "f0492eaf",
			"isApprovedForAll(address,address)": "e985e9c5",
			"name()": "06fdde03",
			"ownerOf(uint256)": "6352211e",
			"processNewCommit(uint256,string,string)": "a7e16255",
			"rejectCommit(uint256,uint256)": "7b1ca23e",
			"repositories(uint256)": "76652709",
			"retrieveCommits(uint256)": "03a811e6",
			"safeTransferFrom(address,address,uint256)": "42842e0e",
			"safeTransferFrom(address,address,uint256,bytes)": "b88d4fde",
			"setApprovalForAll(address,bool)": "a22cb465",
			"setBadgeContract(address)": "47d212da",
			"supportsInterface(bytes4)": "01ffc9a7",
			"symbol()": "95d89b41",
			"tokenByIndex(uint256)": "4f6ccce7",
			"tokenOfOwnerByIndex(address,uint256)": "2f745c59",
			"tokenURI(uint256)": "c87b56dd",
			"totalSupply()": "18160ddd",
			"transferFrom(address,address,uint256)": "23b872dd",
			"userApprovalCount(address)": "70519945",
			"userApprovedCommits(address)": "b3b9f3a9",
			"userCommitCount(address)": "721fe685"
		}
	},
	"abi": [
		{
			"inputs": [],
			"stateMutability": "nonpayable",
			"type": "constructor"
		},
		{
			"inputs": [],
			"name": "ERC721EnumerableForbiddenBatchMint",
			"type": "error"
		},
		{
			"inputs": [
				{
					"internalType": "address",
					"name": "sender",
					"type": "address"
				},
				{
					"internalType": "uint256",
					"name": "tokenId",
					"type": "uint256"
				},
				{
					"internalType": "address",
					"name": "owner",
					"type": "address"
				}
			],
			"name": "ERC721IncorrectOwner",
			"type": "error"
		},
		{
			"inputs": [
				{
					"internalType": "address",
					"name": "operator",
					"type": "address"
				},
				{
					"internalType": "uint256",
					"name": "tokenId",
					"type": "uint256"
				}
			],
			"name": "ERC721InsufficientApproval",
			"type": "error"
		},
		{
			"inputs": [
				{
					"internalType": "address",
					"name": "approver",
					"type": "address"
				}
			],
			"name": "ERC721InvalidApprover",
			"type": "error"
		},
		{
			"inputs": [
				{
					"internalType": "address",
					"name": "operator",
					"type": "address"
				}
			],
			"name": "ERC721InvalidOperator",
			"type": "error"
		},
		{
			"inputs": [
				{
					"internalType": "address",
					"name": "owner",
					"type": "address"
				}
			],
			"name": "ERC721InvalidOwner",
			"type": "error"
		},
		{
			"inputs": [
				{
					"internalType": "address",
					"name": "receiver",
					"type": "address"
				}
			],
			"name": "ERC721InvalidReceiver",
			"type": "error"
		},
		{
			"inputs": [
				{
					"internalType": "address",
					"name": "sender",
					"type": "address"
				}
			],
			"name": "ERC721InvalidSender",
			"type": "error"
		},
		{
			"inputs": [
				{
					"internalType": "uint256",
					"name": "tokenId",
					"type": "uint256"
				}
			],
			"name": "ERC721NonexistentToken",
			"type": "error"
		},
		{
			"inputs": [
				{
					"internalType": "address",
					"name": "owner",
					"type": "address"
				},
				{
					"internalType": "uint256",
					"name": "index",
					"type": "uint256"
				}
			],
			"name": "ERC721OutOfBoundsIndex",
			"type": "error"
		},
		{
			"anonymous": false,
			"inputs": [
				{
					"indexed": true,
					"internalType": "address",
					"name": "owner",
					"type": "address"
				},
				{
					"indexed": true,
					"internalType": "address",
					"name": "approved",
					"type": "address"
				},
				{
					"indexed": true,
					"internalType": "uint256",
					"name": "tokenId",
					"type": "uint256"
				}
			],
			"name": "Approval",
			"type": "event"
		},
		{
			"anonymous": false,
			"inputs": [
				{
					"indexed": true,
					"internalType": "address",
					"name": "owner",
					"type": "address"
				},
				{
					"indexed": true,
					"internalType": "address",
					"name": "operator",
					"type": "address"
				},
				{
					"indexed": false,
					"internalType": "bool",
					"name": "approved",
					"type": "bool"
				}
			],
			"name": "ApprovalForAll",
			"type": "event"
		},
		{
			"anonymous": false,
			"inputs": [
				{
					"indexed": true,
					"internalType": "address",
					"name": "from",
					"type": "address"
				},
				{
					"indexed": true,
					"internalType": "address",
					"name": "to",
					"type": "address"
				},
				{
					"indexed": true,
					"internalType": "uint256",
					"name": "tokenId",
					"type": "uint256"
				}
			],
			"name": "Transfer",
			"type": "event"
		},
		{
			"anonymous": false,
			"inputs": [
				{
					"indexed": true,
					"internalType": "uint256",
					"name": "tokenId",
					"type": "uint256"
				},
				{
					"indexed": true,
					"internalType": "address",
					"name": "owner",
					"type": "address"
				},
				{
					"indexed": false,
					"internalType": "string",
					"name": "repoCID",
					"type": "string"
				}
			],
			"name": "approvedCommit",
			"type": "event"
		},
		{
			"anonymous": false,
			"inputs": [
				{
					"indexed": true,
					"internalType": "uint256",
					"name": "tokenId",
					"type": "uint256"
				},
				{
					"indexed": true,
					"internalType": "address",
					"name": "owner",
					"type": "address"
				},
				{
					"indexed": false,
					"internalType": "string",
					"name": "repoCID",
					"type": "string"
				}
			],
			"name": "createdSuccessfully",
			"type": "event"
		},
		{
			"anonymous": false,
			"inputs": [
				{
					"indexed": true,
					"internalType": "uint256",
					"name": "tokenId",
					"type": "uint256"
				},
				{
					"indexed": true,
					"internalType": "address",
					"name": "owner",
					"type": "address"
				},
				{
					"indexed": false,
					"internalType": "uint256",
					"name": "amount",
					"type": "uint256"
				}
			],
			"name": "depositedETH",
			"type": "event"
		},
		{
			"anonymous": false,
			"inputs": [
				{
					"indexed": true,
					"internalType": "uint256",
					"name": "tokenId",
					"type": "uint256"
				},
				{
					"indexed": true,
					"internalType": "address",
					"name": "owner",
					"type": "address"
				},
				{
					"indexed": true,
					"internalType": "address",
					"name": "committer",
					"type": "address"
				},
				{
					"indexed": false,
					"internalType": "string",
					"name": "repoCID",
					"type": "string"
				}
			],
			"name": "processedCommit",
			"type": "event"
		},
		{
			"anonymous": false,
			"inputs": [
				{
					"indexed": true,
					"internalType": "address",
					"name": "committer",
					"type": "address"
				},
				{
					"indexed": true,
					"internalType": "address",
					"name": "rejectedBy",
					"type": "address"
				},
				{
					"indexed": false,
					"internalType": "string",
					"name": "repoCID",
					"type": "string"
				}
			],
			"name": "rejectedCommit",
			"type": "event"
		},
		{
			"inputs": [],
			"name": "amount",
			"outputs": [
				{
					"internalType": "uint256",
					"name": "",
					"type": "uint256"
				}
			],
			"stateMutability": "view",
			"type": "function"
		},
		{
			"inputs": [
				{
					"internalType": "address",
					"name": "to",
					"type": "address"
				},
				{
					"internalType": "uint256",
					"name": "tokenId",
					"type": "uint256"
				}
			],
			"name": "approve",
			"outputs": [],
			"stateMutability": "nonpayable",
			"type": "function"
		},
		{
			"inputs": [
				{
					"internalType": "uint256",
					"name": "_tokenId",
					"type": "uint256"
				},
				{
					"internalType": "uint256",
					"name": "commitIndex",
					"type": "uint256"
				},
				{
					"internalType": "uint256",
					"name": "reward",
					"type": "uint256"
				}
			],
			"name": "approveCommit",
			"outputs": [],
			"stateMutability": "payable",
			"type": "function"
		},
		{
			"inputs": [],
			"name": "badgeContract",
			"outputs": [
				{
					"internalType": "contract BlockhubPOAP",
					"name": "",
					"type": "address"
				}
			],
			"stateMutability": "view",
			"type": "function"
		},
		{
			"inputs": [
				{
					"internalType": "address",
					"name": "owner",
					"type": "address"
				}
			],
			"name": "balanceOf",
			"outputs": [
				{
					"internalType": "uint256",
					"name": "",
					"type": "uint256"
				}
			],
			"stateMutability": "view",
			"type": "function"
		},
		{
			"inputs": [
				{
					"internalType": "string",
					"name": "_repoName",
					"type": "string"
				},
				{
					"internalType": "string",
					"name": "_repoCID",
					"type": "string"
				}
			],
			"name": "createRepository",
			"outputs": [],
			"stateMutability": "nonpayable",
			"type": "function"
		},
		{
			"inputs": [
				{
					"internalType": "uint256",
					"name": "_tokenId",
					"type": "uint256"
				}
			],
			"name": "depositToRepo",
			"outputs": [],
			"stateMutability": "payable",
			"type": "function"
		},
		{
			"inputs": [],
			"name": "getAllRepos",
			"outputs": [
				{
					"internalType": "string[]",
					"name": "folderCIDs",
					"type": "string[]"
				},
				{
					"internalType": "uint256[]",
					"name": "tokens",
					"type": "uint256[]"
				},
				{
					"internalType": "address[]",
					"name": "owners",
					"type": "address[]"
				},
				{
					"internalType": "string[]",
					"name": "names",
					"type": "string[]"
				}
			],
			"stateMutability": "view",
			"type": "function"
		},
		{
			"inputs": [],
			"name": "getAllReposByOwner",
			"outputs": [
				{
					"internalType": "string[]",
					"name": "folderCIDs",
					"type": "string[]"
				},
				{
					"internalType": "uint256[]",
					"name": "tokens",
					"type": "uint256[]"
				},
				{
					"internalType": "string[]",
					"name": "name",
					"type": "string[]"
				}
			],
			"stateMutability": "view",
			"type": "function"
		},
		{
			"inputs": [
				{
					"internalType": "uint256",
					"name": "tokenId",
					"type": "uint256"
				}
			],
			"name": "getApproved",
			"outputs": [
				{
					"internalType": "address",
					"name": "",
					"type": "address"
				}
			],
			"stateMutability": "view",
			"type": "function"
		},
		{
			"inputs": [
				{
					"internalType": "uint256",
					"name": "_tokenId",
					"type": "uint256"
				}
			],
			"name": "getBalance",
			"outputs": [
				{
					"internalType": "uint256",
					"name": "",
					"type": "uint256"
				}
			],
			"stateMutability": "view",
			"type": "function"
		},
		{
			"inputs": [
				{
					"internalType": "address",
					"name": "user",
					"type": "address"
				}
			],
			"name": "getUserBadges",
			"outputs": [
				{
					"internalType": "uint256[]",
					"name": "",
					"type": "uint256[]"
				},
				{
					"internalType": "string[]",
					"name": "",
					"type": "string[]"
				},
				{
					"internalType": "uint256[]",
					"name": "",
					"type": "uint256[]"
				}
			],
			"stateMutability": "view",
			"type": "function"
		},
		{
			"inputs": [
				{
					"internalType": "address",
					"name": "",
					"type": "address"
				}
			],
			"name": "hasFirstApprovedCommit",
			"outputs": [
				{
					"internalType": "bool",
					"name": "",
					"type": "bool"
				}
			],
			"stateMutability": "view",
			"type": "function"
		},
		{
			"inputs": [
				{
					"internalType": "address",
					"name": "",
					"type": "address"
				}
			],
			"name": "hasFirstCommit",
			"outputs": [
				{
					"internalType": "bool",
					"name": "",
					"type": "bool"
				}
			],
			"stateMutability": "view",
			"type": "function"
		},
		{
			"inputs": [
				{
					"internalType": "address",
					"name": "",
					"type": "address"
				}
			],
			"name": "hasFirstRepo",
			"outputs": [
				{
					"internalType": "bool",
					"name": "",
					"type": "bool"
				}
			],
			"stateMutability": "view",
			"type": "function"
		},
		{
			"inputs": [
				{
					"internalType": "address",
					"name": "owner",
					"type": "address"
				},
				{
					"internalType": "address",
					"name": "operator",
					"type": "address"
				}
			],
			"name": "isApprovedForAll",
			"outputs": [
				{
					"internalType": "bool",
					"name": "",
					"type": "bool"
				}
			],
			"stateMutability": "view",
			"type": "function"
		},
		{
			"inputs": [],
			"name": "name",
			"outputs": [
				{
					"internalType": "string",
					"name": "",
					"type": "string"
				}
			],
			"stateMutability": "view",
			"type": "function"
		},
		{
			"inputs": [
				{
					"internalType": "uint256",
					"name": "tokenId",
					"type": "uint256"
				}
			],
			"name": "ownerOf",
			"outputs": [
				{
					"internalType": "address",
					"name": "",
					"type": "address"
				}
			],
			"stateMutability": "view",
			"type": "function"
		},
		{
			"inputs": [
				{
					"internalType": "uint256",
					"name": "_tokenId",
					"type": "uint256"
				},
				{
					"internalType": "string",
					"name": "message",
					"type": "string"
				},
				{
					"internalType": "string",
					"name": "commitCID",
					"type": "string"
				}
			],
			"name": "processNewCommit",
			"outputs": [],
			"stateMutability": "nonpayable",
			"type": "function"
		},
		{
			"inputs": [
				{
					"internalType": "uint256",
					"name": "_tokenId",
					"type": "uint256"
				},
				{
					"internalType": "uint256",
					"name": "commitIndex",
					"type": "uint256"
				}
			],
			"name": "rejectCommit",
			"outputs": [],
			"stateMutability": "nonpayable",
			"type": "function"
		},
		{
			"inputs": [
				{
					"internalType": "uint256",
					"name": "",
					"type": "uint256"
				}
			],
			"name": "repositories",
			"outputs": [
				{
					"internalType": "contract Repository",
					"name": "",
					"type": "address"
				}
			],
			"stateMutability": "view",
			"type": "function"
		},
		{
			"inputs": [
				{
					"internalType": "uint256",
					"name": "_tokenId",
					"type": "uint256"
				}
			],
			"name": "retrieveCommits",
			"outputs": [
				{
					"internalType": "string[]",
					"name": "messages",
					"type": "string[]"
				},
				{
					"internalType": "uint256[]",
					"name": "timestamps",
					"type": "uint256[]"
				},
				{
					"internalType": "address[]",
					"name": "committers",
					"type": "address[]"
				},
				{
					"internalType": "uint256[]",
					"name": "status",
					"type": "uint256[]"
				}
			],
			"stateMutability": "view",
			"type": "function"
		},
		{
			"inputs": [
				{
					"internalType": "address",
					"name": "from",
					"type": "address"
				},
				{
					"internalType": "address",
					"name": "to",
					"type": "address"
				},
				{
					"internalType": "uint256",
					"name": "tokenId",
					"type": "uint256"
				}
			],
			"name": "safeTransferFrom",
			"outputs": [],
			"stateMutability": "nonpayable",
			"type": "function"
		},
		{
			"inputs": [
				{
					"internalType": "address",
					"name": "from",
					"type": "address"
				},
				{
					"internalType": "address",
					"name": "to",
					"type": "address"
				},
				{
					"internalType": "uint256",
					"name": "tokenId",
					"type": "uint256"
				},
				{
					"internalType": "bytes",
					"name": "data",
					"type": "bytes"
				}
			],
			"name": "safeTransferFrom",
			"outputs": [],
			"stateMutability": "nonpayable",
			"type": "function"
		},
		{
			"inputs": [
				{
					"internalType": "address",
					"name": "operator",
					"type": "address"
				},
				{
					"internalType": "bool",
					"name": "approved",
					"type": "bool"
				}
			],
			"name": "setApprovalForAll",
			"outputs": [],
			"stateMutability": "nonpayable",
			"type": "function"
		},
		{
			"inputs": [
				{
					"internalType": "address",
					"name": "_badgeContract",
					"type": "address"
				}
			],
			"name": "setBadgeContract",
			"outputs": [],
			"stateMutability": "nonpayable",
			"type": "function"
		},
		{
			"inputs": [
				{
					"internalType": "bytes4",
					"name": "interfaceId",
					"type": "bytes4"
				}
			],
			"name": "supportsInterface",
			"outputs": [
				{
					"internalType": "bool",
					"name": "",
					"type": "bool"
				}
			],
			"stateMutability": "view",
			"type": "function"
		},
		{
			"inputs": [],
			"name": "symbol",
			"outputs": [
				{
					"internalType": "string",
					"name": "",
					"type": "string"
				}
			],
			"stateMutability": "view",
			"type": "function"
		},
		{
			"inputs": [
				{
					"internalType": "uint256",
					"name": "index",
					"type": "uint256"
				}
			],
			"name": "tokenByIndex",
			"outputs": [
				{
					"internalType": "uint256",
					"name": "",
					"type": "uint256"
				}
			],
			"stateMutability": "view",
			"type": "function"
		},
		{
			"inputs": [
				{
					"internalType": "address",
					"name": "owner",
					"type": "address"
				},
				{
					"internalType": "uint256",
					"name": "index",
					"type": "uint256"
				}
			],
			"name": "tokenOfOwnerByIndex",
			"outputs": [
				{
					"internalType": "uint256",
					"name": "",
					"type": "uint256"
				}
			],
			"stateMutability": "view",
			"type": "function"
		},
		{
			"inputs": [
				{
					"internalType": "uint256",
					"name": "tokenId",
					"type": "uint256"
				}
			],
			"name": "tokenURI",
			"outputs": [
				{
					"internalType": "string",
					"name": "",
					"type": "string"
				}
			],
			"stateMutability": "view",
			"type": "function"
		},
		{
			"inputs": [],
			"name": "totalSupply",
			"outputs": [
				{
					"internalType": "uint256",
					"name": "",
					"type": "uint256"
				}
			],
			"stateMutability": "view",
			"type": "function"
		},
		{
			"inputs": [
				{
					"internalType": "address",
					"name": "from",
					"type": "address"
				},
				{
					"internalType": "address",
					"name": "to",
					"type": "address"
				},
				{
					"internalType": "uint256",
					"name": "tokenId",
					"type": "uint256"
				}
			],
			"name": "transferFrom",
			"outputs": [],
			"stateMutability": "nonpayable",
			"type": "function"
		},
		{
			"inputs": [
				{
					"internalType": "address",
					"name": "",
					"type": "address"
				}
			],
			"name": "userApprovalCount",
			"outputs": [
				{
					"internalType": "uint256",
					"name": "",
					"type": "uint256"
				}
			],
			"stateMutability": "view",
			"type": "function"
		},
		{
			"inputs": [
				{
					"internalType": "address",
					"name": "",
					"type": "address"
				}
			],
			"name": "userApprovedCommits",
			"outputs": [
				{
					"internalType": "uint256",
					"name": "",
					"type": "uint256"
				}
			],
			"stateMutability": "view",
			"type": "function"
		},
		{
			"inputs": [
				{
					"internalType": "address",
					"name": "",
					"type": "address"
				}
			],
			"name": "userCommitCount",
			"outputs": [
				{
					"internalType": "uint256",
					"name": "",
					"type": "uint256"
				}
			],
			"stateMutability": "view",
			"type": "function"
		}
	]
}