{
	"data": {
		"bytecode": {
			"linkReferences": {},
			"object": "608060405234801561000f575f5ffd5b5060405161190638038061190683398101604081905261002e91610170565b6040518060400160405280600d81526020016c14995c1bdcda5d1bdc9e539195609a1b815250604051806040016040528060048152602001635245504f60e01b815250815f908161007f9190610279565b50600161008c8282610279565b506006915061009d90508482610279565b5060076100aa8382610279565b50600880546001600160a01b0319166001600160a01b0392909216919091179055506103339050565b634e487b7160e01b5f52604160045260245ffd5b5f82601f8301126100f6575f5ffd5b81516001600160401b0381111561010f5761010f6100d3565b604051601f8201601f19908116603f011681016001600160401b038111828210171561013d5761013d6100d3565b604052818152838201602001851015610154575f5ffd5b8160208501602083015e5f918101602001919091529392505050565b5f5f5f60608486031215610182575f5ffd5b83516001600160401b03811115610197575f5ffd5b6101a3868287016100e7565b602086015190945090506001600160401b038111156101c0575f5ffd5b6101cc868287016100e7565b604086015190935090506001600160a01b03811681146101ea575f5ffd5b809150509250925092565b600181811c9082168061020957607f821691505b60208210810361022757634e487b7160e01b5f52602260045260245ffd5b50919050565b601f82111561027457805f5260205f20601f840160051c810160208510156102525750805b601f840160051c820191505b81811015610271575f815560010161025e565b50505b505050565b81516001600160401b03811115610292576102926100d3565b6102a6816102a084546101f5565b8461022d565b6020601f8211600181146102d8575f83156102c15750848201515b5f19600385901b1c1916600184901b178455610271565b5f84815260208120601f198516915b8281101561030757878501518255602094850194600190920191016102e7565b508482101561032457868401515f19600387901b60f8161c191681555b50505050600190811b01905550565b6115c6806103405f395ff3fe608060405234801561000f575f5ffd5b5060043610610111575f3560e01c806370a082311161009e578063b88d4fde1161006e578063b88d4fde14610239578063ba333d0b1461024c578063c87b56dd1461025f578063d4493e8d14610272578063e985e9c514610283575f5ffd5b806370a08231146101e657806395d89b4114610207578063a17027e11461020f578063a22cb46514610226575f5ffd5b806323b872dd116100e457806323b872dd1461019257806342842e0e146101a557806350b7b521146101b857806350d6c81f146101c05780636352211e146101d3575f5ffd5b806301ffc9a71461011557806306fdde031461013d578063081812fc14610152578063095ea7b31461017d575b5f5ffd5b610128610123366004610f46565b610296565b60405190151581526020015b60405180910390f35b6101456102e7565b6040516101349190610f8f565b610165610160366004610fa1565b610376565b6040516001600160a01b039091168152602001610134565b61019061018b366004610fd3565b61039d565b005b6101906101a0366004610ffb565b6103ac565b6101906101b3366004610ffb565b61043a565b610145610459565b6101906101ce366004611035565b610468565b6101656101e1366004610fa1565b610519565b6101f96101f43660046110a7565b610523565b604051908152602001610134565b610145610568565b610217610577565b60405161013493929190611103565b6101906102343660046111b7565b61079c565b61019061024736600461127b565b6107a7565b61019061025a3660046112f2565b6107bf565b61014561026d366004610fa1565b610860565b6008546001600160a01b0316610165565b610128610291366004611350565b6108d1565b5f6001600160e01b031982166380ac58cd60e01b14806102c657506001600160e01b03198216635b5e139f60e01b145b806102e157506301ffc9a760e01b6001600160e01b03198316145b92915050565b60605f80546102f590611378565b80601f016020809104026020016040519081016040528092919081815260200182805461032190611378565b801561036c5780601f106103435761010080835404028352916020019161036c565b820191905f5260205f20905b81548152906001019060200180831161034f57829003601f168201915b5050505050905090565b5f610380826108fe565b505f828152600460205260409020546001600160a01b03166102e1565b6103a8828233610936565b5050565b6001600160a01b0382166103da57604051633250574960e11b81525f60048201526024015b60405180910390fd5b5f6103e6838333610943565b9050836001600160a01b0316816001600160a01b031614610434576040516364283d7b60e01b81526001600160a01b03808616600483015260248201849052821660448201526064016103d1565b50505050565b61045483838360405180602001604052805f8152506107a7565b505050565b6060600780546102f590611378565b336104736001610519565b6001600160a01b0316146104c95760405162461bcd60e51b815260206004820181905260248201527f4e6f206572657320656c206475656e6f2064656c207265706f7369746f72696f60448201526064016103d1565b6008546040517f467c526b6c041077d779b5ad5cc51bc5b90a7976356d77aa417c789403b6cf599161050c918691869133916001600160a01b03169087906113b0565b60405180910390a1505050565b5f6102e1826108fe565b5f6001600160a01b03821661054d576040516322718ad960e21b81525f60048201526024016103d1565b506001600160a01b03165f9081526003602052604090205490565b6060600180546102f590611378565b600954606090819081908067ffffffffffffffff81111561059a5761059a6111f0565b6040519080825280602002602001820160405280156105cd57816020015b60608152602001906001900390816105b85790505b5093508067ffffffffffffffff8111156105e9576105e96111f0565b604051908082528060200260200182016040528015610612578160200160208202803683370190505b5092508067ffffffffffffffff81111561062e5761062e6111f0565b604051908082528060200260200182016040528015610657578160200160208202803683370190505b5091505f5b81811015610795575f60098281548110610678576106786113fb565b905f5260205f2090600302019050805f01805461069490611378565b80601f01602080910402602001604051908101604052809291908181526020018280546106c090611378565b801561070b5780601f106106e25761010080835404028352916020019161070b565b820191905f5260205f20905b8154815290600101906020018083116106ee57829003601f168201915b5050505050868381518110610722576107226113fb565b60200260200101819052508060010154858381518110610744576107446113fb565b6020908102919091010152600281015484516001600160a01b0390911690859084908110610774576107746113fb565b6001600160a01b03909216602092830291909101909101525060010161065c565b5050909192565b6103a8338383610a35565b6107b28484846103ac565b6104343385858585610ad3565b604080516060810182528381524260208201526001600160a01b03831691810191909152600980546001810182555f91909152815182916003027f6e1540171b6c0c960b71a7020d9f60077f6af931a8bbf590da0223dacf75c7af019081906108289082611453565b5060208201516001820155604090910151600290910180546001600160a01b0319166001600160a01b03909216919091179055505050565b606061086b826108fe565b505f61088160408051602081019091525f815290565b90505f81511161089f5760405180602001604052805f8152506108ca565b806108a984610bfb565b6040516020016108ba929190611525565b6040516020818303038152906040525b9392505050565b6001600160a01b039182165f90815260056020908152604080832093909416825291909152205460ff1690565b5f818152600260205260408120546001600160a01b0316806102e157604051637e27328960e01b8152600481018490526024016103d1565b6104548383836001610c8b565b5f828152600260205260408120546001600160a01b039081169083161561096f5761096f818486610d8f565b6001600160a01b038116156109a95761098a5f855f5f610c8b565b6001600160a01b0381165f90815260036020526040902080545f190190555b6001600160a01b038516156109d7576001600160a01b0385165f908152600360205260409020805460010190555b5f8481526002602052604080822080546001600160a01b0319166001600160a01b0389811691821790925591518793918516917fddf252ad1be2c89b69c2b068fc378daa952ba7f163c4a11628f55a4df523b3ef91a4949350505050565b6001600160a01b038216610a6757604051630b61174360e31b81526001600160a01b03831660048201526024016103d1565b6001600160a01b038381165f81815260056020908152604080832094871680845294825291829020805460ff191686151590811790915591519182527f17307eab39ab6107e8899845ad3d59bd9653f200f220920489ca2b5937696c31910160405180910390a3505050565b6001600160a01b0383163b15610bf457604051630a85bd0160e11b81526001600160a01b0384169063150b7a0290610b15908890889087908790600401611539565b6020604051808303815f875af1925050508015610b4f575060408051601f3d908101601f19168201909252610b4c91810190611575565b60015b610bb6573d808015610b7c576040519150601f19603f3d011682016040523d82523d5f602084013e610b81565b606091505b5080515f03610bae57604051633250574960e11b81526001600160a01b03851660048201526024016103d1565b805160208201fd5b6001600160e01b03198116630a85bd0160e11b14610bf257604051633250574960e11b81526001600160a01b03851660048201526024016103d1565b505b5050505050565b60605f610c0783610df3565b60010190505f8167ffffffffffffffff811115610c2657610c266111f0565b6040519080825280601f01601f191660200182016040528015610c50576020820181803683370190505b5090508181016020015b5f19016f181899199a1a9b1b9c1cb0b131b232b360811b600a86061a8153600a8504945084610c5a57509392505050565b8080610c9f57506001600160a01b03821615155b15610d60575f610cae846108fe565b90506001600160a01b03831615801590610cda5750826001600160a01b0316816001600160a01b031614155b8015610ced5750610ceb81846108d1565b155b15610d165760405163a9fbf51f60e01b81526001600160a01b03841660048201526024016103d1565b8115610d5e5783856001600160a01b0316826001600160a01b03167f8c5be1e5ebec7d5bd14f71427d1e84f3dd0314c0f7b2291e5b200ac8c7c3b92560405160405180910390a45b505b50505f90815260046020526040902080546001600160a01b0319166001600160a01b0392909216919091179055565b610d9a838383610eca565b610454576001600160a01b038316610dc857604051637e27328960e01b8152600481018290526024016103d1565b60405163177e802f60e01b81526001600160a01b0383166004820152602481018290526044016103d1565b5f8072184f03e93ff9f4daa797ed6e38ed64bf6a1f0160401b8310610e315772184f03e93ff9f4daa797ed6e38ed64bf6a1f0160401b830492506040015b6d04ee2d6d415b85acef81000000008310610e5d576d04ee2d6d415b85acef8100000000830492506020015b662386f26fc100008310610e7b57662386f26fc10000830492506010015b6305f5e1008310610e93576305f5e100830492506008015b6127108310610ea757612710830492506004015b60648310610eb9576064830492506002015b600a83106102e15760010192915050565b5f6001600160a01b03831615801590610f265750826001600160a01b0316846001600160a01b03161480610f035750610f0384846108d1565b80610f2657505f828152600460205260409020546001600160a01b038481169116145b949350505050565b6001600160e01b031981168114610f43575f5ffd5b50565b5f60208284031215610f56575f5ffd5b81356108ca81610f2e565b5f81518084528060208401602086015e5f602082860101526020601f19601f83011685010191505092915050565b602081525f6108ca6020830184610f61565b5f60208284031215610fb1575f5ffd5b5035919050565b80356001600160a01b0381168114610fce575f5ffd5b919050565b5f5f60408385031215610fe4575f5ffd5b610fed83610fb8565b946020939093013593505050565b5f5f5f6060848603121561100d575f5ffd5b61101684610fb8565b925061102460208501610fb8565b929592945050506040919091013590565b5f5f5f60408486031215611047575f5ffd5b833567ffffffffffffffff81111561105d575f5ffd5b8401601f8101861361106d575f5ffd5b803567ffffffffffffffff811115611083575f5ffd5b866020828401011115611094575f5ffd5b6020918201979096509401359392505050565b5f602082840312156110b7575f5ffd5b6108ca82610fb8565b5f8151808452602084019350602083015f5b828110156110f95781516001600160a01b03168652602095860195909101906001016110d2565b5093949350505050565b5f606082016060835280865180835260808501915060808160051b8601019250602088015f5b8281101561115a57607f19878603018452611145858351610f61565b94506020938401939190910190600101611129565b5050505082810360208401528085518083526020830191506020870192505f5b8181101561119857835183526020938401939092019160010161117a565b505083810360408501526111ac81866110c0565b979650505050505050565b5f5f604083850312156111c8575f5ffd5b6111d183610fb8565b9150602083013580151581146111e5575f5ffd5b809150509250929050565b634e487b7160e01b5f52604160045260245ffd5b5f5f67ffffffffffffffff84111561121e5761121e6111f0565b50604051601f19601f85018116603f0116810181811067ffffffffffffffff8211171561124d5761124d6111f0565b604052838152905080828401851015611264575f5ffd5b838360208301375f60208583010152509392505050565b5f5f5f5f6080858703121561128e575f5ffd5b61129785610fb8565b93506112a560208601610fb8565b925060408501359150606085013567ffffffffffffffff8111156112c7575f5ffd5b8501601f810187136112d7575f5ffd5b6112e687823560208401611204565b91505092959194509250565b5f5f60408385031215611303575f5ffd5b823567ffffffffffffffff811115611319575f5ffd5b8301601f81018513611329575f5ffd5b61133885823560208401611204565b92505061134760208401610fb8565b90509250929050565b5f5f60408385031215611361575f5ffd5b61136a83610fb8565b915061134760208401610fb8565b600181811c9082168061138c57607f821691505b6020821081036113aa57634e487b7160e01b5f52602260045260245ffd5b50919050565b60808152846080820152848660a08301375f60a08683018101919091526001600160a01b0394851660208301529290931660408401526060830152601f909201601f19160101919050565b634e487b7160e01b5f52603260045260245ffd5b601f82111561045457805f5260205f20601f840160051c810160208510156114345750805b601f840160051c820191505b81811015610bf4575f8155600101611440565b815167ffffffffffffffff81111561146d5761146d6111f0565b6114818161147b8454611378565b8461140f565b6020601f8211600181146114b3575f831561149c5750848201515b5f19600385901b1c1916600184901b178455610bf4565b5f84815260208120601f198516915b828110156114e257878501518255602094850194600190920191016114c2565b50848210156114ff57868401515f19600387901b60f8161c191681555b50505050600190811b01905550565b5f81518060208401855e5f93019283525090919050565b5f610f26611533838661150e565b8461150e565b6001600160a01b03858116825284166020820152604081018390526080606082018190525f9061156b90830184610f61565b9695505050505050565b5f60208284031215611585575f5ffd5b81516108ca81610f2e56fea26469706673582212208f95b63c7f2929d615100b7a7d6f86941eceff7d50ff1371a96fa751cdf11eed64736f6c634300081e0033",
			"opcodes": "PUSH1 0x80 PUSH1 0x40 MSTORE CALLVALUE DUP1 ISZERO PUSH2 0xF JUMPI PUSH0 PUSH0 REVERT JUMPDEST POP PUSH1 0x40 MLOAD PUSH2 0x1906 CODESIZE SUB DUP1 PUSH2 0x1906 DUP4 CODECOPY DUP2 ADD PUSH1 0x40 DUP2 SWAP1 MSTORE PUSH2 0x2E SWAP2 PUSH2 0x170 JUMP JUMPDEST PUSH1 0x40 MLOAD DUP1 PUSH1 0x40 ADD PUSH1 0x40 MSTORE DUP1 PUSH1 0xD DUP2 MSTORE PUSH1 0x20 ADD PUSH13 0x14995C1BDCDA5D1BDC9E539195 PUSH1 0x9A SHL DUP2 MSTORE POP PUSH1 0x40 MLOAD DUP1 PUSH1 0x40 ADD PUSH1 0x40 MSTORE DUP1 PUSH1 0x4 DUP2 MSTORE PUSH1 0x20 ADD PUSH4 0x5245504F PUSH1 0xE0 SHL DUP2 MSTORE POP DUP2 PUSH0 SWAP1 DUP2 PUSH2 0x7F SWAP2 SWAP1 PUSH2 0x279 JUMP JUMPDEST POP PUSH1 0x1 PUSH2 0x8C DUP3 DUP3 PUSH2 0x279 JUMP JUMPDEST POP PUSH1 0x6 SWAP2 POP PUSH2 0x9D SWAP1 POP DUP5 DUP3 PUSH2 0x279 JUMP JUMPDEST POP PUSH1 0x7 PUSH2 0xAA DUP4 DUP3 PUSH2 0x279 JUMP JUMPDEST POP PUSH1 0x8 DUP1 SLOAD PUSH1 0x1 PUSH1 0x1 PUSH1 0xA0 SHL SUB NOT AND PUSH1 0x1 PUSH1 0x1 PUSH1 0xA0 SHL SUB SWAP3 SWAP1 SWAP3 AND SWAP2 SWAP1 SWAP2 OR SWAP1 SSTORE POP PUSH2 0x333 SWAP1 POP JUMP JUMPDEST PUSH4 0x4E487B71 PUSH1 0xE0 SHL PUSH0 MSTORE PUSH1 0x41 PUSH1 0x4 MSTORE PUSH1 0x24 PUSH0 REVERT JUMPDEST PUSH0 DUP3 PUSH1 0x1F DUP4 ADD SLT PUSH2 0xF6 JUMPI PUSH0 PUSH0 REVERT JUMPDEST DUP2 MLOAD PUSH1 0x1 PUSH1 0x1 PUSH1 0x40 SHL SUB DUP2 GT ISZERO PUSH2 0x10F JUMPI PUSH2 0x10F PUSH2 0xD3 JUMP JUMPDEST PUSH1 0x40 MLOAD PUSH1 0x1F DUP3 ADD PUSH1 0x1F NOT SWAP1 DUP2 AND PUSH1 0x3F ADD AND DUP2 ADD PUSH1 0x1 PUSH1 0x1 PUSH1 0x40 SHL SUB DUP2 GT DUP3 DUP3 LT OR ISZERO PUSH2 0x13D JUMPI PUSH2 0x13D PUSH2 0xD3 JUMP JUMPDEST PUSH1 0x40 MSTORE DUP2 DUP2 MSTORE DUP4 DUP3 ADD PUSH1 0x20 ADD DUP6 LT ISZERO PUSH2 0x154 JUMPI PUSH0 PUSH0 REVERT JUMPDEST DUP2 PUSH1 0x20 DUP6 ADD PUSH1 0x20 DUP4 ADD MCOPY PUSH0 SWAP2 DUP2 ADD PUSH1 0x20 ADD SWAP2 SWAP1 SWAP2 MSTORE SWAP4 SWAP3 POP POP POP JUMP JUMPDEST PUSH0 PUSH0 PUSH0 PUSH1 0x60 DUP5 DUP7 SUB SLT ISZERO PUSH2 0x182 JUMPI PUSH0 PUSH0 REVERT JUMPDEST DUP4 MLOAD PUSH1 0x1 PUSH1 0x1 PUSH1 0x40 SHL SUB DUP2 GT ISZERO PUSH2 0x197 JUMPI PUSH0 PUSH0 REVERT JUMPDEST PUSH2 0x1A3 DUP7 DUP3 DUP8 ADD PUSH2 0xE7 JUMP JUMPDEST PUSH1 0x20 DUP7 ADD MLOAD SWAP1 SWAP5 POP SWAP1 POP PUSH1 0x1 PUSH1 0x1 PUSH1 0x40 SHL SUB DUP2 GT ISZERO PUSH2 0x1C0 JUMPI PUSH0 PUSH0 REVERT JUMPDEST PUSH2 0x1CC DUP7 DUP3 DUP8 ADD PUSH2 0xE7 JUMP JUMPDEST PUSH1 0x40 DUP7 ADD MLOAD SWAP1 SWAP4 POP SWAP1 POP PUSH1 0x1 PUSH1 0x1 PUSH1 0xA0 SHL SUB DUP2 AND DUP2 EQ PUSH2 0x1EA JUMPI PUSH0 PUSH0 REVERT JUMPDEST DUP1 SWAP2 POP POP SWAP3 POP SWAP3 POP SWAP3 JUMP JUMPDEST PUSH1 0x1 DUP2 DUP2 SHR SWAP1 DUP3 AND DUP1 PUSH2 0x209 JUMPI PUSH1 0x7F DUP3 AND SWAP2 POP JUMPDEST PUSH1 0x20 DUP3 LT DUP2 SUB PUSH2 0x227 JUMPI PUSH4 0x4E487B71 PUSH1 0xE0 SHL PUSH0 MSTORE PUSH1 0x22 PUSH1 0x4 MSTORE PUSH1 0x24 PUSH0 REVERT JUMPDEST POP SWAP2 SWAP1 POP JUMP JUMPDEST PUSH1 0x1F DUP3 GT ISZERO PUSH2 0x274 JUMPI DUP1 PUSH0 MSTORE PUSH1 0x20 PUSH0 KECCAK256 PUSH1 0x1F DUP5 ADD PUSH1 0x5 SHR DUP2 ADD PUSH1 0x20 DUP6 LT ISZERO PUSH2 0x252 JUMPI POP DUP1 JUMPDEST PUSH1 0x1F DUP5 ADD PUSH1 0x5 SHR DUP3 ADD SWAP2 POP JUMPDEST DUP2 DUP2 LT ISZERO PUSH2 0x271 JUMPI PUSH0 DUP2 SSTORE PUSH1 0x1 ADD PUSH2 0x25E JUMP JUMPDEST POP POP JUMPDEST POP POP POP JUMP JUMPDEST DUP2 MLOAD PUSH1 0x1 PUSH1 0x1 PUSH1 0x40 SHL SUB DUP2 GT ISZERO PUSH2 0x292 JUMPI PUSH2 0x292 PUSH2 0xD3 JUMP JUMPDEST PUSH2 0x2A6 DUP2 PUSH2 0x2A0 DUP5 SLOAD PUSH2 0x1F5 JUMP JUMPDEST DUP5 PUSH2 0x22D JUMP JUMPDEST PUSH1 0x20 PUSH1 0x1F DUP3 GT PUSH1 0x1 DUP2 EQ PUSH2 0x2D8 JUMPI PUSH0 DUP4 ISZERO PUSH2 0x2C1 JUMPI POP DUP5 DUP3 ADD MLOAD JUMPDEST PUSH0 NOT PUSH1 0x3 DUP6 SWAP1 SHL SHR NOT AND PUSH1 0x1 DUP5 SWAP1 SHL OR DUP5 SSTORE PUSH2 0x271 JUMP JUMPDEST PUSH0 DUP5 DUP2 MSTORE PUSH1 0x20 DUP2 KECCAK256 PUSH1 0x1F NOT DUP6 AND SWAP2 JUMPDEST DUP3 DUP2 LT ISZERO PUSH2 0x307 JUMPI DUP8 DUP6 ADD MLOAD DUP3 SSTORE PUSH1 0x20 SWAP5 DUP6 ADD SWAP5 PUSH1 0x1 SWAP1 SWAP3 ADD SWAP2 ADD PUSH2 0x2E7 JUMP JUMPDEST POP DUP5 DUP3 LT ISZERO PUSH2 0x324 JUMPI DUP7 DUP5 ADD MLOAD PUSH0 NOT PUSH1 0x3 DUP8 SWAP1 SHL PUSH1 0xF8 AND SHR NOT AND DUP2 SSTORE JUMPDEST POP POP POP POP PUSH1 0x1 SWAP1 DUP2 SHL ADD SWAP1 SSTORE POP JUMP JUMPDEST PUSH2 0x15C6 DUP1 PUSH2 0x340 PUSH0 CODECOPY PUSH0 RETURN INVALID PUSH1 0x80 PUSH1 0x40 MSTORE CALLVALUE DUP1 ISZERO PUSH2 0xF JUMPI PUSH0 PUSH0 REVERT JUMPDEST POP PUSH1 0x4 CALLDATASIZE LT PUSH2 0x111 JUMPI PUSH0 CALLDATALOAD PUSH1 0xE0 SHR DUP1 PUSH4 0x70A08231 GT PUSH2 0x9E JUMPI DUP1 PUSH4 0xB88D4FDE GT PUSH2 0x6E JUMPI DUP1 PUSH4 0xB88D4FDE EQ PUSH2 0x239 JUMPI DUP1 PUSH4 0xBA333D0B EQ PUSH2 0x24C JUMPI DUP1 PUSH4 0xC87B56DD EQ PUSH2 0x25F JUMPI DUP1 PUSH4 0xD4493E8D EQ PUSH2 0x272 JUMPI DUP1 PUSH4 0xE985E9C5 EQ PUSH2 0x283 JUMPI PUSH0 PUSH0 REVERT JUMPDEST DUP1 PUSH4 0x70A08231 EQ PUSH2 0x1E6 JUMPI DUP1 PUSH4 0x95D89B41 EQ PUSH2 0x207 JUMPI DUP1 PUSH4 0xA17027E1 EQ PUSH2 0x20F JUMPI DUP1 PUSH4 0xA22CB465 EQ PUSH2 0x226 JUMPI PUSH0 PUSH0 REVERT JUMPDEST DUP1 PUSH4 0x23B872DD GT PUSH2 0xE4 JUMPI DUP1 PUSH4 0x23B872DD EQ PUSH2 0x192 JUMPI DUP1 PUSH4 0x42842E0E EQ PUSH2 0x1A5 JUMPI DUP1 PUSH4 0x50B7B521 EQ PUSH2 0x1B8 JUMPI DUP1 PUSH4 0x50D6C81F EQ PUSH2 0x1C0 JUMPI DUP1 PUSH4 0x6352211E EQ PUSH2 0x1D3 JUMPI PUSH0 PUSH0 REVERT JUMPDEST DUP1 PUSH4 0x1FFC9A7 EQ PUSH2 0x115 JUMPI DUP1 PUSH4 0x6FDDE03 EQ PUSH2 0x13D JUMPI DUP1 PUSH4 0x81812FC EQ PUSH2 0x152 JUMPI DUP1 PUSH4 0x95EA7B3 EQ PUSH2 0x17D JUMPI JUMPDEST PUSH0 PUSH0 REVERT JUMPDEST PUSH2 0x128 PUSH2 0x123 CALLDATASIZE PUSH1 0x4 PUSH2 0xF46 JUMP JUMPDEST PUSH2 0x296 JUMP JUMPDEST PUSH1 0x40 MLOAD SWAP1 ISZERO ISZERO DUP2 MSTORE PUSH1 0x20 ADD JUMPDEST PUSH1 0x40 MLOAD DUP1 SWAP2 SUB SWAP1 RETURN JUMPDEST PUSH2 0x145 PUSH2 0x2E7 JUMP JUMPDEST PUSH1 0x40 MLOAD PUSH2 0x134 SWAP2 SWAP1 PUSH2 0xF8F JUMP JUMPDEST PUSH2 0x165 PUSH2 0x160 CALLDATASIZE PUSH1 0x4 PUSH2 0xFA1 JUMP JUMPDEST PUSH2 0x376 JUMP JUMPDEST PUSH1 0x40 MLOAD PUSH1 0x1 PUSH1 0x1 PUSH1 0xA0 SHL SUB SWAP1 SWAP2 AND DUP2 MSTORE PUSH1 0x20 ADD PUSH2 0x134 JUMP JUMPDEST PUSH2 0x190 PUSH2 0x18B CALLDATASIZE PUSH1 0x4 PUSH2 0xFD3 JUMP JUMPDEST PUSH2 0x39D JUMP JUMPDEST STOP JUMPDEST PUSH2 0x190 PUSH2 0x1A0 CALLDATASIZE PUSH1 0x4 PUSH2 0xFFB JUMP JUMPDEST PUSH2 0x3AC JUMP JUMPDEST PUSH2 0x190 PUSH2 0x1B3 CALLDATASIZE PUSH1 0x4 PUSH2 0xFFB JUMP JUMPDEST PUSH2 0x43A JUMP JUMPDEST PUSH2 0x145 PUSH2 0x459 JUMP JUMPDEST PUSH2 0x190 PUSH2 0x1CE CALLDATASIZE PUSH1 0x4 PUSH2 0x1035 JUMP JUMPDEST PUSH2 0x468 JUMP JUMPDEST PUSH2 0x165 PUSH2 0x1E1 CALLDATASIZE PUSH1 0x4 PUSH2 0xFA1 JUMP JUMPDEST PUSH2 0x519 JUMP JUMPDEST PUSH2 0x1F9 PUSH2 0x1F4 CALLDATASIZE PUSH1 0x4 PUSH2 0x10A7 JUMP JUMPDEST PUSH2 0x523 JUMP JUMPDEST PUSH1 0x40 MLOAD SWAP1 DUP2 MSTORE PUSH1 0x20 ADD PUSH2 0x134 JUMP JUMPDEST PUSH2 0x145 PUSH2 0x568 JUMP JUMPDEST PUSH2 0x217 PUSH2 0x577 JUMP JUMPDEST PUSH1 0x40 MLOAD PUSH2 0x134 SWAP4 SWAP3 SWAP2 SWAP1 PUSH2 0x1103 JUMP JUMPDEST PUSH2 0x190 PUSH2 0x234 CALLDATASIZE PUSH1 0x4 PUSH2 0x11B7 JUMP JUMPDEST PUSH2 0x79C JUMP JUMPDEST PUSH2 0x190 PUSH2 0x247 CALLDATASIZE PUSH1 0x4 PUSH2 0x127B JUMP JUMPDEST PUSH2 0x7A7 JUMP JUMPDEST PUSH2 0x190 PUSH2 0x25A CALLDATASIZE PUSH1 0x4 PUSH2 0x12F2 JUMP JUMPDEST PUSH2 0x7BF JUMP JUMPDEST PUSH2 0x145 PUSH2 0x26D CALLDATASIZE PUSH1 0x4 PUSH2 0xFA1 JUMP JUMPDEST PUSH2 0x860 JUMP JUMPDEST PUSH1 0x8 SLOAD PUSH1 0x1 PUSH1 0x1 PUSH1 0xA0 SHL SUB AND PUSH2 0x165 JUMP JUMPDEST PUSH2 0x128 PUSH2 0x291 CALLDATASIZE PUSH1 0x4 PUSH2 0x1350 JUMP JUMPDEST PUSH2 0x8D1 JUMP JUMPDEST PUSH0 PUSH1 0x1 PUSH1 0x1 PUSH1 0xE0 SHL SUB NOT DUP3 AND PUSH4 0x80AC58CD PUSH1 0xE0 SHL EQ DUP1 PUSH2 0x2C6 JUMPI POP PUSH1 0x1 PUSH1 0x1 PUSH1 0xE0 SHL SUB NOT DUP3 AND PUSH4 0x5B5E139F PUSH1 0xE0 SHL EQ JUMPDEST DUP1 PUSH2 0x2E1 JUMPI POP PUSH4 0x1FFC9A7 PUSH1 0xE0 SHL PUSH1 0x1 PUSH1 0x1 PUSH1 0xE0 SHL SUB NOT DUP4 AND EQ JUMPDEST SWAP3 SWAP2 POP POP JUMP JUMPDEST PUSH1 0x60 PUSH0 DUP1 SLOAD PUSH2 0x2F5 SWAP1 PUSH2 0x1378 JUMP JUMPDEST DUP1 PUSH1 0x1F ADD PUSH1 0x20 DUP1 SWAP2 DIV MUL PUSH1 0x20 ADD PUSH1 0x40 MLOAD SWAP1 DUP2 ADD PUSH1 0x40 MSTORE DUP1 SWAP3 SWAP2 SWAP1 DUP2 DUP2 MSTORE PUSH1 0x20 ADD DUP3 DUP1 SLOAD PUSH2 0x321 SWAP1 PUSH2 0x1378 JUMP JUMPDEST DUP1 ISZERO PUSH2 0x36C JUMPI DUP1 PUSH1 0x1F LT PUSH2 0x343 JUMPI PUSH2 0x100 DUP1 DUP4 SLOAD DIV MUL DUP4 MSTORE SWAP2 PUSH1 0x20 ADD SWAP2 PUSH2 0x36C JUMP JUMPDEST DUP3 ADD SWAP2 SWAP1 PUSH0 MSTORE PUSH1 0x20 PUSH0 KECCAK256 SWAP1 JUMPDEST DUP2 SLOAD DUP2 MSTORE SWAP1 PUSH1 0x1 ADD SWAP1 PUSH1 0x20 ADD DUP1 DUP4 GT PUSH2 0x34F JUMPI DUP3 SWAP1 SUB PUSH1 0x1F AND DUP3 ADD SWAP2 JUMPDEST POP POP POP POP POP SWAP1 POP SWAP1 JUMP JUMPDEST PUSH0 PUSH2 0x380 DUP3 PUSH2 0x8FE JUMP JUMPDEST POP PUSH0 DUP3 DUP2 MSTORE PUSH1 0x4 PUSH1 0x20 MSTORE PUSH1 0x40 SWAP1 KECCAK256 SLOAD PUSH1 0x1 PUSH1 0x1 PUSH1 0xA0 SHL SUB AND PUSH2 0x2E1 JUMP JUMPDEST PUSH2 0x3A8 DUP3 DUP3 CALLER PUSH2 0x936 JUMP JUMPDEST POP POP JUMP JUMPDEST PUSH1 0x1 PUSH1 0x1 PUSH1 0xA0 SHL SUB DUP3 AND PUSH2 0x3DA JUMPI PUSH1 0x40 MLOAD PUSH4 0x32505749 PUSH1 0xE1 SHL DUP2 MSTORE PUSH0 PUSH1 0x4 DUP3 ADD MSTORE PUSH1 0x24 ADD JUMPDEST PUSH1 0x40 MLOAD DUP1 SWAP2 SUB SWAP1 REVERT JUMPDEST PUSH0 PUSH2 0x3E6 DUP4 DUP4 CALLER PUSH2 0x943 JUMP JUMPDEST SWAP1 POP DUP4 PUSH1 0x1 PUSH1 0x1 PUSH1 0xA0 SHL SUB AND DUP2 PUSH1 0x1 PUSH1 0x1 PUSH1 0xA0 SHL SUB AND EQ PUSH2 0x434 JUMPI PUSH1 0x40 MLOAD PUSH4 0x64283D7B PUSH1 0xE0 SHL DUP2 MSTORE PUSH1 0x1 PUSH1 0x1 PUSH1 0xA0 SHL SUB DUP1 DUP7 AND PUSH1 0x4 DUP4 ADD MSTORE PUSH1 0x24 DUP3 ADD DUP5 SWAP1 MSTORE DUP3 AND PUSH1 0x44 DUP3 ADD MSTORE PUSH1 0x64 ADD PUSH2 0x3D1 JUMP JUMPDEST POP POP POP POP JUMP JUMPDEST PUSH2 0x454 DUP4 DUP4 DUP4 PUSH1 0x40 MLOAD DUP1 PUSH1 0x20 ADD PUSH1 0x40 MSTORE DUP1 PUSH0 DUP2 MSTORE POP PUSH2 0x7A7 JUMP JUMPDEST POP POP POP JUMP JUMPDEST PUSH1 0x60 PUSH1 0x7 DUP1 SLOAD PUSH2 0x2F5 SWAP1 PUSH2 0x1378 JUMP JUMPDEST CALLER PUSH2 0x473 PUSH1 0x1 PUSH2 0x519 JUMP JUMPDEST PUSH1 0x1 PUSH1 0x1 PUSH1 0xA0 SHL SUB AND EQ PUSH2 0x4C9 JUMPI PUSH1 0x40 MLOAD PUSH3 0x461BCD PUSH1 0xE5 SHL DUP2 MSTORE PUSH1 0x20 PUSH1 0x4 DUP3 ADD DUP2 SWAP1 MSTORE PUSH1 0x24 DUP3 ADD MSTORE PUSH32 0x4E6F206572657320656C206475656E6F2064656C207265706F7369746F72696F PUSH1 0x44 DUP3 ADD MSTORE PUSH1 0x64 ADD PUSH2 0x3D1 JUMP JUMPDEST PUSH1 0x8 SLOAD PUSH1 0x40 MLOAD PUSH32 0x467C526B6C041077D779B5AD5CC51BC5B90A7976356D77AA417C789403B6CF59 SWAP2 PUSH2 0x50C SWAP2 DUP7 SWAP2 DUP7 SWAP2 CALLER SWAP2 PUSH1 0x1 PUSH1 0x1 PUSH1 0xA0 SHL SUB AND SWAP1 DUP8 SWAP1 PUSH2 0x13B0 JUMP JUMPDEST PUSH1 0x40 MLOAD DUP1 SWAP2 SUB SWAP1 LOG1 POP POP POP JUMP JUMPDEST PUSH0 PUSH2 0x2E1 DUP3 PUSH2 0x8FE JUMP JUMPDEST PUSH0 PUSH1 0x1 PUSH1 0x1 PUSH1 0xA0 SHL SUB DUP3 AND PUSH2 0x54D JUMPI PUSH1 0x40 MLOAD PUSH4 0x22718AD9 PUSH1 0xE2 SHL DUP2 MSTORE PUSH0 PUSH1 0x4 DUP3 ADD MSTORE PUSH1 0x24 ADD PUSH2 0x3D1 JUMP JUMPDEST POP PUSH1 0x1 PUSH1 0x1 PUSH1 0xA0 SHL SUB AND PUSH0 SWAP1 DUP2 MSTORE PUSH1 0x3 PUSH1 0x20 MSTORE PUSH1 0x40 SWAP1 KECCAK256 SLOAD SWAP1 JUMP JUMPDEST PUSH1 0x60 PUSH1 0x1 DUP1 SLOAD PUSH2 0x2F5 SWAP1 PUSH2 0x1378 JUMP JUMPDEST PUSH1 0x9 SLOAD PUSH1 0x60 SWAP1 DUP2 SWAP1 DUP2 SWAP1 DUP1 PUSH8 0xFFFFFFFFFFFFFFFF DUP2 GT ISZERO PUSH2 0x59A JUMPI PUSH2 0x59A PUSH2 0x11F0 JUMP JUMPDEST PUSH1 0x40 MLOAD SWAP1 DUP1 DUP3 MSTORE DUP1 PUSH1 0x20 MUL PUSH1 0x20 ADD DUP3 ADD PUSH1 0x40 MSTORE DUP1 ISZERO PUSH2 0x5CD JUMPI DUP2 PUSH1 0x20 ADD JUMPDEST PUSH1 0x60 DUP2 MSTORE PUSH1 0x20 ADD SWAP1 PUSH1 0x1 SWAP1 SUB SWAP1 DUP2 PUSH2 0x5B8 JUMPI SWAP1 POP JUMPDEST POP SWAP4 POP DUP1 PUSH8 0xFFFFFFFFFFFFFFFF DUP2 GT ISZERO PUSH2 0x5E9 JUMPI PUSH2 0x5E9 PUSH2 0x11F0 JUMP JUMPDEST PUSH1 0x40 MLOAD SWAP1 DUP1 DUP3 MSTORE DUP1 PUSH1 0x20 MUL PUSH1 0x20 ADD DUP3 ADD PUSH1 0x40 MSTORE DUP1 ISZERO PUSH2 0x612 JUMPI DUP2 PUSH1 0x20 ADD PUSH1 0x20 DUP3 MUL DUP1 CALLDATASIZE DUP4 CALLDATACOPY ADD SWAP1 POP JUMPDEST POP SWAP3 POP DUP1 PUSH8 0xFFFFFFFFFFFFFFFF DUP2 GT ISZERO PUSH2 0x62E JUMPI PUSH2 0x62E PUSH2 0x11F0 JUMP JUMPDEST PUSH1 0x40 MLOAD SWAP1 DUP1 DUP3 MSTORE DUP1 PUSH1 0x20 MUL PUSH1 0x20 ADD DUP3 ADD PUSH1 0x40 MSTORE DUP1 ISZERO PUSH2 0x657 JUMPI DUP2 PUSH1 0x20 ADD PUSH1 0x20 DUP3 MUL DUP1 CALLDATASIZE DUP4 CALLDATACOPY ADD SWAP1 POP JUMPDEST POP SWAP2 POP PUSH0 JUMPDEST DUP2 DUP2 LT ISZERO PUSH2 0x795 JUMPI PUSH0 PUSH1 0x9 DUP3 DUP2 SLOAD DUP2 LT PUSH2 0x678 JUMPI PUSH2 0x678 PUSH2 0x13FB JUMP JUMPDEST SWAP1 PUSH0 MSTORE PUSH1 0x20 PUSH0 KECCAK256 SWAP1 PUSH1 0x3 MUL ADD SWAP1 POP DUP1 PUSH0 ADD DUP1 SLOAD PUSH2 0x694 SWAP1 PUSH2 0x1378 JUMP JUMPDEST DUP1 PUSH1 0x1F ADD PUSH1 0x20 DUP1 SWAP2 DIV MUL PUSH1 0x20 ADD PUSH1 0x40 MLOAD SWAP1 DUP2 ADD PUSH1 0x40 MSTORE DUP1 SWAP3 SWAP2 SWAP1 DUP2 DUP2 MSTORE PUSH1 0x20 ADD DUP3 DUP1 SLOAD PUSH2 0x6C0 SWAP1 PUSH2 0x1378 JUMP JUMPDEST DUP1 ISZERO PUSH2 0x70B JUMPI DUP1 PUSH1 0x1F LT PUSH2 0x6E2 JUMPI PUSH2 0x100 DUP1 DUP4 SLOAD DIV MUL DUP4 MSTORE SWAP2 PUSH1 0x20 ADD SWAP2 PUSH2 0x70B JUMP JUMPDEST DUP3 ADD SWAP2 SWAP1 PUSH0 MSTORE PUSH1 0x20 PUSH0 KECCAK256 SWAP1 JUMPDEST DUP2 SLOAD DUP2 MSTORE SWAP1 PUSH1 0x1 ADD SWAP1 PUSH1 0x20 ADD DUP1 DUP4 GT PUSH2 0x6EE JUMPI DUP3 SWAP1 SUB PUSH1 0x1F AND DUP3 ADD SWAP2 JUMPDEST POP POP POP POP POP DUP7 DUP4 DUP2 MLOAD DUP2 LT PUSH2 0x722 JUMPI PUSH2 0x722 PUSH2 0x13FB JUMP JUMPDEST PUSH1 0x20 MUL PUSH1 0x20 ADD ADD DUP2 SWAP1 MSTORE POP DUP1 PUSH1 0x1 ADD SLOAD DUP6 DUP4 DUP2 MLOAD DUP2 LT PUSH2 0x744 JUMPI PUSH2 0x744 PUSH2 0x13FB JUMP JUMPDEST PUSH1 0x20 SWAP1 DUP2 MUL SWAP2 SWAP1 SWAP2 ADD ADD MSTORE PUSH1 0x2 DUP2 ADD SLOAD DUP5 MLOAD PUSH1 0x1 PUSH1 0x1 PUSH1 0xA0 SHL SUB SWAP1 SWAP2 AND SWAP1 DUP6 SWAP1 DUP5 SWAP1 DUP2 LT PUSH2 0x774 JUMPI PUSH2 0x774 PUSH2 0x13FB JUMP JUMPDEST PUSH1 0x1 PUSH1 0x1 PUSH1 0xA0 SHL SUB SWAP1 SWAP3 AND PUSH1 0x20 SWAP3 DUP4 MUL SWAP2 SWAP1 SWAP2 ADD SWAP1 SWAP2 ADD MSTORE POP PUSH1 0x1 ADD PUSH2 0x65C JUMP JUMPDEST POP POP SWAP1 SWAP2 SWAP3 JUMP JUMPDEST PUSH2 0x3A8 CALLER DUP4 DUP4 PUSH2 0xA35 JUMP JUMPDEST PUSH2 0x7B2 DUP5 DUP5 DUP5 PUSH2 0x3AC JUMP JUMPDEST PUSH2 0x434 CALLER DUP6 DUP6 DUP6 DUP6 PUSH2 0xAD3 JUMP JUMPDEST PUSH1 0x40 DUP1 MLOAD PUSH1 0x60 DUP2 ADD DUP3 MSTORE DUP4 DUP2 MSTORE TIMESTAMP PUSH1 0x20 DUP3 ADD MSTORE PUSH1 0x1 PUSH1 0x1 PUSH1 0xA0 SHL SUB DUP4 AND SWAP2 DUP2 ADD SWAP2 SWAP1 SWAP2 MSTORE PUSH1 0x9 DUP1 SLOAD PUSH1 0x1 DUP2 ADD DUP3 SSTORE PUSH0 SWAP2 SWAP1 SWAP2 MSTORE DUP2 MLOAD DUP3 SWAP2 PUSH1 0x3 MUL PUSH32 0x6E1540171B6C0C960B71A7020D9F60077F6AF931A8BBF590DA0223DACF75C7AF ADD SWAP1 DUP2 SWAP1 PUSH2 0x828 SWAP1 DUP3 PUSH2 0x1453 JUMP JUMPDEST POP PUSH1 0x20 DUP3 ADD MLOAD PUSH1 0x1 DUP3 ADD SSTORE PUSH1 0x40 SWAP1 SWAP2 ADD MLOAD PUSH1 0x2 SWAP1 SWAP2 ADD DUP1 SLOAD PUSH1 0x1 PUSH1 0x1 PUSH1 0xA0 SHL SUB NOT AND PUSH1 0x1 PUSH1 0x1 PUSH1 0xA0 SHL SUB SWAP1 SWAP3 AND SWAP2 SWAP1 SWAP2 OR SWAP1 SSTORE POP POP POP JUMP JUMPDEST PUSH1 0x60 PUSH2 0x86B DUP3 PUSH2 0x8FE JUMP JUMPDEST POP PUSH0 PUSH2 0x881 PUSH1 0x40 DUP1 MLOAD PUSH1 0x20 DUP2 ADD SWAP1 SWAP2 MSTORE PUSH0 DUP2 MSTORE SWAP1 JUMP JUMPDEST SWAP1 POP PUSH0 DUP2 MLOAD GT PUSH2 0x89F JUMPI PUSH1 0x40 MLOAD DUP1 PUSH1 0x20 ADD PUSH1 0x40 MSTORE DUP1 PUSH0 DUP2 MSTORE POP PUSH2 0x8CA JUMP JUMPDEST DUP1 PUSH2 0x8A9 DUP5 PUSH2 0xBFB JUMP JUMPDEST PUSH1 0x40 MLOAD PUSH1 0x20 ADD PUSH2 0x8BA SWAP3 SWAP2 SWAP1 PUSH2 0x1525 JUMP JUMPDEST PUSH1 0x40 MLOAD PUSH1 0x20 DUP2 DUP4 SUB SUB DUP2 MSTORE SWAP1 PUSH1 0x40 MSTORE JUMPDEST SWAP4 SWAP3 POP POP POP JUMP JUMPDEST PUSH1 0x1 PUSH1 0x1 PUSH1 0xA0 SHL SUB SWAP2 DUP3 AND PUSH0 SWAP1 DUP2 MSTORE PUSH1 0x5 PUSH1 0x20 SWAP1 DUP2 MSTORE PUSH1 0x40 DUP1 DUP4 KECCAK256 SWAP4 SWAP1 SWAP5 AND DUP3 MSTORE SWAP2 SWAP1 SWAP2 MSTORE KECCAK256 SLOAD PUSH1 0xFF AND SWAP1 JUMP JUMPDEST PUSH0 DUP2 DUP2 MSTORE PUSH1 0x2 PUSH1 0x20 MSTORE PUSH1 0x40 DUP2 KECCAK256 SLOAD PUSH1 0x1 PUSH1 0x1 PUSH1 0xA0 SHL SUB AND DUP1 PUSH2 0x2E1 JUMPI PUSH1 0x40 MLOAD PUSH4 0x7E273289 PUSH1 0xE0 SHL DUP2 MSTORE PUSH1 0x4 DUP2 ADD DUP5 SWAP1 MSTORE PUSH1 0x24 ADD PUSH2 0x3D1 JUMP JUMPDEST PUSH2 0x454 DUP4 DUP4 DUP4 PUSH1 0x1 PUSH2 0xC8B JUMP JUMPDEST PUSH0 DUP3 DUP2 MSTORE PUSH1 0x2 PUSH1 0x20 MSTORE PUSH1 0x40 DUP2 KECCAK256 SLOAD PUSH1 0x1 PUSH1 0x1 PUSH1 0xA0 SHL SUB SWAP1 DUP2 AND SWAP1 DUP4 AND ISZERO PUSH2 0x96F JUMPI PUSH2 0x96F DUP2 DUP5 DUP7 PUSH2 0xD8F JUMP JUMPDEST PUSH1 0x1 PUSH1 0x1 PUSH1 0xA0 SHL SUB DUP2 AND ISZERO PUSH2 0x9A9 JUMPI PUSH2 0x98A PUSH0 DUP6 PUSH0 PUSH0 PUSH2 0xC8B JUMP JUMPDEST PUSH1 0x1 PUSH1 0x1 PUSH1 0xA0 SHL SUB DUP2 AND PUSH0 SWAP1 DUP2 MSTORE PUSH1 0x3 PUSH1 0x20 MSTORE PUSH1 0x40 SWAP1 KECCAK256 DUP1 SLOAD PUSH0 NOT ADD SWAP1 SSTORE JUMPDEST PUSH1 0x1 PUSH1 0x1 PUSH1 0xA0 SHL SUB DUP6 AND ISZERO PUSH2 0x9D7 JUMPI PUSH1 0x1 PUSH1 0x1 PUSH1 0xA0 SHL SUB DUP6 AND PUSH0 SWAP1 DUP2 MSTORE PUSH1 0x3 PUSH1 0x20 MSTORE PUSH1 0x40 SWAP1 KECCAK256 DUP1 SLOAD PUSH1 0x1 ADD SWAP1 SSTORE JUMPDEST PUSH0 DUP5 DUP2 MSTORE PUSH1 0x2 PUSH1 0x20 MSTORE PUSH1 0x40 DUP1 DUP3 KECCAK256 DUP1 SLOAD PUSH1 0x1 PUSH1 0x1 PUSH1 0xA0 SHL SUB NOT AND PUSH1 0x1 PUSH1 0x1 PUSH1 0xA0 SHL SUB DUP10 DUP2 AND SWAP2 DUP3 OR SWAP1 SWAP3 SSTORE SWAP2 MLOAD DUP8 SWAP4 SWAP2 DUP6 AND SWAP2 PUSH32 0xDDF252AD1BE2C89B69C2B068FC378DAA952BA7F163C4A11628F55A4DF523B3EF SWAP2 LOG4 SWAP5 SWAP4 POP POP POP POP JUMP JUMPDEST PUSH1 0x1 PUSH1 0x1 PUSH1 0xA0 SHL SUB DUP3 AND PUSH2 0xA67 JUMPI PUSH1 0x40 MLOAD PUSH4 0xB611743 PUSH1 0xE3 SHL DUP2 MSTORE PUSH1 0x1 PUSH1 0x1 PUSH1 0xA0 SHL SUB DUP4 AND PUSH1 0x4 DUP3 ADD MSTORE PUSH1 0x24 ADD PUSH2 0x3D1 JUMP JUMPDEST PUSH1 0x1 PUSH1 0x1 PUSH1 0xA0 SHL SUB DUP4 DUP2 AND PUSH0 DUP2 DUP2 MSTORE PUSH1 0x5 PUSH1 0x20 SWAP1 DUP2 MSTORE PUSH1 0x40 DUP1 DUP4 KECCAK256 SWAP5 DUP8 AND DUP1 DUP5 MSTORE SWAP5 DUP3 MSTORE SWAP2 DUP3 SWAP1 KECCAK256 DUP1 SLOAD PUSH1 0xFF NOT AND DUP7 ISZERO ISZERO SWAP1 DUP2 OR SWAP1 SWAP2 SSTORE SWAP2 MLOAD SWAP2 DUP3 MSTORE PUSH32 0x17307EAB39AB6107E8899845AD3D59BD9653F200F220920489CA2B5937696C31 SWAP2 ADD PUSH1 0x40 MLOAD DUP1 SWAP2 SUB SWAP1 LOG3 POP POP POP JUMP JUMPDEST PUSH1 0x1 PUSH1 0x1 PUSH1 0xA0 SHL SUB DUP4 AND EXTCODESIZE ISZERO PUSH2 0xBF4 JUMPI PUSH1 0x40 MLOAD PUSH4 0xA85BD01 PUSH1 0xE1 SHL DUP2 MSTORE PUSH1 0x1 PUSH1 0x1 PUSH1 0xA0 SHL SUB DUP5 AND SWAP1 PUSH4 0x150B7A02 SWAP1 PUSH2 0xB15 SWAP1 DUP9 SWAP1 DUP9 SWAP1 DUP8 SWAP1 DUP8 SWAP1 PUSH1 0x4 ADD PUSH2 0x1539 JUMP JUMPDEST PUSH1 0x20 PUSH1 0x40 MLOAD DUP1 DUP4 SUB DUP2 PUSH0 DUP8 GAS CALL SWAP3 POP POP POP DUP1 ISZERO PUSH2 0xB4F JUMPI POP PUSH1 0x40 DUP1 MLOAD PUSH1 0x1F RETURNDATASIZE SWAP1 DUP2 ADD PUSH1 0x1F NOT AND DUP3 ADD SWAP1 SWAP3 MSTORE PUSH2 0xB4C SWAP2 DUP2 ADD SWAP1 PUSH2 0x1575 JUMP JUMPDEST PUSH1 0x1 JUMPDEST PUSH2 0xBB6 JUMPI RETURNDATASIZE DUP1 DUP1 ISZERO PUSH2 0xB7C JUMPI PUSH1 0x40 MLOAD SWAP2 POP PUSH1 0x1F NOT PUSH1 0x3F RETURNDATASIZE ADD AND DUP3 ADD PUSH1 0x40 MSTORE RETURNDATASIZE DUP3 MSTORE RETURNDATASIZE PUSH0 PUSH1 0x20 DUP5 ADD RETURNDATACOPY PUSH2 0xB81 JUMP JUMPDEST PUSH1 0x60 SWAP2 POP JUMPDEST POP DUP1 MLOAD PUSH0 SUB PUSH2 0xBAE JUMPI PUSH1 0x40 MLOAD PUSH4 0x32505749 PUSH1 0xE1 SHL DUP2 MSTORE PUSH1 0x1 PUSH1 0x1 PUSH1 0xA0 SHL SUB DUP6 AND PUSH1 0x4 DUP3 ADD MSTORE PUSH1 0x24 ADD PUSH2 0x3D1 JUMP JUMPDEST DUP1 MLOAD PUSH1 0x20 DUP3 ADD REVERT JUMPDEST PUSH1 0x1 PUSH1 0x1 PUSH1 0xE0 SHL SUB NOT DUP2 AND PUSH4 0xA85BD01 PUSH1 0xE1 SHL EQ PUSH2 0xBF2 JUMPI PUSH1 0x40 MLOAD PUSH4 0x32505749 PUSH1 0xE1 SHL DUP2 MSTORE PUSH1 0x1 PUSH1 0x1 PUSH1 0xA0 SHL SUB DUP6 AND PUSH1 0x4 DUP3 ADD MSTORE PUSH1 0x24 ADD PUSH2 0x3D1 JUMP JUMPDEST POP JUMPDEST POP POP POP POP POP JUMP JUMPDEST PUSH1 0x60 PUSH0 PUSH2 0xC07 DUP4 PUSH2 0xDF3 JUMP JUMPDEST PUSH1 0x1 ADD SWAP1 POP PUSH0 DUP2 PUSH8 0xFFFFFFFFFFFFFFFF DUP2 GT ISZERO PUSH2 0xC26 JUMPI PUSH2 0xC26 PUSH2 0x11F0 JUMP JUMPDEST PUSH1 0x40 MLOAD SWAP1 DUP1 DUP3 MSTORE DUP1 PUSH1 0x1F ADD PUSH1 0x1F NOT AND PUSH1 0x20 ADD DUP3 ADD PUSH1 0x40 MSTORE DUP1 ISZERO PUSH2 0xC50 JUMPI PUSH1 0x20 DUP3 ADD DUP2 DUP1 CALLDATASIZE DUP4 CALLDATACOPY ADD SWAP1 POP JUMPDEST POP SWAP1 POP DUP2 DUP2 ADD PUSH1 0x20 ADD JUMPDEST PUSH0 NOT ADD PUSH16 0x181899199A1A9B1B9C1CB0B131B232B3 PUSH1 0x81 SHL PUSH1 0xA DUP7 MOD BYTE DUP2 MSTORE8 PUSH1 0xA DUP6 DIV SWAP5 POP DUP5 PUSH2 0xC5A JUMPI POP SWAP4 SWAP3 POP POP POP JUMP JUMPDEST DUP1 DUP1 PUSH2 0xC9F JUMPI POP PUSH1 0x1 PUSH1 0x1 PUSH1 0xA0 SHL SUB DUP3 AND ISZERO ISZERO JUMPDEST ISZERO PUSH2 0xD60 JUMPI PUSH0 PUSH2 0xCAE DUP5 PUSH2 0x8FE JUMP JUMPDEST SWAP1 POP PUSH1 0x1 PUSH1 0x1 PUSH1 0xA0 SHL SUB DUP4 AND ISZERO DUP1 ISZERO SWAP1 PUSH2 0xCDA JUMPI POP DUP3 PUSH1 0x1 PUSH1 0x1 PUSH1 0xA0 SHL SUB AND DUP2 PUSH1 0x1 PUSH1 0x1 PUSH1 0xA0 SHL SUB AND EQ ISZERO JUMPDEST DUP1 ISZERO PUSH2 0xCED JUMPI POP PUSH2 0xCEB DUP2 DUP5 PUSH2 0x8D1 JUMP JUMPDEST ISZERO JUMPDEST ISZERO PUSH2 0xD16 JUMPI PUSH1 0x40 MLOAD PUSH4 0xA9FBF51F PUSH1 0xE0 SHL DUP2 MSTORE PUSH1 0x1 PUSH1 0x1 PUSH1 0xA0 SHL SUB DUP5 AND PUSH1 0x4 DUP3 ADD MSTORE PUSH1 0x24 ADD PUSH2 0x3D1 JUMP JUMPDEST DUP2 ISZERO PUSH2 0xD5E JUMPI DUP4 DUP6 PUSH1 0x1 PUSH1 0x1 PUSH1 0xA0 SHL SUB AND DUP3 PUSH1 0x1 PUSH1 0x1 PUSH1 0xA0 SHL SUB AND PUSH32 0x8C5BE1E5EBEC7D5BD14F71427D1E84F3DD0314C0F7B2291E5B200AC8C7C3B925 PUSH1 0x40 MLOAD PUSH1 0x40 MLOAD DUP1 SWAP2 SUB SWAP1 LOG4 JUMPDEST POP JUMPDEST POP POP PUSH0 SWAP1 DUP2 MSTORE PUSH1 0x4 PUSH1 0x20 MSTORE PUSH1 0x40 SWAP1 KECCAK256 DUP1 SLOAD PUSH1 0x1 PUSH1 0x1 PUSH1 0xA0 SHL SUB NOT AND PUSH1 0x1 PUSH1 0x1 PUSH1 0xA0 SHL SUB SWAP3 SWAP1 SWAP3 AND SWAP2 SWAP1 SWAP2 OR SWAP1 SSTORE JUMP JUMPDEST PUSH2 0xD9A DUP4 DUP4 DUP4 PUSH2 0xECA JUMP JUMPDEST PUSH2 0x454 JUMPI PUSH1 0x1 PUSH1 0x1 PUSH1 0xA0 SHL SUB DUP4 AND PUSH2 0xDC8 JUMPI PUSH1 0x40 MLOAD PUSH4 0x7E273289 PUSH1 0xE0 SHL DUP2 MSTORE PUSH1 0x4 DUP2 ADD DUP3 SWAP1 MSTORE PUSH1 0x24 ADD PUSH2 0x3D1 JUMP JUMPDEST PUSH1 0x40 MLOAD PUSH4 0x177E802F PUSH1 0xE0 SHL DUP2 MSTORE PUSH1 0x1 PUSH1 0x1 PUSH1 0xA0 SHL SUB DUP4 AND PUSH1 0x4 DUP3 ADD MSTORE PUSH1 0x24 DUP2 ADD DUP3 SWAP1 MSTORE PUSH1 0x44 ADD PUSH2 0x3D1 JUMP JUMPDEST PUSH0 DUP1 PUSH19 0x184F03E93FF9F4DAA797ED6E38ED64BF6A1F01 PUSH1 0x40 SHL DUP4 LT PUSH2 0xE31 JUMPI PUSH19 0x184F03E93FF9F4DAA797ED6E38ED64BF6A1F01 PUSH1 0x40 SHL DUP4 DIV SWAP3 POP PUSH1 0x40 ADD JUMPDEST PUSH14 0x4EE2D6D415B85ACEF8100000000 DUP4 LT PUSH2 0xE5D JUMPI PUSH14 0x4EE2D6D415B85ACEF8100000000 DUP4 DIV SWAP3 POP PUSH1 0x20 ADD JUMPDEST PUSH7 0x2386F26FC10000 DUP4 LT PUSH2 0xE7B JUMPI PUSH7 0x2386F26FC10000 DUP4 DIV SWAP3 POP PUSH1 0x10 ADD JUMPDEST PUSH4 0x5F5E100 DUP4 LT PUSH2 0xE93 JUMPI PUSH4 0x5F5E100 DUP4 DIV SWAP3 POP PUSH1 0x8 ADD JUMPDEST PUSH2 0x2710 DUP4 LT PUSH2 0xEA7 JUMPI PUSH2 0x2710 DUP4 DIV SWAP3 POP PUSH1 0x4 ADD JUMPDEST PUSH1 0x64 DUP4 LT PUSH2 0xEB9 JUMPI PUSH1 0x64 DUP4 DIV SWAP3 POP PUSH1 0x2 ADD JUMPDEST PUSH1 0xA DUP4 LT PUSH2 0x2E1 JUMPI PUSH1 0x1 ADD SWAP3 SWAP2 POP POP JUMP JUMPDEST PUSH0 PUSH1 0x1 PUSH1 0x1 PUSH1 0xA0 SHL SUB DUP4 AND ISZERO DUP1 ISZERO SWAP1 PUSH2 0xF26 JUMPI POP DUP3 PUSH1 0x1 PUSH1 0x1 PUSH1 0xA0 SHL SUB AND DUP5 PUSH1 0x1 PUSH1 0x1 PUSH1 0xA0 SHL SUB AND EQ DUP1 PUSH2 0xF03 JUMPI POP PUSH2 0xF03 DUP5 DUP5 PUSH2 0x8D1 JUMP JUMPDEST DUP1 PUSH2 0xF26 JUMPI POP PUSH0 DUP3 DUP2 MSTORE PUSH1 0x4 PUSH1 0x20 MSTORE PUSH1 0x40 SWAP1 KECCAK256 SLOAD PUSH1 0x1 PUSH1 0x1 PUSH1 0xA0 SHL SUB DUP5 DUP2 AND SWAP2 AND EQ JUMPDEST SWAP5 SWAP4 POP POP POP POP JUMP JUMPDEST PUSH1 0x1 PUSH1 0x1 PUSH1 0xE0 SHL SUB NOT DUP2 AND DUP2 EQ PUSH2 0xF43 JUMPI PUSH0 PUSH0 REVERT JUMPDEST POP JUMP JUMPDEST PUSH0 PUSH1 0x20 DUP3 DUP5 SUB SLT ISZERO PUSH2 0xF56 JUMPI PUSH0 PUSH0 REVERT JUMPDEST DUP2 CALLDATALOAD PUSH2 0x8CA DUP2 PUSH2 0xF2E JUMP JUMPDEST PUSH0 DUP2 MLOAD DUP1 DUP5 MSTORE DUP1 PUSH1 0x20 DUP5 ADD PUSH1 0x20 DUP7 ADD MCOPY PUSH0 PUSH1 0x20 DUP3 DUP7 ADD ADD MSTORE PUSH1 0x20 PUSH1 0x1F NOT PUSH1 0x1F DUP4 ADD AND DUP6 ADD ADD SWAP2 POP POP SWAP3 SWAP2 POP POP JUMP JUMPDEST PUSH1 0x20 DUP2 MSTORE PUSH0 PUSH2 0x8CA PUSH1 0x20 DUP4 ADD DUP5 PUSH2 0xF61 JUMP JUMPDEST PUSH0 PUSH1 0x20 DUP3 DUP5 SUB SLT ISZERO PUSH2 0xFB1 JUMPI PUSH0 PUSH0 REVERT JUMPDEST POP CALLDATALOAD SWAP2 SWAP1 POP JUMP JUMPDEST DUP1 CALLDATALOAD PUSH1 0x1 PUSH1 0x1 PUSH1 0xA0 SHL SUB DUP2 AND DUP2 EQ PUSH2 0xFCE JUMPI PUSH0 PUSH0 REVERT JUMPDEST SWAP2 SWAP1 POP JUMP JUMPDEST PUSH0 PUSH0 PUSH1 0x40 DUP4 DUP6 SUB SLT ISZERO PUSH2 0xFE4 JUMPI PUSH0 PUSH0 REVERT JUMPDEST PUSH2 0xFED DUP4 PUSH2 0xFB8 JUMP JUMPDEST SWAP5 PUSH1 0x20 SWAP4 SWAP1 SWAP4 ADD CALLDATALOAD SWAP4 POP POP POP JUMP JUMPDEST PUSH0 PUSH0 PUSH0 PUSH1 0x60 DUP5 DUP7 SUB SLT ISZERO PUSH2 0x100D JUMPI PUSH0 PUSH0 REVERT JUMPDEST PUSH2 0x1016 DUP5 PUSH2 0xFB8 JUMP JUMPDEST SWAP3 POP PUSH2 0x1024 PUSH1 0x20 DUP6 ADD PUSH2 0xFB8 JUMP JUMPDEST SWAP3 SWAP6 SWAP3 SWAP5 POP POP POP PUSH1 0x40 SWAP2 SWAP1 SWAP2 ADD CALLDATALOAD SWAP1 JUMP JUMPDEST PUSH0 PUSH0 PUSH0 PUSH1 0x40 DUP5 DUP7 SUB SLT ISZERO PUSH2 0x1047 JUMPI PUSH0 PUSH0 REVERT JUMPDEST DUP4 CALLDATALOAD PUSH8 0xFFFFFFFFFFFFFFFF DUP2 GT ISZERO PUSH2 0x105D JUMPI PUSH0 PUSH0 REVERT JUMPDEST DUP5 ADD PUSH1 0x1F DUP2 ADD DUP7 SGT PUSH2 0x106D JUMPI PUSH0 PUSH0 REVERT JUMPDEST DUP1 CALLDATALOAD PUSH8 0xFFFFFFFFFFFFFFFF DUP2 GT ISZERO PUSH2 0x1083 JUMPI PUSH0 PUSH0 REVERT JUMPDEST DUP7 PUSH1 0x20 DUP3 DUP5 ADD ADD GT ISZERO PUSH2 0x1094 JUMPI PUSH0 PUSH0 REVERT JUMPDEST PUSH1 0x20 SWAP2 DUP3 ADD SWAP8 SWAP1 SWAP7 POP SWAP5 ADD CALLDATALOAD SWAP4 SWAP3 POP POP POP JUMP JUMPDEST PUSH0 PUSH1 0x20 DUP3 DUP5 SUB SLT ISZERO PUSH2 0x10B7 JUMPI PUSH0 PUSH0 REVERT JUMPDEST PUSH2 0x8CA DUP3 PUSH2 0xFB8 JUMP JUMPDEST PUSH0 DUP2 MLOAD DUP1 DUP5 MSTORE PUSH1 0x20 DUP5 ADD SWAP4 POP PUSH1 0x20 DUP4 ADD PUSH0 JUMPDEST DUP3 DUP2 LT ISZERO PUSH2 0x10F9 JUMPI DUP2 MLOAD PUSH1 0x1 PUSH1 0x1 PUSH1 0xA0 SHL SUB AND DUP7 MSTORE PUSH1 0x20 SWAP6 DUP7 ADD SWAP6 SWAP1 SWAP2 ADD SWAP1 PUSH1 0x1 ADD PUSH2 0x10D2 JUMP JUMPDEST POP SWAP4 SWAP5 SWAP4 POP POP POP POP JUMP JUMPDEST PUSH0 PUSH1 0x60 DUP3 ADD PUSH1 0x60 DUP4 MSTORE DUP1 DUP7 MLOAD DUP1 DUP4 MSTORE PUSH1 0x80 DUP6 ADD SWAP2 POP PUSH1 0x80 DUP2 PUSH1 0x5 SHL DUP7 ADD ADD SWAP3 POP PUSH1 0x20 DUP9 ADD PUSH0 JUMPDEST DUP3 DUP2 LT ISZERO PUSH2 0x115A JUMPI PUSH1 0x7F NOT DUP8 DUP7 SUB ADD DUP5 MSTORE PUSH2 0x1145 DUP6 DUP4 MLOAD PUSH2 0xF61 JUMP JUMPDEST SWAP5 POP PUSH1 0x20 SWAP4 DUP5 ADD SWAP4 SWAP2 SWAP1 SWAP2 ADD SWAP1 PUSH1 0x1 ADD PUSH2 0x1129 JUMP JUMPDEST POP POP POP POP DUP3 DUP2 SUB PUSH1 0x20 DUP5 ADD MSTORE DUP1 DUP6 MLOAD DUP1 DUP4 MSTORE PUSH1 0x20 DUP4 ADD SWAP2 POP PUSH1 0x20 DUP8 ADD SWAP3 POP PUSH0 JUMPDEST DUP2 DUP2 LT ISZERO PUSH2 0x1198 JUMPI DUP4 MLOAD DUP4 MSTORE PUSH1 0x20 SWAP4 DUP5 ADD SWAP4 SWAP1 SWAP3 ADD SWAP2 PUSH1 0x1 ADD PUSH2 0x117A JUMP JUMPDEST POP POP DUP4 DUP2 SUB PUSH1 0x40 DUP6 ADD MSTORE PUSH2 0x11AC DUP2 DUP7 PUSH2 0x10C0 JUMP JUMPDEST SWAP8 SWAP7 POP POP POP POP POP POP POP JUMP JUMPDEST PUSH0 PUSH0 PUSH1 0x40 DUP4 DUP6 SUB SLT ISZERO PUSH2 0x11C8 JUMPI PUSH0 PUSH0 REVERT JUMPDEST PUSH2 0x11D1 DUP4 PUSH2 0xFB8 JUMP JUMPDEST SWAP2 POP PUSH1 0x20 DUP4 ADD CALLDATALOAD DUP1 ISZERO ISZERO DUP2 EQ PUSH2 0x11E5 JUMPI PUSH0 PUSH0 REVERT JUMPDEST DUP1 SWAP2 POP POP SWAP3 POP SWAP3 SWAP1 POP JUMP JUMPDEST PUSH4 0x4E487B71 PUSH1 0xE0 SHL PUSH0 MSTORE PUSH1 0x41 PUSH1 0x4 MSTORE PUSH1 0x24 PUSH0 REVERT JUMPDEST PUSH0 PUSH0 PUSH8 0xFFFFFFFFFFFFFFFF DUP5 GT ISZERO PUSH2 0x121E JUMPI PUSH2 0x121E PUSH2 0x11F0 JUMP JUMPDEST POP PUSH1 0x40 MLOAD PUSH1 0x1F NOT PUSH1 0x1F DUP6 ADD DUP2 AND PUSH1 0x3F ADD AND DUP2 ADD DUP2 DUP2 LT PUSH8 0xFFFFFFFFFFFFFFFF DUP3 GT OR ISZERO PUSH2 0x124D JUMPI PUSH2 0x124D PUSH2 0x11F0 JUMP JUMPDEST PUSH1 0x40 MSTORE DUP4 DUP2 MSTORE SWAP1 POP DUP1 DUP3 DUP5 ADD DUP6 LT ISZERO PUSH2 0x1264 JUMPI PUSH0 PUSH0 REVERT JUMPDEST DUP4 DUP4 PUSH1 0x20 DUP4 ADD CALLDATACOPY PUSH0 PUSH1 0x20 DUP6 DUP4 ADD ADD MSTORE POP SWAP4 SWAP3 POP POP POP JUMP JUMPDEST PUSH0 PUSH0 PUSH0 PUSH0 PUSH1 0x80 DUP6 DUP8 SUB SLT ISZERO PUSH2 0x128E JUMPI PUSH0 PUSH0 REVERT JUMPDEST PUSH2 0x1297 DUP6 PUSH2 0xFB8 JUMP JUMPDEST SWAP4 POP PUSH2 0x12A5 PUSH1 0x20 DUP7 ADD PUSH2 0xFB8 JUMP JUMPDEST SWAP3 POP PUSH1 0x40 DUP6 ADD CALLDATALOAD SWAP2 POP PUSH1 0x60 DUP6 ADD CALLDATALOAD PUSH8 0xFFFFFFFFFFFFFFFF DUP2 GT ISZERO PUSH2 0x12C7 JUMPI PUSH0 PUSH0 REVERT JUMPDEST DUP6 ADD PUSH1 0x1F DUP2 ADD DUP8 SGT PUSH2 0x12D7 JUMPI PUSH0 PUSH0 REVERT JUMPDEST PUSH2 0x12E6 DUP8 DUP3 CALLDATALOAD PUSH1 0x20 DUP5 ADD PUSH2 0x1204 JUMP JUMPDEST SWAP2 POP POP SWAP3 SWAP6 SWAP2 SWAP5 POP SWAP3 POP JUMP JUMPDEST PUSH0 PUSH0 PUSH1 0x40 DUP4 DUP6 SUB SLT ISZERO PUSH2 0x1303 JUMPI PUSH0 PUSH0 REVERT JUMPDEST DUP3 CALLDATALOAD PUSH8 0xFFFFFFFFFFFFFFFF DUP2 GT ISZERO PUSH2 0x1319 JUMPI PUSH0 PUSH0 REVERT JUMPDEST DUP4 ADD PUSH1 0x1F DUP2 ADD DUP6 SGT PUSH2 0x1329 JUMPI PUSH0 PUSH0 REVERT JUMPDEST PUSH2 0x1338 DUP6 DUP3 CALLDATALOAD PUSH1 0x20 DUP5 ADD PUSH2 0x1204 JUMP JUMPDEST SWAP3 POP POP PUSH2 0x1347 PUSH1 0x20 DUP5 ADD PUSH2 0xFB8 JUMP JUMPDEST SWAP1 POP SWAP3 POP SWAP3 SWAP1 POP JUMP JUMPDEST PUSH0 PUSH0 PUSH1 0x40 DUP4 DUP6 SUB SLT ISZERO PUSH2 0x1361 JUMPI PUSH0 PUSH0 REVERT JUMPDEST PUSH2 0x136A DUP4 PUSH2 0xFB8 JUMP JUMPDEST SWAP2 POP PUSH2 0x1347 PUSH1 0x20 DUP5 ADD PUSH2 0xFB8 JUMP JUMPDEST PUSH1 0x1 DUP2 DUP2 SHR SWAP1 DUP3 AND DUP1 PUSH2 0x138C JUMPI PUSH1 0x7F DUP3 AND SWAP2 POP JUMPDEST PUSH1 0x20 DUP3 LT DUP2 SUB PUSH2 0x13AA JUMPI PUSH4 0x4E487B71 PUSH1 0xE0 SHL PUSH0 MSTORE PUSH1 0x22 PUSH1 0x4 MSTORE PUSH1 0x24 PUSH0 REVERT JUMPDEST POP SWAP2 SWAP1 POP JUMP JUMPDEST PUSH1 0x80 DUP2 MSTORE DUP5 PUSH1 0x80 DUP3 ADD MSTORE DUP5 DUP7 PUSH1 0xA0 DUP4 ADD CALLDATACOPY PUSH0 PUSH1 0xA0 DUP7 DUP4 ADD DUP2 ADD SWAP2 SWAP1 SWAP2 MSTORE PUSH1 0x1 PUSH1 0x1 PUSH1 0xA0 SHL SUB SWAP5 DUP6 AND PUSH1 0x20 DUP4 ADD MSTORE SWAP3 SWAP1 SWAP4 AND PUSH1 0x40 DUP5 ADD MSTORE PUSH1 0x60 DUP4 ADD MSTORE PUSH1 0x1F SWAP1 SWAP3 ADD PUSH1 0x1F NOT AND ADD ADD SWAP2 SWAP1 POP JUMP JUMPDEST PUSH4 0x4E487B71 PUSH1 0xE0 SHL PUSH0 MSTORE PUSH1 0x32 PUSH1 0x4 MSTORE PUSH1 0x24 PUSH0 REVERT JUMPDEST PUSH1 0x1F DUP3 GT ISZERO PUSH2 0x454 JUMPI DUP1 PUSH0 MSTORE PUSH1 0x20 PUSH0 KECCAK256 PUSH1 0x1F DUP5 ADD PUSH1 0x5 SHR DUP2 ADD PUSH1 0x20 DUP6 LT ISZERO PUSH2 0x1434 JUMPI POP DUP1 JUMPDEST PUSH1 0x1F DUP5 ADD PUSH1 0x5 SHR DUP3 ADD SWAP2 POP JUMPDEST DUP2 DUP2 LT ISZERO PUSH2 0xBF4 JUMPI PUSH0 DUP2 SSTORE PUSH1 0x1 ADD PUSH2 0x1440 JUMP JUMPDEST DUP2 MLOAD PUSH8 0xFFFFFFFFFFFFFFFF DUP2 GT ISZERO PUSH2 0x146D JUMPI PUSH2 0x146D PUSH2 0x11F0 JUMP JUMPDEST PUSH2 0x1481 DUP2 PUSH2 0x147B DUP5 SLOAD PUSH2 0x1378 JUMP JUMPDEST DUP5 PUSH2 0x140F JUMP JUMPDEST PUSH1 0x20 PUSH1 0x1F DUP3 GT PUSH1 0x1 DUP2 EQ PUSH2 0x14B3 JUMPI PUSH0 DUP4 ISZERO PUSH2 0x149C JUMPI POP DUP5 DUP3 ADD MLOAD JUMPDEST PUSH0 NOT PUSH1 0x3 DUP6 SWAP1 SHL SHR NOT AND PUSH1 0x1 DUP5 SWAP1 SHL OR DUP5 SSTORE PUSH2 0xBF4 JUMP JUMPDEST PUSH0 DUP5 DUP2 MSTORE PUSH1 0x20 DUP2 KECCAK256 PUSH1 0x1F NOT DUP6 AND SWAP2 JUMPDEST DUP3 DUP2 LT ISZERO PUSH2 0x14E2 JUMPI DUP8 DUP6 ADD MLOAD DUP3 SSTORE PUSH1 0x20 SWAP5 DUP6 ADD SWAP5 PUSH1 0x1 SWAP1 SWAP3 ADD SWAP2 ADD PUSH2 0x14C2 JUMP JUMPDEST POP DUP5 DUP3 LT ISZERO PUSH2 0x14FF JUMPI DUP7 DUP5 ADD MLOAD PUSH0 NOT PUSH1 0x3 DUP8 SWAP1 SHL PUSH1 0xF8 AND SHR NOT AND DUP2 SSTORE JUMPDEST POP POP POP POP PUSH1 0x1 SWAP1 DUP2 SHL ADD SWAP1 SSTORE POP JUMP JUMPDEST PUSH0 DUP2 MLOAD DUP1 PUSH1 0x20 DUP5 ADD DUP6 MCOPY PUSH0 SWAP4 ADD SWAP3 DUP4 MSTORE POP SWAP1 SWAP2 SWAP1 POP JUMP JUMPDEST PUSH0 PUSH2 0xF26 PUSH2 0x1533 DUP4 DUP7 PUSH2 0x150E JUMP JUMPDEST DUP5 PUSH2 0x150E JUMP JUMPDEST PUSH1 0x1 PUSH1 0x1 PUSH1 0xA0 SHL SUB DUP6 DUP2 AND DUP3 MSTORE DUP5 AND PUSH1 0x20 DUP3 ADD MSTORE PUSH1 0x40 DUP2 ADD DUP4 SWAP1 MSTORE PUSH1 0x80 PUSH1 0x60 DUP3 ADD DUP2 SWAP1 MSTORE PUSH0 SWAP1 PUSH2 0x156B SWAP1 DUP4 ADD DUP5 PUSH2 0xF61 JUMP JUMPDEST SWAP7 SWAP6 POP POP POP POP POP POP JUMP JUMPDEST PUSH0 PUSH1 0x20 DUP3 DUP5 SUB SLT ISZERO PUSH2 0x1585 JUMPI PUSH0 PUSH0 REVERT JUMPDEST DUP2 MLOAD PUSH2 0x8CA DUP2 PUSH2 0xF2E JUMP INVALID LOG2 PUSH5 0x6970667358 0x22 SLT KECCAK256 DUP16 SWAP6 0xB6 EXTCODECOPY PUSH32 0x2929D615100B7A7D6F86941ECEFF7D50FF1371A96FA751CDF11EED64736F6C63 NUMBER STOP ADDMOD 0x1E STOP CALLER "
		},
		"gasEstimates": {
			"creation": {
				"codeDepositCost": "1114800",
				"executionCost": "infinite",
				"totalCost": "infinite"
			},
			"external": {
				"addCommit(string,address)": "infinite",
				"approve(address,uint256)": "31530",
				"approveChange(string,uint256)": "infinite",
				"balanceOf(address)": "2608",
				"getAllCommits()": "infinite",
				"getApproved(uint256)": "infinite",
				"getRepoFolderCID()": "infinite",
				"getRepoOwner()": "2418",
				"isApprovedForAll(address,address)": "infinite",
				"name()": "infinite",
				"ownerOf(uint256)": "infinite",
				"safeTransferFrom(address,address,uint256)": "infinite",
				"safeTransferFrom(address,address,uint256,bytes)": "infinite",
				"setApprovalForAll(address,bool)": "26744",
				"supportsInterface(bytes4)": "531",
				"symbol()": "infinite",
				"tokenURI(uint256)": "infinite",
				"transferFrom(address,address,uint256)": "infinite"
			}
		},
		"methodIdentifiers": {
			"addCommit(string,address)": "ba333d0b",
			"approve(address,uint256)": "095ea7b3",
			"approveChange(string,uint256)": "50d6c81f",
			"balanceOf(address)": "70a08231",
			"getAllCommits()": "a17027e1",
			"getApproved(uint256)": "081812fc",
			"getRepoFolderCID()": "50b7b521",
			"getRepoOwner()": "d4493e8d",
			"isApprovedForAll(address,address)": "e985e9c5",
			"name()": "06fdde03",
			"ownerOf(uint256)": "6352211e",
			"safeTransferFrom(address,address,uint256)": "42842e0e",
			"safeTransferFrom(address,address,uint256,bytes)": "b88d4fde",
			"setApprovalForAll(address,bool)": "a22cb465",
			"supportsInterface(bytes4)": "01ffc9a7",
			"symbol()": "95d89b41",
			"tokenURI(uint256)": "c87b56dd",
			"transferFrom(address,address,uint256)": "23b872dd"
		}
	},
	"abi": [
		{
			"inputs": [
				{
					"internalType": "string",
					"name": "_repoName",
					"type": "string"
				},
				{
					"internalType": "string",
					"name": "_repoCID",
					"type": "string"
				},
				{
					"internalType": "address",
					"name": "_creator",
					"type": "address"
				}
			],
			"stateMutability": "nonpayable",
			"type": "constructor"
		},
		{
			"inputs": [
				{
					"internalType": "address",
					"name": "sender",
					"type": "address"
				},
				{
					"internalType": "uint256",
					"name": "tokenId",
					"type": "uint256"
				},
				{
					"internalType": "address",
					"name": "owner",
					"type": "address"
				}
			],
			"name": "ERC721IncorrectOwner",
			"type": "error"
		},
		{
			"inputs": [
				{
					"internalType": "address",
					"name": "operator",
					"type": "address"
				},
				{
					"internalType": "uint256",
					"name": "tokenId",
					"type": "uint256"
				}
			],
			"name": "ERC721InsufficientApproval",
			"type": "error"
		},
		{
			"inputs": [
				{
					"internalType": "address",
					"name": "approver",
					"type": "address"
				}
			],
			"name": "ERC721InvalidApprover",
			"type": "error"
		},
		{
			"inputs": [
				{
					"internalType": "address",
					"name": "operator",
					"type": "address"
				}
			],
			"name": "ERC721InvalidOperator",
			"type": "error"
		},
		{
			"inputs": [
				{
					"internalType": "address",
					"name": "owner",
					"type": "address"
				}
			],
			"name": "ERC721InvalidOwner",
			"type": "error"
		},
		{
			"inputs": [
				{
					"internalType": "address",
					"name": "receiver",
					"type": "address"
				}
			],
			"name": "ERC721InvalidReceiver",
			"type": "error"
		},
		{
			"inputs": [
				{
					"internalType": "address",
					"name": "sender",
					"type": "address"
				}
			],
			"name": "ERC721InvalidSender",
			"type": "error"
		},
		{
			"inputs": [
				{
					"internalType": "uint256",
					"name": "tokenId",
					"type": "uint256"
				}
			],
			"name": "ERC721NonexistentToken",
			"type": "error"
		},
		{
			"anonymous": false,
			"inputs": [
				{
					"indexed": true,
					"internalType": "address",
					"name": "owner",
					"type": "address"
				},
				{
					"indexed": true,
					"internalType": "address",
					"name": "approved",
					"type": "address"
				},
				{
					"indexed": true,
					"internalType": "uint256",
					"name": "tokenId",
					"type": "uint256"
				}
			],
			"name": "Approval",
			"type": "event"
		},
		{
			"anonymous": false,
			"inputs": [
				{
					"indexed": true,
					"internalType": "address",
					"name": "owner",
					"type": "address"
				},
				{
					"indexed": true,
					"internalType": "address",
					"name": "operator",
					"type": "address"
				},
				{
					"indexed": false,
					"internalType": "bool",
					"name": "approved",
					"type": "bool"
				}
			],
			"name": "ApprovalForAll",
			"type": "event"
		},
		{
			"anonymous": false,
			"inputs": [
				{
					"indexed": false,
					"internalType": "string",
					"name": "changeHash",
					"type": "string"
				},
				{
					"indexed": false,
					"internalType": "address",
					"name": "contributor",
					"type": "address"
				},
				{
					"indexed": false,
					"internalType": "address",
					"name": "approvedBy",
					"type": "address"
				},
				{
					"indexed": false,
					"internalType": "uint256",
					"name": "rewardAmount",
					"type": "uint256"
				}
			],
			"name": "ChangeApproved",
			"type": "event"
		},
		{
			"anonymous": false,
			"inputs": [
				{
					"indexed": true,
					"internalType": "address",
					"name": "from",
					"type": "address"
				},
				{
					"indexed": true,
					"internalType": "address",
					"name": "to",
					"type": "address"
				},
				{
					"indexed": true,
					"internalType": "uint256",
					"name": "tokenId",
					"type": "uint256"
				}
			],
			"name": "Transfer",
			"type": "event"
		},
		{
			"inputs": [
				{
					"internalType": "string",
					"name": "_commitMsg",
					"type": "string"
				},
				{
					"internalType": "address",
					"name": "_committer",
					"type": "address"
				}
			],
			"name": "addCommit",
			"outputs": [],
			"stateMutability": "nonpayable",
			"type": "function"
		},
		{
			"inputs": [
				{
					"internalType": "address",
					"name": "to",
					"type": "address"
				},
				{
					"internalType": "uint256",
					"name": "tokenId",
					"type": "uint256"
				}
			],
			"name": "approve",
			"outputs": [],
			"stateMutability": "nonpayable",
			"type": "function"
		},
		{
			"inputs": [
				{
					"internalType": "string",
					"name": "changeHash",
					"type": "string"
				},
				{
					"internalType": "uint256",
					"name": "rewardAmount",
					"type": "uint256"
				}
			],
			"name": "approveChange",
			"outputs": [],
			"stateMutability": "nonpayable",
			"type": "function"
		},
		{
			"inputs": [
				{
					"internalType": "address",
					"name": "owner",
					"type": "address"
				}
			],
			"name": "balanceOf",
			"outputs": [
				{
					"internalType": "uint256",
					"name": "",
					"type": "uint256"
				}
			],
			"stateMutability": "view",
			"type": "function"
		},
		{
			"inputs": [],
			"name": "getAllCommits",
			"outputs": [
				{
					"internalType": "string[]",
					"name": "messages",
					"type": "string[]"
				},
				{
					"internalType": "uint256[]",
					"name": "timestamps",
					"type": "uint256[]"
				},
				{
					"internalType": "address[]",
					"name": "committers",
					"type": "address[]"
				}
			],
			"stateMutability": "view",
			"type": "function"
		},
		{
			"inputs": [
				{
					"internalType": "uint256",
					"name": "tokenId",
					"type": "uint256"
				}
			],
			"name": "getApproved",
			"outputs": [
				{
					"internalType": "address",
					"name": "",
					"type": "address"
				}
			],
			"stateMutability": "view",
			"type": "function"
		},
		{
			"inputs": [],
			"name": "getRepoFolderCID",
			"outputs": [
				{
					"internalType": "string",
					"name": "",
					"type": "string"
				}
			],
			"stateMutability": "view",
			"type": "function"
		},
		{
			"inputs": [],
			"name": "getRepoOwner",
			"outputs": [
				{
					"internalType": "address",
					"name": "",
					"type": "address"
				}
			],
			"stateMutability": "view",
			"type": "function"
		},
		{
			"inputs": [
				{
					"internalType": "address",
					"name": "owner",
					"type": "address"
				},
				{
					"internalType": "address",
					"name": "operator",
					"type": "address"
				}
			],
			"name": "isApprovedForAll",
			"outputs": [
				{
					"internalType": "bool",
					"name": "",
					"type": "bool"
				}
			],
			"stateMutability": "view",
			"type": "function"
		},
		{
			"inputs": [],
			"name": "name",
			"outputs": [
				{
					"internalType": "string",
					"name": "",
					"type": "string"
				}
			],
			"stateMutability": "view",
			"type": "function"
		},
		{
			"inputs": [
				{
					"internalType": "uint256",
					"name": "tokenId",
					"type": "uint256"
				}
			],
			"name": "ownerOf",
			"outputs": [
				{
					"internalType": "address",
					"name": "",
					"type": "address"
				}
			],
			"stateMutability": "view",
			"type": "function"
		},
		{
			"inputs": [
				{
					"internalType": "address",
					"name": "from",
					"type": "address"
				},
				{
					"internalType": "address",
					"name": "to",
					"type": "address"
				},
				{
					"internalType": "uint256",
					"name": "tokenId",
					"type": "uint256"
				}
			],
			"name": "safeTransferFrom",
			"outputs": [],
			"stateMutability": "nonpayable",
			"type": "function"
		},
		{
			"inputs": [
				{
					"internalType": "address",
					"name": "from",
					"type": "address"
				},
				{
					"internalType": "address",
					"name": "to",
					"type": "address"
				},
				{
					"internalType": "uint256",
					"name": "tokenId",
					"type": "uint256"
				},
				{
					"internalType": "bytes",
					"name": "data",
					"type": "bytes"
				}
			],
			"name": "safeTransferFrom",
			"outputs": [],
			"stateMutability": "nonpayable",
			"type": "function"
		},
		{
			"inputs": [
				{
					"internalType": "address",
					"name": "operator",
					"type": "address"
				},
				{
					"internalType": "bool",
					"name": "approved",
					"type": "bool"
				}
			],
			"name": "setApprovalForAll",
			"outputs": [],
			"stateMutability": "nonpayable",
			"type": "function"
		},
		{
			"inputs": [
				{
					"internalType": "bytes4",
					"name": "interfaceId",
					"type": "bytes4"
				}
			],
			"name": "supportsInterface",
			"outputs": [
				{
					"internalType": "bool",
					"name": "",
					"type": "bool"
				}
			],
			"stateMutability": "view",
			"type": "function"
		},
		{
			"inputs": [],
			"name": "symbol",
			"outputs": [
				{
					"internalType": "string",
					"name": "",
					"type": "string"
				}
			],
			"stateMutability": "view",
			"type": "function"
		},
		{
			"inputs": [
				{
					"internalType": "uint256",
					"name": "tokenId",
					"type": "uint256"
				}
			],
			"name": "tokenURI",
			"outputs": [
				{
					"internalType": "string",
					"name": "",
					"type": "string"
				}
			],
			"stateMutability": "view",
			"type": "function"
		},
		{
			"inputs": [
				{
					"internalType": "address",
					"name": "from",
					"type": "address"
				},
				{
					"internalType": "address",
					"name": "to",
					"type": "address"
				},
				{
					"internalType": "uint256",
					"name": "tokenId",
					"type": "uint256"
				}
			],
			"name": "transferFrom",
			"outputs": [],
			"stateMutability": "nonpayable",
			"type": "function"
		}
	]
}